{
  "_format": "hh-sol-artifact-1",
  "contractName": "TestWhitelistedCaller",
  "sourceName": "contracts/test/TestWhitelistedCaller.sol",
  "abi": [
    {
      "inputs": [],
      "stateMutability": "nonpayable",
      "type": "constructor"
    },
    {
      "inputs": [
        {
          "internalType": "address",
          "name": "target",
          "type": "address"
        }
      ],
      "name": "test",
      "outputs": [],
      "stateMutability": "nonpayable",
      "type": "function"
    }
  ],
  "bytecode": "0x608060405234801561001057600080fd5b5060f68061001f6000396000f3fe6080604052348015600f57600080fd5b506004361060285760003560e01c8063bb29998e14602d575b600080fd5b603c60383660046092565b603e565b005b806001600160a01b031663f8a8fd6d6040518163ffffffff1660e01b8152600401600060405180830381600087803b158015607857600080fd5b505af1158015608b573d6000803e3d6000fd5b5050505050565b60006020828403121560a357600080fd5b81356001600160a01b038116811460b957600080fd5b939250505056fea2646970667358221220d0c948a38af303d22cdfa13e145f7efaca7c57ed6d59fb095e59852c8f208dc064736f6c634300080b0033",
  "linkReferences": {},
  "deployedLinkReferences": {}
}