{
  "_format": "hh-sol-artifact-1",
  "contractName": "TestAlchemicToken",
  "sourceName": "contracts/test/TestAlchemicToken.sol",
  "abi": [
    {
      "inputs": [
        {
          "internalType": "uint256",
          "name": "amountToMint",
          "type": "uint256"
        },
        {
          "internalType": "uint8",
          "name": "_decimals",
          "type": "uint8"
        }
      ],
      "stateMutability": "nonpayable",
      "type": "constructor"
    },
    {
      "anonymous": false,
      "inputs": [
        {
          "indexed": true,
          "internalType": "address",
          "name": "owner",
          "type": "address"
        },
        {
          "indexed": true,
          "internalType": "address",
          "name": "spender",
          "type": "address"
        },
        {
          "indexed": false,
          "internalType": "uint256",
          "name": "amount",
          "type": "uint256"
        }
      ],
      "name": "Approval",
      "type": "event"
    },
    {
      "anonymous": false,
      "inputs": [
        {
          "indexed": true,
          "internalType": "address",
          "name": "owner",
          "type": "address"
        },
        {
          "indexed": true,
          "internalType": "address",
          "name": "recipient",
          "type": "address"
        },
        {
          "indexed": false,
          "internalType": "uint256",
          "name": "amount",
          "type": "uint256"
        }
      ],
      "name": "Transfer",
      "type": "event"
    },
    {
      "inputs": [
        {
          "internalType": "address",
          "name": "",
          "type": "address"
        },
        {
          "internalType": "address",
          "name": "",
          "type": "address"
        }
      ],
      "name": "allowance",
      "outputs": [
        {
          "internalType": "uint256",
          "name": "",
          "type": "uint256"
        }
      ],
      "stateMutability": "view",
      "type": "function"
    },
    {
      "inputs": [
        {
          "internalType": "address",
          "name": "spender",
          "type": "address"
        },
        {
          "internalType": "uint256",
          "name": "amount",
          "type": "uint256"
        }
      ],
      "name": "approve",
      "outputs": [
        {
          "internalType": "bool",
          "name": "",
          "type": "bool"
        }
      ],
      "stateMutability": "nonpayable",
      "type": "function"
    },
    {
      "inputs": [
        {
          "internalType": "address",
          "name": "",
          "type": "address"
        }
      ],
      "name": "balanceOf",
      "outputs": [
        {
          "internalType": "uint256",
          "name": "",
          "type": "uint256"
        }
      ],
      "stateMutability": "view",
      "type": "function"
    },
    {
      "inputs": [
        {
          "internalType": "uint256",
          "name": "amount",
          "type": "uint256"
        }
      ],
      "name": "burn",
      "outputs": [
        {
          "internalType": "bool",
          "name": "",
          "type": "bool"
        }
      ],
      "stateMutability": "nonpayable",
      "type": "function"
    },
    {
      "inputs": [
        {
          "internalType": "address",
          "name": "owner",
          "type": "address"
        },
        {
          "internalType": "uint256",
          "name": "amount",
          "type": "uint256"
        }
      ],
      "name": "burnFrom",
      "outputs": [
        {
          "internalType": "bool",
          "name": "",
          "type": "bool"
        }
      ],
      "stateMutability": "nonpayable",
      "type": "function"
    },
    {
      "inputs": [],
      "name": "decimals",
      "outputs": [
        {
          "internalType": "uint8",
          "name": "",
          "type": "uint8"
        }
      ],
      "stateMutability": "view",
      "type": "function"
    },
    {
      "inputs": [
        {
          "internalType": "address",
          "name": "account",
          "type": "address"
        }
      ],
      "name": "hasMinted",
      "outputs": [
        {
          "internalType": "uint256",
          "name": "",
          "type": "uint256"
        }
      ],
      "stateMutability": "view",
      "type": "function"
    },
    {
      "inputs": [
        {
          "internalType": "uint256",
          "name": "amount",
          "type": "uint256"
        }
      ],
      "name": "lowerHasMinted",
      "outputs": [],
      "stateMutability": "nonpayable",
      "type": "function"
    },
    {
      "inputs": [
        {
          "internalType": "address",
          "name": "to",
          "type": "address"
        },
        {
          "internalType": "uint256",
          "name": "amount",
          "type": "uint256"
        }
      ],
      "name": "mint",
      "outputs": [
        {
          "internalType": "bool",
          "name": "",
          "type": "bool"
        }
      ],
      "stateMutability": "nonpayable",
      "type": "function"
    },
    {
      "inputs": [],
      "name": "totalSupply",
      "outputs": [
        {
          "internalType": "uint256",
          "name": "",
          "type": "uint256"
        }
      ],
      "stateMutability": "view",
      "type": "function"
    },
    {
      "inputs": [
        {
          "internalType": "address",
          "name": "recipient",
          "type": "address"
        },
        {
          "internalType": "uint256",
          "name": "amount",
          "type": "uint256"
        }
      ],
      "name": "transfer",
      "outputs": [
        {
          "internalType": "bool",
          "name": "",
          "type": "bool"
        }
      ],
      "stateMutability": "nonpayable",
      "type": "function"
    },
    {
      "inputs": [
        {
          "internalType": "address",
          "name": "sender",
          "type": "address"
        },
        {
          "internalType": "address",
          "name": "recipient",
          "type": "address"
        },
        {
          "internalType": "uint256",
          "name": "amount",
          "type": "uint256"
        }
      ],
      "name": "transferFrom",
      "outputs": [
        {
          "internalType": "bool",
          "name": "",
          "type": "bool"
        }
      ],
      "stateMutability": "nonpayable",
      "type": "function"
    }
  ],
  "bytecode": "0x608060405234801561001057600080fd5b50604051610abd380380610abd83398101604081905261002f916100ff565b6001805460ff191660ff8316179055818161004a3383610054565b505050505061015b565b6001600160a01b038216600090815260026020526040812054819061007a908490610135565b9050828110156100c35760405162461bcd60e51b815260206004820152601060248201526f6f766572666c6f772062616c616e636560801b604482015260640160405180910390fd5b6001600160a01b0384166000908152600260205260408120829055805484919081906100f0908490610135565b90915550600195945050505050565b6000806040838503121561011257600080fd5b82519150602083015160ff8116811461012a57600080fd5b809150509250929050565b6000821982111561015657634e487b7160e01b600052601160045260246000fd5b500190565b6109538061016a6000396000f3fe608060405234801561001057600080fd5b50600436106100b45760003560e01c806340c10f191161007157806340c10f191461015157806342966c681461016457806370a082311461017757806379cc679014610197578063a9059cbb146101aa578063dd62ed3e146101bd57600080fd5b8063095ea7b3146100b957806318160ddd146100e157806323b872dd146100f8578063288aafcb1461010b578063313ce5671461011e57806338e21cce1461013d575b600080fd5b6100cc6100c73660046107ad565b6101e8565b60405190151581526020015b60405180910390f35b6100ea60005481565b6040519081526020016100d8565b6100cc6101063660046107d7565b610254565b61011c610119366004610813565b50565b005b60015461012b9060ff1681565b60405160ff90911681526020016100d8565b6100ea61014b36600461082c565b50600090565b6100cc61015f3660046107ad565b610407565b6100cc610172366004610813565b6104ae565b6100ea61018536600461082c565b60026020526000908152604090205481565b6100cc6101a53660046107ad565b610535565b6100cc6101b83660046107ad565b61066c565b6100ea6101cb36600461084e565b600360209081526000928352604080842090915290825290205481565b3360008181526003602090815260408083206001600160a01b038716808552925280832085905551919290917f8c5be1e5ebec7d5bd14f71427d1e84f3dd0314c0f7b2291e5b200ac8c7c3b925906102439086815260200190565b60405180910390a350600192915050565b6001600160a01b0383166000908152600360209081526040808320338452909152812054828110156102c65760405162461bcd60e51b8152602060048201526016602482015275185b1b1bddd85b98d9481a5b9cdd59999a58da595b9d60521b60448201526064015b60405180910390fd5b6102d08382610897565b6001600160a01b0380871660009081526003602090815260408083203384528252808320949094559187168152600290915220548061030f85826108ae565b101561032d5760405162461bcd60e51b81526004016102bd906108c6565b61033784826108ae565b6001600160a01b038087166000908152600260205260408082209390935590881681522054848110156103ac5760405162461bcd60e51b815260206004820152601860248201527f756e646572666c6f772062616c616e63652073656e646572000000000000000060448201526064016102bd565b6103b68582610897565b6001600160a01b0388811660008181526002602090815260409182902094909455518881529189169290916000805160206108fe833981519152910160405180910390a35060019695505050505050565b6001600160a01b038216600090815260026020526040812054819061042d9084906108ae565b9050828110156104725760405162461bcd60e51b815260206004820152601060248201526f6f766572666c6f772062616c616e636560801b60448201526064016102bd565b6001600160a01b03841660009081526002602052604081208290558054849190819061049f9084906108ae565b90915550600195945050505050565b33600090815260026020526040812054828110156104de5760405162461bcd60e51b81526004016102bd906108c6565b6104e88382610897565b336000908152600260205260408120919091558054849190819061050d908490610897565b909155505060405183815260009033906000805160206108fe83398151915290602001610243565b6001600160a01b0382166000908152600360209081526040808320338452909152812054828110156105a25760405162461bcd60e51b8152602060048201526016602482015275185b1b1bddd85b98d9481a5b9cdd59999a58da595b9d60521b60448201526064016102bd565b6105ac8382610897565b6001600160a01b038516600081815260036020908152604080832033845282528083209490945591815260029091522054838110156105fd5760405162461bcd60e51b81526004016102bd906108c6565b6106078482610897565b6001600160a01b03861660009081526002602052604081209190915580548591908190610635908490610897565b909155505060405184815260009033906000805160206108fe833981519152906020015b60405180910390a3506001949350505050565b33600090815260026020526040812054828110156106c35760405162461bcd60e51b8152602060048201526014602482015273696e73756666696369656e742062616c616e636560601b60448201526064016102bd565b6106cd8382610897565b33600090815260026020526040808220929092556001600160a01b03861681522054806106fa85826108ae565b10156107485760405162461bcd60e51b815260206004820152601a60248201527f726563697069656e742062616c616e6365206f766572666c6f7700000000000060448201526064016102bd565b61075284826108ae565b6001600160a01b0386166000818152600260205260409081902092909255905133906000805160206108fe833981519152906106599088815260200190565b80356001600160a01b03811681146107a857600080fd5b919050565b600080604083850312156107c057600080fd5b6107c983610791565b946020939093013593505050565b6000806000606084860312156107ec57600080fd5b6107f584610791565b925061080360208501610791565b9150604084013590509250925092565b60006020828403121561082557600080fd5b5035919050565b60006020828403121561083e57600080fd5b61084782610791565b9392505050565b6000806040838503121561086157600080fd5b61086a83610791565b915061087860208401610791565b90509250929050565b634e487b7160e01b600052601160045260246000fd5b6000828210156108a9576108a9610881565b500390565b600082198211156108c1576108c1610881565b500190565b6020808252601a908201527f6f766572666c6f772062616c616e636520726563697069656e7400000000000060408201526060019056feddf252ad1be2c89b69c2b068fc378daa952ba7f163c4a11628f55a4df523b3efa2646970667358221220c357c0d45900b7be3bea73dcf39bc1e02776abaab78843c49f3a7c0f03c5b5f764736f6c634300080b0033",
  "linkReferences": {},
  "deployedLinkReferences": {}
}