{
  "contracts/test/TestErc20Receiver.sol": {
    "TestErc20Receiver": {
      "abi": [
        {
          "inputs": [],
          "stateMutability": "nonpayable",
          "type": "constructor"
        },
        {
          "inputs": [
            {
              "internalType": "address",
              "name": "underlyingToken",
              "type": "address"
            },
            {
              "internalType": "uint256",
              "name": "amount",
              "type": "uint256"
            }
          ],
          "name": "onERC20Received",
          "outputs": [],
          "stateMutability": "nonpayable",
          "type": "function"
        }
      ],
      "devdoc": {
        "kind": "dev",
        "methods": {},
        "version": 1
      },
      "evm": {
        "bytecode": {
          "linkReferences": {},
          "object": "6080604052348015600f57600080fd5b5060aa8061001e6000396000f3fe6080604052348015600f57600080fd5b506004361060285760003560e01c8063bc04f0af14602d575b600080fd5b603c6038366004603e565b5050565b005b60008060408385031215605057600080fd5b82356001600160a01b0381168114606657600080fd5b94602093909301359350505056fea2646970667358221220b29cd3e185532612305d6988105362c25a81d5910e44f2f65ee405e61b789bc864736f6c634300080b0033",
          "opcodes": "PUSH1 0x80 PUSH1 0x40 MSTORE CALLVALUE DUP1 ISZERO PUSH1 0xF JUMPI PUSH1 0x0 DUP1 REVERT JUMPDEST POP PUSH1 0xAA DUP1 PUSH2 0x1E PUSH1 0x0 CODECOPY PUSH1 0x0 RETURN INVALID PUSH1 0x80 PUSH1 0x40 MSTORE CALLVALUE DUP1 ISZERO PUSH1 0xF JUMPI PUSH1 0x0 DUP1 REVERT JUMPDEST POP PUSH1 0x4 CALLDATASIZE LT PUSH1 0x28 JUMPI PUSH1 0x0 CALLDATALOAD PUSH1 0xE0 SHR DUP1 PUSH4 0xBC04F0AF EQ PUSH1 0x2D JUMPI JUMPDEST PUSH1 0x0 DUP1 REVERT JUMPDEST PUSH1 0x3C PUSH1 0x38 CALLDATASIZE PUSH1 0x4 PUSH1 0x3E JUMP JUMPDEST POP POP JUMP JUMPDEST STOP JUMPDEST PUSH1 0x0 DUP1 PUSH1 0x40 DUP4 DUP6 SUB SLT ISZERO PUSH1 0x50 JUMPI PUSH1 0x0 DUP1 REVERT JUMPDEST DUP3 CALLDATALOAD PUSH1 0x1 PUSH1 0x1 PUSH1 0xA0 SHL SUB DUP2 AND DUP2 EQ PUSH1 0x66 JUMPI PUSH1 0x0 DUP1 REVERT JUMPDEST SWAP5 PUSH1 0x20 SWAP4 SWAP1 SWAP4 ADD CALLDATALOAD SWAP4 POP POP POP JUMP INVALID LOG2 PUSH5 0x6970667358 0x22 SLT KECCAK256 0xB2 SWAP13 0xD3 0xE1 DUP6 MSTORE8 0x26 SLT ADDRESS 0x5D PUSH10 0x88105362C25A81D5910E DIFFICULTY CALLCODE 0xF6 0x5E 0xE4 SDIV 0xE6 SHL PUSH25 0x9BC864736F6C634300080B0033000000000000000000000000 "
        },
        "gasEstimates": {
          "creation": {
            "codeDepositCost": "34000",
            "executionCost": "87",
            "totalCost": "34087"
          },
          "external": {
            "onERC20Received(address,uint256)": "258"
          }
        },
        "methodIdentifiers": {
          "onERC20Received(address,uint256)": "bc04f0af"
        }
      },
      "storageLayout": {
        "storage": [],
        "types": null
      },
      "userdoc": {
        "kind": "user",
        "methods": {},
        "version": 1
      }
    }
  }
}