{
  "address": "0x443d61f3E9F33422b4583632b37047bDb1f0f4e8",
  "abi": [
    {
      "inputs": [],
      "stateMutability": "nonpayable",
      "type": "constructor"
    },
    {
      "inputs": [],
      "name": "HarvestJobDoesNotExist",
      "type": "error"
    },
    {
      "inputs": [],
      "name": "IllegalArgument",
      "type": "error"
    },
    {
      "inputs": [],
      "name": "Unauthorized",
      "type": "error"
    },
    {
      "inputs": [],
      "name": "YieldTokenDisabled",
      "type": "error"
    },
    {
      "anonymous": false,
      "inputs": [
        {
          "indexed": true,
          "internalType": "address",
          "name": "previousOwner",
          "type": "address"
        },
        {
          "indexed": true,
          "internalType": "address",
          "name": "newOwner",
          "type": "address"
        }
      ],
      "name": "OwnershipTransferred",
      "type": "event"
    },
    {
      "anonymous": false,
      "inputs": [
        {
          "indexed": false,
          "internalType": "address",
          "name": "yieldToken",
          "type": "address"
        }
      ],
      "name": "RecordHarvest",
      "type": "event"
    },
    {
      "anonymous": false,
      "inputs": [
        {
          "indexed": false,
          "internalType": "address",
          "name": "yieldToken",
          "type": "address"
        }
      ],
      "name": "RemoveHarvestJob",
      "type": "event"
    },
    {
      "anonymous": false,
      "inputs": [
        {
          "indexed": false,
          "internalType": "bool",
          "name": "active",
          "type": "bool"
        },
        {
          "indexed": false,
          "internalType": "address",
          "name": "yieldToken",
          "type": "address"
        },
        {
          "indexed": false,
          "internalType": "address",
          "name": "alchemist",
          "type": "address"
        },
        {
          "indexed": false,
          "internalType": "uint256",
          "name": "minimumHarvestAmount",
          "type": "uint256"
        },
        {
          "indexed": false,
          "internalType": "uint256",
          "name": "minimumDelay",
          "type": "uint256"
        },
        {
          "indexed": false,
          "internalType": "uint256",
          "name": "slippageBps",
          "type": "uint256"
        }
      ],
      "name": "SetHarvestJob",
      "type": "event"
    },
    {
      "anonymous": false,
      "inputs": [
        {
          "indexed": false,
          "internalType": "address",
          "name": "harvester",
          "type": "address"
        },
        {
          "indexed": false,
          "internalType": "bool",
          "name": "status",
          "type": "bool"
        }
      ],
      "name": "SetHarvester",
      "type": "event"
    },
    {
      "inputs": [],
      "name": "SLIPPAGE_PRECISION",
      "outputs": [
        {
          "internalType": "uint256",
          "name": "",
          "type": "uint256"
        }
      ],
      "stateMutability": "view",
      "type": "function"
    },
    {
      "inputs": [
        {
          "internalType": "bool",
          "name": "active",
          "type": "bool"
        },
        {
          "internalType": "address",
          "name": "yieldToken",
          "type": "address"
        },
        {
          "internalType": "address",
          "name": "alchemist",
          "type": "address"
        },
        {
          "internalType": "uint256",
          "name": "minimumHarvestAmount",
          "type": "uint256"
        },
        {
          "internalType": "uint256",
          "name": "minimumDelay",
          "type": "uint256"
        },
        {
          "internalType": "uint256",
          "name": "slippageBps",
          "type": "uint256"
        }
      ],
      "name": "addHarvestJob",
      "outputs": [],
      "stateMutability": "nonpayable",
      "type": "function"
    },
    {
      "inputs": [],
      "name": "checker",
      "outputs": [
        {
          "internalType": "bool",
          "name": "canExec",
          "type": "bool"
        },
        {
          "internalType": "bytes",
          "name": "execPayload",
          "type": "bytes"
        }
      ],
      "stateMutability": "view",
      "type": "function"
    },
    {
      "inputs": [
        {
          "internalType": "address",
          "name": "",
          "type": "address"
        }
      ],
      "name": "harvestJobs",
      "outputs": [
        {
          "internalType": "bool",
          "name": "active",
          "type": "bool"
        },
        {
          "internalType": "address",
          "name": "alchemist",
          "type": "address"
        },
        {
          "internalType": "uint256",
          "name": "lastHarvest",
          "type": "uint256"
        },
        {
          "internalType": "uint256",
          "name": "minimumHarvestAmount",
          "type": "uint256"
        },
        {
          "internalType": "uint256",
          "name": "minimumDelay",
          "type": "uint256"
        },
        {
          "internalType": "uint256",
          "name": "slippageBps",
          "type": "uint256"
        }
      ],
      "stateMutability": "view",
      "type": "function"
    },
    {
      "inputs": [
        {
          "internalType": "address",
          "name": "",
          "type": "address"
        }
      ],
      "name": "harvesters",
      "outputs": [
        {
          "internalType": "bool",
          "name": "",
          "type": "bool"
        }
      ],
      "stateMutability": "view",
      "type": "function"
    },
    {
      "inputs": [],
      "name": "owner",
      "outputs": [
        {
          "internalType": "address",
          "name": "",
          "type": "address"
        }
      ],
      "stateMutability": "view",
      "type": "function"
    },
    {
      "inputs": [],
      "name": "paused",
      "outputs": [
        {
          "internalType": "bool",
          "name": "",
          "type": "bool"
        }
      ],
      "stateMutability": "view",
      "type": "function"
    },
    {
      "inputs": [
        {
          "internalType": "address",
          "name": "yieldToken",
          "type": "address"
        }
      ],
      "name": "recordHarvest",
      "outputs": [],
      "stateMutability": "nonpayable",
      "type": "function"
    },
    {
      "inputs": [
        {
          "internalType": "address",
          "name": "token",
          "type": "address"
        }
      ],
      "name": "recoverFunds",
      "outputs": [],
      "stateMutability": "nonpayable",
      "type": "function"
    },
    {
      "inputs": [
        {
          "internalType": "address",
          "name": "yieldToken",
          "type": "address"
        }
      ],
      "name": "removeHarvestJob",
      "outputs": [],
      "stateMutability": "nonpayable",
      "type": "function"
    },
    {
      "inputs": [],
      "name": "renounceOwnership",
      "outputs": [],
      "stateMutability": "nonpayable",
      "type": "function"
    },
    {
      "inputs": [
        {
          "internalType": "address",
          "name": "yieldToken",
          "type": "address"
        },
        {
          "internalType": "bool",
          "name": "active",
          "type": "bool"
        }
      ],
      "name": "setActive",
      "outputs": [],
      "stateMutability": "nonpayable",
      "type": "function"
    },
    {
      "inputs": [
        {
          "internalType": "address",
          "name": "yieldToken",
          "type": "address"
        },
        {
          "internalType": "address",
          "name": "alchemist",
          "type": "address"
        }
      ],
      "name": "setAlchemist",
      "outputs": [],
      "stateMutability": "nonpayable",
      "type": "function"
    },
    {
      "inputs": [
        {
          "internalType": "address",
          "name": "harvester",
          "type": "address"
        },
        {
          "internalType": "bool",
          "name": "status",
          "type": "bool"
        }
      ],
      "name": "setHarvester",
      "outputs": [],
      "stateMutability": "nonpayable",
      "type": "function"
    },
    {
      "inputs": [
        {
          "internalType": "address",
          "name": "yieldToken",
          "type": "address"
        },
        {
          "internalType": "uint256",
          "name": "minimumDelay",
          "type": "uint256"
        }
      ],
      "name": "setMinimumDelay",
      "outputs": [],
      "stateMutability": "nonpayable",
      "type": "function"
    },
    {
      "inputs": [
        {
          "internalType": "address",
          "name": "yieldToken",
          "type": "address"
        },
        {
          "internalType": "uint256",
          "name": "minimumHarvestAmount",
          "type": "uint256"
        }
      ],
      "name": "setMinimumHarvestAmount",
      "outputs": [],
      "stateMutability": "nonpayable",
      "type": "function"
    },
    {
      "inputs": [
        {
          "internalType": "bool",
          "name": "pauseState",
          "type": "bool"
        }
      ],
      "name": "setPause",
      "outputs": [],
      "stateMutability": "nonpayable",
      "type": "function"
    },
    {
      "inputs": [
        {
          "internalType": "address",
          "name": "yieldToken",
          "type": "address"
        },
        {
          "internalType": "uint256",
          "name": "slippageBps",
          "type": "uint256"
        }
      ],
      "name": "setSlippageBps",
      "outputs": [],
      "stateMutability": "nonpayable",
      "type": "function"
    },
    {
      "inputs": [
        {
          "internalType": "address",
          "name": "newOwner",
          "type": "address"
        }
      ],
      "name": "transferOwnership",
      "outputs": [],
      "stateMutability": "nonpayable",
      "type": "function"
    },
    {
      "inputs": [
        {
          "internalType": "uint256",
          "name": "",
          "type": "uint256"
        }
      ],
      "name": "yieldTokens",
      "outputs": [
        {
          "internalType": "address",
          "name": "",
          "type": "address"
        }
      ],
      "stateMutability": "view",
      "type": "function"
    }
  ],
  "transactionHash": "0xb8693aa5ad22c41659ce00c16e9cfa7d3fd2aa4eb5bfaa381c562381a98c5509",
  "args": [],
  "solcInputHash": "3a1dc3cc0cb57037bc967075cab29730",
  "bytecode": "0x608060405234801561001057600080fd5b5061001a3361001f565b61006f565b600080546001600160a01b038381166001600160a01b0319831681178455604051919092169283917f8be0079c531659141344cd1fd0a4f28419497f9722a3daafe3b4186f6b6457e09190a35050565b6120c98061007e6000396000f3fe608060405234801561001057600080fd5b506004361061016c5760003560e01c80638da5cb5b116100cd578063bedb86fb11610081578063e635d5f211610066578063e635d5f214610301578063e72f6e30146103a0578063f2fde38b146103b357600080fd5b8063bedb86fb146102d8578063cf5303cf146102eb57600080fd5b8063b018895c116100b2578063b018895c1461029f578063b2236021146102b2578063b73cc2a3146102c557600080fd5b80638da5cb5b1461026e578063af9d98a91461028c57600080fd5b8063539efd4b116101245780636c7be337116101095780636c7be33714610230578063715018a614610243578063879765831461024b57600080fd5b8063539efd4b146101db5780635c975abb1461021357600080fd5b80632ce962cf116101555780632ce962cf1461019957806331b71057146101ac578063453943f0146101bf57600080fd5b80630a69af31146101715780630bca886914610186575b600080fd5b61018461017f366004611a9e565b6103c6565b005b610184610194366004611b03565b6107a4565b6101846101a7366004611b2f565b610851565b6101846101ba366004611b2f565b610928565b6101c861271081565b6040519081526020015b60405180910390f35b6101ee6101e9366004611b68565b610a38565b60405173ffffffffffffffffffffffffffffffffffffffff90911681526020016101d2565b6003546102209060ff1681565b60405190151581526020016101d2565b61018461023e366004611b81565b610a6f565b610184610c20565b610220610259366004611baf565b60046020526000908152604090205460ff1681565b60005473ffffffffffffffffffffffffffffffffffffffff166101ee565b61018461029a366004611baf565b610cad565b6101846102ad366004611b03565b610d59565b6101846102c0366004611baf565b610e06565b6101846102d3366004611b03565b611141565b6101846102e6366004611bd3565b6111ef565b6102f36112a1565b6040516101d2929190611bf0565b61035c61030f366004611baf565b60026020819052600091825260409091208054600182015492820154600383015460049093015460ff83169461010090930473ffffffffffffffffffffffffffffffffffffffff16939086565b60408051961515875273ffffffffffffffffffffffffffffffffffffffff9095166020870152938501929092526060840152608083015260a082015260c0016101d2565b6101846103ae366004611baf565b611621565b6101846103c1366004611baf565b6117ce565b60005473ffffffffffffffffffffffffffffffffffffffff16331461044c576040517f08c379a000000000000000000000000000000000000000000000000000000000815260206004820181905260248201527f4f776e61626c653a2063616c6c6572206973206e6f7420746865206f776e657260448201526064015b60405180910390fd5b6040517f5a5efc8b00000000000000000000000000000000000000000000000000000000815273ffffffffffffffffffffffffffffffffffffffff868116600483015260009190861690635a5efc8b906024016101e060405180830381865afa1580156104bd573d6000803e3d6000fd5b505050506040513d601f19601f820116820180604052508101906104e19190611cea565b9050806101c0015161051f576040517f0f9d745400000000000000000000000000000000000000000000000000000000815260040160405180910390fd5b61271082111561055b576040517f9a124c8000000000000000000000000000000000000000000000000000000000815260040160405180910390fd5b6040805160c081018252881515815273ffffffffffffffffffffffffffffffffffffffff808816602080840191825242848601908152606085018a8152608086018a815260a087018a81528e87166000908152600295869052899020975188549651909716610100027fffffffffffffffffffffff0000000000000000000000000000000000000000ff971515979097167fffffffffffffffffffffff000000000000000000000000000000000000000000909616959095179590951786559051600186015551908401559051600383015551600490910155517f12eab20548b80c832c05e80d43b04913c1fdf7bd639ebebadfd9e407250bff3b906106aa90899089908990899089908990951515865273ffffffffffffffffffffffffffffffffffffffff94851660208701529290931660408501526060840152608083019190915260a082015260c00190565b60405180910390a160005b60015481101561072a578673ffffffffffffffffffffffffffffffffffffffff16600182815481106106e9576106e9611dbf565b60009182526020909120015473ffffffffffffffffffffffffffffffffffffffff16141561071857505061079c565b8061072281611e1d565b9150506106b5565b50506001805480820182556000919091527fb10e2d527612073b26eecdfd717e6a320cf44b4afac2b0732d9fcbe2b7fa0cf60180547fffffffffffffffffffffffff00000000000000000000000000000000000000001673ffffffffffffffffffffffffffffffffffffffff87161790555b505050505050565b60005473ffffffffffffffffffffffffffffffffffffffff163314610825576040517f08c379a000000000000000000000000000000000000000000000000000000000815260206004820181905260248201527f4f776e61626c653a2063616c6c6572206973206e6f7420746865206f776e65726044820152606401610443565b73ffffffffffffffffffffffffffffffffffffffff909116600090815260026020526040902060040155565b60005473ffffffffffffffffffffffffffffffffffffffff1633146108d2576040517f08c379a000000000000000000000000000000000000000000000000000000000815260206004820181905260248201527f4f776e61626c653a2063616c6c6572206973206e6f7420746865206f776e65726044820152606401610443565b73ffffffffffffffffffffffffffffffffffffffff91909116600090815260026020526040902080547fffffffffffffffffffffffffffffffffffffffffffffffffffffffffffffff0016911515919091179055565b60005473ffffffffffffffffffffffffffffffffffffffff1633146109a9576040517f08c379a000000000000000000000000000000000000000000000000000000000815260206004820181905260248201527f4f776e61626c653a2063616c6c6572206973206e6f7420746865206f776e65726044820152606401610443565b73ffffffffffffffffffffffffffffffffffffffff821660008181526004602090815260409182902080547fffffffffffffffffffffffffffffffffffffffffffffffffffffffffffffff00168515159081179091558251938452908301527fffbdc28f0395f8dd81699928814abd1846ddbad638fe3482c8375836a4e9825291015b60405180910390a15050565b60018181548110610a4857600080fd5b60009182526020909120015473ffffffffffffffffffffffffffffffffffffffff16905081565b60005473ffffffffffffffffffffffffffffffffffffffff163314610af0576040517f08c379a000000000000000000000000000000000000000000000000000000000815260206004820181905260248201527f4f776e61626c653a2063616c6c6572206973206e6f7420746865206f776e65726044820152606401610443565b6040517f5a5efc8b00000000000000000000000000000000000000000000000000000000815273ffffffffffffffffffffffffffffffffffffffff838116600483015260009190831690635a5efc8b906024016101e060405180830381865afa158015610b61573d6000803e3d6000fd5b505050506040513d601f19601f82011682018060405250810190610b859190611cea565b9050806101c00151610bc3576040517f0f9d745400000000000000000000000000000000000000000000000000000000815260040160405180910390fd5b5073ffffffffffffffffffffffffffffffffffffffff9182166000908152600260205260409020805492909116610100027fffffffffffffffffffffff0000000000000000000000000000000000000000ff909216919091179055565b60005473ffffffffffffffffffffffffffffffffffffffff163314610ca1576040517f08c379a000000000000000000000000000000000000000000000000000000000815260206004820181905260248201527f4f776e61626c653a2063616c6c6572206973206e6f7420746865206f776e65726044820152606401610443565b610cab60006118fe565b565b3360009081526004602052604090205460ff16610cf6576040517f82b4290000000000000000000000000000000000000000000000000000000000815260040160405180910390fd5b73ffffffffffffffffffffffffffffffffffffffff81166000818152600260209081526040918290204260019091015590519182527f549d5a8cc9d7d0d28c5c93782ae549548749ec3884c725765a8570597d6a13f8910160405180910390a150565b60005473ffffffffffffffffffffffffffffffffffffffff163314610dda576040517f08c379a000000000000000000000000000000000000000000000000000000000815260206004820181905260248201527f4f776e61626c653a2063616c6c6572206973206e6f7420746865206f776e65726044820152606401610443565b73ffffffffffffffffffffffffffffffffffffffff909116600090815260026020526040902060030155565b60005473ffffffffffffffffffffffffffffffffffffffff163314610e87576040517f08c379a000000000000000000000000000000000000000000000000000000000815260206004820181905260248201527f4f776e61626c653a2063616c6c6572206973206e6f7420746865206f776e65726044820152606401610443565b7fffffffffffffffffffffffffffffffffffffffffffffffffffffffffffffffff60005b600154811015610f25578273ffffffffffffffffffffffffffffffffffffffff1660018281548110610edf57610edf611dbf565b60009182526020909120015473ffffffffffffffffffffffffffffffffffffffff161415610f1357610f1081611973565b91505b80610f1d81611e1d565b915050610eab565b507fffffffffffffffffffffffffffffffffffffffffffffffffffffffffffffffff81131561110b5773ffffffffffffffffffffffffffffffffffffffff82166000908152600260208190526040822080547fffffffffffffffffffffff000000000000000000000000000000000000000000168155600180820184905591810183905560038101839055600401919091558054610fc4908290611e56565b81548110610fd457610fd4611dbf565b60009182526020909120015473ffffffffffffffffffffffffffffffffffffffff16600161100183611a02565b8154811061101157611011611dbf565b9060005260206000200160006101000a81548173ffffffffffffffffffffffffffffffffffffffff021916908373ffffffffffffffffffffffffffffffffffffffff160217905550600180548061106a5761106a611e6d565b60008281526020908190207fffffffffffffffffffffffffffffffffffffffffffffffffffffffffffffffff908301810180547fffffffffffffffffffffffff000000000000000000000000000000000000000016905590910190915560405173ffffffffffffffffffffffffffffffffffffffff841681527fdd2f9126294675e89c6ca967164843d07ab1cc694b6812112c89c6ae64eed7c79101610a2c565b6040517f6588847000000000000000000000000000000000000000000000000000000000815260040160405180910390fd5b5050565b60005473ffffffffffffffffffffffffffffffffffffffff1633146111c2576040517f08c379a000000000000000000000000000000000000000000000000000000000815260206004820181905260248201527f4f776e61626c653a2063616c6c6572206973206e6f7420746865206f776e65726044820152606401610443565b73ffffffffffffffffffffffffffffffffffffffff90911660009081526002602081905260409091200155565b60005473ffffffffffffffffffffffffffffffffffffffff163314611270576040517f08c379a000000000000000000000000000000000000000000000000000000000815260206004820181905260248201527f4f776e61626c653a2063616c6c6572206973206e6f7420746865206f776e65726044820152606401610443565b600380547fffffffffffffffffffffffffffffffffffffffffffffffffffffffffffffff0016911515919091179055565b60035460009060609060ff16156112d9576040805160006020820181905291015b604051602081830303815290604052915091509091565b60005b60015481101561160c576000600182815481106112fb576112fb611dbf565b600091825260208083209091015473ffffffffffffffffffffffffffffffffffffffff9081168084526002808452604094859020855160c081018752815460ff811615801583526101009091049095169581019590955260018101549585019590955284015460608401526003840154608084015260049093015460a0830152919250906115f75760208101516040517f5a5efc8b00000000000000000000000000000000000000000000000000000000815273ffffffffffffffffffffffffffffffffffffffff84811660048301526000921690635a5efc8b906024016101e060405180830381865afa1580156113f7573d6000803e3d6000fd5b505050506040513d601f19601f8201168201806040525081019061141b9190611cea565b9050806101c00151156115f5576000816040015173ffffffffffffffffffffffffffffffffffffffff1663a035b1fe6040518163ffffffff1660e01b8152600401602060405180830381865afa158015611479573d6000803e3d6000fd5b505050506040513d601f19601f8201168201806040525081019061149d9190611e9c565b82519091506000906114b090600a611fd7565b828460e001518560c001516114c59190611fe6565b6114cf9190611ffe565b6114d9919061203b565b9050836080015184604001516114ef9190611fe6565b42101580156115115750836060015183610120015161150e9190611fe6565b81115b156115f2576000836101200151826115299190611e56565b90506127108560a001518261153e9190611ffe565b611548919061203b565b6115529082611e56565b6020958601516040805173ffffffffffffffffffffffffffffffffffffffff928316602482015298909116604489015260648089019290925280518089039092018252608490970190965250505050810180517bffffffffffffffffffffffffffffffffffffffffffffffffffffffff167fc2ceb95f00000000000000000000000000000000000000000000000000000000179052600194909350915050565b50505b505b5050808061160490611e1d565b9150506112dc565b506040805160006020820181905291016112c2565b60005473ffffffffffffffffffffffffffffffffffffffff1633146116a2576040517f08c379a000000000000000000000000000000000000000000000000000000000815260206004820181905260248201527f4f776e61626c653a2063616c6c6572206973206e6f7420746865206f776e65726044820152606401610443565b6040517f70a0823100000000000000000000000000000000000000000000000000000000815230600482015273ffffffffffffffffffffffffffffffffffffffff82169063a9059cbb90339083906370a0823190602401602060405180830381865afa158015611716573d6000803e3d6000fd5b505050506040513d601f19601f8201168201806040525081019061173a9190611e9c565b6040517fffffffff0000000000000000000000000000000000000000000000000000000060e085901b16815273ffffffffffffffffffffffffffffffffffffffff909216600483015260248201526044016020604051808303816000875af11580156117aa573d6000803e3d6000fd5b505050506040513d601f19601f8201168201806040525081019061113d9190612076565b60005473ffffffffffffffffffffffffffffffffffffffff16331461184f576040517f08c379a000000000000000000000000000000000000000000000000000000000815260206004820181905260248201527f4f776e61626c653a2063616c6c6572206973206e6f7420746865206f776e65726044820152606401610443565b73ffffffffffffffffffffffffffffffffffffffff81166118f2576040517f08c379a000000000000000000000000000000000000000000000000000000000815260206004820152602660248201527f4f776e61626c653a206e6577206f776e657220697320746865207a65726f206160448201527f64647265737300000000000000000000000000000000000000000000000000006064820152608401610443565b6118fb816118fe565b50565b6000805473ffffffffffffffffffffffffffffffffffffffff8381167fffffffffffffffffffffffff0000000000000000000000000000000000000000831681178455604051919092169283917f8be0079c531659141344cd1fd0a4f28419497f9722a3daafe3b4186f6b6457e09190a35050565b60007f800000000000000000000000000000000000000000000000000000000000000082106119fe576040517f08c379a000000000000000000000000000000000000000000000000000000000815260206004820152601460248201527f53616665436173743a2062616420696e743235360000000000000000000000006044820152606401610443565b5090565b6000808212156119fe576040517f08c379a000000000000000000000000000000000000000000000000000000000815260206004820152601560248201527f53616665436173743a206261642075696e7432353600000000000000000000006044820152606401610443565b80151581146118fb57600080fd5b73ffffffffffffffffffffffffffffffffffffffff811681146118fb57600080fd5b60008060008060008060c08789031215611ab757600080fd5b8635611ac281611a6e565b95506020870135611ad281611a7c565b94506040870135611ae281611a7c565b959894975094956060810135955060808101359460a0909101359350915050565b60008060408385031215611b1657600080fd5b8235611b2181611a7c565b946020939093013593505050565b60008060408385031215611b4257600080fd5b8235611b4d81611a7c565b91506020830135611b5d81611a6e565b809150509250929050565b600060208284031215611b7a57600080fd5b5035919050565b60008060408385031215611b9457600080fd5b8235611b9f81611a7c565b91506020830135611b5d81611a7c565b600060208284031215611bc157600080fd5b8135611bcc81611a7c565b9392505050565b600060208284031215611be557600080fd5b8135611bcc81611a6e565b821515815260006020604081840152835180604085015260005b81811015611c2657858101830151858201606001528201611c0a565b81811115611c38576000606083870101525b50601f017fffffffffffffffffffffffffffffffffffffffffffffffffffffffffffffffe01692909201606001949350505050565b6040516101e0810167ffffffffffffffff81118282101715611cb8577f4e487b7100000000000000000000000000000000000000000000000000000000600052604160045260246000fd5b60405290565b805160ff81168114611ccf57600080fd5b919050565b8051611ccf81611a7c565b8051611ccf81611a6e565b60006101e08284031215611cfd57600080fd5b611d05611c6d565b611d0e83611cbe565b8152611d1c60208401611cd4565b6020820152611d2d60408401611cd4565b6040820152606083810151908201526080808401519082015260a0808401519082015260c0808401519082015260e08084015190820152610100808401519082015261012080840151908201526101408084015190820152610160808401519082015261018080840151908201526101a080840151908201526101c0611db4818501611cdf565b908201529392505050565b7f4e487b7100000000000000000000000000000000000000000000000000000000600052603260045260246000fd5b7f4e487b7100000000000000000000000000000000000000000000000000000000600052601160045260246000fd5b60007fffffffffffffffffffffffffffffffffffffffffffffffffffffffffffffffff821415611e4f57611e4f611dee565b5060010190565b600082821015611e6857611e68611dee565b500390565b7f4e487b7100000000000000000000000000000000000000000000000000000000600052603160045260246000fd5b600060208284031215611eae57600080fd5b5051919050565b600181815b80851115611f0e57817fffffffffffffffffffffffffffffffffffffffffffffffffffffffffffffffff04821115611ef457611ef4611dee565b80851615611f0157918102915b93841c9390800290611eba565b509250929050565b600082611f2557506001611fd1565b81611f3257506000611fd1565b8160018114611f485760028114611f5257611f6e565b6001915050611fd1565b60ff841115611f6357611f63611dee565b50506001821b611fd1565b5060208310610133831016604e8410600b8410161715611f91575081810a611fd1565b611f9b8383611eb5565b807fffffffffffffffffffffffffffffffffffffffffffffffffffffffffffffffff04821115611fcd57611fcd611dee565b0290505b92915050565b6000611bcc60ff841683611f16565b60008219821115611ff957611ff9611dee565b500190565b6000817fffffffffffffffffffffffffffffffffffffffffffffffffffffffffffffffff048311821515161561203657612036611dee565b500290565b600082612071577f4e487b7100000000000000000000000000000000000000000000000000000000600052601260045260246000fd5b500490565b60006020828403121561208857600080fd5b8151611bcc81611a6e56fea26469706673582212206f61f81e4ace74a4cc9a3b7ee26a66e614d418ec71986a85adf9fe762057b2a564736f6c634300080b0033",
  "devdoc": {
    "kind": "dev",
    "methods": {
      "addHarvestJob(bool,address,address,uint256,uint256,uint256)": {
        "params": {
          "active": "A flag for whether or not the harvest job is active.",
          "alchemist": "The address of the alchemist to be harvested.",
          "minimumDelay": "The minimum delay (in seconds) needed between successive runs of the job.",
          "minimumHarvestAmount": "The minimum amount of harvestable funds required in order to run the harvest job.",
          "yieldToken": "The address of the yield token to be harvested."
        }
      },
      "checker()": {
        "returns": {
          "canExec": "    If a harvest is needed",
          "execPayload": "The payload to forward to the AlchemixHarvester"
        }
      },
      "owner()": {
        "details": "Returns the address of the current owner."
      },
      "recoverFunds(address)": {
        "params": {
          "token": "The token to remove."
        }
      },
      "removeHarvestJob(address)": {
        "params": {
          "yieldToken": "The address of the yield token to remove."
        }
      },
      "renounceOwnership()": {
        "details": "Leaves the contract without owner. It will not be possible to call `onlyOwner` functions anymore. Can only be called by the current owner. NOTE: Renouncing ownership will leave the contract without an owner, thereby removing any functionality that is only available to the owner."
      },
      "setActive(address,bool)": {
        "params": {
          "active": "A flag for whether or not the harvest job is active.",
          "yieldToken": "The address of the yield token to be harvested."
        }
      },
      "setAlchemist(address,address)": {
        "params": {
          "alchemist": "The address of the alchemist to be harvested.",
          "yieldToken": "The address of the yield token to be harvested."
        }
      },
      "setHarvester(address,bool)": {
        "params": {
          "harvester": "The address of the target harvester.",
          "status": "The status to set for the target harvester."
        }
      },
      "setMinimumDelay(address,uint256)": {
        "params": {
          "minimumDelay": "The minimum delay (in seconds) needed between successive runs of the job.",
          "yieldToken": "The address of the yield token to be harvested."
        }
      },
      "setMinimumHarvestAmount(address,uint256)": {
        "params": {
          "minimumHarvestAmount": "The minimum amount of harvestable funds required in order to run the harvest job.",
          "yieldToken": "The address of the yield token to be harvested."
        }
      },
      "setPause(bool)": {
        "params": {
          "pauseState": "The pause state to set."
        }
      },
      "setSlippageBps(address,uint256)": {
        "params": {
          "slippageBps": "The amount of slippage to accept during a harvest.",
          "yieldToken": "The address of the yield token to be harvested."
        }
      },
      "transferOwnership(address)": {
        "details": "Transfers ownership of the contract to a new account (`newOwner`). Can only be called by the current owner."
      }
    },
    "stateVariables": {
      "harvestJobs": {
        "details": "yieldToken => HarvestJob."
      },
      "harvesters": {
        "details": "A mapping of the registered harvesters."
      },
      "paused": {
        "details": "Whether or not the resolver is paused."
      },
      "yieldTokens": {
        "details": "The list of yield tokens that define harvest jobs."
      }
    },
    "version": 1
  },
  "userdoc": {
    "errors": {
      "HarvestJobDoesNotExist()": [
        {
          "notice": "Thrown when attempting to remove a harvest job that does not currently exist."
        }
      ],
      "IllegalArgument()": [
        {
          "notice": "Thrown when an illegal argument is given."
        }
      ],
      "Unauthorized()": [
        {
          "notice": "Thrown when an unauthorized address attempts to access a protected function."
        }
      ],
      "YieldTokenDisabled()": [
        {
          "notice": "Thrown when the yield token of a harvest job being added is disabled in the alchemist of the harvest job being added."
        }
      ]
    },
    "events": {
      "RecordHarvest(address)": {
        "notice": "Emitted when a harvest is recorded."
      },
      "RemoveHarvestJob(address)": {
        "notice": "Emitted when a harvest job is removed from the list."
      },
      "SetHarvestJob(bool,address,address,uint256,uint256,uint256)": {
        "notice": "Emitted when details of a harvest job are set."
      },
      "SetHarvester(address,bool)": {
        "notice": "Emitted when a harvester status is updated."
      }
    },
    "kind": "user",
    "methods": {
      "addHarvestJob(bool,address,address,uint256,uint256,uint256)": {
        "notice": "Sets the parameters of a harvest job and adds it to the list if needed."
      },
      "checker()": {
        "notice": "Check if there is a harvest that needs to be run. Returns FALSE if the resolver is paused. Returns TRUE for the first harvest job that meets the following criteria:     - the harvest job is active     - `yieldToken` is enabled in the Alchemist     - minimumDelay seconds have passed since the `yieldToken` was last harvested     - the expected harvest amount is greater than minimumHarvestAmount Returns FALSE if no harvest jobs meet the above criteria."
      },
      "recoverFunds(address)": {
        "notice": "Remove tokens that were accidentally sent to the resolver."
      },
      "removeHarvestJob(address)": {
        "notice": "Removes a harvest job from the list of harvest jobs."
      },
      "setActive(address,bool)": {
        "notice": "Sets if a harvest job is active."
      },
      "setAlchemist(address,address)": {
        "notice": "Sets the alchemist of a harvest job."
      },
      "setHarvester(address,bool)": {
        "notice": "Enables or disables a harvester from calling protected harvester-only functions."
      },
      "setMinimumDelay(address,uint256)": {
        "notice": "Sets the minimum delay of a harvest job."
      },
      "setMinimumHarvestAmount(address,uint256)": {
        "notice": "Sets the minimum harvest amount of a harvest job."
      },
      "setPause(bool)": {
        "notice": "Pauses and un-pauses the resolver."
      },
      "setSlippageBps(address,uint256)": {
        "notice": "Sets the amount of slippage for a harvest job."
      }
    },
    "version": 1
  },
  "storageLayout": {
    "storage": [
      {
        "astId": 7,
        "contract": "contracts/HarvestResolver.sol:HarvestResolver",
        "label": "_owner",
        "offset": 0,
        "slot": "0",
        "type": "t_address"
      },
      {
        "astId": 2316,
        "contract": "contracts/HarvestResolver.sol:HarvestResolver",
        "label": "yieldTokens",
        "offset": 0,
        "slot": "1",
        "type": "t_array(t_address)dyn_storage"
      },
      {
        "astId": 2322,
        "contract": "contracts/HarvestResolver.sol:HarvestResolver",
        "label": "harvestJobs",
        "offset": 0,
        "slot": "2",
        "type": "t_mapping(t_address,t_struct(HarvestJob)2309_storage)"
      },
      {
        "astId": 2325,
        "contract": "contracts/HarvestResolver.sol:HarvestResolver",
        "label": "paused",
        "offset": 0,
        "slot": "3",
        "type": "t_bool"
      },
      {
        "astId": 2330,
        "contract": "contracts/HarvestResolver.sol:HarvestResolver",
        "label": "harvesters",
        "offset": 0,
        "slot": "4",
        "type": "t_mapping(t_address,t_bool)"
      }
    ],
    "types": {
      "t_address": {
        "encoding": "inplace",
        "label": "address",
        "numberOfBytes": "20"
      },
      "t_array(t_address)dyn_storage": {
        "base": "t_address",
        "encoding": "dynamic_array",
        "label": "address[]",
        "numberOfBytes": "32"
      },
      "t_bool": {
        "encoding": "inplace",
        "label": "bool",
        "numberOfBytes": "1"
      },
      "t_mapping(t_address,t_bool)": {
        "encoding": "mapping",
        "key": "t_address",
        "label": "mapping(address => bool)",
        "numberOfBytes": "32",
        "value": "t_bool"
      },
      "t_mapping(t_address,t_struct(HarvestJob)2309_storage)": {
        "encoding": "mapping",
        "key": "t_address",
        "label": "mapping(address => struct HarvestResolver.HarvestJob)",
        "numberOfBytes": "32",
        "value": "t_struct(HarvestJob)2309_storage"
      },
      "t_struct(HarvestJob)2309_storage": {
        "encoding": "inplace",
        "label": "struct HarvestResolver.HarvestJob",
        "members": [
          {
            "astId": 2298,
            "contract": "contracts/HarvestResolver.sol:HarvestResolver",
            "label": "active",
            "offset": 0,
            "slot": "0",
            "type": "t_bool"
          },
          {
            "astId": 2300,
            "contract": "contracts/HarvestResolver.sol:HarvestResolver",
            "label": "alchemist",
            "offset": 1,
            "slot": "0",
            "type": "t_address"
          },
          {
            "astId": 2302,
            "contract": "contracts/HarvestResolver.sol:HarvestResolver",
            "label": "lastHarvest",
            "offset": 0,
            "slot": "1",
            "type": "t_uint256"
          },
          {
            "astId": 2304,
            "contract": "contracts/HarvestResolver.sol:HarvestResolver",
            "label": "minimumHarvestAmount",
            "offset": 0,
            "slot": "2",
            "type": "t_uint256"
          },
          {
            "astId": 2306,
            "contract": "contracts/HarvestResolver.sol:HarvestResolver",
            "label": "minimumDelay",
            "offset": 0,
            "slot": "3",
            "type": "t_uint256"
          },
          {
            "astId": 2308,
            "contract": "contracts/HarvestResolver.sol:HarvestResolver",
            "label": "slippageBps",
            "offset": 0,
            "slot": "4",
            "type": "t_uint256"
          }
        ],
        "numberOfBytes": "160"
      },
      "t_uint256": {
        "encoding": "inplace",
        "label": "uint256",
        "numberOfBytes": "32"
      }
    }
  }
}