{
  "_format": "hh-sol-artifact-1",
  "contractName": "AlchemistV2",
  "sourceName": "contracts/AlchemistV2.sol",
  "abi": [
    {
      "inputs": [],
      "stateMutability": "nonpayable",
      "type": "constructor"
    },
    {
      "inputs": [
        {
          "internalType": "address",
          "name": "target",
          "type": "address"
        },
        {
          "internalType": "bool",
          "name": "success",
          "type": "bool"
        },
        {
          "internalType": "bytes",
          "name": "data",
          "type": "bytes"
        }
      ],
      "name": "ERC20CallFailed",
      "type": "error"
    },
    {
      "inputs": [
        {
          "internalType": "address",
          "name": "yieldToken",
          "type": "address"
        },
        {
          "internalType": "uint256",
          "name": "expectedValue",
          "type": "uint256"
        },
        {
          "internalType": "uint256",
          "name": "maximumExpectedValue",
          "type": "uint256"
        }
      ],
      "name": "ExpectedValueExceeded",
      "type": "error"
    },
    {
      "inputs": [],
      "name": "IllegalArgument",
      "type": "error"
    },
    {
      "inputs": [],
      "name": "IllegalState",
      "type": "error"
    },
    {
      "inputs": [
        {
          "internalType": "address",
          "name": "underlyingToken",
          "type": "address"
        },
        {
          "internalType": "uint256",
          "name": "amount",
          "type": "uint256"
        },
        {
          "internalType": "uint256",
          "name": "available",
          "type": "uint256"
        }
      ],
      "name": "LiquidationLimitExceeded",
      "type": "error"
    },
    {
      "inputs": [],
      "name": "LockAlreadyClaimed",
      "type": "error"
    },
    {
      "inputs": [
        {
          "internalType": "address",
          "name": "yieldToken",
          "type": "address"
        },
        {
          "internalType": "uint256",
          "name": "loss",
          "type": "uint256"
        },
        {
          "internalType": "uint256",
          "name": "maximumLoss",
          "type": "uint256"
        }
      ],
      "name": "LossExceeded",
      "type": "error"
    },
    {
      "inputs": [
        {
          "internalType": "uint256",
          "name": "amount",
          "type": "uint256"
        },
        {
          "internalType": "uint256",
          "name": "available",
          "type": "uint256"
        }
      ],
      "name": "MintingLimitExceeded",
      "type": "error"
    },
    {
      "inputs": [
        {
          "internalType": "bytes",
          "name": "data",
          "type": "bytes"
        },
        {
          "internalType": "bytes",
          "name": "result",
          "type": "bytes"
        }
      ],
      "name": "MulticallFailed",
      "type": "error"
    },
    {
      "inputs": [
        {
          "internalType": "address",
          "name": "underlyingToken",
          "type": "address"
        },
        {
          "internalType": "uint256",
          "name": "amount",
          "type": "uint256"
        },
        {
          "internalType": "uint256",
          "name": "available",
          "type": "uint256"
        }
      ],
      "name": "RepayLimitExceeded",
      "type": "error"
    },
    {
      "inputs": [
        {
          "internalType": "uint256",
          "name": "amount",
          "type": "uint256"
        },
        {
          "internalType": "uint256",
          "name": "minimumAmountOut",
          "type": "uint256"
        }
      ],
      "name": "SlippageExceeded",
      "type": "error"
    },
    {
      "inputs": [
        {
          "internalType": "address",
          "name": "token",
          "type": "address"
        }
      ],
      "name": "TokenDisabled",
      "type": "error"
    },
    {
      "inputs": [],
      "name": "Unauthorized",
      "type": "error"
    },
    {
      "inputs": [],
      "name": "Undercollateralized",
      "type": "error"
    },
    {
      "inputs": [
        {
          "internalType": "address",
          "name": "token",
          "type": "address"
        }
      ],
      "name": "UnsupportedToken",
      "type": "error"
    },
    {
      "anonymous": false,
      "inputs": [
        {
          "indexed": true,
          "internalType": "address",
          "name": "underlyingToken",
          "type": "address"
        }
      ],
      "name": "AddUnderlyingToken",
      "type": "event"
    },
    {
      "anonymous": false,
      "inputs": [
        {
          "indexed": true,
          "internalType": "address",
          "name": "yieldToken",
          "type": "address"
        }
      ],
      "name": "AddYieldToken",
      "type": "event"
    },
    {
      "anonymous": false,
      "inputs": [
        {
          "indexed": false,
          "internalType": "address",
          "name": "admin",
          "type": "address"
        }
      ],
      "name": "AdminUpdated",
      "type": "event"
    },
    {
      "anonymous": false,
      "inputs": [
        {
          "indexed": true,
          "internalType": "address",
          "name": "owner",
          "type": "address"
        },
        {
          "indexed": true,
          "internalType": "address",
          "name": "spender",
          "type": "address"
        },
        {
          "indexed": false,
          "internalType": "uint256",
          "name": "amount",
          "type": "uint256"
        }
      ],
      "name": "ApproveMint",
      "type": "event"
    },
    {
      "anonymous": false,
      "inputs": [
        {
          "indexed": true,
          "internalType": "address",
          "name": "owner",
          "type": "address"
        },
        {
          "indexed": true,
          "internalType": "address",
          "name": "spender",
          "type": "address"
        },
        {
          "indexed": true,
          "internalType": "address",
          "name": "yieldToken",
          "type": "address"
        },
        {
          "indexed": false,
          "internalType": "uint256",
          "name": "amount",
          "type": "uint256"
        }
      ],
      "name": "ApproveWithdraw",
      "type": "event"
    },
    {
      "anonymous": false,
      "inputs": [
        {
          "indexed": true,
          "internalType": "address",
          "name": "sender",
          "type": "address"
        },
        {
          "indexed": false,
          "internalType": "uint256",
          "name": "amount",
          "type": "uint256"
        },
        {
          "indexed": false,
          "internalType": "address",
          "name": "recipient",
          "type": "address"
        }
      ],
      "name": "Burn",
      "type": "event"
    },
    {
      "anonymous": false,
      "inputs": [
        {
          "indexed": false,
          "internalType": "address",
          "name": "yieldToken",
          "type": "address"
        },
        {
          "indexed": false,
          "internalType": "uint256",
          "name": "blocks",
          "type": "uint256"
        }
      ],
      "name": "CreditUnlockRateUpdated",
      "type": "event"
    },
    {
      "anonymous": false,
      "inputs": [
        {
          "indexed": true,
          "internalType": "address",
          "name": "sender",
          "type": "address"
        },
        {
          "indexed": true,
          "internalType": "address",
          "name": "yieldToken",
          "type": "address"
        },
        {
          "indexed": false,
          "internalType": "uint256",
          "name": "amount",
          "type": "uint256"
        },
        {
          "indexed": false,
          "internalType": "address",
          "name": "recipient",
          "type": "address"
        }
      ],
      "name": "Deposit",
      "type": "event"
    },
    {
      "anonymous": false,
      "inputs": [
        {
          "indexed": true,
          "internalType": "address",
          "name": "sender",
          "type": "address"
        },
        {
          "indexed": true,
          "internalType": "address",
          "name": "yieldToken",
          "type": "address"
        },
        {
          "indexed": false,
          "internalType": "uint256",
          "name": "amount",
          "type": "uint256"
        }
      ],
      "name": "Donate",
      "type": "event"
    },
    {
      "anonymous": false,
      "inputs": [
        {
          "indexed": true,
          "internalType": "address",
          "name": "yieldToken",
          "type": "address"
        },
        {
          "indexed": false,
          "internalType": "uint256",
          "name": "minimumAmountOut",
          "type": "uint256"
        },
        {
          "indexed": false,
          "internalType": "uint256",
          "name": "totalHarvested",
          "type": "uint256"
        }
      ],
      "name": "Harvest",
      "type": "event"
    },
    {
      "anonymous": false,
      "inputs": [
        {
          "indexed": false,
          "internalType": "address",
          "name": "sentinel",
          "type": "address"
        },
        {
          "indexed": false,
          "internalType": "bool",
          "name": "flag",
          "type": "bool"
        }
      ],
      "name": "KeeperSet",
      "type": "event"
    },
    {
      "anonymous": false,
      "inputs": [
        {
          "indexed": true,
          "internalType": "address",
          "name": "owner",
          "type": "address"
        },
        {
          "indexed": true,
          "internalType": "address",
          "name": "yieldToken",
          "type": "address"
        },
        {
          "indexed": true,
          "internalType": "address",
          "name": "underlyingToken",
          "type": "address"
        },
        {
          "indexed": false,
          "internalType": "uint256",
          "name": "shares",
          "type": "uint256"
        }
      ],
      "name": "Liquidate",
      "type": "event"
    },
    {
      "anonymous": false,
      "inputs": [
        {
          "indexed": true,
          "internalType": "address",
          "name": "underlyingToken",
          "type": "address"
        },
        {
          "indexed": false,
          "internalType": "uint256",
          "name": "maximum",
          "type": "uint256"
        },
        {
          "indexed": false,
          "internalType": "uint256",
          "name": "blocks",
          "type": "uint256"
        }
      ],
      "name": "LiquidationLimitUpdated",
      "type": "event"
    },
    {
      "anonymous": false,
      "inputs": [
        {
          "indexed": true,
          "internalType": "address",
          "name": "yieldToken",
          "type": "address"
        },
        {
          "indexed": false,
          "internalType": "uint256",
          "name": "maximumExpectedValue",
          "type": "uint256"
        }
      ],
      "name": "MaximumExpectedValueUpdated",
      "type": "event"
    },
    {
      "anonymous": false,
      "inputs": [
        {
          "indexed": true,
          "internalType": "address",
          "name": "yieldToken",
          "type": "address"
        },
        {
          "indexed": false,
          "internalType": "uint256",
          "name": "maximumLoss",
          "type": "uint256"
        }
      ],
      "name": "MaximumLossUpdated",
      "type": "event"
    },
    {
      "anonymous": false,
      "inputs": [
        {
          "indexed": false,
          "internalType": "uint256",
          "name": "minimumCollateralization",
          "type": "uint256"
        }
      ],
      "name": "MinimumCollateralizationUpdated",
      "type": "event"
    },
    {
      "anonymous": false,
      "inputs": [
        {
          "indexed": true,
          "internalType": "address",
          "name": "owner",
          "type": "address"
        },
        {
          "indexed": false,
          "internalType": "uint256",
          "name": "amount",
          "type": "uint256"
        },
        {
          "indexed": false,
          "internalType": "address",
          "name": "recipient",
          "type": "address"
        }
      ],
      "name": "Mint",
      "type": "event"
    },
    {
      "anonymous": false,
      "inputs": [
        {
          "indexed": false,
          "internalType": "uint256",
          "name": "maximum",
          "type": "uint256"
        },
        {
          "indexed": false,
          "internalType": "uint256",
          "name": "blocks",
          "type": "uint256"
        }
      ],
      "name": "MintingLimitUpdated",
      "type": "event"
    },
    {
      "anonymous": false,
      "inputs": [
        {
          "indexed": false,
          "internalType": "address",
          "name": "pendingAdmin",
          "type": "address"
        }
      ],
      "name": "PendingAdminUpdated",
      "type": "event"
    },
    {
      "anonymous": false,
      "inputs": [
        {
          "indexed": false,
          "internalType": "address",
          "name": "protocolFeeReceiver",
          "type": "address"
        }
      ],
      "name": "ProtocolFeeReceiverUpdated",
      "type": "event"
    },
    {
      "anonymous": false,
      "inputs": [
        {
          "indexed": false,
          "internalType": "uint256",
          "name": "protocolFee",
          "type": "uint256"
        }
      ],
      "name": "ProtocolFeeUpdated",
      "type": "event"
    },
    {
      "anonymous": false,
      "inputs": [
        {
          "indexed": true,
          "internalType": "address",
          "name": "sender",
          "type": "address"
        },
        {
          "indexed": true,
          "internalType": "address",
          "name": "underlyingToken",
          "type": "address"
        },
        {
          "indexed": false,
          "internalType": "uint256",
          "name": "amount",
          "type": "uint256"
        },
        {
          "indexed": false,
          "internalType": "address",
          "name": "recipient",
          "type": "address"
        }
      ],
      "name": "Repay",
      "type": "event"
    },
    {
      "anonymous": false,
      "inputs": [
        {
          "indexed": true,
          "internalType": "address",
          "name": "underlyingToken",
          "type": "address"
        },
        {
          "indexed": false,
          "internalType": "uint256",
          "name": "maximum",
          "type": "uint256"
        },
        {
          "indexed": false,
          "internalType": "uint256",
          "name": "blocks",
          "type": "uint256"
        }
      ],
      "name": "RepayLimitUpdated",
      "type": "event"
    },
    {
      "anonymous": false,
      "inputs": [
        {
          "indexed": false,
          "internalType": "address",
          "name": "sentinel",
          "type": "address"
        },
        {
          "indexed": false,
          "internalType": "bool",
          "name": "flag",
          "type": "bool"
        }
      ],
      "name": "SentinelSet",
      "type": "event"
    },
    {
      "anonymous": false,
      "inputs": [
        {
          "indexed": true,
          "internalType": "address",
          "name": "yieldToken",
          "type": "address"
        },
        {
          "indexed": false,
          "internalType": "uint256",
          "name": "expectedValue",
          "type": "uint256"
        }
      ],
      "name": "Snap",
      "type": "event"
    },
    {
      "anonymous": false,
      "inputs": [
        {
          "indexed": true,
          "internalType": "address",
          "name": "rewardToken",
          "type": "address"
        },
        {
          "indexed": false,
          "internalType": "uint256",
          "name": "amount",
          "type": "uint256"
        }
      ],
      "name": "SweepTokens",
      "type": "event"
    },
    {
      "anonymous": false,
      "inputs": [
        {
          "indexed": false,
          "internalType": "address",
          "name": "yieldToken",
          "type": "address"
        },
        {
          "indexed": false,
          "internalType": "address",
          "name": "tokenAdapter",
          "type": "address"
        }
      ],
      "name": "TokenAdapterUpdated",
      "type": "event"
    },
    {
      "anonymous": false,
      "inputs": [
        {
          "indexed": false,
          "internalType": "address",
          "name": "transmuter",
          "type": "address"
        }
      ],
      "name": "TransmuterUpdated",
      "type": "event"
    },
    {
      "anonymous": false,
      "inputs": [
        {
          "indexed": true,
          "internalType": "address",
          "name": "underlyingToken",
          "type": "address"
        },
        {
          "indexed": false,
          "internalType": "bool",
          "name": "enabled",
          "type": "bool"
        }
      ],
      "name": "UnderlyingTokenEnabled",
      "type": "event"
    },
    {
      "anonymous": false,
      "inputs": [
        {
          "indexed": true,
          "internalType": "address",
          "name": "owner",
          "type": "address"
        },
        {
          "indexed": true,
          "internalType": "address",
          "name": "yieldToken",
          "type": "address"
        },
        {
          "indexed": false,
          "internalType": "uint256",
          "name": "shares",
          "type": "uint256"
        },
        {
          "indexed": false,
          "internalType": "address",
          "name": "recipient",
          "type": "address"
        }
      ],
      "name": "Withdraw",
      "type": "event"
    },
    {
      "anonymous": false,
      "inputs": [
        {
          "indexed": true,
          "internalType": "address",
          "name": "yieldToken",
          "type": "address"
        },
        {
          "indexed": false,
          "internalType": "bool",
          "name": "enabled",
          "type": "bool"
        }
      ],
      "name": "YieldTokenEnabled",
      "type": "event"
    },
    {
      "inputs": [],
      "name": "BPS",
      "outputs": [
        {
          "internalType": "uint256",
          "name": "",
          "type": "uint256"
        }
      ],
      "stateMutability": "view",
      "type": "function"
    },
    {
      "inputs": [],
      "name": "FIXED_POINT_SCALAR",
      "outputs": [
        {
          "internalType": "uint256",
          "name": "",
          "type": "uint256"
        }
      ],
      "stateMutability": "view",
      "type": "function"
    },
    {
      "inputs": [],
      "name": "acceptAdmin",
      "outputs": [],
      "stateMutability": "nonpayable",
      "type": "function"
    },
    {
      "inputs": [
        {
          "internalType": "address",
          "name": "owner",
          "type": "address"
        }
      ],
      "name": "accounts",
      "outputs": [
        {
          "internalType": "int256",
          "name": "debt",
          "type": "int256"
        },
        {
          "internalType": "address[]",
          "name": "depositedTokens",
          "type": "address[]"
        }
      ],
      "stateMutability": "view",
      "type": "function"
    },
    {
      "inputs": [
        {
          "internalType": "address",
          "name": "underlyingToken",
          "type": "address"
        },
        {
          "components": [
            {
              "internalType": "uint256",
              "name": "repayLimitMinimum",
              "type": "uint256"
            },
            {
              "internalType": "uint256",
              "name": "repayLimitMaximum",
              "type": "uint256"
            },
            {
              "internalType": "uint256",
              "name": "repayLimitBlocks",
              "type": "uint256"
            },
            {
              "internalType": "uint256",
              "name": "liquidationLimitMinimum",
              "type": "uint256"
            },
            {
              "internalType": "uint256",
              "name": "liquidationLimitMaximum",
              "type": "uint256"
            },
            {
              "internalType": "uint256",
              "name": "liquidationLimitBlocks",
              "type": "uint256"
            }
          ],
          "internalType": "struct IAlchemistV2AdminActions.UnderlyingTokenConfig",
          "name": "config",
          "type": "tuple"
        }
      ],
      "name": "addUnderlyingToken",
      "outputs": [],
      "stateMutability": "nonpayable",
      "type": "function"
    },
    {
      "inputs": [
        {
          "internalType": "address",
          "name": "yieldToken",
          "type": "address"
        },
        {
          "components": [
            {
              "internalType": "address",
              "name": "adapter",
              "type": "address"
            },
            {
              "internalType": "uint256",
              "name": "maximumLoss",
              "type": "uint256"
            },
            {
              "internalType": "uint256",
              "name": "maximumExpectedValue",
              "type": "uint256"
            },
            {
              "internalType": "uint256",
              "name": "creditUnlockBlocks",
              "type": "uint256"
            }
          ],
          "internalType": "struct IAlchemistV2AdminActions.YieldTokenConfig",
          "name": "config",
          "type": "tuple"
        }
      ],
      "name": "addYieldToken",
      "outputs": [],
      "stateMutability": "nonpayable",
      "type": "function"
    },
    {
      "inputs": [],
      "name": "admin",
      "outputs": [
        {
          "internalType": "address",
          "name": "",
          "type": "address"
        }
      ],
      "stateMutability": "view",
      "type": "function"
    },
    {
      "inputs": [
        {
          "internalType": "address",
          "name": "spender",
          "type": "address"
        },
        {
          "internalType": "uint256",
          "name": "amount",
          "type": "uint256"
        }
      ],
      "name": "approveMint",
      "outputs": [],
      "stateMutability": "nonpayable",
      "type": "function"
    },
    {
      "inputs": [
        {
          "internalType": "address",
          "name": "spender",
          "type": "address"
        },
        {
          "internalType": "address",
          "name": "yieldToken",
          "type": "address"
        },
        {
          "internalType": "uint256",
          "name": "shares",
          "type": "uint256"
        }
      ],
      "name": "approveWithdraw",
      "outputs": [],
      "stateMutability": "nonpayable",
      "type": "function"
    },
    {
      "inputs": [
        {
          "internalType": "uint256",
          "name": "amount",
          "type": "uint256"
        },
        {
          "internalType": "address",
          "name": "recipient",
          "type": "address"
        }
      ],
      "name": "burn",
      "outputs": [
        {
          "internalType": "uint256",
          "name": "",
          "type": "uint256"
        }
      ],
      "stateMutability": "nonpayable",
      "type": "function"
    },
    {
      "inputs": [
        {
          "internalType": "address",
          "name": "yieldToken",
          "type": "address"
        },
        {
          "internalType": "uint256",
          "name": "blocks",
          "type": "uint256"
        }
      ],
      "name": "configureCreditUnlockRate",
      "outputs": [],
      "stateMutability": "nonpayable",
      "type": "function"
    },
    {
      "inputs": [
        {
          "internalType": "address",
          "name": "underlyingToken",
          "type": "address"
        },
        {
          "internalType": "uint256",
          "name": "maximum",
          "type": "uint256"
        },
        {
          "internalType": "uint256",
          "name": "blocks",
          "type": "uint256"
        }
      ],
      "name": "configureLiquidationLimit",
      "outputs": [],
      "stateMutability": "nonpayable",
      "type": "function"
    },
    {
      "inputs": [
        {
          "internalType": "uint256",
          "name": "maximum",
          "type": "uint256"
        },
        {
          "internalType": "uint256",
          "name": "rate",
          "type": "uint256"
        }
      ],
      "name": "configureMintingLimit",
      "outputs": [],
      "stateMutability": "nonpayable",
      "type": "function"
    },
    {
      "inputs": [
        {
          "internalType": "address",
          "name": "underlyingToken",
          "type": "address"
        },
        {
          "internalType": "uint256",
          "name": "maximum",
          "type": "uint256"
        },
        {
          "internalType": "uint256",
          "name": "blocks",
          "type": "uint256"
        }
      ],
      "name": "configureRepayLimit",
      "outputs": [],
      "stateMutability": "nonpayable",
      "type": "function"
    },
    {
      "inputs": [],
      "name": "debtToken",
      "outputs": [
        {
          "internalType": "address",
          "name": "",
          "type": "address"
        }
      ],
      "stateMutability": "view",
      "type": "function"
    },
    {
      "inputs": [
        {
          "internalType": "address",
          "name": "yieldToken",
          "type": "address"
        },
        {
          "internalType": "uint256",
          "name": "amount",
          "type": "uint256"
        },
        {
          "internalType": "address",
          "name": "recipient",
          "type": "address"
        }
      ],
      "name": "deposit",
      "outputs": [
        {
          "internalType": "uint256",
          "name": "",
          "type": "uint256"
        }
      ],
      "stateMutability": "nonpayable",
      "type": "function"
    },
    {
      "inputs": [
        {
          "internalType": "address",
          "name": "yieldToken",
          "type": "address"
        },
        {
          "internalType": "uint256",
          "name": "amount",
          "type": "uint256"
        },
        {
          "internalType": "address",
          "name": "recipient",
          "type": "address"
        },
        {
          "internalType": "uint256",
          "name": "minimumAmountOut",
          "type": "uint256"
        }
      ],
      "name": "depositUnderlying",
      "outputs": [
        {
          "internalType": "uint256",
          "name": "",
          "type": "uint256"
        }
      ],
      "stateMutability": "nonpayable",
      "type": "function"
    },
    {
      "inputs": [
        {
          "internalType": "address",
          "name": "yieldToken",
          "type": "address"
        },
        {
          "internalType": "uint256",
          "name": "amount",
          "type": "uint256"
        }
      ],
      "name": "donate",
      "outputs": [],
      "stateMutability": "nonpayable",
      "type": "function"
    },
    {
      "inputs": [
        {
          "internalType": "address",
          "name": "underlyingToken",
          "type": "address"
        }
      ],
      "name": "getLiquidationLimitInfo",
      "outputs": [
        {
          "internalType": "uint256",
          "name": "currentLimit",
          "type": "uint256"
        },
        {
          "internalType": "uint256",
          "name": "rate",
          "type": "uint256"
        },
        {
          "internalType": "uint256",
          "name": "maximum",
          "type": "uint256"
        }
      ],
      "stateMutability": "view",
      "type": "function"
    },
    {
      "inputs": [],
      "name": "getMintLimitInfo",
      "outputs": [
        {
          "internalType": "uint256",
          "name": "currentLimit",
          "type": "uint256"
        },
        {
          "internalType": "uint256",
          "name": "rate",
          "type": "uint256"
        },
        {
          "internalType": "uint256",
          "name": "maximum",
          "type": "uint256"
        }
      ],
      "stateMutability": "view",
      "type": "function"
    },
    {
      "inputs": [
        {
          "internalType": "address",
          "name": "underlyingToken",
          "type": "address"
        }
      ],
      "name": "getRepayLimitInfo",
      "outputs": [
        {
          "internalType": "uint256",
          "name": "currentLimit",
          "type": "uint256"
        },
        {
          "internalType": "uint256",
          "name": "rate",
          "type": "uint256"
        },
        {
          "internalType": "uint256",
          "name": "maximum",
          "type": "uint256"
        }
      ],
      "stateMutability": "view",
      "type": "function"
    },
    {
      "inputs": [],
      "name": "getSupportedUnderlyingTokens",
      "outputs": [
        {
          "internalType": "address[]",
          "name": "",
          "type": "address[]"
        }
      ],
      "stateMutability": "view",
      "type": "function"
    },
    {
      "inputs": [],
      "name": "getSupportedYieldTokens",
      "outputs": [
        {
          "internalType": "address[]",
          "name": "",
          "type": "address[]"
        }
      ],
      "stateMutability": "view",
      "type": "function"
    },
    {
      "inputs": [
        {
          "internalType": "address",
          "name": "underlyingToken",
          "type": "address"
        }
      ],
      "name": "getUnderlyingTokenParameters",
      "outputs": [
        {
          "components": [
            {
              "internalType": "uint8",
              "name": "decimals",
              "type": "uint8"
            },
            {
              "internalType": "uint256",
              "name": "conversionFactor",
              "type": "uint256"
            },
            {
              "internalType": "bool",
              "name": "enabled",
              "type": "bool"
            }
          ],
          "internalType": "struct IAlchemistV2State.UnderlyingTokenParams",
          "name": "",
          "type": "tuple"
        }
      ],
      "stateMutability": "view",
      "type": "function"
    },
    {
      "inputs": [
        {
          "internalType": "address",
          "name": "yieldToken",
          "type": "address"
        }
      ],
      "name": "getUnderlyingTokensPerShare",
      "outputs": [
        {
          "internalType": "uint256",
          "name": "",
          "type": "uint256"
        }
      ],
      "stateMutability": "view",
      "type": "function"
    },
    {
      "inputs": [
        {
          "internalType": "address",
          "name": "yieldToken",
          "type": "address"
        }
      ],
      "name": "getYieldTokenParameters",
      "outputs": [
        {
          "components": [
            {
              "internalType": "uint8",
              "name": "decimals",
              "type": "uint8"
            },
            {
              "internalType": "address",
              "name": "underlyingToken",
              "type": "address"
            },
            {
              "internalType": "address",
              "name": "adapter",
              "type": "address"
            },
            {
              "internalType": "uint256",
              "name": "maximumLoss",
              "type": "uint256"
            },
            {
              "internalType": "uint256",
              "name": "maximumExpectedValue",
              "type": "uint256"
            },
            {
              "internalType": "uint256",
              "name": "creditUnlockRate",
              "type": "uint256"
            },
            {
              "internalType": "uint256",
              "name": "activeBalance",
              "type": "uint256"
            },
            {
              "internalType": "uint256",
              "name": "harvestableBalance",
              "type": "uint256"
            },
            {
              "internalType": "uint256",
              "name": "totalShares",
              "type": "uint256"
            },
            {
              "internalType": "uint256",
              "name": "expectedValue",
              "type": "uint256"
            },
            {
              "internalType": "uint256",
              "name": "pendingCredit",
              "type": "uint256"
            },
            {
              "internalType": "uint256",
              "name": "distributedCredit",
              "type": "uint256"
            },
            {
              "internalType": "uint256",
              "name": "lastDistributionBlock",
              "type": "uint256"
            },
            {
              "internalType": "uint256",
              "name": "accruedWeight",
              "type": "uint256"
            },
            {
              "internalType": "bool",
              "name": "enabled",
              "type": "bool"
            }
          ],
          "internalType": "struct IAlchemistV2State.YieldTokenParams",
          "name": "",
          "type": "tuple"
        }
      ],
      "stateMutability": "view",
      "type": "function"
    },
    {
      "inputs": [
        {
          "internalType": "address",
          "name": "yieldToken",
          "type": "address"
        }
      ],
      "name": "getYieldTokensPerShare",
      "outputs": [
        {
          "internalType": "uint256",
          "name": "",
          "type": "uint256"
        }
      ],
      "stateMutability": "view",
      "type": "function"
    },
    {
      "inputs": [
        {
          "internalType": "address",
          "name": "yieldToken",
          "type": "address"
        },
        {
          "internalType": "uint256",
          "name": "minimumAmountOut",
          "type": "uint256"
        }
      ],
      "name": "harvest",
      "outputs": [],
      "stateMutability": "nonpayable",
      "type": "function"
    },
    {
      "inputs": [
        {
          "components": [
            {
              "internalType": "address",
              "name": "admin",
              "type": "address"
            },
            {
              "internalType": "address",
              "name": "debtToken",
              "type": "address"
            },
            {
              "internalType": "address",
              "name": "transmuter",
              "type": "address"
            },
            {
              "internalType": "uint256",
              "name": "minimumCollateralization",
              "type": "uint256"
            },
            {
              "internalType": "uint256",
              "name": "protocolFee",
              "type": "uint256"
            },
            {
              "internalType": "address",
              "name": "protocolFeeReceiver",
              "type": "address"
            },
            {
              "internalType": "uint256",
              "name": "mintingLimitMinimum",
              "type": "uint256"
            },
            {
              "internalType": "uint256",
              "name": "mintingLimitMaximum",
              "type": "uint256"
            },
            {
              "internalType": "uint256",
              "name": "mintingLimitBlocks",
              "type": "uint256"
            },
            {
              "internalType": "address",
              "name": "whitelist",
              "type": "address"
            }
          ],
          "internalType": "struct IAlchemistV2AdminActions.InitializationParams",
          "name": "params",
          "type": "tuple"
        }
      ],
      "name": "initialize",
      "outputs": [],
      "stateMutability": "nonpayable",
      "type": "function"
    },
    {
      "inputs": [
        {
          "internalType": "address",
          "name": "underlyingToken",
          "type": "address"
        }
      ],
      "name": "isSupportedUnderlyingToken",
      "outputs": [
        {
          "internalType": "bool",
          "name": "",
          "type": "bool"
        }
      ],
      "stateMutability": "view",
      "type": "function"
    },
    {
      "inputs": [
        {
          "internalType": "address",
          "name": "yieldToken",
          "type": "address"
        }
      ],
      "name": "isSupportedYieldToken",
      "outputs": [
        {
          "internalType": "bool",
          "name": "",
          "type": "bool"
        }
      ],
      "stateMutability": "view",
      "type": "function"
    },
    {
      "inputs": [
        {
          "internalType": "address",
          "name": "",
          "type": "address"
        }
      ],
      "name": "keepers",
      "outputs": [
        {
          "internalType": "bool",
          "name": "",
          "type": "bool"
        }
      ],
      "stateMutability": "view",
      "type": "function"
    },
    {
      "inputs": [
        {
          "internalType": "address",
          "name": "yieldToken",
          "type": "address"
        },
        {
          "internalType": "uint256",
          "name": "shares",
          "type": "uint256"
        },
        {
          "internalType": "uint256",
          "name": "minimumAmountOut",
          "type": "uint256"
        }
      ],
      "name": "liquidate",
      "outputs": [
        {
          "internalType": "uint256",
          "name": "",
          "type": "uint256"
        }
      ],
      "stateMutability": "nonpayable",
      "type": "function"
    },
    {
      "inputs": [],
      "name": "minimumCollateralization",
      "outputs": [
        {
          "internalType": "uint256",
          "name": "",
          "type": "uint256"
        }
      ],
      "stateMutability": "view",
      "type": "function"
    },
    {
      "inputs": [
        {
          "internalType": "uint256",
          "name": "amount",
          "type": "uint256"
        },
        {
          "internalType": "address",
          "name": "recipient",
          "type": "address"
        }
      ],
      "name": "mint",
      "outputs": [],
      "stateMutability": "nonpayable",
      "type": "function"
    },
    {
      "inputs": [
        {
          "internalType": "address",
          "name": "owner",
          "type": "address"
        },
        {
          "internalType": "address",
          "name": "spender",
          "type": "address"
        }
      ],
      "name": "mintAllowance",
      "outputs": [
        {
          "internalType": "uint256",
          "name": "",
          "type": "uint256"
        }
      ],
      "stateMutability": "view",
      "type": "function"
    },
    {
      "inputs": [
        {
          "internalType": "address",
          "name": "owner",
          "type": "address"
        },
        {
          "internalType": "uint256",
          "name": "amount",
          "type": "uint256"
        },
        {
          "internalType": "address",
          "name": "recipient",
          "type": "address"
        }
      ],
      "name": "mintFrom",
      "outputs": [],
      "stateMutability": "nonpayable",
      "type": "function"
    },
    {
      "inputs": [
        {
          "internalType": "bytes[]",
          "name": "data",
          "type": "bytes[]"
        }
      ],
      "name": "multicall",
      "outputs": [
        {
          "internalType": "bytes[]",
          "name": "results",
          "type": "bytes[]"
        }
      ],
      "stateMutability": "payable",
      "type": "function"
    },
    {
      "inputs": [],
      "name": "pendingAdmin",
      "outputs": [
        {
          "internalType": "address",
          "name": "",
          "type": "address"
        }
      ],
      "stateMutability": "view",
      "type": "function"
    },
    {
      "inputs": [
        {
          "internalType": "address",
          "name": "owner",
          "type": "address"
        }
      ],
      "name": "poke",
      "outputs": [],
      "stateMutability": "nonpayable",
      "type": "function"
    },
    {
      "inputs": [
        {
          "internalType": "address",
          "name": "owner",
          "type": "address"
        },
        {
          "internalType": "address",
          "name": "yieldToken",
          "type": "address"
        }
      ],
      "name": "positions",
      "outputs": [
        {
          "internalType": "uint256",
          "name": "shares",
          "type": "uint256"
        },
        {
          "internalType": "uint256",
          "name": "lastAccruedWeight",
          "type": "uint256"
        }
      ],
      "stateMutability": "view",
      "type": "function"
    },
    {
      "inputs": [],
      "name": "protocolFee",
      "outputs": [
        {
          "internalType": "uint256",
          "name": "",
          "type": "uint256"
        }
      ],
      "stateMutability": "view",
      "type": "function"
    },
    {
      "inputs": [],
      "name": "protocolFeeReceiver",
      "outputs": [
        {
          "internalType": "address",
          "name": "",
          "type": "address"
        }
      ],
      "stateMutability": "view",
      "type": "function"
    },
    {
      "inputs": [
        {
          "internalType": "address",
          "name": "underlyingToken",
          "type": "address"
        },
        {
          "internalType": "uint256",
          "name": "amount",
          "type": "uint256"
        },
        {
          "internalType": "address",
          "name": "recipient",
          "type": "address"
        }
      ],
      "name": "repay",
      "outputs": [
        {
          "internalType": "uint256",
          "name": "",
          "type": "uint256"
        }
      ],
      "stateMutability": "nonpayable",
      "type": "function"
    },
    {
      "inputs": [
        {
          "internalType": "address",
          "name": "",
          "type": "address"
        }
      ],
      "name": "sentinels",
      "outputs": [
        {
          "internalType": "bool",
          "name": "",
          "type": "bool"
        }
      ],
      "stateMutability": "view",
      "type": "function"
    },
    {
      "inputs": [
        {
          "internalType": "address",
          "name": "keeper",
          "type": "address"
        },
        {
          "internalType": "bool",
          "name": "flag",
          "type": "bool"
        }
      ],
      "name": "setKeeper",
      "outputs": [],
      "stateMutability": "nonpayable",
      "type": "function"
    },
    {
      "inputs": [
        {
          "internalType": "address",
          "name": "yieldToken",
          "type": "address"
        },
        {
          "internalType": "uint256",
          "name": "value",
          "type": "uint256"
        }
      ],
      "name": "setMaximumExpectedValue",
      "outputs": [],
      "stateMutability": "nonpayable",
      "type": "function"
    },
    {
      "inputs": [
        {
          "internalType": "address",
          "name": "yieldToken",
          "type": "address"
        },
        {
          "internalType": "uint256",
          "name": "value",
          "type": "uint256"
        }
      ],
      "name": "setMaximumLoss",
      "outputs": [],
      "stateMutability": "nonpayable",
      "type": "function"
    },
    {
      "inputs": [
        {
          "internalType": "uint256",
          "name": "value",
          "type": "uint256"
        }
      ],
      "name": "setMinimumCollateralization",
      "outputs": [],
      "stateMutability": "nonpayable",
      "type": "function"
    },
    {
      "inputs": [
        {
          "internalType": "address",
          "name": "value",
          "type": "address"
        }
      ],
      "name": "setPendingAdmin",
      "outputs": [],
      "stateMutability": "nonpayable",
      "type": "function"
    },
    {
      "inputs": [
        {
          "internalType": "uint256",
          "name": "value",
          "type": "uint256"
        }
      ],
      "name": "setProtocolFee",
      "outputs": [],
      "stateMutability": "nonpayable",
      "type": "function"
    },
    {
      "inputs": [
        {
          "internalType": "address",
          "name": "value",
          "type": "address"
        }
      ],
      "name": "setProtocolFeeReceiver",
      "outputs": [],
      "stateMutability": "nonpayable",
      "type": "function"
    },
    {
      "inputs": [
        {
          "internalType": "address",
          "name": "sentinel",
          "type": "address"
        },
        {
          "internalType": "bool",
          "name": "flag",
          "type": "bool"
        }
      ],
      "name": "setSentinel",
      "outputs": [],
      "stateMutability": "nonpayable",
      "type": "function"
    },
    {
      "inputs": [
        {
          "internalType": "address",
          "name": "yieldToken",
          "type": "address"
        },
        {
          "internalType": "address",
          "name": "adapter",
          "type": "address"
        }
      ],
      "name": "setTokenAdapter",
      "outputs": [],
      "stateMutability": "nonpayable",
      "type": "function"
    },
    {
      "inputs": [
        {
          "internalType": "address",
          "name": "value",
          "type": "address"
        }
      ],
      "name": "setTransmuter",
      "outputs": [],
      "stateMutability": "nonpayable",
      "type": "function"
    },
    {
      "inputs": [
        {
          "internalType": "address",
          "name": "underlyingToken",
          "type": "address"
        },
        {
          "internalType": "bool",
          "name": "enabled",
          "type": "bool"
        }
      ],
      "name": "setUnderlyingTokenEnabled",
      "outputs": [],
      "stateMutability": "nonpayable",
      "type": "function"
    },
    {
      "inputs": [
        {
          "internalType": "address",
          "name": "yieldToken",
          "type": "address"
        },
        {
          "internalType": "bool",
          "name": "enabled",
          "type": "bool"
        }
      ],
      "name": "setYieldTokenEnabled",
      "outputs": [],
      "stateMutability": "nonpayable",
      "type": "function"
    },
    {
      "inputs": [
        {
          "internalType": "address",
          "name": "yieldToken",
          "type": "address"
        }
      ],
      "name": "snap",
      "outputs": [],
      "stateMutability": "nonpayable",
      "type": "function"
    },
    {
      "inputs": [
        {
          "internalType": "address",
          "name": "rewardToken",
          "type": "address"
        },
        {
          "internalType": "uint256",
          "name": "amount",
          "type": "uint256"
        }
      ],
      "name": "sweepTokens",
      "outputs": [],
      "stateMutability": "nonpayable",
      "type": "function"
    },
    {
      "inputs": [],
      "name": "transmuter",
      "outputs": [
        {
          "internalType": "address",
          "name": "",
          "type": "address"
        }
      ],
      "stateMutability": "view",
      "type": "function"
    },
    {
      "inputs": [],
      "name": "version",
      "outputs": [
        {
          "internalType": "string",
          "name": "",
          "type": "string"
        }
      ],
      "stateMutability": "view",
      "type": "function"
    },
    {
      "inputs": [],
      "name": "whitelist",
      "outputs": [
        {
          "internalType": "address",
          "name": "",
          "type": "address"
        }
      ],
      "stateMutability": "view",
      "type": "function"
    },
    {
      "inputs": [
        {
          "internalType": "address",
          "name": "yieldToken",
          "type": "address"
        },
        {
          "internalType": "uint256",
          "name": "shares",
          "type": "uint256"
        },
        {
          "internalType": "address",
          "name": "recipient",
          "type": "address"
        }
      ],
      "name": "withdraw",
      "outputs": [
        {
          "internalType": "uint256",
          "name": "",
          "type": "uint256"
        }
      ],
      "stateMutability": "nonpayable",
      "type": "function"
    },
    {
      "inputs": [
        {
          "internalType": "address",
          "name": "owner",
          "type": "address"
        },
        {
          "internalType": "address",
          "name": "spender",
          "type": "address"
        },
        {
          "internalType": "address",
          "name": "yieldToken",
          "type": "address"
        }
      ],
      "name": "withdrawAllowance",
      "outputs": [
        {
          "internalType": "uint256",
          "name": "",
          "type": "uint256"
        }
      ],
      "stateMutability": "view",
      "type": "function"
    },
    {
      "inputs": [
        {
          "internalType": "address",
          "name": "owner",
          "type": "address"
        },
        {
          "internalType": "address",
          "name": "yieldToken",
          "type": "address"
        },
        {
          "internalType": "uint256",
          "name": "shares",
          "type": "uint256"
        },
        {
          "internalType": "address",
          "name": "recipient",
          "type": "address"
        }
      ],
      "name": "withdrawFrom",
      "outputs": [
        {
          "internalType": "uint256",
          "name": "",
          "type": "uint256"
        }
      ],
      "stateMutability": "nonpayable",
      "type": "function"
    },
    {
      "inputs": [
        {
          "internalType": "address",
          "name": "yieldToken",
          "type": "address"
        },
        {
          "internalType": "uint256",
          "name": "shares",
          "type": "uint256"
        },
        {
          "internalType": "address",
          "name": "recipient",
          "type": "address"
        },
        {
          "internalType": "uint256",
          "name": "minimumAmountOut",
          "type": "uint256"
        }
      ],
      "name": "withdrawUnderlying",
      "outputs": [
        {
          "internalType": "uint256",
          "name": "",
          "type": "uint256"
        }
      ],
      "stateMutability": "nonpayable",
      "type": "function"
    },
    {
      "inputs": [
        {
          "internalType": "address",
          "name": "owner",
          "type": "address"
        },
        {
          "internalType": "address",
          "name": "yieldToken",
          "type": "address"
        },
        {
          "internalType": "uint256",
          "name": "shares",
          "type": "uint256"
        },
        {
          "internalType": "address",
          "name": "recipient",
          "type": "address"
        },
        {
          "internalType": "uint256",
          "name": "minimumAmountOut",
          "type": "uint256"
        }
      ],
      "name": "withdrawUnderlyingFrom",
      "outputs": [
        {
          "internalType": "uint256",
          "name": "",
          "type": "uint256"
        }
      ],
      "stateMutability": "nonpayable",
      "type": "function"
    }
  ],
  "bytecode": "0x60806040523480156200001157600080fd5b50600054610100900460ff166200002f5760005460ff161562000039565b62000039620000de565b620000a15760405162461bcd60e51b815260206004820152602e60248201527f496e697469616c697a61626c653a20636f6e747261637420697320616c72656160448201526d191e481a5b9a5d1a585b1a5e995960921b606482015260840160405180910390fd5b600054610100900460ff16158015620000c4576000805461ffff19166101011790555b8015620000d7576000805461ff00191690555b5062000102565b6000620000f630620000fc60201b62002f981760201c565b15905090565b3b151590565b615a5980620001126000396000f3fe6080604052600436106102f35760003560e01c8062796bf7146102f8578063018ee9b71461031a57806302892d701461033a5780630416f9e61461037f5780630710285c146103ba57806307e3a3af146103e85780630e18b6811461040857806313b39b9c1461041d57806315f8b3ec1461043d57806317931901146104dd57806319815a32146104f957806319a158d0146105195780631a49e55e146105395780631b962c7814610559578063249d39e91461057b578063267822471461059157806326b00c00146105be578063306f6e67146105de57806339a51be5146105fe5780633bbd64bc1461061e5780633f6384fe1461064e578063412209381461066e57806346877b1a1461068e5780634a222635146106ae5780634bd21445146106c35780634dd18bf5146106f157806351044b8e1461071157806354fd4d50146107315780635a5efc8b1461076f5780635c34586c1461079c5780635ceae9c4146107bc5780635e5c06e2146107dc5780635ee553021461080a57806363c924901461082a57806365aeec141461084a57806369328dec1461086a5780636987227a1461088a5780636bf9b3e7146108aa5780637239d2b9146108ca578063787dce3d146108ea5780637c60e0cf1461090a5780637c8c18ee1461091f57806388e6f15a1461097357806393e59dc11461099357806394bf804d146109b3578063a6459a32146109d3578063a96cb069146109f3578063a9aa522814610a13578063ac9650d814610a33578063adb4a9ad14610a53578063b0e21e8a14610a73578063b1a997ac14610a89578063b30ac7f614610aa9578063b968ee3c14610ac9578063bdfa9bae14610ae9578063ca9e8ad614610b09578063d1b9e85314610b29578063d6737ccf14610b49578063dec6603614610b69578063e69d849d14610b89578063e8b6571b14610ba9578063edca201b14610bbf578063eeb15a9c14610bdf578063f45346dc14610bff578063f851a44014610c1f578063f8d8989814610c3f578063fcd3533c14610c5f575b600080fd5b34801561030457600080fd5b50610318610313366004614d95565b610c7f565b005b34801561032657600080fd5b50610318610335366004614dce565b610ce8565b34801561034657600080fd5b5061036a610355366004614dfa565b60056020526000908152604090205460ff1681565b60405190151581526020015b60405180910390f35b34801561038b57600080fd5b5061039f61039a366004614dfa565b610e89565b60408051938452602084019290925290820152606001610376565b3480156103c657600080fd5b506103da6103d5366004614e17565b610ec1565b604051908152602001610376565b3480156103f457600080fd5b506103da610403366004614e4c565b61113f565b34801561041457600080fd5b50610318611170565b34801561042957600080fd5b50610318610438366004614dce565b611226565b34801561044957600080fd5b506104b6610458366004614dfa565b6040805160608082018352600080835260208084018290529284018190526001600160a01b03949094168452601482529282902082519384018352805460ff9081168552600182015492850192909252600201541615159082015290565b60408051825160ff1681526020808401519082015291810151151590820152606001610376565b3480156104e957600080fd5b506103da670de0b6b3a764000081565b34801561050557600080fd5b50610318610514366004614e7a565b611239565b34801561052557600080fd5b50610318610534366004614e17565b61126b565b34801561054557600080fd5b50610318610554366004614e4c565b611308565b34801561056557600080fd5b5061056e611462565b6040516103769190614ee4565b34801561058757600080fd5b506103da61271081565b34801561059d57600080fd5b506004546105b1906001600160a01b031681565b6040516103769190614ef7565b3480156105ca57600080fd5b506103186105d9366004614d95565b6114c7565b3480156105ea57600080fd5b506103186105f9366004614dce565b61153b565b34801561060a57600080fd5b50600a546105b1906001600160a01b031681565b34801561062a57600080fd5b5061036a610639366004614dfa565b60066020526000908152604090205460ff1681565b34801561065a57600080fd5b50610318610669366004614f0b565b6115bb565b34801561067a57600080fd5b50610318610689366004614d95565b611a39565b34801561069a57600080fd5b506103186106a9366004614dfa565b611aa5565b3480156106ba57600080fd5b5061056e611afa565b3480156106cf57600080fd5b506106e36106de366004614e4c565b611b5d565b604051610376929190614f4c565b3480156106fd57600080fd5b5061031861070c366004614dfa565b611b9b565b34801561071d57600080fd5b5061031861072c366004614f5a565b611bdc565b34801561073d57600080fd5b5061076260405180604001604052806005815260200164191719171b60d91b81525081565b6040516103769190614ff4565b34801561077b57600080fd5b5061078f61078a366004614dfa565b611c31565b6040516103769190615007565b3480156107a857600080fd5b506103186107b7366004614dce565b611d99565b3480156107c857600080fd5b506103da6107d7366004614f5a565b611df6565b3480156107e857600080fd5b506107fc6107f7366004614dfa565b611fdf565b6040516103769291906150c1565b34801561081657600080fd5b5061036a610825366004614dfa565b612069565b34801561083657600080fd5b50610318610845366004614e17565b612076565b34801561085657600080fd5b5061039f610865366004614dfa565b612106565b34801561087657600080fd5b506103da610885366004614f5a565b61212b565b34801561089657600080fd5b506103186108a5366004615127565b612181565b3480156108b657600080fd5b506103186108c53660046151cd565b61242a565b3480156108d657600080fd5b506007546105b1906001600160a01b031681565b3480156108f657600080fd5b50610318610905366004614e7a565b612447565b34801561091657600080fd5b5061039f612480565b34801561092b57600080fd5b506103da61093a36600461520e565b6001600160a01b039283166000908152601360209081526040808320948616835260069094018152838220929094168152925290205490565b34801561097f57600080fd5b506103da61098e366004614dfa565b6124a1565b34801561099f57600080fd5b50600b546105b1906001600160a01b031681565b3480156109bf57600080fd5b506103186109ce36600461524e565b6124d3565b3480156109df57600080fd5b506103da6109ee366004615273565b612518565b3480156109ff57600080fd5b5061036a610a0e366004614dfa565b612581565b348015610a1f57600080fd5b506103da610a2e366004614dfa565b61258e565b610a46610a413660046152bb565b6125c0565b604051610376919061532f565b348015610a5f57600080fd5b50610318610a6e366004614dfa565b612716565b348015610a7f57600080fd5b506103da60095481565b348015610a9557600080fd5b50610318610aa4366004614dfa565b61276b565b348015610ab557600080fd5b50610318610ac4366004615391565b6127a3565b348015610ad557600080fd5b506103da610ae43660046153c4565b612982565b348015610af557600080fd5b506103da610b04366004615273565b6129f8565b348015610b1557600080fd5b50610318610b2436600461541f565b612a41565b348015610b3557600080fd5b50610318610b44366004614d95565b612a7e565b348015610b5557600080fd5b50610318610b64366004614dfa565b612adc565b348015610b7557600080fd5b50610318610b84366004614dce565b612b83565b348015610b9557600080fd5b50610318610ba4366004614dce565b612c4e565b348015610bb557600080fd5b506103da60085481565b348015610bcb57600080fd5b506103da610bda366004615441565b612d9b565b348015610beb57600080fd5b50610318610bfa366004614dce565b612dfd565b348015610c0b57600080fd5b506103da610c1a366004614f5a565b612e5e565b348015610c2b57600080fd5b506003546105b1906001600160a01b031681565b348015610c4b57600080fd5b506002546105b1906001600160a01b031681565b348015610c6b57600080fd5b506103da610c7a36600461524e565b612ea8565b610c87612f9e565b6001600160a01b03821660009081526005602052604090819020805460ff1916831515179055517e7a59171ef284e295f019cc84b743f8ef2d67121ae078a0e4668a7f992f6cd890610cdc9084908490615494565b60405180910390a15050565b610cf0612fca565b610cf8612ff1565b610d0182613020565b6001600160a01b0382166000908152601560205260409020610d228361304a565b6006810180546000909155610d38811515613131565b815461010090046001600160a01b03166000610d568684308861314f565b9050600061271060095483610d6b91906154c5565b610d7591906154e4565b90506000610d838284615506565b90506000610d91858361320b565b9050610d9d8982613231565b600a54610db59086906001600160a01b0316856132e0565b600754610dcd9086906001600160a01b0316846132e0565b60075460405163bc04f0af60e01b81526001600160a01b039091169063bc04f0af90610dff908890869060040161551d565b600060405180830381600087803b158015610e1957600080fd5b505af1158015610e2d573d6000803e3d6000fd5b50505050886001600160a01b03167f71bab65ced2e5750775a0613be067df48ef06cf92a496ebf7663ae06609249548986604051610e6c929190614f4c565b60405180910390a250505050505050610e856000600155565b5050565b6001600160a01b038116600090815260116020526040812081908190610eae816133e1565b6001820154915490969195509350915050565b6000610ecb612fca565b610ed3613458565b610edf600084116134ef565b6001600160a01b0380851660009081526015602052604090208054909161010090910416610f0c86613020565b610f158661350d565b610f1e8161354b565b610f2786613589565b6000610f406000610f37336135da565b92508213613131565b6000610f5588610f50858561375d565b613783565b90506000818811610f665787610f68565b815b90506000610f768a8361379c565b90506000610f868b83308c61314f565b9050610f9460008211613131565b6001600160a01b038616600090815260126020526040812090610fb6826133e1565b905080831115610fe85787838260405163637e01ad60e01b8152600401610fdf93929190615536565b60405180910390fd5b610ff18d61304a565b610ffa336137e4565b6000611006898561320b565b9050611012338f61384e565b61101d338f8861391f565b6110383361102a836139c0565b61103390615557565b6139ea565b6110458e86613a20613a2c565b61104f8385613b63565b600754611067908a906001600160a01b0316866132e0565b60075460405163bc04f0af60e01b81526001600160a01b039091169063bc04f0af90611099908c90889060040161551d565b600060405180830381600087803b1580156110b357600080fd5b505af11580156110c7573d6000803e3d6000fd5b50505050886001600160a01b03168e6001600160a01b0316336001600160a01b03167f033fe6dadd06de536cd7b34266e12610e9d77a23d48d3d6218962a87cb7405148960405161111a91815260200190565b60405180910390a45093985050505050505050506111386000600155565b9392505050565b6001600160a01b03808316600090815260136020908152604080832093851683526005909301905220545b92915050565b600454611187906001600160a01b03161515613131565b6004546001600160a01b031633146111b1576040516282b42960e81b815260040160405180910390fd5b60048054600380546001600160a01b0383166001600160a01b03199182168117909255909116909155604051600080516020615924833981519152916111f691614ef7565b60405180910390a16000805160206159e4833981519152600060405161121c9190614ef7565b60405180910390a1565b61122e613458565b610e85338383613b8a565b611241612f9e565b6008819055604051818152600080516020615964833981519152906020015b60405180910390a150565b611273612f9e565b61127c83613bf1565b6001600160a01b038316600090815260126020526040902061129d90613bfc565b6001600160a01b03831660009081526012602052604090206112c0908383613c13565b826001600160a01b03167f0f3828e75ac2c1d15158acbdaab952f19d3a532547df5baf02f3fbbde1336d7183836040516112fb929190614f4c565b60405180910390a2505050565b611310612f9e565b61138e816001600160a01b031663fc0c546a6040518163ffffffff1660e01b8152600401602060405180830381865afa158015611351573d6000803e3d6000fd5b505050506040513d601f19601f820116820180604052508101906113759190615574565b6001600160a01b0316836001600160a01b031614613131565b61139782613020565b6001600160a01b03828116600090815260156020526040902060010180546001600160a01b0319169183169190911790556113d58282600019613c9c565b611443816001600160a01b0316632495a5996040518163ffffffff1660e01b8152600401602060405180830381865afa158015611416573d6000803e3d6000fd5b505050506040513d601f19601f8201168201806040525081019061143a9190615574565b82600019613c9c565b6000805160206159448339815191528282604051610cdc929190615591565b606060186000018054806020026020016040519081016040528092919081815260200182805480156114bd57602002820191906000526020600020905b81546001600160a01b0316815260019091019060200180831161149f575b5050505050905090565b6114cf613cc4565b6114d882613020565b6001600160a01b038216600081815260156020908152604091829020600d01805460ff191685151590811790915591519182527fb15476211644e7e7a92dd4fe21d831367f5ea58130817ad39712dff67139989691015b60405180910390a25050565b611543612f9e565b61154f600082116134ef565b61155882613020565b61156a81670de0b6b3a76400006154e4565b6001600160a01b0383166000908152601560205260409081902060040191909155517fd5710c9f352f135b893ded82d4669bd05e5b1a7ad8d615e2ae88bc732673ad7d90610cdc908490849061551d565b6115c3612fca565b6115cb612f9e565b6115dd612710826020013511156134ef565b6115ed60008260600135116134ef565b6116016115fb601884613d08565b15613131565b60006116106020830183614dfa565b9050611690816001600160a01b031663fc0c546a6040518163ffffffff1660e01b8152600401602060405180830381865afa158015611653573d6000803e3d6000fd5b505050506040513d601f19601f820116820180604052508101906116779190615574565b6001600160a01b0316846001600160a01b031614613131565b6116fa816001600160a01b0316632495a5996040518163ffffffff1660e01b8152600401602060405180830381865afa1580156116d1573d6000803e3d6000fd5b505050506040513d601f19601f820116820180604052508101906116f59190615574565b613bf1565b604051806101e0016040528061170f85613d29565b60ff168152602001826001600160a01b0316632495a5996040518163ffffffff1660e01b8152600401602060405180830381865afa158015611755573d6000803e3d6000fd5b505050506040513d601f19601f820116820180604052508101906117799190615574565b6001600160a01b0316815260209081019061179690850185614dfa565b6001600160a01b0316815260200183602001358152602001836040013581526020018360600135670de0b6b3a76400006117d091906154e4565b81526000602080830182905260408084018390526060808501849052608080860185905260a080870186905260c080880187905260e0808901889052610100808a01899052610120998a018990526001600160a01b038e81168a5260158952988790208b518154998d015160ff9091166001600160a81b0319909a1699909917988a168202989098178855958a01516001880180546001600160a01b0319169190991617909755928801516002860155908701516003850155860151600484015585015160058301559184015160068201559083015160078201559082015160088201556101408201516009820155610160820151600a820155610180820151600b8201556101a0820151600c8201556101c090910151600d909101805460ff1916911515919091179055611906601884613dfa565b50611920836119186020850185614dfa565b600019613c9c565b611992816001600160a01b0316632495a5996040518163ffffffff1660e01b8152600401602060405180830381865afa158015611961573d6000803e3d6000fd5b505050506040513d601f19601f820116820180604052508101906119859190615574565b6119186020850185614dfa565b6040516001600160a01b038416907f7d45e47bed6d03b67d9ccb28bed226dd01d1425049e21b289d6fd54732131c8390600090a2600080516020615944833981519152836119e36020850185614dfa565b6040516119f1929190615591565b60405180910390a1826001600160a01b03166000805160206159048339815191528360200135604051611a2691815260200190565b60405180910390a250610e856000600155565b611a41613cc4565b611a4a82613bf1565b6001600160a01b038216600081815260146020908152604091829020600201805460ff191685151590811790915591519182527fac216db82ec84df77384646fb0bd5f9bfd21ac8c46cfcf3a27a0d2feede572e2910161152f565b611aad612f9e565b611ac16001600160a01b03821615156134ef565b600a80546001600160a01b0319166001600160a01b0383161790556040516000805160206159a483398151915290611260908390614ef7565b606060166000018054806020026020016040519081016040528092919081815260200182805480156114bd576020028201919060005260206000209081546001600160a01b0316815260019091019060200180831161149f575050505050905090565b6001600160a01b03808316600090815260136020908152604080832093851683526001840182528083205460029094019091529020545b9250929050565b611ba3612f9e565b600480546001600160a01b0319166001600160a01b0383161790556040516000805160206159e483398151915290611260908390614ef7565b611be4612fca565b611bec613458565b611bf8600083116134ef565b611c0c6001600160a01b03821615156134ef565b611c17833384613e5b565b611c22838383613ea0565b611c2c6000600155565b505050565b611cc1604051806101e00160405280600060ff16815260200160006001600160a01b0316815260200160006001600160a01b0316815260200160008152602001600081526020016000815260200160008152602001600081526020016000815260200160008152602001600081526020016000815260200160008152602001600081526020016000151581525090565b506001600160a01b0390811660009081526015602090815260409182902082516101e081018452815460ff8082168352610100918290048716948301949094526001830154909516938101939093526002810154606084015260038101546080840152600481015460a0840152600581015460c0840152600681015460e084015260078101549383019390935260088301546101208301526009830154610140830152600a830154610160830152600b830154610180830152600c8301546101a0830152600d9092015490911615156101c082015290565b611da1612f9e565b611daf6127108211156134ef565b611db882613020565b6001600160a01b03821660008181526015602052604090819020600201839055516000805160206159048339815191529061152f9084815260200190565b6000611e00612fca565b611e08613458565b611e14600084116134ef565b611e286001600160a01b03831615156134ef565b611e3184613bf1565b611e3a8461354b565b611e43826137e4565b611e4c82613f37565b6001600160a01b03821660009081526013602052604081205490611e71908213613131565b6000611e7d868361375d565b90506000818611611e8e5785611e90565b815b6001600160a01b0388166000908152601160205260408120919250611eb4826133e1565b905080831115611edd578883826040516395e6194b60e01b8152600401610fdf93929190615536565b6000611ee98a8561320b565b9050611ef88861102a836139c0565b611f028385613b63565b600754611f1c908b9033906001600160a01b031687613fa2565b60075460405163bc04f0af60e01b81526001600160a01b039091169063bc04f0af90611f4e908d90889060040161551d565b600060405180830381600087803b158015611f6857600080fd5b505af1158015611f7c573d6000803e3d6000fd5b50505050896001600160a01b0316336001600160a01b03167fce19c3e21a8e06ec6b2c542fd707ed6c742d5dd9b947310759a8e369b36f614c868b604051611fc59291906155ab565b60405180910390a350919450505050506111386000600155565b6001600160a01b0381166000908152601360205260408120606090612003846135da565b6003820180546040805160208084028201810190925282815291839183018282801561205857602002820191906000526020600020905b81546001600160a01b0316815260019091019060200180831161203a575b505050505090509250925050915091565b600061116a601683613d08565b61207e612f9e565b61208783613bf1565b6001600160a01b03831660009081526011602052604090206120a890613bfc565b6001600160a01b03831660009081526011602052604090206120cb908383613c13565b826001600160a01b03167f86d00f048da605f1d0b35d86d59306a26293721713d9d41eef94518316eb183483836040516112fb929190614f4c565b6001600160a01b038116600090815260126020526040812081908190610eae816133e1565b6000612135612fca565b61213d613458565b6121516001600160a01b03831615156134ef565b61215a84613020565b6000612168853386866140a2565b90506121758584836132e0565b90506111386000600155565b600054610100900460ff1661219c5760005460ff16156121a0565b303b155b6122035760405162461bcd60e51b815260206004820152602e60248201527f496e697469616c697a61626c653a20636f6e747261637420697320616c72656160448201526d191e481a5b9a5d1a585b1a5e995960921b6064820152608401610fdf565b600054610100900460ff16158015612225576000805461ffff19166101011790555b612237612710836080015111156134ef565b6020820151600280546001600160a01b03199081166001600160a01b0393841617909155835160038054831691841691909117905560408401516007805483169184169190911790556060840151600855608084015160095560a0840151600a80548316918416919091179055610120840151600b8054909216921691909117905560e082015161010083015160c08401516122d4929190614144565b8051600c556020810151600d55604080820151600e556060820151600f55608090910151601055600354905160008051602061592483398151915291612325916001600160a01b0390911690614ef7565b60405180910390a1600754604051600080516020615a0483398151915291612358916001600160a01b0390911690614ef7565b60405180910390a160008051602061596483398151915260085460405161238191815260200190565b60405180910390a16000805160206159c48339815191526009546040516123aa91815260200190565b60405180910390a1600a546040516000805160206159a4833981519152916123dd916001600160a01b0390911690614ef7565b60405180910390a16000805160206159848339815191528260e0015183610100015160405161240d929190614f4c565b60405180910390a18015610e85576000805461ff00191690555050565b612432613458565b61243b82613020565b611c2c33848484614208565b61244f612f9e565b61245d6127108211156134ef565b60098190556040518181526000805160206159c483398151915290602001611260565b600080600061248f600c6133e1565b600d54600c5491959094509092509050565b6001600160a01b03811660009081526015602052604081205461116a9083906124ce9060ff16600a6156a6565b61427e565b6124db612fca565b6124e3613458565b6124ef600083116134ef565b6125036001600160a01b03821615156134ef565b61250e338383613ea0565b610e856000600155565b6000612522612fca565b61252a613458565b61253e6001600160a01b03841615156134ef565b61254785613020565b61255085613589565b600061255e863387876140a2565b905061256c8682868661314f565b9150506125796000600155565b949350505050565b600061116a601883613d08565b6001600160a01b03811660009081526015602052604081205461116a9083906125bb9060ff16600a6156a6565b61379c565b6060816001600160401b038111156125da576125da6150da565b60405190808252806020026020018201604052801561260d57816020015b60608152602001906001900390816125f85790505b50905060005b8281101561270f5760008030868685818110612631576126316156b5565b905060200281019061264391906156cb565b604051612651929190615711565b600060405180830381855af49150503d806000811461268c576040519150601f19603f3d011682016040523d82523d6000602084013e612691565b606091505b5091509150816126dc578585848181106126ad576126ad6156b5565b90506020028101906126bf91906156cb565b8260405163070c497560e21b8152600401610fdf93929190615721565b808484815181106126ef576126ef6156b5565b6020026020010181905250505080806127079061575f565b915050612613565b5092915050565b61271e612f9e565b6127326001600160a01b03821615156134ef565b600780546001600160a01b0319166001600160a01b038316179055604051600080516020615a0483398151915290611260908390614ef7565b612773612fca565b61277b613458565b61278481614297565b61278d816137e4565b61279681613f37565b6127a06000600155565b50565b6127ab612fca565b6127b3612f9e565b6127c16115fb601684613d08565b60006127cc83613d29565b6002549091506000906127e7906001600160a01b0316613d29565b90506127fb8160ff168360ff1611156134ef565b60405180606001604052808360ff168152602001838361281b919061577a565b61282690600a6156a6565b8152600060209182018190526001600160a01b0387168152601482526040908190208351815460ff90911660ff199182161782558484015160018301559382015160029091018054911515919094161790925561288c9190850135908501358535614144565b6001600160a01b0385166000908152601160209081526040918290208351815590830151600182015590820151600282015560608083015160038301556080928301516004909201919091556128ee918501359060a086013590860135614144565b6001600160a01b0385166000908152601260209081526040918290208351815590830151600182015590820151600282015560608201516003820155608090910151600490910155612941601685613dfa565b506040516001600160a01b038516907f3a0e2b79f1e0c4867b78173318e64bad2dbf7be510d51198d37900e52de2bb8c90600090a25050610e856000600155565b600061298c612fca565b612994613458565b6129a86001600160a01b03841615156134ef565b6129b185613020565b6129ba85613589565b6129c686338787614301565b60006129d4868887876140a2565b90506129e28682868661314f565b9150506129ef6000600155565b95945050505050565b6000612a02612fca565b612a0a613458565b612a1e6001600160a01b03841615156134ef565b612a2785613020565b6000612a34868685614346565b905061256c868286614426565b612a49612f9e565b612a53600c613bfc565b612a5f600c8383613c13565b6000805160206159848339815191528282604051610cdc929190614f4c565b612a86612f9e565b6001600160a01b03821660009081526006602052604090819020805460ff1916831515179055517f8dd62d4e1f60b96148552898e743aa2b571686baa26f4f1b647565dc3996c1a790610cdc9084908490615494565b612ae4612fca565b612aec612f9e565b612af581613020565b6001600160a01b038116600090815260156020526040812060050154612b1c908390614533565b6001600160a01b0383166000818152601560205260409081902060080183905551919250907fccda4b864ea094cd2323d3a440088f1171a7c3e5c46d87f6baafabe470d614da90612b709084815260200190565b60405180910390a2506127a06000600155565b612b8b612fca565b612b93612f9e565b612b9e601883613d08565b15612bbe5781604051635f8b555b60e11b8152600401610fdf9190614ef7565b612bc9601683613d08565b15612be95781604051635f8b555b60e11b8152600401610fdf9190614ef7565b600354612c019083906001600160a01b0316836132e0565b816001600160a01b03167fa85ff619388226c782b92d545a650f391a94dfff2dd1d6757db64e8e236d46e582604051612c3c91815260200190565b60405180910390a2610e856000600155565b612c56612fca565b612c5e613458565b612c698115156134ef565b612c72826145de565b612c7b33613f37565b3360009081526013602090815260408083206001600160a01b03861684526001018252808320546015909252822060070154612cb79190615506565b905080612ccc670de0b6b3a7640000846154c5565b612cd691906154e4565b6001600160a01b0384166000908152601560205260408120600c018054909190612d0190849061579d565b90915550506001600160a01b038084166000818152601560209081526040808320600c0154338085526013845282852095855260029586019093529220919091559054612d509216908461465b565b6040518281526001600160a01b0384169033907f88dcaca629d63d86330e97adc358b13dd0ebd703239aea96b7ea2fb331b16f4e9060200160405180910390a350610e856000600155565b6000612da5612fca565b612dad613458565b612dc16001600160a01b03831615156134ef565b612dca84613020565b612dd685338686614301565b6000612de4858786866140a2565b9050612df18584836132e0565b90506125796000600155565b612e05612f9e565b612e0e82613020565b6001600160a01b03821660008181526015602052604090819020600301839055517f4bd29da0a205336da3aaf81eada8ef63426a1c923b4a434e54ac7f898fa53c9a9061152f9084815260200190565b6000612e68612fca565b612e70613458565b612e846001600160a01b03831615156134ef565b612e8d84613020565b6000612e9a858585614426565b905061217585333087613fa2565b6000612eb2612fca565b612eba613458565b612ec6600084116134ef565b612eda6001600160a01b03831615156134ef565b612ee3826137e4565b612eec82613f37565b6001600160a01b03821660009081526013602052604081205490612f11908213613131565b6000818511612f205784612f22565b815b9050612f318461102a836139c0565b600254612f48906001600160a01b0316338361465b565b336001600160a01b03167fdbdf9b8e4b75e75b162d151ec8fc7f0561cabab5fcccfa2600be62223e4300c48286604051612f839291906155ab565b60405180910390a291505061116a6000600155565b3b151590565b6003546001600160a01b03163314612fc8576040516282b42960e81b815260040160405180910390fd5b565b60015415612feb57604051632ecfcaf960e01b815260040160405180910390fd5b60018055565b3360009081526006602052604090205460ff16612fc8576040516282b42960e81b815260040160405180910390fd5b61302b601882613d08565b6127a05780604051635f8b555b60e11b8152600401610fdf9190614ef7565b6001600160a01b0381166000908152601560205260409020600501548061306f575050565b600061307b8383614533565b6001600160a01b0384166000908152601560205260409020600801549091508082116130a75750505050565b60006130bc856130b78486615506565b614683565b9050806130ca575050505050565b6001600160a01b038516600090815260156020526040812060050180548392906130f5908490615506565b90915550506001600160a01b0385166000908152601560205260408120600601805483929061312590849061579d565b90915550505050505050565b806127a057604051634a613c4160e01b815260040160405180910390fd5b6001600160a01b03808516600090815260156020526040808220600101549051637647691d60e01b81529192169082908290637647691d9061319790899089906004016155ab565b6020604051808303816000875af11580156131b6573d6000803e3d6000fd5b505050506040513d601f19601f820116820180604052508101906131da91906157b5565b9050838110156132015780846040516371c4efed60e01b8152600401610fdf929190614f4c565b9695505050505050565b6001600160a01b03821660009081526014602052604081206001015461113890836154c5565b6001600160a01b03821660009081526015602052604081206009810154600a820154919290919061326186614715565b9050600061326f828461579d565b6132799085615506565b905081156132bb576007850154613298670de0b6b3a7640000846154c5565b6132a291906154e4565b85600c0160008282546132b5919061579d565b90915550505b6132c5818761579d565b600986015550506000600a840155505043600b909101555050565b600080846001600160a01b031663a9059cbb60e01b858560405160240161330892919061551d565b60408051601f198184030181529181526020820180516001600160e01b03166001600160e01b031990941693909317909252905161334691906157ce565b6000604051808303816000865af19150503d8060008114613383576040519150601f19603f3d011682016040523d82523d6000602084013e613388565b606091505b50915091508115806133b657508051158015906133b65750808060200190518101906133b491906157ea565b155b156133da5784828260405163e7e40b5b60e01b8152600401610fdf93929190615807565b5050505050565b6000808260030154436133f49190615506565b9050806134045750506002015490565b6000670de0b6b3a764000084600101548361341f91906154c5565b61342991906154e4565b9050600081856002015461343d919061579d565b8554909150811161344e57806129ef565b5050915492915050565b3233141561346257565b600b54604051633af32abf60e01b81526001600160a01b0390911690633af32abf90613492903390600401614ef7565b602060405180830381865afa1580156134af573d6000803e3d6000fd5b505050506040513d601f19601f820116820180604052508101906134d391906157ea565b612fc8576040516282b42960e81b815260040160405180910390fd5b806127a057604051630134249960e71b815260040160405180910390fd5b6001600160a01b0381166000908152601560205260409020600d015460ff166127a057806040516303f585af60e31b8152600401610fdf9190614ef7565b6001600160a01b03811660009081526014602052604090206002015460ff166127a057806040516303f585af60e31b8152600401610fdf9190614ef7565b6000613594826147bb565b6001600160a01b03831660009081526015602052604090206002015490915080821115611c2c57828282604051635c1bc28160e01b8152600401610fdf93929190615536565b6001600160a01b0381166000908152601360205260408120805490600301825b815481101561375457600082600001828154811061361a5761361a6156b5565b60009182526020808320909101546001600160a01b03908116808452601583526040808520600c0154928b16855260138452808520828652600201909352918320549193509161366984614715565b90506000811161367a5760006136b2565b6001600160a01b0384166000908152601560205260409020600701546136a8670de0b6b3a7640000836154c5565b6136b291906154e4565b6136bc908461579d565b9250818314156136cf5750505050613742565b6001600160a01b03808a1660009081526013602090815260408083209388168352600190930190529081205490670de0b6b3a7640000826137108688615506565b61371a91906154c5565b61372491906154e4565b905061372f816139c0565b613739908a615833565b98505050505050505b8061374c8161575f565b9150506135fa565b50909392505050565b6001600160a01b03821660009081526014602052604081206001015461113890836154e4565b6000806137908484614683565b905061257984826148cc565b6001600160a01b038216600090815260156020526040812060070154806137c6578291505061116a565b806137d08561492c565b6137da90856154c5565b61257991906154e4565b6001600160a01b0381166000908152601360205260408120600301905b8154811015611c2c5761383c826000018281548110613822576138226156b5565b6000918252602090912001546001600160a01b03166145de565b806138468161575f565b915050613801565b6001600160a01b038083166000908152601360209081526040808320938516835260158252808320600c0154600285019092529091205480821415613894575050505050565b6001600160a01b038416600090815260018401602052604081205490670de0b6b3a7640000826138c48587615506565b6138ce91906154c5565b6138d891906154e4565b90506138e3816139c0565b8560000160008282546138f69190615833565b9091555050506001600160a01b0390941660009081526002909301602052506040909120555050565b6001600160a01b03808416600090815260136020908152604080832093861683526001840190915281208054849290613959908490615506565b90915550506001600160a01b03831660009081526015602052604081206007018054849290613989908490615506565b90915550506001600160a01b03831660009081526001820160205260409020546139ba576133da60038201846149a6565b50505050565b6000600160ff1b82106139e657604051630134249960e71b815260040160405180910390fd5b5090565b6001600160a01b0382166000908152601360205260408120805490918391839190613a16908490615872565b9091555050505050565b60006111388284615506565b6001600160a01b03808416600090815260156020908152604080832081516101e081018352815460ff8082168352610100918290048816958301959095526001830154909616928101929092526002810154606083015260038101546080830152600481015460a0830152600581015460c0830152600681015460e083015260078101549482019490945260088401546101208201526009840154610140820152600a840154610160820152600b840154610180820152600c8401546101a0820152600d909301541615156101c0830152613b078585614533565b90506000613b1d8360c00151868663ffffffff16565b90506000613b34846101200151848763ffffffff16565b6001600160a01b0390971660009081526015602052604090206005810192909255506008019490945550505050565b6000613b6e836133e1565b9050613b7a8282615506565b6002840155505043600390910155565b6001600160a01b03838116600081815260136020908152604080832094871680845260058601835292819020869055518581529192917f09cd9a2cf8d0dd3936aef63dae78b3085d8abaaec9311145115b15e5e3eaea41910160405180910390a350505050565b61302b601682613d08565b613c05816133e1565b600282015543600390910155565b611c20811115613c3657604051630134249960e71b815260040160405180910390fd5b8260040154821015613c5b57604051630134249960e71b815260040160405180910390fd5b8183600201541115613c6f57600283018290555b81835580613c85670de0b6b3a7640000846154c5565b613c8f91906154e4565b8360010181905550505050565b600080846001600160a01b031663095ea7b360e01b858560405160240161330892919061551d565b6003546001600160a01b0316331415613cd957565b3360009081526005602052604090205460ff16612fc8576040516282b42960e81b815260040160405180910390fd5b6001600160a01b031660009081526001919091016020526040902054151590565b60408051600481526024810182526020810180516001600160e01b031663313ce56760e01b1790529051600091829182916001600160a01b03861691613d6f91906157ce565b600060405180830381855afa9150503d8060008114613daa576040519150601f19603f3d011682016040523d82523d6000602084013e613daf565b606091505b5091509150811580613dc2575060208151105b15613de65783828260405163e7e40b5b60e01b8152600401610fdf93929190615807565b8080602001905181019061257991906158b3565b6000613e068383613d08565b15613e135750600061116a565b508154600180820184556000848152602080822090930180546001600160a01b0319166001600160a01b03959095169485179055845493815293810190915260409092205590565b6001600160a01b03808416600090815260136020908152604080832093861683526005840190915281208054849290613e95908490615506565b909155505050505050565b613ea982614aea565b613eb283614297565b613ebb836137e4565b613ec483613f37565b613ed183611033846139c0565b613eda83614b1d565b613ee5600c83613b63565b600254613efc906001600160a01b03168284614b8f565b826001600160a01b03167fbcad3d7d3dfccb90d49c6063bf70f828901fefc88937d90af74e58e6e55bc39d83836040516112fb9291906155ab565b6001600160a01b0381166000908152601360205260408120600301905b8154811015611c2c57613f9083836000018381548110613f7657613f766156b5565b6000918252602090912001546001600160a01b031661384e565b80613f9a8161575f565b915050613f54565b604080516001600160a01b0385811660248301528481166044830152606480830185905283518084039091018152608490920183526020820180516001600160e01b03166323b872dd60e01b179052915160009283929088169161400691906157ce565b6000604051808303816000865af19150503d8060008114614043576040519150601f19603f3d011682016040523d82523d6000602084013e614048565b606091505b5091509150811580614076575080511580159061407657508080602001905181019061407491906157ea565b155b1561409a5785828260405163e7e40b5b60e01b8152600401610fdf93929190615807565b505050505050565b60006140ad84614297565b6140b6846137e4565b60006140c2868561379c565b90506140cd85613f37565b6140d885878661391f565b6140e58682613a20613a2c565b6140ee85614b1d565b856001600160a01b0316856001600160a01b03167f3ed4ee04a905a278b050a856bbe7ddaaf327a30514373e65aa6103beeae488c386866040516141339291906155ab565b60405180910390a395945050505050565b6141766040518060a0016040528060008152602001600081526020016000815260200160008152602001600081525090565b611c2083111561419957604051630134249960e71b815260040160405180910390fd5b818410156141ba57604051630134249960e71b815260040160405180910390fd5b6040518060a0016040528085815260200184670de0b6b3a7640000876141e091906154c5565b6141ea91906154e4565b81526020018581526020014381526020018381525090509392505050565b6001600160a01b038481166000818152601360209081526040808320888616808552600682018452828520968916808652968452938290208790559051868152909493917f14d43ec44802545adffd2e9b5d923acf7ae9106d7774f3fd01a3af424e0f262e910160405180910390a45050505050565b60008061428b848461379c565b90506125798482614533565b6001600160a01b0381166000908152601360205260408120600301905b8154811015611c2c576142ef8260000182815481106142d5576142d56156b5565b6000918252602090912001546001600160a01b031661304a565b806142f98161575f565b9150506142b4565b6001600160a01b038085166000908152601360209081526040808320878516845260068101835281842094871684529390915281208054849290613125908490615506565b6001600160a01b0380841660009081526015602052604081206001810154815492939192908216916101009091041661438181333089613fa2565b604051629dd64160e51b81526000906001600160a01b038416906313bac820906143b1908a9030906004016155ab565b6020604051808303816000875af11580156143d0573d6000803e3d6000fd5b505050506040513d601f19601f820116820180604052508101906143f491906157b5565b90508581101561441b5780866040516371c4efed60e01b8152600401610fdf929190614f4c565b979650505050505050565b6000614434600084116134ef565b6001600160a01b03808516600090815260156020526040902080549091610100909104166144618661350d565b61446a8161354b565b61447386613589565b61447c8661304a565b614485846137e4565b61448f848761384e565b600061449c858888614bb7565b90506144ab8787614c95613a2c565b600383015460088401548110156144db5787878260405163a3528cf560e01b8152600401610fdf93929190615536565b876001600160a01b0316336001600160a01b03167f364bb76a44233df8584c690de6da7810626a5e77192f3ebc942c35bcb1add24f89896040516145209291906155ab565b60405180910390a3509695505050505050565b6001600160a01b03808316600090815260156020526040812060018101548154929391929116906145689060ff16600a6156a6565b816001600160a01b031663a035b1fe6040518163ffffffff1660e01b8152600401602060405180830381865afa1580156145a6573d6000803e3d6000fd5b505050506040513d601f19601f820116820180604052508101906145ca91906157b5565b6145d490866154c5565b6129ef91906154e4565b6001600160a01b03811660009081526015602052604081209061460083614715565b90508061460c57505050565b6007820154614623670de0b6b3a7640000836154c5565b61462d91906154e4565b82600c016000828254614640919061579d565b925050819055508082600a016000828254613a16919061579d565b600080846001600160a01b03166379cc679060e01b858560405160240161330892919061551d565b6001600160a01b0380831660009081526015602090815260408083206001810154825163501ad8ff60e11b8152925194959194911692839263a035b1fe92600480830193928290030181865afa1580156146e1573d6000803e3d6000fd5b505050506040513d601f19601f8201168201806040525081019061470591906157b5565b82546145ca9060ff16600a6156a6565b6001600160a01b0381166000908152601560205260408120600981015480614741575060009392505050565b6004820154600a830154600b84015460008361475d8343615506565b61476791906154c5565b9050670de0b6b3a76400008110614787576147828386615506565b6147af565b82670de0b6b3a764000061479b83886154c5565b6147a591906154e4565b6147af9190615506565b98975050505050505050565b6001600160a01b03808216600090815260156020908152604080832081516101e081018352815460ff8082168352610100918290048816958301959095526001830154909616928101929092526002810154606083015260038101546080830152600481015460a0830152600581015460c08301819052600682015460e084015260078201549583019590955260088101546101208301526009810154610140830152600a810154610160830152600b810154610180830152600c8101546101a0830152600d015490911615156101c08201529091829061489d908590614533565b6101208301519091508181116148b45760006129ef565b806127106148c28483615506565b6145d491906154c5565b6001600160a01b0382166000908152601560205260408120600701546148f357508061116a565b6148fc8361492c565b6001600160a01b03841660009081526015602052604090206007015461492290846154c5565b61113891906154e4565b6001600160a01b0381166000908152601560205260408120600581015480614955579392505050565b60006149618583614533565b600884015490915080821161497a575090949350505050565b600061498a876130b78486615506565b90508061499c57509195945050505050565b61441b8185615506565b6001600160a01b0381166000908152600183016020526040812054806149d057600091505061116a565b806149da816158d6565b8554909250600091506149ef90600190615506565b9050808214614a8f576000856000018281548110614a0f57614a0f6156b5565b60009182526020909120015486546001600160a01b0390911691508190879085908110614a3e57614a3e6156b5565b600091825260209091200180546001600160a01b0319166001600160a01b0392909216919091179055614a7283600161579d565b6001600160a01b0390911660009081526001870160205260409020555b8454859080614aa057614aa06158ed565b60008281526020808220600019908401810180546001600160a01b03191690559092019092556001600160a01b039590951681526001958601909452505060408220919091555090565b6000614af6600c6133e1565b905080821115610e855781816040516313d73d6b60e01b8152600401610fdf929190614f4c565b6001600160a01b038116600090815260136020526040812054908113614b41575050565b600081670de0b6b3a7640000614b5685614ca1565b614b6091906154c5565b614b6a91906154e4565b9050600854811015611c2c5760405163fddafdf560e01b815260040160405180910390fd5b600080846001600160a01b03166340c10f1960e01b858560405160240161330892919061551d565b600080614bc484846148cc565b6001600160a01b0380871660009081526013602090815260408083209389168352600190930190522054909150614c1c576001600160a01b0385166000908152601360205260409020614c1a9060030185613dfa565b505b6001600160a01b0380861660009081526013602090815260408083209388168352600190930190529081208054839290614c5790849061579d565b90915550506001600160a01b03841660009081526015602052604081206007018054839290614c8790849061579d565b909155509095945050505050565b6000611138828461579d565b6001600160a01b03811660009081526013602052604081208190600301815b8154811015613754576000826000018281548110614ce057614ce06156b5565b60009182526020808320909101546001600160a01b03908116808452601583526040808520548b84168652601385528186208387526001019094528420549094506101009092041691614d33848361427e565b9050614d3f838261320b565b614d49908861579d565b9650505050508080614d5a9061575f565b915050614cc0565b6001600160a01b03811681146127a057600080fd5b8035614d8281614d62565b919050565b80151581146127a057600080fd5b60008060408385031215614da857600080fd5b8235614db381614d62565b91506020830135614dc381614d87565b809150509250929050565b60008060408385031215614de157600080fd5b8235614dec81614d62565b946020939093013593505050565b600060208284031215614e0c57600080fd5b813561113881614d62565b600080600060608486031215614e2c57600080fd5b8335614e3781614d62565b95602085013595506040909401359392505050565b60008060408385031215614e5f57600080fd5b8235614e6a81614d62565b91506020830135614dc381614d62565b600060208284031215614e8c57600080fd5b5035919050565b6001600160a01b03169052565b600081518084526020808501945080840160005b83811015614ed95781516001600160a01b031687529582019590820190600101614eb4565b509495945050505050565b6020815260006111386020830184614ea0565b6001600160a01b0391909116815260200190565b60008082840360a0811215614f1f57600080fd5b8335614f2a81614d62565b92506080601f1982011215614f3e57600080fd5b506020830190509250929050565b918252602082015260400190565b600080600060608486031215614f6f57600080fd5b8335614f7a81614d62565b9250602084013591506040840135614f9181614d62565b809150509250925092565b60005b83811015614fb7578181015183820152602001614f9f565b838111156139ba5750506000910152565b60008151808452614fe0816020860160208601614f9c565b601f01601f19169290920160200192915050565b6020815260006111386020830184614fc8565b815160ff1681526101e0810160208301516150256020840182614e93565b5060408301516150386040840182614e93565b50606083810151908301526080808401519083015260a0808401519083015260c0808401519083015260e08084015190830152610100808401519083015261012080840151908301526101408084015190830152610160808401519083015261018080840151908301526101a080840151908301526101c0928301511515929091019190915290565b8281526040602082015260006125796040830184614ea0565b634e487b7160e01b600052604160045260246000fd5b60405161014081016001600160401b038111828210171561512157634e487b7160e01b600052604160045260246000fd5b60405290565b6000610140828403121561513a57600080fd5b6151426150f0565b61514b83614d77565b815261515960208401614d77565b602082015261516a60408401614d77565b6040820152606083013560608201526080830135608082015261518f60a08401614d77565b60a082015260c083013560c082015260e083013560e08201526101008084013581830152506101206151c2818501614d77565b908201529392505050565b6000806000606084860312156151e257600080fd5b83356151ed81614d62565b925060208401356151fd81614d62565b929592945050506040919091013590565b60008060006060848603121561522357600080fd5b833561522e81614d62565b9250602084013561523e81614d62565b91506040840135614f9181614d62565b6000806040838503121561526157600080fd5b823591506020830135614dc381614d62565b6000806000806080858703121561528957600080fd5b843561529481614d62565b93506020850135925060408501356152ab81614d62565b9396929550929360600135925050565b600080602083850312156152ce57600080fd5b82356001600160401b03808211156152e557600080fd5b818501915085601f8301126152f957600080fd5b81358181111561530857600080fd5b8660208260051b850101111561531d57600080fd5b60209290920196919550909350505050565b6000602080830181845280855180835260408601915060408160051b870101925083870160005b8281101561538457603f19888603018452615372858351614fc8565b94509285019290850190600101615356565b5092979650505050505050565b60008082840360e08112156153a557600080fd5b83356153b081614d62565b925060c0601f1982011215614f3e57600080fd5b600080600080600060a086880312156153dc57600080fd5b85356153e781614d62565b945060208601356153f781614d62565b935060408601359250606086013561540e81614d62565b949793965091946080013592915050565b6000806040838503121561543257600080fd5b50508035926020909101359150565b6000806000806080858703121561545757600080fd5b843561546281614d62565b9350602085013561547281614d62565b925060408501359150606085013561548981614d62565b939692955090935050565b6001600160a01b039290921682521515602082015260400190565b634e487b7160e01b600052601160045260246000fd5b60008160001904831182151516156154df576154df6154af565b500290565b60008261550157634e487b7160e01b600052601260045260246000fd5b500490565b600082821015615518576155186154af565b500390565b6001600160a01b03929092168252602082015260400190565b6001600160a01b039390931683526020830191909152604082015260600190565b6000600160ff1b82141561556d5761556d6154af565b5060000390565b60006020828403121561558657600080fd5b815161113881614d62565b6001600160a01b0392831681529116602082015260400190565b9182526001600160a01b0316602082015260400190565b600181815b808511156155fd5781600019048211156155e3576155e36154af565b808516156155f057918102915b93841c93908002906155c7565b509250929050565b6000826156145750600161116a565b816156215750600061116a565b816001811461563757600281146156415761565d565b600191505061116a565b60ff841115615652576156526154af565b50506001821b61116a565b5060208310610133831016604e8410600b8410161715615680575081810a61116a565b61568a83836155c2565b806000190482111561569e5761569e6154af565b029392505050565b600061113860ff841683615605565b634e487b7160e01b600052603260045260246000fd5b6000808335601e198436030181126156e257600080fd5b8301803591506001600160401b038211156156fc57600080fd5b602001915036819003821315611b9457600080fd5b8183823760009101908152919050565b60408152826040820152828460608301376000606084830101526000601f19601f850116820160608382030160208401526132016060820185614fc8565b6000600019821415615773576157736154af565b5060010190565b600060ff821660ff841680821015615794576157946154af565b90039392505050565b600082198211156157b0576157b06154af565b500190565b6000602082840312156157c757600080fd5b5051919050565b600082516157e0818460208701614f9c565b9190910192915050565b6000602082840312156157fc57600080fd5b815161113881614d87565b6001600160a01b038416815282151560208201526060604082018190526000906129ef90830184614fc8565b60008083128015600160ff1b850184121615615851576158516154af565b6001600160ff1b038401831381161561586c5761586c6154af565b50500390565b600080821280156001600160ff1b0384900385131615615894576158946154af565b600160ff1b83900384128116156158ad576158ad6154af565b50500190565b6000602082840312156158c557600080fd5b815160ff8116811461113857600080fd5b6000816158e5576158e56154af565b506000190190565b634e487b7160e01b600052603160045260246000fdfe75bfe099d672835dbb3c09443e8493c7f306b46d695f749eb0bcf7352bef014754e4612788f90384e6843298d7854436f3a585b2c3831ab66abf1de63bfa6c2d0da5485c3be09248db5d9e03e12a4d5ef2df8074685a3dbb6e4e2a6c36f3e4726f428e543b1146a0996303f0250c6fe0682874c690989e63ae53bf75bed8ef6f8353d6f6057b53994c31faf6112674bd84b37caab3af81c269080ae9904ebbeb76203fab169061f503a4139455a7dfc20cc2d5a59c97d5bb810e431f4059aad7d10d75876659a287a59a6ccfa2e3fff42f84d94b542837acd30bc184d562de40a728e84b447788a55ff664fbfb5c3983925f88b80b672a1b0b8271c94b22df35e42bb1780117f5788c6e0042e955291223819875891ddf465b8e4fbb85a933e9a26469706673582212208be4725d51f6443ac82561e51e9583496f2a89046617b1c03b5ae302973168c864736f6c634300080b0033",
  "linkReferences": {},
  "deployedLinkReferences": {}
}