{
  "_format": "hh-sol-artifact-1",
  "contractName": "AlchemistV2",
  "sourceName": "contracts/AlchemistV2.sol",
  "abi": [
    {
      "inputs": [],
      "stateMutability": "nonpayable",
      "type": "constructor"
    },
    {
      "inputs": [
        {
          "internalType": "address",
          "name": "target",
          "type": "address"
        },
        {
          "internalType": "bool",
          "name": "success",
          "type": "bool"
        },
        {
          "internalType": "bytes",
          "name": "data",
          "type": "bytes"
        }
      ],
      "name": "ERC20CallFailed",
      "type": "error"
    },
    {
      "inputs": [
        {
          "internalType": "address",
          "name": "yieldToken",
          "type": "address"
        },
        {
          "internalType": "uint256",
          "name": "expectedValue",
          "type": "uint256"
        },
        {
          "internalType": "uint256",
          "name": "maximumExpectedValue",
          "type": "uint256"
        }
      ],
      "name": "ExpectedValueExceeded",
      "type": "error"
    },
    {
      "inputs": [],
      "name": "IllegalArgument",
      "type": "error"
    },
    {
      "inputs": [],
      "name": "IllegalState",
      "type": "error"
    },
    {
      "inputs": [
        {
          "internalType": "address",
          "name": "underlyingToken",
          "type": "address"
        },
        {
          "internalType": "uint256",
          "name": "amount",
          "type": "uint256"
        },
        {
          "internalType": "uint256",
          "name": "available",
          "type": "uint256"
        }
      ],
      "name": "LiquidationLimitExceeded",
      "type": "error"
    },
    {
      "inputs": [],
      "name": "LockAlreadyClaimed",
      "type": "error"
    },
    {
      "inputs": [
        {
          "internalType": "address",
          "name": "yieldToken",
          "type": "address"
        },
        {
          "internalType": "uint256",
          "name": "loss",
          "type": "uint256"
        },
        {
          "internalType": "uint256",
          "name": "maximumLoss",
          "type": "uint256"
        }
      ],
      "name": "LossExceeded",
      "type": "error"
    },
    {
      "inputs": [
        {
          "internalType": "uint256",
          "name": "amount",
          "type": "uint256"
        },
        {
          "internalType": "uint256",
          "name": "available",
          "type": "uint256"
        }
      ],
      "name": "MintingLimitExceeded",
      "type": "error"
    },
    {
      "inputs": [
        {
          "internalType": "bytes",
          "name": "data",
          "type": "bytes"
        },
        {
          "internalType": "bytes",
          "name": "result",
          "type": "bytes"
        }
      ],
      "name": "MulticallFailed",
      "type": "error"
    },
    {
      "inputs": [
        {
          "internalType": "address",
          "name": "underlyingToken",
          "type": "address"
        },
        {
          "internalType": "uint256",
          "name": "amount",
          "type": "uint256"
        },
        {
          "internalType": "uint256",
          "name": "available",
          "type": "uint256"
        }
      ],
      "name": "RepayLimitExceeded",
      "type": "error"
    },
    {
      "inputs": [
        {
          "internalType": "uint256",
          "name": "amount",
          "type": "uint256"
        },
        {
          "internalType": "uint256",
          "name": "minimumAmountOut",
          "type": "uint256"
        }
      ],
      "name": "SlippageExceeded",
      "type": "error"
    },
    {
      "inputs": [
        {
          "internalType": "address",
          "name": "token",
          "type": "address"
        }
      ],
      "name": "TokenDisabled",
      "type": "error"
    },
    {
      "inputs": [],
      "name": "Unauthorized",
      "type": "error"
    },
    {
      "inputs": [],
      "name": "Undercollateralized",
      "type": "error"
    },
    {
      "inputs": [
        {
          "internalType": "address",
          "name": "token",
          "type": "address"
        }
      ],
      "name": "UnsupportedToken",
      "type": "error"
    },
    {
      "anonymous": false,
      "inputs": [
        {
          "indexed": true,
          "internalType": "address",
          "name": "underlyingToken",
          "type": "address"
        }
      ],
      "name": "AddUnderlyingToken",
      "type": "event"
    },
    {
      "anonymous": false,
      "inputs": [
        {
          "indexed": true,
          "internalType": "address",
          "name": "yieldToken",
          "type": "address"
        }
      ],
      "name": "AddYieldToken",
      "type": "event"
    },
    {
      "anonymous": false,
      "inputs": [
        {
          "indexed": false,
          "internalType": "address",
          "name": "admin",
          "type": "address"
        }
      ],
      "name": "AdminUpdated",
      "type": "event"
    },
    {
      "anonymous": false,
      "inputs": [
        {
          "indexed": true,
          "internalType": "address",
          "name": "owner",
          "type": "address"
        },
        {
          "indexed": true,
          "internalType": "address",
          "name": "spender",
          "type": "address"
        },
        {
          "indexed": false,
          "internalType": "uint256",
          "name": "amount",
          "type": "uint256"
        }
      ],
      "name": "ApproveMint",
      "type": "event"
    },
    {
      "anonymous": false,
      "inputs": [
        {
          "indexed": true,
          "internalType": "address",
          "name": "owner",
          "type": "address"
        },
        {
          "indexed": true,
          "internalType": "address",
          "name": "spender",
          "type": "address"
        },
        {
          "indexed": true,
          "internalType": "address",
          "name": "yieldToken",
          "type": "address"
        },
        {
          "indexed": false,
          "internalType": "uint256",
          "name": "amount",
          "type": "uint256"
        }
      ],
      "name": "ApproveWithdraw",
      "type": "event"
    },
    {
      "anonymous": false,
      "inputs": [
        {
          "indexed": true,
          "internalType": "address",
          "name": "sender",
          "type": "address"
        },
        {
          "indexed": false,
          "internalType": "uint256",
          "name": "amount",
          "type": "uint256"
        },
        {
          "indexed": false,
          "internalType": "address",
          "name": "recipient",
          "type": "address"
        }
      ],
      "name": "Burn",
      "type": "event"
    },
    {
      "anonymous": false,
      "inputs": [
        {
          "indexed": false,
          "internalType": "address",
          "name": "yieldToken",
          "type": "address"
        },
        {
          "indexed": false,
          "internalType": "uint256",
          "name": "blocks",
          "type": "uint256"
        }
      ],
      "name": "CreditUnlockRateUpdated",
      "type": "event"
    },
    {
      "anonymous": false,
      "inputs": [
        {
          "indexed": true,
          "internalType": "address",
          "name": "sender",
          "type": "address"
        },
        {
          "indexed": true,
          "internalType": "address",
          "name": "yieldToken",
          "type": "address"
        },
        {
          "indexed": false,
          "internalType": "uint256",
          "name": "amount",
          "type": "uint256"
        },
        {
          "indexed": false,
          "internalType": "address",
          "name": "recipient",
          "type": "address"
        }
      ],
      "name": "Deposit",
      "type": "event"
    },
    {
      "anonymous": false,
      "inputs": [
        {
          "indexed": true,
          "internalType": "address",
          "name": "sender",
          "type": "address"
        },
        {
          "indexed": true,
          "internalType": "address",
          "name": "yieldToken",
          "type": "address"
        },
        {
          "indexed": false,
          "internalType": "uint256",
          "name": "amount",
          "type": "uint256"
        }
      ],
      "name": "Donate",
      "type": "event"
    },
    {
      "anonymous": false,
      "inputs": [
        {
          "indexed": true,
          "internalType": "address",
          "name": "yieldToken",
          "type": "address"
        },
        {
          "indexed": false,
          "internalType": "uint256",
          "name": "minimumAmountOut",
          "type": "uint256"
        },
        {
          "indexed": false,
          "internalType": "uint256",
          "name": "totalHarvested",
          "type": "uint256"
        },
        {
          "indexed": false,
          "internalType": "uint256",
          "name": "credit",
          "type": "uint256"
        }
      ],
      "name": "Harvest",
      "type": "event"
    },
    {
      "anonymous": false,
      "inputs": [
        {
          "indexed": false,
          "internalType": "address",
          "name": "sentinel",
          "type": "address"
        },
        {
          "indexed": false,
          "internalType": "bool",
          "name": "flag",
          "type": "bool"
        }
      ],
      "name": "KeeperSet",
      "type": "event"
    },
    {
      "anonymous": false,
      "inputs": [
        {
          "indexed": true,
          "internalType": "address",
          "name": "owner",
          "type": "address"
        },
        {
          "indexed": true,
          "internalType": "address",
          "name": "yieldToken",
          "type": "address"
        },
        {
          "indexed": true,
          "internalType": "address",
          "name": "underlyingToken",
          "type": "address"
        },
        {
          "indexed": false,
          "internalType": "uint256",
          "name": "shares",
          "type": "uint256"
        },
        {
          "indexed": false,
          "internalType": "uint256",
          "name": "credit",
          "type": "uint256"
        }
      ],
      "name": "Liquidate",
      "type": "event"
    },
    {
      "anonymous": false,
      "inputs": [
        {
          "indexed": true,
          "internalType": "address",
          "name": "underlyingToken",
          "type": "address"
        },
        {
          "indexed": false,
          "internalType": "uint256",
          "name": "maximum",
          "type": "uint256"
        },
        {
          "indexed": false,
          "internalType": "uint256",
          "name": "blocks",
          "type": "uint256"
        }
      ],
      "name": "LiquidationLimitUpdated",
      "type": "event"
    },
    {
      "anonymous": false,
      "inputs": [
        {
          "indexed": true,
          "internalType": "address",
          "name": "yieldToken",
          "type": "address"
        },
        {
          "indexed": false,
          "internalType": "uint256",
          "name": "maximumExpectedValue",
          "type": "uint256"
        }
      ],
      "name": "MaximumExpectedValueUpdated",
      "type": "event"
    },
    {
      "anonymous": false,
      "inputs": [
        {
          "indexed": true,
          "internalType": "address",
          "name": "yieldToken",
          "type": "address"
        },
        {
          "indexed": false,
          "internalType": "uint256",
          "name": "maximumLoss",
          "type": "uint256"
        }
      ],
      "name": "MaximumLossUpdated",
      "type": "event"
    },
    {
      "anonymous": false,
      "inputs": [
        {
          "indexed": false,
          "internalType": "uint256",
          "name": "minimumCollateralization",
          "type": "uint256"
        }
      ],
      "name": "MinimumCollateralizationUpdated",
      "type": "event"
    },
    {
      "anonymous": false,
      "inputs": [
        {
          "indexed": true,
          "internalType": "address",
          "name": "owner",
          "type": "address"
        },
        {
          "indexed": false,
          "internalType": "uint256",
          "name": "amount",
          "type": "uint256"
        },
        {
          "indexed": false,
          "internalType": "address",
          "name": "recipient",
          "type": "address"
        }
      ],
      "name": "Mint",
      "type": "event"
    },
    {
      "anonymous": false,
      "inputs": [
        {
          "indexed": false,
          "internalType": "uint256",
          "name": "maximum",
          "type": "uint256"
        },
        {
          "indexed": false,
          "internalType": "uint256",
          "name": "blocks",
          "type": "uint256"
        }
      ],
      "name": "MintingLimitUpdated",
      "type": "event"
    },
    {
      "anonymous": false,
      "inputs": [
        {
          "indexed": false,
          "internalType": "address",
          "name": "pendingAdmin",
          "type": "address"
        }
      ],
      "name": "PendingAdminUpdated",
      "type": "event"
    },
    {
      "anonymous": false,
      "inputs": [
        {
          "indexed": false,
          "internalType": "address",
          "name": "protocolFeeReceiver",
          "type": "address"
        }
      ],
      "name": "ProtocolFeeReceiverUpdated",
      "type": "event"
    },
    {
      "anonymous": false,
      "inputs": [
        {
          "indexed": false,
          "internalType": "uint256",
          "name": "protocolFee",
          "type": "uint256"
        }
      ],
      "name": "ProtocolFeeUpdated",
      "type": "event"
    },
    {
      "anonymous": false,
      "inputs": [
        {
          "indexed": true,
          "internalType": "address",
          "name": "sender",
          "type": "address"
        },
        {
          "indexed": true,
          "internalType": "address",
          "name": "underlyingToken",
          "type": "address"
        },
        {
          "indexed": false,
          "internalType": "uint256",
          "name": "amount",
          "type": "uint256"
        },
        {
          "indexed": false,
          "internalType": "address",
          "name": "recipient",
          "type": "address"
        },
        {
          "indexed": false,
          "internalType": "uint256",
          "name": "credit",
          "type": "uint256"
        }
      ],
      "name": "Repay",
      "type": "event"
    },
    {
      "anonymous": false,
      "inputs": [
        {
          "indexed": true,
          "internalType": "address",
          "name": "underlyingToken",
          "type": "address"
        },
        {
          "indexed": false,
          "internalType": "uint256",
          "name": "maximum",
          "type": "uint256"
        },
        {
          "indexed": false,
          "internalType": "uint256",
          "name": "blocks",
          "type": "uint256"
        }
      ],
      "name": "RepayLimitUpdated",
      "type": "event"
    },
    {
      "anonymous": false,
      "inputs": [
        {
          "indexed": false,
          "internalType": "address",
          "name": "sentinel",
          "type": "address"
        },
        {
          "indexed": false,
          "internalType": "bool",
          "name": "flag",
          "type": "bool"
        }
      ],
      "name": "SentinelSet",
      "type": "event"
    },
    {
      "anonymous": false,
      "inputs": [
        {
          "indexed": true,
          "internalType": "address",
          "name": "yieldToken",
          "type": "address"
        },
        {
          "indexed": false,
          "internalType": "uint256",
          "name": "expectedValue",
          "type": "uint256"
        }
      ],
      "name": "Snap",
      "type": "event"
    },
    {
      "anonymous": false,
      "inputs": [
        {
          "indexed": true,
          "internalType": "address",
          "name": "rewardToken",
          "type": "address"
        },
        {
          "indexed": false,
          "internalType": "uint256",
          "name": "amount",
          "type": "uint256"
        }
      ],
      "name": "SweepTokens",
      "type": "event"
    },
    {
      "anonymous": false,
      "inputs": [
        {
          "indexed": false,
          "internalType": "address",
          "name": "yieldToken",
          "type": "address"
        },
        {
          "indexed": false,
          "internalType": "address",
          "name": "tokenAdapter",
          "type": "address"
        }
      ],
      "name": "TokenAdapterUpdated",
      "type": "event"
    },
    {
      "anonymous": false,
      "inputs": [
        {
          "indexed": false,
          "internalType": "address",
          "name": "transmuter",
          "type": "address"
        }
      ],
      "name": "TransmuterUpdated",
      "type": "event"
    },
    {
      "anonymous": false,
      "inputs": [
        {
          "indexed": true,
          "internalType": "address",
          "name": "underlyingToken",
          "type": "address"
        },
        {
          "indexed": false,
          "internalType": "bool",
          "name": "enabled",
          "type": "bool"
        }
      ],
      "name": "UnderlyingTokenEnabled",
      "type": "event"
    },
    {
      "anonymous": false,
      "inputs": [
        {
          "indexed": true,
          "internalType": "address",
          "name": "owner",
          "type": "address"
        },
        {
          "indexed": true,
          "internalType": "address",
          "name": "yieldToken",
          "type": "address"
        },
        {
          "indexed": false,
          "internalType": "uint256",
          "name": "shares",
          "type": "uint256"
        },
        {
          "indexed": false,
          "internalType": "address",
          "name": "recipient",
          "type": "address"
        }
      ],
      "name": "Withdraw",
      "type": "event"
    },
    {
      "anonymous": false,
      "inputs": [
        {
          "indexed": true,
          "internalType": "address",
          "name": "yieldToken",
          "type": "address"
        },
        {
          "indexed": false,
          "internalType": "bool",
          "name": "enabled",
          "type": "bool"
        }
      ],
      "name": "YieldTokenEnabled",
      "type": "event"
    },
    {
      "inputs": [],
      "name": "BPS",
      "outputs": [
        {
          "internalType": "uint256",
          "name": "",
          "type": "uint256"
        }
      ],
      "stateMutability": "view",
      "type": "function"
    },
    {
      "inputs": [],
      "name": "FIXED_POINT_SCALAR",
      "outputs": [
        {
          "internalType": "uint256",
          "name": "",
          "type": "uint256"
        }
      ],
      "stateMutability": "view",
      "type": "function"
    },
    {
      "inputs": [],
      "name": "acceptAdmin",
      "outputs": [],
      "stateMutability": "nonpayable",
      "type": "function"
    },
    {
      "inputs": [
        {
          "internalType": "address",
          "name": "owner",
          "type": "address"
        }
      ],
      "name": "accounts",
      "outputs": [
        {
          "internalType": "int256",
          "name": "debt",
          "type": "int256"
        },
        {
          "internalType": "address[]",
          "name": "depositedTokens",
          "type": "address[]"
        }
      ],
      "stateMutability": "view",
      "type": "function"
    },
    {
      "inputs": [
        {
          "internalType": "address",
          "name": "underlyingToken",
          "type": "address"
        },
        {
          "components": [
            {
              "internalType": "uint256",
              "name": "repayLimitMinimum",
              "type": "uint256"
            },
            {
              "internalType": "uint256",
              "name": "repayLimitMaximum",
              "type": "uint256"
            },
            {
              "internalType": "uint256",
              "name": "repayLimitBlocks",
              "type": "uint256"
            },
            {
              "internalType": "uint256",
              "name": "liquidationLimitMinimum",
              "type": "uint256"
            },
            {
              "internalType": "uint256",
              "name": "liquidationLimitMaximum",
              "type": "uint256"
            },
            {
              "internalType": "uint256",
              "name": "liquidationLimitBlocks",
              "type": "uint256"
            }
          ],
          "internalType": "struct IAlchemistV2AdminActions.UnderlyingTokenConfig",
          "name": "config",
          "type": "tuple"
        }
      ],
      "name": "addUnderlyingToken",
      "outputs": [],
      "stateMutability": "nonpayable",
      "type": "function"
    },
    {
      "inputs": [
        {
          "internalType": "address",
          "name": "yieldToken",
          "type": "address"
        },
        {
          "components": [
            {
              "internalType": "address",
              "name": "adapter",
              "type": "address"
            },
            {
              "internalType": "uint256",
              "name": "maximumLoss",
              "type": "uint256"
            },
            {
              "internalType": "uint256",
              "name": "maximumExpectedValue",
              "type": "uint256"
            },
            {
              "internalType": "uint256",
              "name": "creditUnlockBlocks",
              "type": "uint256"
            }
          ],
          "internalType": "struct IAlchemistV2AdminActions.YieldTokenConfig",
          "name": "config",
          "type": "tuple"
        }
      ],
      "name": "addYieldToken",
      "outputs": [],
      "stateMutability": "nonpayable",
      "type": "function"
    },
    {
      "inputs": [],
      "name": "admin",
      "outputs": [
        {
          "internalType": "address",
          "name": "",
          "type": "address"
        }
      ],
      "stateMutability": "view",
      "type": "function"
    },
    {
      "inputs": [
        {
          "internalType": "address",
          "name": "spender",
          "type": "address"
        },
        {
          "internalType": "uint256",
          "name": "amount",
          "type": "uint256"
        }
      ],
      "name": "approveMint",
      "outputs": [],
      "stateMutability": "nonpayable",
      "type": "function"
    },
    {
      "inputs": [
        {
          "internalType": "address",
          "name": "spender",
          "type": "address"
        },
        {
          "internalType": "address",
          "name": "yieldToken",
          "type": "address"
        },
        {
          "internalType": "uint256",
          "name": "shares",
          "type": "uint256"
        }
      ],
      "name": "approveWithdraw",
      "outputs": [],
      "stateMutability": "nonpayable",
      "type": "function"
    },
    {
      "inputs": [
        {
          "internalType": "uint256",
          "name": "amount",
          "type": "uint256"
        },
        {
          "internalType": "address",
          "name": "recipient",
          "type": "address"
        }
      ],
      "name": "burn",
      "outputs": [
        {
          "internalType": "uint256",
          "name": "",
          "type": "uint256"
        }
      ],
      "stateMutability": "nonpayable",
      "type": "function"
    },
    {
      "inputs": [
        {
          "internalType": "address",
          "name": "yieldToken",
          "type": "address"
        },
        {
          "internalType": "uint256",
          "name": "blocks",
          "type": "uint256"
        }
      ],
      "name": "configureCreditUnlockRate",
      "outputs": [],
      "stateMutability": "nonpayable",
      "type": "function"
    },
    {
      "inputs": [
        {
          "internalType": "address",
          "name": "underlyingToken",
          "type": "address"
        },
        {
          "internalType": "uint256",
          "name": "maximum",
          "type": "uint256"
        },
        {
          "internalType": "uint256",
          "name": "blocks",
          "type": "uint256"
        }
      ],
      "name": "configureLiquidationLimit",
      "outputs": [],
      "stateMutability": "nonpayable",
      "type": "function"
    },
    {
      "inputs": [
        {
          "internalType": "uint256",
          "name": "maximum",
          "type": "uint256"
        },
        {
          "internalType": "uint256",
          "name": "rate",
          "type": "uint256"
        }
      ],
      "name": "configureMintingLimit",
      "outputs": [],
      "stateMutability": "nonpayable",
      "type": "function"
    },
    {
      "inputs": [
        {
          "internalType": "address",
          "name": "underlyingToken",
          "type": "address"
        },
        {
          "internalType": "uint256",
          "name": "maximum",
          "type": "uint256"
        },
        {
          "internalType": "uint256",
          "name": "blocks",
          "type": "uint256"
        }
      ],
      "name": "configureRepayLimit",
      "outputs": [],
      "stateMutability": "nonpayable",
      "type": "function"
    },
    {
      "inputs": [],
      "name": "debtToken",
      "outputs": [
        {
          "internalType": "address",
          "name": "",
          "type": "address"
        }
      ],
      "stateMutability": "view",
      "type": "function"
    },
    {
      "inputs": [
        {
          "internalType": "address",
          "name": "yieldToken",
          "type": "address"
        },
        {
          "internalType": "uint256",
          "name": "amount",
          "type": "uint256"
        },
        {
          "internalType": "address",
          "name": "recipient",
          "type": "address"
        }
      ],
      "name": "deposit",
      "outputs": [
        {
          "internalType": "uint256",
          "name": "",
          "type": "uint256"
        }
      ],
      "stateMutability": "nonpayable",
      "type": "function"
    },
    {
      "inputs": [
        {
          "internalType": "address",
          "name": "yieldToken",
          "type": "address"
        },
        {
          "internalType": "uint256",
          "name": "amount",
          "type": "uint256"
        },
        {
          "internalType": "address",
          "name": "recipient",
          "type": "address"
        },
        {
          "internalType": "uint256",
          "name": "minimumAmountOut",
          "type": "uint256"
        }
      ],
      "name": "depositUnderlying",
      "outputs": [
        {
          "internalType": "uint256",
          "name": "",
          "type": "uint256"
        }
      ],
      "stateMutability": "nonpayable",
      "type": "function"
    },
    {
      "inputs": [
        {
          "internalType": "address",
          "name": "yieldToken",
          "type": "address"
        },
        {
          "internalType": "uint256",
          "name": "amount",
          "type": "uint256"
        }
      ],
      "name": "donate",
      "outputs": [],
      "stateMutability": "nonpayable",
      "type": "function"
    },
    {
      "inputs": [
        {
          "internalType": "address",
          "name": "underlyingToken",
          "type": "address"
        }
      ],
      "name": "getLiquidationLimitInfo",
      "outputs": [
        {
          "internalType": "uint256",
          "name": "currentLimit",
          "type": "uint256"
        },
        {
          "internalType": "uint256",
          "name": "rate",
          "type": "uint256"
        },
        {
          "internalType": "uint256",
          "name": "maximum",
          "type": "uint256"
        }
      ],
      "stateMutability": "view",
      "type": "function"
    },
    {
      "inputs": [],
      "name": "getMintLimitInfo",
      "outputs": [
        {
          "internalType": "uint256",
          "name": "currentLimit",
          "type": "uint256"
        },
        {
          "internalType": "uint256",
          "name": "rate",
          "type": "uint256"
        },
        {
          "internalType": "uint256",
          "name": "maximum",
          "type": "uint256"
        }
      ],
      "stateMutability": "view",
      "type": "function"
    },
    {
      "inputs": [
        {
          "internalType": "address",
          "name": "underlyingToken",
          "type": "address"
        }
      ],
      "name": "getRepayLimitInfo",
      "outputs": [
        {
          "internalType": "uint256",
          "name": "currentLimit",
          "type": "uint256"
        },
        {
          "internalType": "uint256",
          "name": "rate",
          "type": "uint256"
        },
        {
          "internalType": "uint256",
          "name": "maximum",
          "type": "uint256"
        }
      ],
      "stateMutability": "view",
      "type": "function"
    },
    {
      "inputs": [],
      "name": "getSupportedUnderlyingTokens",
      "outputs": [
        {
          "internalType": "address[]",
          "name": "",
          "type": "address[]"
        }
      ],
      "stateMutability": "view",
      "type": "function"
    },
    {
      "inputs": [],
      "name": "getSupportedYieldTokens",
      "outputs": [
        {
          "internalType": "address[]",
          "name": "",
          "type": "address[]"
        }
      ],
      "stateMutability": "view",
      "type": "function"
    },
    {
      "inputs": [
        {
          "internalType": "address",
          "name": "underlyingToken",
          "type": "address"
        }
      ],
      "name": "getUnderlyingTokenParameters",
      "outputs": [
        {
          "components": [
            {
              "internalType": "uint8",
              "name": "decimals",
              "type": "uint8"
            },
            {
              "internalType": "uint256",
              "name": "conversionFactor",
              "type": "uint256"
            },
            {
              "internalType": "bool",
              "name": "enabled",
              "type": "bool"
            }
          ],
          "internalType": "struct IAlchemistV2State.UnderlyingTokenParams",
          "name": "",
          "type": "tuple"
        }
      ],
      "stateMutability": "view",
      "type": "function"
    },
    {
      "inputs": [
        {
          "internalType": "address",
          "name": "yieldToken",
          "type": "address"
        }
      ],
      "name": "getUnderlyingTokensPerShare",
      "outputs": [
        {
          "internalType": "uint256",
          "name": "",
          "type": "uint256"
        }
      ],
      "stateMutability": "view",
      "type": "function"
    },
    {
      "inputs": [
        {
          "internalType": "address",
          "name": "yieldToken",
          "type": "address"
        }
      ],
      "name": "getYieldTokenParameters",
      "outputs": [
        {
          "components": [
            {
              "internalType": "uint8",
              "name": "decimals",
              "type": "uint8"
            },
            {
              "internalType": "address",
              "name": "underlyingToken",
              "type": "address"
            },
            {
              "internalType": "address",
              "name": "adapter",
              "type": "address"
            },
            {
              "internalType": "uint256",
              "name": "maximumLoss",
              "type": "uint256"
            },
            {
              "internalType": "uint256",
              "name": "maximumExpectedValue",
              "type": "uint256"
            },
            {
              "internalType": "uint256",
              "name": "creditUnlockRate",
              "type": "uint256"
            },
            {
              "internalType": "uint256",
              "name": "activeBalance",
              "type": "uint256"
            },
            {
              "internalType": "uint256",
              "name": "harvestableBalance",
              "type": "uint256"
            },
            {
              "internalType": "uint256",
              "name": "totalShares",
              "type": "uint256"
            },
            {
              "internalType": "uint256",
              "name": "expectedValue",
              "type": "uint256"
            },
            {
              "internalType": "uint256",
              "name": "pendingCredit",
              "type": "uint256"
            },
            {
              "internalType": "uint256",
              "name": "distributedCredit",
              "type": "uint256"
            },
            {
              "internalType": "uint256",
              "name": "lastDistributionBlock",
              "type": "uint256"
            },
            {
              "internalType": "uint256",
              "name": "accruedWeight",
              "type": "uint256"
            },
            {
              "internalType": "bool",
              "name": "enabled",
              "type": "bool"
            }
          ],
          "internalType": "struct IAlchemistV2State.YieldTokenParams",
          "name": "",
          "type": "tuple"
        }
      ],
      "stateMutability": "view",
      "type": "function"
    },
    {
      "inputs": [
        {
          "internalType": "address",
          "name": "yieldToken",
          "type": "address"
        }
      ],
      "name": "getYieldTokensPerShare",
      "outputs": [
        {
          "internalType": "uint256",
          "name": "",
          "type": "uint256"
        }
      ],
      "stateMutability": "view",
      "type": "function"
    },
    {
      "inputs": [
        {
          "internalType": "address",
          "name": "yieldToken",
          "type": "address"
        },
        {
          "internalType": "uint256",
          "name": "minimumAmountOut",
          "type": "uint256"
        }
      ],
      "name": "harvest",
      "outputs": [],
      "stateMutability": "nonpayable",
      "type": "function"
    },
    {
      "inputs": [
        {
          "components": [
            {
              "internalType": "address",
              "name": "admin",
              "type": "address"
            },
            {
              "internalType": "address",
              "name": "debtToken",
              "type": "address"
            },
            {
              "internalType": "address",
              "name": "transmuter",
              "type": "address"
            },
            {
              "internalType": "uint256",
              "name": "minimumCollateralization",
              "type": "uint256"
            },
            {
              "internalType": "uint256",
              "name": "protocolFee",
              "type": "uint256"
            },
            {
              "internalType": "address",
              "name": "protocolFeeReceiver",
              "type": "address"
            },
            {
              "internalType": "uint256",
              "name": "mintingLimitMinimum",
              "type": "uint256"
            },
            {
              "internalType": "uint256",
              "name": "mintingLimitMaximum",
              "type": "uint256"
            },
            {
              "internalType": "uint256",
              "name": "mintingLimitBlocks",
              "type": "uint256"
            },
            {
              "internalType": "address",
              "name": "whitelist",
              "type": "address"
            }
          ],
          "internalType": "struct IAlchemistV2AdminActions.InitializationParams",
          "name": "params",
          "type": "tuple"
        }
      ],
      "name": "initialize",
      "outputs": [],
      "stateMutability": "nonpayable",
      "type": "function"
    },
    {
      "inputs": [
        {
          "internalType": "address",
          "name": "underlyingToken",
          "type": "address"
        }
      ],
      "name": "isSupportedUnderlyingToken",
      "outputs": [
        {
          "internalType": "bool",
          "name": "",
          "type": "bool"
        }
      ],
      "stateMutability": "view",
      "type": "function"
    },
    {
      "inputs": [
        {
          "internalType": "address",
          "name": "yieldToken",
          "type": "address"
        }
      ],
      "name": "isSupportedYieldToken",
      "outputs": [
        {
          "internalType": "bool",
          "name": "",
          "type": "bool"
        }
      ],
      "stateMutability": "view",
      "type": "function"
    },
    {
      "inputs": [
        {
          "internalType": "address",
          "name": "",
          "type": "address"
        }
      ],
      "name": "keepers",
      "outputs": [
        {
          "internalType": "bool",
          "name": "",
          "type": "bool"
        }
      ],
      "stateMutability": "view",
      "type": "function"
    },
    {
      "inputs": [
        {
          "internalType": "address",
          "name": "yieldToken",
          "type": "address"
        },
        {
          "internalType": "uint256",
          "name": "shares",
          "type": "uint256"
        },
        {
          "internalType": "uint256",
          "name": "minimumAmountOut",
          "type": "uint256"
        }
      ],
      "name": "liquidate",
      "outputs": [
        {
          "internalType": "uint256",
          "name": "",
          "type": "uint256"
        }
      ],
      "stateMutability": "nonpayable",
      "type": "function"
    },
    {
      "inputs": [],
      "name": "minimumCollateralization",
      "outputs": [
        {
          "internalType": "uint256",
          "name": "",
          "type": "uint256"
        }
      ],
      "stateMutability": "view",
      "type": "function"
    },
    {
      "inputs": [
        {
          "internalType": "uint256",
          "name": "amount",
          "type": "uint256"
        },
        {
          "internalType": "address",
          "name": "recipient",
          "type": "address"
        }
      ],
      "name": "mint",
      "outputs": [],
      "stateMutability": "nonpayable",
      "type": "function"
    },
    {
      "inputs": [
        {
          "internalType": "address",
          "name": "owner",
          "type": "address"
        },
        {
          "internalType": "address",
          "name": "spender",
          "type": "address"
        }
      ],
      "name": "mintAllowance",
      "outputs": [
        {
          "internalType": "uint256",
          "name": "",
          "type": "uint256"
        }
      ],
      "stateMutability": "view",
      "type": "function"
    },
    {
      "inputs": [
        {
          "internalType": "address",
          "name": "owner",
          "type": "address"
        },
        {
          "internalType": "uint256",
          "name": "amount",
          "type": "uint256"
        },
        {
          "internalType": "address",
          "name": "recipient",
          "type": "address"
        }
      ],
      "name": "mintFrom",
      "outputs": [],
      "stateMutability": "nonpayable",
      "type": "function"
    },
    {
      "inputs": [
        {
          "internalType": "bytes[]",
          "name": "data",
          "type": "bytes[]"
        }
      ],
      "name": "multicall",
      "outputs": [
        {
          "internalType": "bytes[]",
          "name": "results",
          "type": "bytes[]"
        }
      ],
      "stateMutability": "payable",
      "type": "function"
    },
    {
      "inputs": [],
      "name": "pendingAdmin",
      "outputs": [
        {
          "internalType": "address",
          "name": "",
          "type": "address"
        }
      ],
      "stateMutability": "view",
      "type": "function"
    },
    {
      "inputs": [
        {
          "internalType": "address",
          "name": "owner",
          "type": "address"
        }
      ],
      "name": "poke",
      "outputs": [],
      "stateMutability": "nonpayable",
      "type": "function"
    },
    {
      "inputs": [
        {
          "internalType": "address",
          "name": "owner",
          "type": "address"
        },
        {
          "internalType": "address",
          "name": "yieldToken",
          "type": "address"
        }
      ],
      "name": "positions",
      "outputs": [
        {
          "internalType": "uint256",
          "name": "shares",
          "type": "uint256"
        },
        {
          "internalType": "uint256",
          "name": "lastAccruedWeight",
          "type": "uint256"
        }
      ],
      "stateMutability": "view",
      "type": "function"
    },
    {
      "inputs": [],
      "name": "protocolFee",
      "outputs": [
        {
          "internalType": "uint256",
          "name": "",
          "type": "uint256"
        }
      ],
      "stateMutability": "view",
      "type": "function"
    },
    {
      "inputs": [],
      "name": "protocolFeeReceiver",
      "outputs": [
        {
          "internalType": "address",
          "name": "",
          "type": "address"
        }
      ],
      "stateMutability": "view",
      "type": "function"
    },
    {
      "inputs": [
        {
          "internalType": "address",
          "name": "underlyingToken",
          "type": "address"
        },
        {
          "internalType": "uint256",
          "name": "amount",
          "type": "uint256"
        },
        {
          "internalType": "address",
          "name": "recipient",
          "type": "address"
        }
      ],
      "name": "repay",
      "outputs": [
        {
          "internalType": "uint256",
          "name": "",
          "type": "uint256"
        }
      ],
      "stateMutability": "nonpayable",
      "type": "function"
    },
    {
      "inputs": [
        {
          "internalType": "address",
          "name": "",
          "type": "address"
        }
      ],
      "name": "sentinels",
      "outputs": [
        {
          "internalType": "bool",
          "name": "",
          "type": "bool"
        }
      ],
      "stateMutability": "view",
      "type": "function"
    },
    {
      "inputs": [
        {
          "internalType": "address",
          "name": "keeper",
          "type": "address"
        },
        {
          "internalType": "bool",
          "name": "flag",
          "type": "bool"
        }
      ],
      "name": "setKeeper",
      "outputs": [],
      "stateMutability": "nonpayable",
      "type": "function"
    },
    {
      "inputs": [
        {
          "internalType": "address",
          "name": "yieldToken",
          "type": "address"
        },
        {
          "internalType": "uint256",
          "name": "value",
          "type": "uint256"
        }
      ],
      "name": "setMaximumExpectedValue",
      "outputs": [],
      "stateMutability": "nonpayable",
      "type": "function"
    },
    {
      "inputs": [
        {
          "internalType": "address",
          "name": "yieldToken",
          "type": "address"
        },
        {
          "internalType": "uint256",
          "name": "value",
          "type": "uint256"
        }
      ],
      "name": "setMaximumLoss",
      "outputs": [],
      "stateMutability": "nonpayable",
      "type": "function"
    },
    {
      "inputs": [
        {
          "internalType": "uint256",
          "name": "value",
          "type": "uint256"
        }
      ],
      "name": "setMinimumCollateralization",
      "outputs": [],
      "stateMutability": "nonpayable",
      "type": "function"
    },
    {
      "inputs": [
        {
          "internalType": "address",
          "name": "value",
          "type": "address"
        }
      ],
      "name": "setPendingAdmin",
      "outputs": [],
      "stateMutability": "nonpayable",
      "type": "function"
    },
    {
      "inputs": [
        {
          "internalType": "uint256",
          "name": "value",
          "type": "uint256"
        }
      ],
      "name": "setProtocolFee",
      "outputs": [],
      "stateMutability": "nonpayable",
      "type": "function"
    },
    {
      "inputs": [
        {
          "internalType": "address",
          "name": "value",
          "type": "address"
        }
      ],
      "name": "setProtocolFeeReceiver",
      "outputs": [],
      "stateMutability": "nonpayable",
      "type": "function"
    },
    {
      "inputs": [
        {
          "internalType": "address",
          "name": "sentinel",
          "type": "address"
        },
        {
          "internalType": "bool",
          "name": "flag",
          "type": "bool"
        }
      ],
      "name": "setSentinel",
      "outputs": [],
      "stateMutability": "nonpayable",
      "type": "function"
    },
    {
      "inputs": [
        {
          "internalType": "address",
          "name": "yieldToken",
          "type": "address"
        },
        {
          "internalType": "address",
          "name": "adapter",
          "type": "address"
        }
      ],
      "name": "setTokenAdapter",
      "outputs": [],
      "stateMutability": "nonpayable",
      "type": "function"
    },
    {
      "inputs": [
        {
          "internalType": "address",
          "name": "value",
          "type": "address"
        }
      ],
      "name": "setTransmuter",
      "outputs": [],
      "stateMutability": "nonpayable",
      "type": "function"
    },
    {
      "inputs": [
        {
          "internalType": "address",
          "name": "underlyingToken",
          "type": "address"
        },
        {
          "internalType": "bool",
          "name": "enabled",
          "type": "bool"
        }
      ],
      "name": "setUnderlyingTokenEnabled",
      "outputs": [],
      "stateMutability": "nonpayable",
      "type": "function"
    },
    {
      "inputs": [
        {
          "internalType": "address",
          "name": "yieldToken",
          "type": "address"
        },
        {
          "internalType": "bool",
          "name": "enabled",
          "type": "bool"
        }
      ],
      "name": "setYieldTokenEnabled",
      "outputs": [],
      "stateMutability": "nonpayable",
      "type": "function"
    },
    {
      "inputs": [
        {
          "internalType": "address",
          "name": "yieldToken",
          "type": "address"
        }
      ],
      "name": "snap",
      "outputs": [],
      "stateMutability": "nonpayable",
      "type": "function"
    },
    {
      "inputs": [
        {
          "internalType": "address",
          "name": "rewardToken",
          "type": "address"
        },
        {
          "internalType": "uint256",
          "name": "amount",
          "type": "uint256"
        }
      ],
      "name": "sweepTokens",
      "outputs": [],
      "stateMutability": "nonpayable",
      "type": "function"
    },
    {
      "inputs": [],
      "name": "transmuter",
      "outputs": [
        {
          "internalType": "address",
          "name": "",
          "type": "address"
        }
      ],
      "stateMutability": "view",
      "type": "function"
    },
    {
      "inputs": [],
      "name": "version",
      "outputs": [
        {
          "internalType": "string",
          "name": "",
          "type": "string"
        }
      ],
      "stateMutability": "view",
      "type": "function"
    },
    {
      "inputs": [],
      "name": "whitelist",
      "outputs": [
        {
          "internalType": "address",
          "name": "",
          "type": "address"
        }
      ],
      "stateMutability": "view",
      "type": "function"
    },
    {
      "inputs": [
        {
          "internalType": "address",
          "name": "yieldToken",
          "type": "address"
        },
        {
          "internalType": "uint256",
          "name": "shares",
          "type": "uint256"
        },
        {
          "internalType": "address",
          "name": "recipient",
          "type": "address"
        }
      ],
      "name": "withdraw",
      "outputs": [
        {
          "internalType": "uint256",
          "name": "",
          "type": "uint256"
        }
      ],
      "stateMutability": "nonpayable",
      "type": "function"
    },
    {
      "inputs": [
        {
          "internalType": "address",
          "name": "owner",
          "type": "address"
        },
        {
          "internalType": "address",
          "name": "spender",
          "type": "address"
        },
        {
          "internalType": "address",
          "name": "yieldToken",
          "type": "address"
        }
      ],
      "name": "withdrawAllowance",
      "outputs": [
        {
          "internalType": "uint256",
          "name": "",
          "type": "uint256"
        }
      ],
      "stateMutability": "view",
      "type": "function"
    },
    {
      "inputs": [
        {
          "internalType": "address",
          "name": "owner",
          "type": "address"
        },
        {
          "internalType": "address",
          "name": "yieldToken",
          "type": "address"
        },
        {
          "internalType": "uint256",
          "name": "shares",
          "type": "uint256"
        },
        {
          "internalType": "address",
          "name": "recipient",
          "type": "address"
        }
      ],
      "name": "withdrawFrom",
      "outputs": [
        {
          "internalType": "uint256",
          "name": "",
          "type": "uint256"
        }
      ],
      "stateMutability": "nonpayable",
      "type": "function"
    },
    {
      "inputs": [
        {
          "internalType": "address",
          "name": "yieldToken",
          "type": "address"
        },
        {
          "internalType": "uint256",
          "name": "shares",
          "type": "uint256"
        },
        {
          "internalType": "address",
          "name": "recipient",
          "type": "address"
        },
        {
          "internalType": "uint256",
          "name": "minimumAmountOut",
          "type": "uint256"
        }
      ],
      "name": "withdrawUnderlying",
      "outputs": [
        {
          "internalType": "uint256",
          "name": "",
          "type": "uint256"
        }
      ],
      "stateMutability": "nonpayable",
      "type": "function"
    },
    {
      "inputs": [
        {
          "internalType": "address",
          "name": "owner",
          "type": "address"
        },
        {
          "internalType": "address",
          "name": "yieldToken",
          "type": "address"
        },
        {
          "internalType": "uint256",
          "name": "shares",
          "type": "uint256"
        },
        {
          "internalType": "address",
          "name": "recipient",
          "type": "address"
        },
        {
          "internalType": "uint256",
          "name": "minimumAmountOut",
          "type": "uint256"
        }
      ],
      "name": "withdrawUnderlyingFrom",
      "outputs": [
        {
          "internalType": "uint256",
          "name": "",
          "type": "uint256"
        }
      ],
      "stateMutability": "nonpayable",
      "type": "function"
    }
  ],
  "bytecode": "0x60806040523480156200001157600080fd5b50600054610100900460ff166200002f5760005460ff161562000039565b62000039620000de565b620000a15760405162461bcd60e51b815260206004820152602e60248201527f496e697469616c697a61626c653a20636f6e747261637420697320616c72656160448201526d191e481a5b9a5d1a585b1a5e995960921b606482015260840160405180910390fd5b600054610100900460ff16158015620000c4576000805461ffff19166101011790555b8015620000d7576000805461ff00191690555b5062000102565b6000620000f630620000fc60201b62002f911760201c565b15905090565b3b151590565b615a6880620001126000396000f3fe6080604052600436106102f35760003560e01c8062796bf7146102f8578063018ee9b71461031a57806302892d701461033a5780630416f9e61461037f5780630710285c146103ae57806307e3a3af146103dc5780630e18b681146103fc57806313b39b9c1461041157806315f8b3ec1461043157806317931901146104d157806319815a32146104ed57806319a158d01461050d5780631a49e55e1461052d5780631b962c781461054d578063249d39e91461056f578063267822471461058557806326b00c00146105b2578063306f6e67146105d257806339a51be5146105f25780633bbd64bc146106125780633f6384fe14610642578063412209381461066257806346877b1a146106825780634a222635146106a25780634bd21445146106b75780634dd18bf5146106e557806351044b8e1461070557806354fd4d50146107255780635a5efc8b146107635780635c34586c146107905780635ceae9c4146107b05780635e5c06e2146107d05780635ee55302146107fe57806363c924901461081e57806365aeec141461083e57806369328dec1461085e5780636987227a1461087e5780636bf9b3e71461089e5780637239d2b9146108be578063787dce3d146108de5780637c60e0cf146108fe5780637c8c18ee1461091357806388e6f15a1461096757806393e59dc11461098757806394bf804d146109a7578063a6459a32146109c7578063a96cb069146109e7578063a9aa522814610a07578063ac9650d814610a27578063adb4a9ad14610a47578063b0e21e8a14610a67578063b1a997ac14610a7d578063b30ac7f614610a9d578063b968ee3c14610abd578063bdfa9bae14610add578063ca9e8ad614610afd578063d1b9e85314610b1d578063d6737ccf14610b3d578063dec6603614610b5d578063e69d849d14610b7d578063e8b6571b14610b9d578063edca201b14610bb3578063eeb15a9c14610bd3578063f45346dc14610bf3578063f851a44014610c13578063f8d8989814610c33578063fcd3533c14610c53575b600080fd5b34801561030457600080fd5b50610318610313366004614d8e565b610c73565b005b34801561032657600080fd5b50610318610335366004614dc7565b610cdc565b34801561034657600080fd5b5061036a610355366004614df3565b60056020526000908152604090205460ff1681565b60405190151581526020015b60405180910390f35b34801561038b57600080fd5b5061039f61039a366004614df3565b610e7f565b60405161037693929190614e10565b3480156103ba57600080fd5b506103ce6103c9366004614e26565b610eb7565b604051908152602001610376565b3480156103e857600080fd5b506103ce6103f7366004614e5b565b611135565b34801561040857600080fd5b50610318611166565b34801561041d57600080fd5b5061031861042c366004614dc7565b61121c565b34801561043d57600080fd5b506104aa61044c366004614df3565b6040805160608082018352600080835260208084018290529284018190526001600160a01b03949094168452601482529282902082519384018352805460ff9081168552600182015492850192909252600201541615159082015290565b60408051825160ff1681526020808401519082015291810151151590820152606001610376565b3480156104dd57600080fd5b506103ce670de0b6b3a764000081565b3480156104f957600080fd5b50610318610508366004614e89565b61122f565b34801561051957600080fd5b50610318610528366004614e26565b611261565b34801561053957600080fd5b50610318610548366004614e5b565b6112fe565b34801561055957600080fd5b50610562611458565b6040516103769190614ef3565b34801561057b57600080fd5b506103ce61271081565b34801561059157600080fd5b506004546105a5906001600160a01b031681565b6040516103769190614f06565b3480156105be57600080fd5b506103186105cd366004614d8e565b6114bd565b3480156105de57600080fd5b506103186105ed366004614dc7565b611531565b3480156105fe57600080fd5b50600a546105a5906001600160a01b031681565b34801561061e57600080fd5b5061036a61062d366004614df3565b60066020526000908152604090205460ff1681565b34801561064e57600080fd5b5061031861065d366004614f1a565b6115b1565b34801561066e57600080fd5b5061031861067d366004614d8e565b611a2f565b34801561068e57600080fd5b5061031861069d366004614df3565b611a9b565b3480156106ae57600080fd5b50610562611af0565b3480156106c357600080fd5b506106d76106d2366004614e5b565b611b53565b604051610376929190614f5b565b3480156106f157600080fd5b50610318610700366004614df3565b611b91565b34801561071157600080fd5b50610318610720366004614f69565b611bd2565b34801561073157600080fd5b5061075660405180604001604052806005815260200164322e322e3760d81b81525081565b6040516103769190615003565b34801561076f57600080fd5b5061078361077e366004614df3565b611c27565b6040516103769190615016565b34801561079c57600080fd5b506103186107ab366004614dc7565b611d8f565b3480156107bc57600080fd5b506103ce6107cb366004614f69565b611dec565b3480156107dc57600080fd5b506107f06107eb366004614df3565b611fd8565b6040516103769291906150d0565b34801561080a57600080fd5b5061036a610819366004614df3565b612062565b34801561082a57600080fd5b50610318610839366004614e26565b61206f565b34801561084a57600080fd5b5061039f610859366004614df3565b6120ff565b34801561086a57600080fd5b506103ce610879366004614f69565b612124565b34801561088a57600080fd5b50610318610899366004615136565b61217a565b3480156108aa57600080fd5b506103186108b93660046151dc565b612423565b3480156108ca57600080fd5b506007546105a5906001600160a01b031681565b3480156108ea57600080fd5b506103186108f9366004614e89565b612440565b34801561090a57600080fd5b5061039f612479565b34801561091f57600080fd5b506103ce61092e36600461521d565b6001600160a01b039283166000908152601360209081526040808320948616835260069094018152838220929094168152925290205490565b34801561097357600080fd5b506103ce610982366004614df3565b61249a565b34801561099357600080fd5b50600b546105a5906001600160a01b031681565b3480156109b357600080fd5b506103186109c236600461525d565b6124cc565b3480156109d357600080fd5b506103ce6109e2366004615282565b612511565b3480156109f357600080fd5b5061036a610a02366004614df3565b61257a565b348015610a1357600080fd5b506103ce610a22366004614df3565b612587565b610a3a610a353660046152ca565b6125b9565b604051610376919061533e565b348015610a5357600080fd5b50610318610a62366004614df3565b61270f565b348015610a7357600080fd5b506103ce60095481565b348015610a8957600080fd5b50610318610a98366004614df3565b612764565b348015610aa957600080fd5b50610318610ab83660046153a0565b61279c565b348015610ac957600080fd5b506103ce610ad83660046153d3565b61297b565b348015610ae957600080fd5b506103ce610af8366004615282565b6129f1565b348015610b0957600080fd5b50610318610b1836600461542e565b612a3a565b348015610b2957600080fd5b50610318610b38366004614d8e565b612a77565b348015610b4957600080fd5b50610318610b58366004614df3565b612ad5565b348015610b6957600080fd5b50610318610b78366004614dc7565b612b7c565b348015610b8957600080fd5b50610318610b98366004614dc7565b612c47565b348015610ba957600080fd5b506103ce60085481565b348015610bbf57600080fd5b506103ce610bce366004615450565b612d94565b348015610bdf57600080fd5b50610318610bee366004614dc7565b612df6565b348015610bff57600080fd5b506103ce610c0e366004614f69565b612e57565b348015610c1f57600080fd5b506003546105a5906001600160a01b031681565b348015610c3f57600080fd5b506002546105a5906001600160a01b031681565b348015610c5f57600080fd5b506103ce610c6e36600461525d565b612ea1565b610c7b612f97565b6001600160a01b03821660009081526005602052604090819020805460ff1916831515179055517e7a59171ef284e295f019cc84b743f8ef2d67121ae078a0e4668a7f992f6cd890610cd090849084906154a3565b60405180910390a15050565b610ce4612fc3565b610cec612fea565b610cf582613019565b6001600160a01b0382166000908152601560205260409020610d1683613043565b6006810180546000909155610d2c81151561312a565b815461010090046001600160a01b03166000610d4a86843088613148565b9050600061271060095483610d5f91906154d4565b610d6991906154f3565b90506000610d778284615515565b90506000610d858583613204565b9050610d91898261322a565b600a54610da99086906001600160a01b0316856132d9565b600754610dc19086906001600160a01b0316846132d9565b60075460405163bc04f0af60e01b81526001600160a01b039091169063bc04f0af90610df3908890869060040161552c565b600060405180830381600087803b158015610e0d57600080fd5b505af1158015610e21573d6000803e3d6000fd5b50505050886001600160a01b03167f4534f107610758c3931de9ad1e176476fcfb8c74adf920167e1d54ee84fcfe76898684604051610e6293929190614e10565b60405180910390a250505050505050610e7b6000600155565b5050565b6001600160a01b038116600090815260116020526040812081908190610ea4816133da565b6001820154915490969195509350915050565b6000610ec1612fc3565b610ec9613451565b610ed5600084116134e8565b6001600160a01b0380851660009081526015602052604090208054909161010090910416610f0286613019565b610f0b86613506565b610f1481613544565b610f1d86613582565b6000610f366000610f2d336135d3565b9250821361312a565b6000610f4b88610f468585613756565b61377c565b90506000818811610f5c5787610f5e565b815b90506000610f6c8a83613795565b90506000610f7c8b83308c613148565b9050610f8a6000821161312a565b6001600160a01b038616600090815260126020526040812090610fac826133da565b905080831115610fde5787838260405163637e01ad60e01b8152600401610fd593929190615545565b60405180910390fd5b610fe78d613043565b610ff0336137dd565b6000610ffc8985613204565b9050611008338f613847565b611013338f88613918565b61102e33611020836139b9565b61102990615566565b6139e3565b61103b8e86613a19613a25565b6110458385613b5c565b60075461105d908a906001600160a01b0316866132d9565b60075460405163bc04f0af60e01b81526001600160a01b039091169063bc04f0af9061108f908c90889060040161552c565b600060405180830381600087803b1580156110a957600080fd5b505af11580156110bd573d6000803e3d6000fd5b50505050886001600160a01b03168e6001600160a01b0316336001600160a01b03167f8246cc71ab01533b5bebc672a636df812f10637ad720797319d5741d5ebb39628985604051611110929190614f5b565b60405180910390a450939850505050505050505061112e6000600155565b9392505050565b6001600160a01b03808316600090815260136020908152604080832093851683526005909301905220545b92915050565b60045461117d906001600160a01b0316151561312a565b6004546001600160a01b031633146111a7576040516282b42960e81b815260040160405180910390fd5b60048054600380546001600160a01b0383166001600160a01b03199182168117909255909116909155604051600080516020615933833981519152916111ec91614f06565b60405180910390a16000805160206159f383398151915260006040516112129190614f06565b60405180910390a1565b611224613451565b610e7b338383613b83565b611237612f97565b6008819055604051818152600080516020615973833981519152906020015b60405180910390a150565b611269612f97565b61127283613bea565b6001600160a01b038316600090815260126020526040902061129390613bf5565b6001600160a01b03831660009081526012602052604090206112b6908383613c0c565b826001600160a01b03167f0f3828e75ac2c1d15158acbdaab952f19d3a532547df5baf02f3fbbde1336d7183836040516112f1929190614f5b565b60405180910390a2505050565b611306612f97565b611384816001600160a01b031663fc0c546a6040518163ffffffff1660e01b8152600401602060405180830381865afa158015611347573d6000803e3d6000fd5b505050506040513d601f19601f8201168201806040525081019061136b9190615583565b6001600160a01b0316836001600160a01b03161461312a565b61138d82613019565b6001600160a01b03828116600090815260156020526040902060010180546001600160a01b0319169183169190911790556113cb8282600019613c95565b611439816001600160a01b0316632495a5996040518163ffffffff1660e01b8152600401602060405180830381865afa15801561140c573d6000803e3d6000fd5b505050506040513d601f19601f820116820180604052508101906114309190615583565b82600019613c95565b6000805160206159538339815191528282604051610cd09291906155a0565b606060186000018054806020026020016040519081016040528092919081815260200182805480156114b357602002820191906000526020600020905b81546001600160a01b03168152600190910190602001808311611495575b5050505050905090565b6114c5613cbd565b6114ce82613019565b6001600160a01b038216600081815260156020908152604091829020600d01805460ff191685151590811790915591519182527fb15476211644e7e7a92dd4fe21d831367f5ea58130817ad39712dff67139989691015b60405180910390a25050565b611539612f97565b611545600082116134e8565b61154e82613019565b61156081670de0b6b3a76400006154f3565b6001600160a01b0383166000908152601560205260409081902060040191909155517fd5710c9f352f135b893ded82d4669bd05e5b1a7ad8d615e2ae88bc732673ad7d90610cd0908490849061552c565b6115b9612fc3565b6115c1612f97565b6115d3612710826020013511156134e8565b6115e360008260600135116134e8565b6115f76115f1601884613d01565b1561312a565b60006116066020830183614df3565b9050611686816001600160a01b031663fc0c546a6040518163ffffffff1660e01b8152600401602060405180830381865afa158015611649573d6000803e3d6000fd5b505050506040513d601f19601f8201168201806040525081019061166d9190615583565b6001600160a01b0316846001600160a01b03161461312a565b6116f0816001600160a01b0316632495a5996040518163ffffffff1660e01b8152600401602060405180830381865afa1580156116c7573d6000803e3d6000fd5b505050506040513d601f19601f820116820180604052508101906116eb9190615583565b613bea565b604051806101e0016040528061170585613d22565b60ff168152602001826001600160a01b0316632495a5996040518163ffffffff1660e01b8152600401602060405180830381865afa15801561174b573d6000803e3d6000fd5b505050506040513d601f19601f8201168201806040525081019061176f9190615583565b6001600160a01b0316815260209081019061178c90850185614df3565b6001600160a01b0316815260200183602001358152602001836040013581526020018360600135670de0b6b3a76400006117c691906154f3565b81526000602080830182905260408084018390526060808501849052608080860185905260a080870186905260c080880187905260e0808901889052610100808a01899052610120998a018990526001600160a01b038e81168a5260158952988790208b518154998d015160ff9091166001600160a81b0319909a1699909917988a168202989098178855958a01516001880180546001600160a01b0319169190991617909755928801516002860155908701516003850155860151600484015585015160058301559184015160068201559083015160078201559082015160088201556101408201516009820155610160820151600a820155610180820151600b8201556101a0820151600c8201556101c090910151600d909101805460ff19169115159190911790556118fc601884613df3565b506119168361190e6020850185614df3565b600019613c95565b611988816001600160a01b0316632495a5996040518163ffffffff1660e01b8152600401602060405180830381865afa158015611957573d6000803e3d6000fd5b505050506040513d601f19601f8201168201806040525081019061197b9190615583565b61190e6020850185614df3565b6040516001600160a01b038416907f7d45e47bed6d03b67d9ccb28bed226dd01d1425049e21b289d6fd54732131c8390600090a2600080516020615953833981519152836119d96020850185614df3565b6040516119e79291906155a0565b60405180910390a1826001600160a01b03166000805160206159138339815191528360200135604051611a1c91815260200190565b60405180910390a250610e7b6000600155565b611a37613cbd565b611a4082613bea565b6001600160a01b038216600081815260146020908152604091829020600201805460ff191685151590811790915591519182527fac216db82ec84df77384646fb0bd5f9bfd21ac8c46cfcf3a27a0d2feede572e29101611525565b611aa3612f97565b611ab76001600160a01b03821615156134e8565b600a80546001600160a01b0319166001600160a01b0383161790556040516000805160206159b383398151915290611256908390614f06565b606060166000018054806020026020016040519081016040528092919081815260200182805480156114b3576020028201919060005260206000209081546001600160a01b03168152600190910190602001808311611495575050505050905090565b6001600160a01b03808316600090815260136020908152604080832093851683526001840182528083205460029094019091529020545b9250929050565b611b99612f97565b600480546001600160a01b0319166001600160a01b0383161790556040516000805160206159f383398151915290611256908390614f06565b611bda612fc3565b611be2613451565b611bee600083116134e8565b611c026001600160a01b03821615156134e8565b611c0d833384613e54565b611c18838383613e99565b611c226000600155565b505050565b611cb7604051806101e00160405280600060ff16815260200160006001600160a01b0316815260200160006001600160a01b0316815260200160008152602001600081526020016000815260200160008152602001600081526020016000815260200160008152602001600081526020016000815260200160008152602001600081526020016000151581525090565b506001600160a01b0390811660009081526015602090815260409182902082516101e081018452815460ff8082168352610100918290048716948301949094526001830154909516938101939093526002810154606084015260038101546080840152600481015460a0840152600581015460c0840152600681015460e084015260078101549383019390935260088301546101208301526009830154610140830152600a830154610160830152600b830154610180830152600c8301546101a0830152600d9092015490911615156101c082015290565b611d97612f97565b611da56127108211156134e8565b611dae82613019565b6001600160a01b0382166000818152601560205260409081902060020183905551600080516020615913833981519152906115259084815260200190565b6000611df6612fc3565b611dfe613451565b611e0a600084116134e8565b611e1e6001600160a01b03831615156134e8565b611e2784613bea565b611e3084613544565b611e39826137dd565b611e4282613f30565b6001600160a01b03821660009081526013602052604081205490611e6790821361312a565b6000611e738683613756565b90506000818611611e845785611e86565b815b6001600160a01b0388166000908152601160205260408120919250611eaa826133da565b905080831115611ed3578883826040516395e6194b60e01b8152600401610fd593929190615545565b6000611edf8a85613204565b9050611eee88611020836139b9565b611ef88385613b5c565b600754611f12908b9033906001600160a01b031687613f9b565b60075460405163bc04f0af60e01b81526001600160a01b039091169063bc04f0af90611f44908d90889060040161552c565b600060405180830381600087803b158015611f5e57600080fd5b505af1158015611f72573d6000803e3d6000fd5b5050604080518781526001600160a01b038c81166020830152918101859052908d1692503391507f7b56e0a28bd3c28702bc74e47867c0c083a31a2b90952ed60a91c4fbd5a0e9289060600160405180910390a3509194505050505061112e6000600155565b6001600160a01b0381166000908152601360205260408120606090611ffc846135d3565b6003820180546040805160208084028201810190925282815291839183018282801561205157602002820191906000526020600020905b81546001600160a01b03168152600190910190602001808311612033575b505050505090509250925050915091565b6000611160601683613d01565b612077612f97565b61208083613bea565b6001600160a01b03831660009081526011602052604090206120a190613bf5565b6001600160a01b03831660009081526011602052604090206120c4908383613c0c565b826001600160a01b03167f86d00f048da605f1d0b35d86d59306a26293721713d9d41eef94518316eb183483836040516112f1929190614f5b565b6001600160a01b038116600090815260126020526040812081908190610ea4816133da565b600061212e612fc3565b612136613451565b61214a6001600160a01b03831615156134e8565b61215384613019565b60006121618533868661409b565b905061216e8584836132d9565b905061112e6000600155565b600054610100900460ff166121955760005460ff1615612199565b303b155b6121fc5760405162461bcd60e51b815260206004820152602e60248201527f496e697469616c697a61626c653a20636f6e747261637420697320616c72656160448201526d191e481a5b9a5d1a585b1a5e995960921b6064820152608401610fd5565b600054610100900460ff1615801561221e576000805461ffff19166101011790555b612230612710836080015111156134e8565b6020820151600280546001600160a01b03199081166001600160a01b0393841617909155835160038054831691841691909117905560408401516007805483169184169190911790556060840151600855608084015160095560a0840151600a80548316918416919091179055610120840151600b8054909216921691909117905560e082015161010083015160c08401516122cd92919061413d565b8051600c556020810151600d55604080820151600e556060820151600f5560809091015160105560035490516000805160206159338339815191529161231e916001600160a01b0390911690614f06565b60405180910390a1600754604051600080516020615a1383398151915291612351916001600160a01b0390911690614f06565b60405180910390a160008051602061597383398151915260085460405161237a91815260200190565b60405180910390a16000805160206159d38339815191526009546040516123a391815260200190565b60405180910390a1600a546040516000805160206159b3833981519152916123d6916001600160a01b0390911690614f06565b60405180910390a16000805160206159938339815191528260e00151836101000151604051612406929190614f5b565b60405180910390a18015610e7b576000805461ff00191690555050565b61242b613451565b61243482613019565b611c2233848484614201565b612448612f97565b6124566127108211156134e8565b60098190556040518181526000805160206159d383398151915290602001611256565b6000806000612488600c6133da565b600d54600c5491959094509092509050565b6001600160a01b0381166000908152601560205260408120546111609083906124c79060ff16600a61569e565b614277565b6124d4612fc3565b6124dc613451565b6124e8600083116134e8565b6124fc6001600160a01b03821615156134e8565b612507338383613e99565b610e7b6000600155565b600061251b612fc3565b612523613451565b6125376001600160a01b03841615156134e8565b61254085613019565b61254985613582565b60006125578633878761409b565b905061256586828686613148565b9150506125726000600155565b949350505050565b6000611160601883613d01565b6001600160a01b0381166000908152601560205260408120546111609083906125b49060ff16600a61569e565b613795565b6060816001600160401b038111156125d3576125d36150e9565b60405190808252806020026020018201604052801561260657816020015b60608152602001906001900390816125f15790505b50905060005b82811015612708576000803086868581811061262a5761262a6156ad565b905060200281019061263c91906156c3565b60405161264a929190615709565b600060405180830381855af49150503d8060008114612685576040519150601f19603f3d011682016040523d82523d6000602084013e61268a565b606091505b5091509150816126d5578585848181106126a6576126a66156ad565b90506020028101906126b891906156c3565b8260405163070c497560e21b8152600401610fd593929190615719565b808484815181106126e8576126e86156ad565b60200260200101819052505050808061270090615757565b91505061260c565b5092915050565b612717612f97565b61272b6001600160a01b03821615156134e8565b600780546001600160a01b0319166001600160a01b038316179055604051600080516020615a1383398151915290611256908390614f06565b61276c612fc3565b612774613451565b61277d81614290565b612786816137dd565b61278f81613f30565b6127996000600155565b50565b6127a4612fc3565b6127ac612f97565b6127ba6115f1601684613d01565b60006127c583613d22565b6002549091506000906127e0906001600160a01b0316613d22565b90506127f48160ff168360ff1611156134e8565b60405180606001604052808360ff16815260200183836128149190615772565b61281f90600a61569e565b8152600060209182018190526001600160a01b0387168152601482526040908190208351815460ff90911660ff1991821617825584840151600183015593820151600290910180549115159190941617909255612885919085013590850135853561413d565b6001600160a01b0385166000908152601160209081526040918290208351815590830151600182015590820151600282015560608083015160038301556080928301516004909201919091556128e7918501359060a08601359086013561413d565b6001600160a01b038516600090815260126020908152604091829020835181559083015160018201559082015160028201556060820151600382015560809091015160049091015561293a601685613df3565b506040516001600160a01b038516907f3a0e2b79f1e0c4867b78173318e64bad2dbf7be510d51198d37900e52de2bb8c90600090a25050610e7b6000600155565b6000612985612fc3565b61298d613451565b6129a16001600160a01b03841615156134e8565b6129aa85613019565b6129b385613582565b6129bf863387876142fa565b60006129cd8688878761409b565b90506129db86828686613148565b9150506129e86000600155565b95945050505050565b60006129fb612fc3565b612a03613451565b612a176001600160a01b03841615156134e8565b612a2085613019565b6000612a2d86868561433f565b905061256586828661441f565b612a42612f97565b612a4c600c613bf5565b612a58600c8383613c0c565b6000805160206159938339815191528282604051610cd0929190614f5b565b612a7f612f97565b6001600160a01b03821660009081526006602052604090819020805460ff1916831515179055517f8dd62d4e1f60b96148552898e743aa2b571686baa26f4f1b647565dc3996c1a790610cd090849084906154a3565b612add612fc3565b612ae5612f97565b612aee81613019565b6001600160a01b038116600090815260156020526040812060050154612b1590839061452c565b6001600160a01b0383166000818152601560205260409081902060080183905551919250907fccda4b864ea094cd2323d3a440088f1171a7c3e5c46d87f6baafabe470d614da90612b699084815260200190565b60405180910390a2506127996000600155565b612b84612fc3565b612b8c612f97565b612b97601883613d01565b15612bb75781604051635f8b555b60e11b8152600401610fd59190614f06565b612bc2601683613d01565b15612be25781604051635f8b555b60e11b8152600401610fd59190614f06565b600354612bfa9083906001600160a01b0316836132d9565b816001600160a01b03167fa85ff619388226c782b92d545a650f391a94dfff2dd1d6757db64e8e236d46e582604051612c3591815260200190565b60405180910390a2610e7b6000600155565b612c4f612fc3565b612c57613451565b612c628115156134e8565b612c6b826145d7565b612c7433613f30565b3360009081526013602090815260408083206001600160a01b03861684526001018252808320546015909252822060070154612cb09190615515565b905080612cc5670de0b6b3a7640000846154d4565b612ccf91906154f3565b6001600160a01b0384166000908152601560205260408120600c018054909190612cfa908490615795565b90915550506001600160a01b038084166000818152601560209081526040808320600c0154338085526013845282852095855260029586019093529220919091559054612d4992169084614654565b6040518281526001600160a01b0384169033907f88dcaca629d63d86330e97adc358b13dd0ebd703239aea96b7ea2fb331b16f4e9060200160405180910390a350610e7b6000600155565b6000612d9e612fc3565b612da6613451565b612dba6001600160a01b03831615156134e8565b612dc384613019565b612dcf853386866142fa565b6000612ddd8587868661409b565b9050612dea8584836132d9565b90506125726000600155565b612dfe612f97565b612e0782613019565b6001600160a01b03821660008181526015602052604090819020600301839055517f4bd29da0a205336da3aaf81eada8ef63426a1c923b4a434e54ac7f898fa53c9a906115259084815260200190565b6000612e61612fc3565b612e69613451565b612e7d6001600160a01b03831615156134e8565b612e8684613019565b6000612e9385858561441f565b905061216e85333087613f9b565b6000612eab612fc3565b612eb3613451565b612ebf600084116134e8565b612ed36001600160a01b03831615156134e8565b612edc826137dd565b612ee582613f30565b6001600160a01b03821660009081526013602052604081205490612f0a90821361312a565b6000818511612f195784612f1b565b815b9050612f2a84611020836139b9565b600254612f41906001600160a01b03163383614654565b336001600160a01b03167fdbdf9b8e4b75e75b162d151ec8fc7f0561cabab5fcccfa2600be62223e4300c48286604051612f7c9291906157ad565b60405180910390a29150506111606000600155565b3b151590565b6003546001600160a01b03163314612fc1576040516282b42960e81b815260040160405180910390fd5b565b60015415612fe457604051632ecfcaf960e01b815260040160405180910390fd5b60018055565b3360009081526006602052604090205460ff16612fc1576040516282b42960e81b815260040160405180910390fd5b613024601882613d01565b6127995780604051635f8b555b60e11b8152600401610fd59190614f06565b6001600160a01b03811660009081526015602052604090206005015480613068575050565b6000613074838361452c565b6001600160a01b0384166000908152601560205260409020600801549091508082116130a05750505050565b60006130b5856130b08486615515565b61467c565b9050806130c3575050505050565b6001600160a01b038516600090815260156020526040812060050180548392906130ee908490615515565b90915550506001600160a01b0385166000908152601560205260408120600601805483929061311e908490615795565b90915550505050505050565b8061279957604051634a613c4160e01b815260040160405180910390fd5b6001600160a01b03808516600090815260156020526040808220600101549051637647691d60e01b81529192169082908290637647691d9061319090899089906004016157ad565b6020604051808303816000875af11580156131af573d6000803e3d6000fd5b505050506040513d601f19601f820116820180604052508101906131d391906157c4565b9050838110156131fa5780846040516371c4efed60e01b8152600401610fd5929190614f5b565b9695505050505050565b6001600160a01b03821660009081526014602052604081206001015461112e90836154d4565b6001600160a01b03821660009081526015602052604081206009810154600a820154919290919061325a8661470e565b905060006132688284615795565b6132729085615515565b905081156132b4576007850154613291670de0b6b3a7640000846154d4565b61329b91906154f3565b85600c0160008282546132ae9190615795565b90915550505b6132be8187615795565b600986015550506000600a840155505043600b909101555050565b600080846001600160a01b031663a9059cbb60e01b858560405160240161330192919061552c565b60408051601f198184030181529181526020820180516001600160e01b03166001600160e01b031990941693909317909252905161333f91906157dd565b6000604051808303816000865af19150503d806000811461337c576040519150601f19603f3d011682016040523d82523d6000602084013e613381565b606091505b50915091508115806133af57508051158015906133af5750808060200190518101906133ad91906157f9565b155b156133d35784828260405163e7e40b5b60e01b8152600401610fd593929190615816565b5050505050565b6000808260030154436133ed9190615515565b9050806133fd5750506002015490565b6000670de0b6b3a764000084600101548361341891906154d4565b61342291906154f3565b905060008185600201546134369190615795565b8554909150811161344757806129e8565b5050915492915050565b3233141561345b57565b600b54604051633af32abf60e01b81526001600160a01b0390911690633af32abf9061348b903390600401614f06565b602060405180830381865afa1580156134a8573d6000803e3d6000fd5b505050506040513d601f19601f820116820180604052508101906134cc91906157f9565b612fc1576040516282b42960e81b815260040160405180910390fd5b8061279957604051630134249960e71b815260040160405180910390fd5b6001600160a01b0381166000908152601560205260409020600d015460ff1661279957806040516303f585af60e31b8152600401610fd59190614f06565b6001600160a01b03811660009081526014602052604090206002015460ff1661279957806040516303f585af60e31b8152600401610fd59190614f06565b600061358d826147b4565b6001600160a01b03831660009081526015602052604090206002015490915080821115611c2257828282604051635c1bc28160e01b8152600401610fd593929190615545565b6001600160a01b0381166000908152601360205260408120805490600301825b815481101561374d576000826000018281548110613613576136136156ad565b60009182526020808320909101546001600160a01b03908116808452601583526040808520600c0154928b1685526013845280852082865260020190935291832054919350916136628461470e565b9050600081116136735760006136ab565b6001600160a01b0384166000908152601560205260409020600701546136a1670de0b6b3a7640000836154d4565b6136ab91906154f3565b6136b59084615795565b9250818314156136c8575050505061373b565b6001600160a01b03808a1660009081526013602090815260408083209388168352600190930190529081205490670de0b6b3a7640000826137098688615515565b61371391906154d4565b61371d91906154f3565b9050613728816139b9565b613732908a615842565b98505050505050505b8061374581615757565b9150506135f3565b50909392505050565b6001600160a01b03821660009081526014602052604081206001015461112e90836154f3565b600080613789848461467c565b905061257284826148c5565b6001600160a01b038216600090815260156020526040812060070154806137bf5782915050611160565b806137c985614925565b6137d390856154d4565b61257291906154f3565b6001600160a01b0381166000908152601360205260408120600301905b8154811015611c225761383582600001828154811061381b5761381b6156ad565b6000918252602090912001546001600160a01b03166145d7565b8061383f81615757565b9150506137fa565b6001600160a01b038083166000908152601360209081526040808320938516835260158252808320600c015460028501909252909120548082141561388d575050505050565b6001600160a01b038416600090815260018401602052604081205490670de0b6b3a7640000826138bd8587615515565b6138c791906154d4565b6138d191906154f3565b90506138dc816139b9565b8560000160008282546138ef9190615842565b9091555050506001600160a01b0390941660009081526002909301602052506040909120555050565b6001600160a01b03808416600090815260136020908152604080832093861683526001840190915281208054849290613952908490615515565b90915550506001600160a01b03831660009081526015602052604081206007018054849290613982908490615515565b90915550506001600160a01b03831660009081526001820160205260409020546139b3576133d3600382018461499f565b50505050565b6000600160ff1b82106139df57604051630134249960e71b815260040160405180910390fd5b5090565b6001600160a01b0382166000908152601360205260408120805490918391839190613a0f908490615881565b9091555050505050565b600061112e8284615515565b6001600160a01b03808416600090815260156020908152604080832081516101e081018352815460ff8082168352610100918290048816958301959095526001830154909616928101929092526002810154606083015260038101546080830152600481015460a0830152600581015460c0830152600681015460e083015260078101549482019490945260088401546101208201526009840154610140820152600a840154610160820152600b840154610180820152600c8401546101a0820152600d909301541615156101c0830152613b00858561452c565b90506000613b168360c00151868663ffffffff16565b90506000613b2d846101200151848763ffffffff16565b6001600160a01b0390971660009081526015602052604090206005810192909255506008019490945550505050565b6000613b67836133da565b9050613b738282615515565b6002840155505043600390910155565b6001600160a01b03838116600081815260136020908152604080832094871680845260058601835292819020869055518581529192917f09cd9a2cf8d0dd3936aef63dae78b3085d8abaaec9311145115b15e5e3eaea41910160405180910390a350505050565b613024601682613d01565b613bfe816133da565b600282015543600390910155565b611c20811115613c2f57604051630134249960e71b815260040160405180910390fd5b8260040154821015613c5457604051630134249960e71b815260040160405180910390fd5b8183600201541115613c6857600283018290555b81835580613c7e670de0b6b3a7640000846154d4565b613c8891906154f3565b8360010181905550505050565b600080846001600160a01b031663095ea7b360e01b858560405160240161330192919061552c565b6003546001600160a01b0316331415613cd257565b3360009081526005602052604090205460ff16612fc1576040516282b42960e81b815260040160405180910390fd5b6001600160a01b031660009081526001919091016020526040902054151590565b60408051600481526024810182526020810180516001600160e01b031663313ce56760e01b1790529051600091829182916001600160a01b03861691613d6891906157dd565b600060405180830381855afa9150503d8060008114613da3576040519150601f19603f3d011682016040523d82523d6000602084013e613da8565b606091505b5091509150811580613dbb575060208151105b15613ddf5783828260405163e7e40b5b60e01b8152600401610fd593929190615816565b8080602001905181019061257291906158c2565b6000613dff8383613d01565b15613e0c57506000611160565b508154600180820184556000848152602080822090930180546001600160a01b0319166001600160a01b03959095169485179055845493815293810190915260409092205590565b6001600160a01b03808416600090815260136020908152604080832093861683526005840190915281208054849290613e8e908490615515565b909155505050505050565b613ea282614ae3565b613eab83614290565b613eb4836137dd565b613ebd83613f30565b613eca83611029846139b9565b613ed383614b16565b613ede600c83613b5c565b600254613ef5906001600160a01b03168284614b88565b826001600160a01b03167fbcad3d7d3dfccb90d49c6063bf70f828901fefc88937d90af74e58e6e55bc39d83836040516112f19291906157ad565b6001600160a01b0381166000908152601360205260408120600301905b8154811015611c2257613f8983836000018381548110613f6f57613f6f6156ad565b6000918252602090912001546001600160a01b0316613847565b80613f9381615757565b915050613f4d565b604080516001600160a01b0385811660248301528481166044830152606480830185905283518084039091018152608490920183526020820180516001600160e01b03166323b872dd60e01b1790529151600092839290881691613fff91906157dd565b6000604051808303816000865af19150503d806000811461403c576040519150601f19603f3d011682016040523d82523d6000602084013e614041565b606091505b509150915081158061406f575080511580159061406f57508080602001905181019061406d91906157f9565b155b156140935785828260405163e7e40b5b60e01b8152600401610fd593929190615816565b505050505050565b60006140a684614290565b6140af846137dd565b60006140bb8685613795565b90506140c685613f30565b6140d1858786613918565b6140de8682613a19613a25565b6140e785614b16565b856001600160a01b0316856001600160a01b03167f3ed4ee04a905a278b050a856bbe7ddaaf327a30514373e65aa6103beeae488c3868660405161412c9291906157ad565b60405180910390a395945050505050565b61416f6040518060a0016040528060008152602001600081526020016000815260200160008152602001600081525090565b611c2083111561419257604051630134249960e71b815260040160405180910390fd5b818410156141b357604051630134249960e71b815260040160405180910390fd5b6040518060a0016040528085815260200184670de0b6b3a7640000876141d991906154d4565b6141e391906154f3565b81526020018581526020014381526020018381525090509392505050565b6001600160a01b038481166000818152601360209081526040808320888616808552600682018452828520968916808652968452938290208790559051868152909493917f14d43ec44802545adffd2e9b5d923acf7ae9106d7774f3fd01a3af424e0f262e910160405180910390a45050505050565b6000806142848484613795565b9050612572848261452c565b6001600160a01b0381166000908152601360205260408120600301905b8154811015611c22576142e88260000182815481106142ce576142ce6156ad565b6000918252602090912001546001600160a01b0316613043565b806142f281615757565b9150506142ad565b6001600160a01b03808516600090815260136020908152604080832087851684526006810183528184209487168452939091528120805484929061311e908490615515565b6001600160a01b0380841660009081526015602052604081206001810154815492939192908216916101009091041661437a81333089613f9b565b604051629dd64160e51b81526000906001600160a01b038416906313bac820906143aa908a9030906004016157ad565b6020604051808303816000875af11580156143c9573d6000803e3d6000fd5b505050506040513d601f19601f820116820180604052508101906143ed91906157c4565b9050858110156144145780866040516371c4efed60e01b8152600401610fd5929190614f5b565b979650505050505050565b600061442d600084116134e8565b6001600160a01b038085166000908152601560205260409020805490916101009091041661445a86613506565b61446381613544565b61446c86613582565b61447586613043565b61447e846137dd565b6144888487613847565b6000614495858888614bb0565b90506144a48787614c8e613a25565b600383015460088401548110156144d45787878260405163a3528cf560e01b8152600401610fd593929190615545565b876001600160a01b0316336001600160a01b03167f364bb76a44233df8584c690de6da7810626a5e77192f3ebc942c35bcb1add24f89896040516145199291906157ad565b60405180910390a3509695505050505050565b6001600160a01b03808316600090815260156020526040812060018101548154929391929116906145619060ff16600a61569e565b816001600160a01b031663a035b1fe6040518163ffffffff1660e01b8152600401602060405180830381865afa15801561459f573d6000803e3d6000fd5b505050506040513d601f19601f820116820180604052508101906145c391906157c4565b6145cd90866154d4565b6129e891906154f3565b6001600160a01b0381166000908152601560205260408120906145f98361470e565b90508061460557505050565b600782015461461c670de0b6b3a7640000836154d4565b61462691906154f3565b82600c0160008282546146399190615795565b925050819055508082600a016000828254613a0f9190615795565b600080846001600160a01b03166379cc679060e01b858560405160240161330192919061552c565b6001600160a01b0380831660009081526015602090815260408083206001810154825163501ad8ff60e11b8152925194959194911692839263a035b1fe92600480830193928290030181865afa1580156146da573d6000803e3d6000fd5b505050506040513d601f19601f820116820180604052508101906146fe91906157c4565b82546145c39060ff16600a61569e565b6001600160a01b038116600090815260156020526040812060098101548061473a575060009392505050565b6004820154600a830154600b8401546000836147568343615515565b61476091906154d4565b9050670de0b6b3a764000081106147805761477b8386615515565b6147a8565b82670de0b6b3a764000061479483886154d4565b61479e91906154f3565b6147a89190615515565b98975050505050505050565b6001600160a01b03808216600090815260156020908152604080832081516101e081018352815460ff8082168352610100918290048816958301959095526001830154909616928101929092526002810154606083015260038101546080830152600481015460a0830152600581015460c08301819052600682015460e084015260078201549583019590955260088101546101208301526009810154610140830152600a810154610160830152600b810154610180830152600c8101546101a0830152600d015490911615156101c08201529091829061489690859061452c565b6101208301519091508181116148ad5760006129e8565b806127106148bb8483615515565b6145cd91906154d4565b6001600160a01b0382166000908152601560205260408120600701546148ec575080611160565b6148f583614925565b6001600160a01b03841660009081526015602052604090206007015461491b90846154d4565b61112e91906154f3565b6001600160a01b038116600090815260156020526040812060058101548061494e579392505050565b600061495a858361452c565b6008840154909150808211614973575090949350505050565b6000614983876130b08486615515565b90508061499557509195945050505050565b6144148185615515565b6001600160a01b0381166000908152600183016020526040812054806149c9576000915050611160565b806149d3816158e5565b8554909250600091506149e890600190615515565b9050808214614a88576000856000018281548110614a0857614a086156ad565b60009182526020909120015486546001600160a01b0390911691508190879085908110614a3757614a376156ad565b600091825260209091200180546001600160a01b0319166001600160a01b0392909216919091179055614a6b836001615795565b6001600160a01b0390911660009081526001870160205260409020555b8454859080614a9957614a996158fc565b60008281526020808220600019908401810180546001600160a01b03191690559092019092556001600160a01b039590951681526001958601909452505060408220919091555090565b6000614aef600c6133da565b905080821115610e7b5781816040516313d73d6b60e01b8152600401610fd5929190614f5b565b6001600160a01b038116600090815260136020526040812054908113614b3a575050565b600081670de0b6b3a7640000614b4f85614c9a565b614b5991906154d4565b614b6391906154f3565b9050600854811015611c225760405163fddafdf560e01b815260040160405180910390fd5b600080846001600160a01b03166340c10f1960e01b858560405160240161330192919061552c565b600080614bbd84846148c5565b6001600160a01b0380871660009081526013602090815260408083209389168352600190930190522054909150614c15576001600160a01b0385166000908152601360205260409020614c139060030185613df3565b505b6001600160a01b0380861660009081526013602090815260408083209388168352600190930190529081208054839290614c50908490615795565b90915550506001600160a01b03841660009081526015602052604081206007018054839290614c80908490615795565b909155509095945050505050565b600061112e8284615795565b6001600160a01b03811660009081526013602052604081208190600301815b815481101561374d576000826000018281548110614cd957614cd96156ad565b60009182526020808320909101546001600160a01b03908116808452601583526040808520548b84168652601385528186208387526001019094528420549094506101009092041691614d2c8483614277565b9050614d388382613204565b614d429088615795565b9650505050508080614d5390615757565b915050614cb9565b6001600160a01b038116811461279957600080fd5b8035614d7b81614d5b565b919050565b801515811461279957600080fd5b60008060408385031215614da157600080fd5b8235614dac81614d5b565b91506020830135614dbc81614d80565b809150509250929050565b60008060408385031215614dda57600080fd5b8235614de581614d5b565b946020939093013593505050565b600060208284031215614e0557600080fd5b813561112e81614d5b565b9283526020830191909152604082015260600190565b600080600060608486031215614e3b57600080fd5b8335614e4681614d5b565b95602085013595506040909401359392505050565b60008060408385031215614e6e57600080fd5b8235614e7981614d5b565b91506020830135614dbc81614d5b565b600060208284031215614e9b57600080fd5b5035919050565b6001600160a01b03169052565b600081518084526020808501945080840160005b83811015614ee85781516001600160a01b031687529582019590820190600101614ec3565b509495945050505050565b60208152600061112e6020830184614eaf565b6001600160a01b0391909116815260200190565b60008082840360a0811215614f2e57600080fd5b8335614f3981614d5b565b92506080601f1982011215614f4d57600080fd5b506020830190509250929050565b918252602082015260400190565b600080600060608486031215614f7e57600080fd5b8335614f8981614d5b565b9250602084013591506040840135614fa081614d5b565b809150509250925092565b60005b83811015614fc6578181015183820152602001614fae565b838111156139b35750506000910152565b60008151808452614fef816020860160208601614fab565b601f01601f19169290920160200192915050565b60208152600061112e6020830184614fd7565b815160ff1681526101e0810160208301516150346020840182614ea2565b5060408301516150476040840182614ea2565b50606083810151908301526080808401519083015260a0808401519083015260c0808401519083015260e08084015190830152610100808401519083015261012080840151908301526101408084015190830152610160808401519083015261018080840151908301526101a080840151908301526101c0928301511515929091019190915290565b8281526040602082015260006125726040830184614eaf565b634e487b7160e01b600052604160045260246000fd5b60405161014081016001600160401b038111828210171561513057634e487b7160e01b600052604160045260246000fd5b60405290565b6000610140828403121561514957600080fd5b6151516150ff565b61515a83614d70565b815261516860208401614d70565b602082015261517960408401614d70565b6040820152606083013560608201526080830135608082015261519e60a08401614d70565b60a082015260c083013560c082015260e083013560e08201526101008084013581830152506101206151d1818501614d70565b908201529392505050565b6000806000606084860312156151f157600080fd5b83356151fc81614d5b565b9250602084013561520c81614d5b565b929592945050506040919091013590565b60008060006060848603121561523257600080fd5b833561523d81614d5b565b9250602084013561524d81614d5b565b91506040840135614fa081614d5b565b6000806040838503121561527057600080fd5b823591506020830135614dbc81614d5b565b6000806000806080858703121561529857600080fd5b84356152a381614d5b565b93506020850135925060408501356152ba81614d5b565b9396929550929360600135925050565b600080602083850312156152dd57600080fd5b82356001600160401b03808211156152f457600080fd5b818501915085601f83011261530857600080fd5b81358181111561531757600080fd5b8660208260051b850101111561532c57600080fd5b60209290920196919550909350505050565b6000602080830181845280855180835260408601915060408160051b870101925083870160005b8281101561539357603f19888603018452615381858351614fd7565b94509285019290850190600101615365565b5092979650505050505050565b60008082840360e08112156153b457600080fd5b83356153bf81614d5b565b925060c0601f1982011215614f4d57600080fd5b600080600080600060a086880312156153eb57600080fd5b85356153f681614d5b565b9450602086013561540681614d5b565b935060408601359250606086013561541d81614d5b565b949793965091946080013592915050565b6000806040838503121561544157600080fd5b50508035926020909101359150565b6000806000806080858703121561546657600080fd5b843561547181614d5b565b9350602085013561548181614d5b565b925060408501359150606085013561549881614d5b565b939692955090935050565b6001600160a01b039290921682521515602082015260400190565b634e487b7160e01b600052601160045260246000fd5b60008160001904831182151516156154ee576154ee6154be565b500290565b60008261551057634e487b7160e01b600052601260045260246000fd5b500490565b600082821015615527576155276154be565b500390565b6001600160a01b03929092168252602082015260400190565b6001600160a01b039390931683526020830191909152604082015260600190565b6000600160ff1b82141561557c5761557c6154be565b5060000390565b60006020828403121561559557600080fd5b815161112e81614d5b565b6001600160a01b0392831681529116602082015260400190565b600181815b808511156155f55781600019048211156155db576155db6154be565b808516156155e857918102915b93841c93908002906155bf565b509250929050565b60008261560c57506001611160565b8161561957506000611160565b816001811461562f576002811461563957615655565b6001915050611160565b60ff84111561564a5761564a6154be565b50506001821b611160565b5060208310610133831016604e8410600b8410161715615678575081810a611160565b61568283836155ba565b8060001904821115615696576156966154be565b029392505050565b600061112e60ff8416836155fd565b634e487b7160e01b600052603260045260246000fd5b6000808335601e198436030181126156da57600080fd5b8301803591506001600160401b038211156156f457600080fd5b602001915036819003821315611b8a57600080fd5b8183823760009101908152919050565b60408152826040820152828460608301376000606084830101526000601f19601f850116820160608382030160208401526131fa6060820185614fd7565b600060001982141561576b5761576b6154be565b5060010190565b600060ff821660ff84168082101561578c5761578c6154be565b90039392505050565b600082198211156157a8576157a86154be565b500190565b9182526001600160a01b0316602082015260400190565b6000602082840312156157d657600080fd5b5051919050565b600082516157ef818460208701614fab565b9190910192915050565b60006020828403121561580b57600080fd5b815161112e81614d80565b6001600160a01b038416815282151560208201526060604082018190526000906129e890830184614fd7565b60008083128015600160ff1b850184121615615860576158606154be565b6001600160ff1b038401831381161561587b5761587b6154be565b50500390565b600080821280156001600160ff1b03849003851316156158a3576158a36154be565b600160ff1b83900384128116156158bc576158bc6154be565b50500190565b6000602082840312156158d457600080fd5b815160ff8116811461112e57600080fd5b6000816158f4576158f46154be565b506000190190565b634e487b7160e01b600052603160045260246000fdfe75bfe099d672835dbb3c09443e8493c7f306b46d695f749eb0bcf7352bef014754e4612788f90384e6843298d7854436f3a585b2c3831ab66abf1de63bfa6c2d0da5485c3be09248db5d9e03e12a4d5ef2df8074685a3dbb6e4e2a6c36f3e4726f428e543b1146a0996303f0250c6fe0682874c690989e63ae53bf75bed8ef6f8353d6f6057b53994c31faf6112674bd84b37caab3af81c269080ae9904ebbeb76203fab169061f503a4139455a7dfc20cc2d5a59c97d5bb810e431f4059aad7d10d75876659a287a59a6ccfa2e3fff42f84d94b542837acd30bc184d562de40a728e84b447788a55ff664fbfb5c3983925f88b80b672a1b0b8271c94b22df35e42bb1780117f5788c6e0042e955291223819875891ddf465b8e4fbb85a933e9a264697066735822122099b2c0400ca34d08edaf2fe04d26c40729a0a479e9eef044e61331240e8c3f2f64736f6c634300080b0033",
  "linkReferences": {},
  "deployedLinkReferences": {}
}