{
  "_format": "hh-sol-artifact-1",
  "contractName": "TestYieldTokenAdapter",
  "sourceName": "contracts/test/TestYieldTokenAdapter.sol",
  "abi": [
    {
      "inputs": [
        {
          "internalType": "address",
          "name": "_token",
          "type": "address"
        }
      ],
      "stateMutability": "nonpayable",
      "type": "constructor"
    },
    {
      "inputs": [
        {
          "internalType": "address",
          "name": "target",
          "type": "address"
        },
        {
          "internalType": "bool",
          "name": "success",
          "type": "bool"
        },
        {
          "internalType": "bytes",
          "name": "data",
          "type": "bytes"
        }
      ],
      "name": "ERC20CallFailed",
      "type": "error"
    },
    {
      "inputs": [],
      "name": "price",
      "outputs": [
        {
          "internalType": "uint256",
          "name": "",
          "type": "uint256"
        }
      ],
      "stateMutability": "view",
      "type": "function"
    },
    {
      "inputs": [],
      "name": "token",
      "outputs": [
        {
          "internalType": "address",
          "name": "",
          "type": "address"
        }
      ],
      "stateMutability": "view",
      "type": "function"
    },
    {
      "inputs": [],
      "name": "underlyingToken",
      "outputs": [
        {
          "internalType": "address",
          "name": "",
          "type": "address"
        }
      ],
      "stateMutability": "view",
      "type": "function"
    },
    {
      "inputs": [
        {
          "internalType": "uint256",
          "name": "amount",
          "type": "uint256"
        },
        {
          "internalType": "address",
          "name": "recipient",
          "type": "address"
        }
      ],
      "name": "unwrap",
      "outputs": [
        {
          "internalType": "uint256",
          "name": "",
          "type": "uint256"
        }
      ],
      "stateMutability": "nonpayable",
      "type": "function"
    },
    {
      "inputs": [],
      "name": "version",
      "outputs": [
        {
          "internalType": "string",
          "name": "",
          "type": "string"
        }
      ],
      "stateMutability": "view",
      "type": "function"
    },
    {
      "inputs": [
        {
          "internalType": "uint256",
          "name": "amount",
          "type": "uint256"
        },
        {
          "internalType": "address",
          "name": "recipient",
          "type": "address"
        }
      ],
      "name": "wrap",
      "outputs": [
        {
          "internalType": "uint256",
          "name": "",
          "type": "uint256"
        }
      ],
      "stateMutability": "nonpayable",
      "type": "function"
    }
  ],
  "bytecode": "0x60c060405234801561001057600080fd5b506040516107c53803806107c583398101604081905261002f91610195565b6001600160a01b038116608081905260408051632495a59960e01b81529051632495a599916004808201926020929091908290030181865afa158015610079573d6000803e3d6000fd5b505050506040513d601f19601f8201168201806040525081019061009d9190610195565b6001600160a01b031660a0816001600160a01b031681525050806001600160a01b0316632495a5996040518163ffffffff1660e01b8152600401602060405180830381865afa1580156100f4573d6000803e3d6000fd5b505050506040513d601f19601f820116820180604052508101906101189190610195565b60405163095ea7b360e01b81526001600160a01b0383811660048301526000196024830152919091169063095ea7b3906044016020604051808303816000875af115801561016a573d6000803e3d6000fd5b505050506040513d601f19601f8201168201806040525081019061018e91906101c5565b50506101e7565b6000602082840312156101a757600080fd5b81516001600160a01b03811681146101be57600080fd5b9392505050565b6000602082840312156101d757600080fd5b815180151581146101be57600080fd5b60805160a05161059761022e600039600081816092015261014601526000818161011d015281816101840152818161020c0152818161024a015261028501526105976000f3fe608060405234801561001057600080fd5b50600436106100625760003560e01c806313bac820146100675780632495a5991461008d57806354fd4d50146100cc5780637647691d146100fd578063a035b1fe14610110578063fc0c546a14610118575b600080fd5b61007a610075366004610413565b61013f565b6040519081526020015b60405180910390f35b6100b47f000000000000000000000000000000000000000000000000000000000000000081565b6040516001600160a01b039091168152602001610084565b6100f0604051806040016040528060058152602001640322e302e360dc1b81525081565b60405161008491906104ab565b61007a61010b366004610413565b610205565b61007a610281565b6100b47f000000000000000000000000000000000000000000000000000000000000000081565b600061016d7f000000000000000000000000000000000000000000000000000000000000000033308661030a565b6040516394bf804d60e01b81526001600160a01b037f000000000000000000000000000000000000000000000000000000000000000016906394bf804d906101bb90869086906004016104be565b6020604051808303816000875af11580156101da573d6000803e3d6000fd5b505050506040513d601f19601f820116820180604052508101906101fe91906104d5565b9392505050565b60006102337f000000000000000000000000000000000000000000000000000000000000000033308661030a565b604051633def417960e11b81526001600160a01b037f00000000000000000000000000000000000000000000000000000000000000001690637bde82f2906101bb90869086906004016104be565b60007f00000000000000000000000000000000000000000000000000000000000000006001600160a01b031663a035b1fe6040518163ffffffff1660e01b8152600401602060405180830381865afa1580156102e1573d6000803e3d6000fd5b505050506040513d601f19601f8201168201806040525081019061030591906104d5565b905090565b604080516001600160a01b0385811660248301528481166044830152606480830185905283518084039091018152608490920183526020820180516001600160e01b03166323b872dd60e01b179052915160009283929088169161036e91906104ee565b6000604051808303816000865af19150503d80600081146103ab576040519150601f19603f3d011682016040523d82523d6000602084013e6103b0565b606091505b50915091508115806103de57508051158015906103de5750808060200190518101906103dc919061050a565b155b1561040b5785828260405163e7e40b5b60e01b81526004016104029392919061052c565b60405180910390fd5b505050505050565b6000806040838503121561042657600080fd5b8235915060208301356001600160a01b038116811461044457600080fd5b809150509250929050565b60005b8381101561046a578181015183820152602001610452565b83811115610479576000848401525b50505050565b6000815180845261049781602086016020860161044f565b601f01601f19169290920160200192915050565b6020815260006101fe602083018461047f565b9182526001600160a01b0316602082015260400190565b6000602082840312156104e757600080fd5b5051919050565b6000825161050081846020870161044f565b9190910192915050565b60006020828403121561051c57600080fd5b815180151581146101fe57600080fd5b6001600160a01b038416815282151560208201526060604082018190526000906105589083018461047f565b9594505050505056fea26469706673582212206df6c46727cb37b254ac05a20bf7b0788b0ceb9dcf27ecb0e9509b249258743764736f6c634300080b0033",
  "linkReferences": {},
  "deployedLinkReferences": {}
}