{
  "_format": "hh-sol-artifact-1",
  "contractName": "TransmuterMock",
  "sourceName": "contracts/test/TransmuterMock.sol",
  "abi": [
    {
      "inputs": [
        {
          "internalType": "address",
          "name": "_alToken",
          "type": "address"
        },
        {
          "internalType": "address",
          "name": "_underlyingToken",
          "type": "address"
        },
        {
          "internalType": "address",
          "name": "_collateralSource",
          "type": "address"
        }
      ],
      "stateMutability": "nonpayable",
      "type": "constructor"
    },
    {
      "anonymous": false,
      "inputs": [
        {
          "indexed": false,
          "internalType": "address",
          "name": "origin",
          "type": "address"
        },
        {
          "indexed": false,
          "internalType": "address",
          "name": "underlying",
          "type": "address"
        },
        {
          "indexed": false,
          "internalType": "uint256",
          "name": "amount",
          "type": "uint256"
        }
      ],
      "name": "Distribution",
      "type": "event"
    },
    {
      "anonymous": false,
      "inputs": [
        {
          "indexed": false,
          "internalType": "address",
          "name": "whitelisted",
          "type": "address"
        },
        {
          "indexed": false,
          "internalType": "bool",
          "name": "state",
          "type": "bool"
        }
      ],
      "name": "WhitelistSet",
      "type": "event"
    },
    {
      "inputs": [],
      "name": "TRANSMUTATION_PERIOD",
      "outputs": [
        {
          "internalType": "uint256",
          "name": "",
          "type": "uint256"
        }
      ],
      "stateMutability": "view",
      "type": "function"
    },
    {
      "inputs": [],
      "name": "ZERO_ADDRESS",
      "outputs": [
        {
          "internalType": "address",
          "name": "",
          "type": "address"
        }
      ],
      "stateMutability": "view",
      "type": "function"
    },
    {
      "inputs": [],
      "name": "alToken",
      "outputs": [
        {
          "internalType": "address",
          "name": "",
          "type": "address"
        }
      ],
      "stateMutability": "view",
      "type": "function"
    },
    {
      "inputs": [
        {
          "internalType": "uint256",
          "name": "amount",
          "type": "uint256"
        },
        {
          "internalType": "address",
          "name": "recipient",
          "type": "address"
        }
      ],
      "name": "claim",
      "outputs": [],
      "stateMutability": "nonpayable",
      "type": "function"
    },
    {
      "inputs": [],
      "name": "collateralSource",
      "outputs": [
        {
          "internalType": "address",
          "name": "",
          "type": "address"
        }
      ],
      "stateMutability": "view",
      "type": "function"
    },
    {
      "inputs": [
        {
          "internalType": "uint256",
          "name": "amount",
          "type": "uint256"
        }
      ],
      "name": "exchange",
      "outputs": [],
      "stateMutability": "nonpayable",
      "type": "function"
    },
    {
      "inputs": [],
      "name": "governance",
      "outputs": [
        {
          "internalType": "address",
          "name": "",
          "type": "address"
        }
      ],
      "stateMutability": "view",
      "type": "function"
    },
    {
      "inputs": [
        {
          "internalType": "address",
          "name": "_toWhitelist",
          "type": "address"
        },
        {
          "internalType": "bool",
          "name": "_state",
          "type": "bool"
        }
      ],
      "name": "setWhitelist",
      "outputs": [],
      "stateMutability": "nonpayable",
      "type": "function"
    },
    {
      "inputs": [],
      "name": "totalExchanged",
      "outputs": [
        {
          "internalType": "uint256",
          "name": "",
          "type": "uint256"
        }
      ],
      "stateMutability": "view",
      "type": "function"
    },
    {
      "inputs": [],
      "name": "underlyingToken",
      "outputs": [
        {
          "internalType": "address",
          "name": "",
          "type": "address"
        }
      ],
      "stateMutability": "view",
      "type": "function"
    },
    {
      "inputs": [
        {
          "internalType": "address",
          "name": "",
          "type": "address"
        }
      ],
      "name": "whiteList",
      "outputs": [
        {
          "internalType": "bool",
          "name": "",
          "type": "bool"
        }
      ],
      "stateMutability": "view",
      "type": "function"
    }
  ],
  "bytecode": "0x608060405234801561001057600080fd5b5060405161050b38038061050b83398101604081905261002f916100a2565b6001600081905560078054336001600160a01b0319918216179091556002805482166001600160a01b03968716179055600380548216948616949094179093556005805490931691909316179055603290556100e5565b80516001600160a01b038116811461009d57600080fd5b919050565b6000806000606084860312156100b757600080fd5b6100c084610086565b92506100ce60208501610086565b91506100dc60408501610086565b90509250925092565b610417806100f46000396000f3fe608060405234801561001057600080fd5b50600436106100a95760003560e01c806353d6fd591161007157806353d6fd591461014557806356273313146101585780635aa6e675146101615780636790fab314610174578063b6797d3c14610187578063ddd5e1b21461019a57600080fd5b806301f50c86146100ae5780632495a599146100ca578063372c12b1146100f55780635355655914610128578063538ba4f91461013d575b600080fd5b6100b760015481565b6040519081526020015b60405180910390f35b6003546100dd906001600160a01b031681565b6040516001600160a01b0390911681526020016100c1565b610118610103366004610318565b60066020526000908152604090205460ff1681565b60405190151581526020016100c1565b61013b61013636600461033a565b6101ad565b005b6100dd600081565b61013b610153366004610353565b6101c7565b6100b760045481565b6007546100dd906001600160a01b031681565b6002546100dd906001600160a01b031681565b6005546100dd906001600160a01b031681565b61013b6101a836600461038f565b610288565b80600460008282546101bf91906103bb565b909155505050565b6007546001600160a01b031633146102255760405162461bcd60e51b815260206004820152601760248201527f5472616e736d757465723a2021676f7665726e616e6365000000000000000000604482015260640160405180910390fd5b6001600160a01b038216600081815260066020908152604091829020805460ff19168515159081179091558251938452908301527f0aa5ec5ffdc7f6f9c4d0dded489d7450297155cb2f71cb771e02427f7dff4f51910160405180910390a15050565b600554600354604051631a4ca37b60e21b81526001600160a01b0391821660048201526024810185905283821660448201529116906369328dec90606401600060405180830381600087803b1580156102e057600080fd5b505af11580156102f4573d6000803e3d6000fd5b505050505050565b80356001600160a01b038116811461031357600080fd5b919050565b60006020828403121561032a57600080fd5b610333826102fc565b9392505050565b60006020828403121561034c57600080fd5b5035919050565b6000806040838503121561036657600080fd5b61036f836102fc565b91506020830135801515811461038457600080fd5b809150509250929050565b600080604083850312156103a257600080fd5b823591506103b2602084016102fc565b90509250929050565b600082198211156103dc57634e487b7160e01b600052601160045260246000fd5b50019056fea26469706673582212208b0c06193d535e53f412659222cd6b8e9fe5bcd8f88dc3e243879dbe22ee1ea364736f6c634300080b0033",
  "linkReferences": {},
  "deployedLinkReferences": {}
}