{
  "_format": "hh-sol-artifact-1",
  "contractName": "WETHGateway",
  "sourceName": "contracts/WETHGateway.sol",
  "abi": [
    {
      "inputs": [
        {
          "internalType": "address",
          "name": "weth",
          "type": "address"
        },
        {
          "internalType": "address",
          "name": "_whitelist",
          "type": "address"
        }
      ],
      "stateMutability": "nonpayable",
      "type": "constructor"
    },
    {
      "inputs": [],
      "name": "IllegalArgument",
      "type": "error"
    },
    {
      "inputs": [],
      "name": "IllegalState",
      "type": "error"
    },
    {
      "inputs": [],
      "name": "Unauthorized",
      "type": "error"
    },
    {
      "anonymous": false,
      "inputs": [
        {
          "indexed": true,
          "internalType": "address",
          "name": "previousOwner",
          "type": "address"
        },
        {
          "indexed": true,
          "internalType": "address",
          "name": "newOwner",
          "type": "address"
        }
      ],
      "name": "OwnershipTransferred",
      "type": "event"
    },
    {
      "inputs": [],
      "name": "WETH",
      "outputs": [
        {
          "internalType": "contract IWETH9",
          "name": "",
          "type": "address"
        }
      ],
      "stateMutability": "view",
      "type": "function"
    },
    {
      "inputs": [
        {
          "internalType": "address",
          "name": "alchemist",
          "type": "address"
        },
        {
          "internalType": "address",
          "name": "yieldToken",
          "type": "address"
        },
        {
          "internalType": "uint256",
          "name": "amount",
          "type": "uint256"
        },
        {
          "internalType": "address",
          "name": "recipient",
          "type": "address"
        },
        {
          "internalType": "uint256",
          "name": "minimumAmountOut",
          "type": "uint256"
        }
      ],
      "name": "depositUnderlying",
      "outputs": [],
      "stateMutability": "payable",
      "type": "function"
    },
    {
      "inputs": [],
      "name": "owner",
      "outputs": [
        {
          "internalType": "address",
          "name": "",
          "type": "address"
        }
      ],
      "stateMutability": "view",
      "type": "function"
    },
    {
      "inputs": [
        {
          "internalType": "address",
          "name": "alchemist",
          "type": "address"
        }
      ],
      "name": "refreshAllowance",
      "outputs": [],
      "stateMutability": "nonpayable",
      "type": "function"
    },
    {
      "inputs": [],
      "name": "renounceOwnership",
      "outputs": [],
      "stateMutability": "nonpayable",
      "type": "function"
    },
    {
      "inputs": [
        {
          "internalType": "address",
          "name": "newOwner",
          "type": "address"
        }
      ],
      "name": "transferOwnership",
      "outputs": [],
      "stateMutability": "nonpayable",
      "type": "function"
    },
    {
      "inputs": [],
      "name": "version",
      "outputs": [
        {
          "internalType": "string",
          "name": "",
          "type": "string"
        }
      ],
      "stateMutability": "view",
      "type": "function"
    },
    {
      "inputs": [],
      "name": "whitelist",
      "outputs": [
        {
          "internalType": "address",
          "name": "",
          "type": "address"
        }
      ],
      "stateMutability": "view",
      "type": "function"
    },
    {
      "inputs": [
        {
          "internalType": "address",
          "name": "alchemist",
          "type": "address"
        },
        {
          "internalType": "address",
          "name": "yieldToken",
          "type": "address"
        },
        {
          "internalType": "uint256",
          "name": "shares",
          "type": "uint256"
        },
        {
          "internalType": "address",
          "name": "recipient",
          "type": "address"
        },
        {
          "internalType": "uint256",
          "name": "minimumAmountOut",
          "type": "uint256"
        }
      ],
      "name": "withdrawUnderlying",
      "outputs": [],
      "stateMutability": "nonpayable",
      "type": "function"
    },
    {
      "stateMutability": "payable",
      "type": "receive"
    }
  ],
  "bytecode": "0x60a060405234801561001057600080fd5b50604051610d00380380610d0083398101604081905261002f916100cc565b61003833610060565b6001600160a01b03918216608052600180546001600160a01b031916919092161790556100ff565b600080546001600160a01b038381166001600160a01b0319831681178455604051919092169283917f8be0079c531659141344cd1fd0a4f28419497f9722a3daafe3b4186f6b6457e09190a35050565b80516001600160a01b03811681146100c757600080fd5b919050565b600080604083850312156100df57600080fd5b6100e8836100b0565b91506100f6602084016100b0565b90509250929050565b608051610bbd61014360003960008181609a015281816101de015281816102ae015281816103a10152818161042d0152818161058201526106ee0152610bbd6000f3fe60806040526004361061008a5760003560e01c80638da5cb5b116100595780638da5cb5b1461017a57806393e59dc1146101ac578063ad5c4648146101cc578063f2fde38b14610200578063fe65b98a1461022057600080fd5b80630df6cee0146100de57806354fd4d50146100fe5780636860e4e614610145578063715018a61461016557600080fd5b366100d957336001600160a01b037f000000000000000000000000000000000000000000000000000000000000000016146100d7576040516282b42960e81b815260040160405180910390fd5b005b600080fd5b3480156100ea57600080fd5b506100d76100f93660046108e2565b610233565b34801561010a57600080fd5b5061012f604051806040016040528060058152602001640322e312e360dc1b81525081565b60405161013c919061096d565b60405180910390f35b34801561015157600080fd5b506100d76101603660046109a0565b610528565b34801561017157600080fd5b506100d76105f3565b34801561018657600080fd5b506000546001600160a01b03165b6040516001600160a01b03909116815260200161013c565b3480156101b857600080fd5b50600154610194906001600160a01b031681565b3480156101d857600080fd5b506101947f000000000000000000000000000000000000000000000000000000000000000081565b34801561020c57600080fd5b506100d761021b3660046109a0565b610629565b6100d761022e3660046108e2565b6106c4565b61023b6107eb565b604051635a5efc8b60e01b81526001600160a01b03858116600483015260009190871690635a5efc8b906024016101e060405180830381865afa158015610286573d6000803e3d6000fd5b505050506040513d601f19601f820116820180604052508101906102aa9190610a2d565b90507f00000000000000000000000000000000000000000000000000000000000000006001600160a01b031681602001516001600160a01b03161461030257604051630134249960e71b815260040160405180910390fd5b604051632e5a3b8f60e21b81523360048201526001600160a01b038681166024830152604482018690523060648301526084820184905287169063b968ee3c9060a4016020604051808303816000875af1158015610364573d6000803e3d6000fd5b505050506040513d601f19601f820116820180604052508101906103889190610b02565b506040516370a0823160e01b81523060048201526000907f00000000000000000000000000000000000000000000000000000000000000006001600160a01b0316906370a0823190602401602060405180830381865afa1580156103f0573d6000803e3d6000fd5b505050506040513d601f19601f820116820180604052508101906104149190610b02565b604051632e1a7d4d60e01b8152600481018290529091507f00000000000000000000000000000000000000000000000000000000000000006001600160a01b031690632e1a7d4d90602401600060405180830381600087803b15801561047957600080fd5b505af115801561048d573d6000803e3d6000fd5b5050604080516000808252602082019283905293506001600160a01b038816925084916104ba9190610b1b565b60006040518083038185875af1925050503d80600081146104f7576040519150601f19603f3d011682016040523d82523d6000602084013e6104fc565b606091505b505090508061051e57604051634a613c4160e01b815260040160405180910390fd5b5050505050505050565b6000546001600160a01b0316331461055b5760405162461bcd60e51b815260040161055290610b37565b60405180910390fd5b60405163095ea7b360e01b81526001600160a01b03828116600483015260001960248301527f0000000000000000000000000000000000000000000000000000000000000000169063095ea7b3906044016020604051808303816000875af11580156105cb573d6000803e3d6000fd5b505050506040513d601f19601f820116820180604052508101906105ef9190610b6c565b5050565b6000546001600160a01b0316331461061d5760405162461bcd60e51b815260040161055290610b37565b610627600061087d565b565b6000546001600160a01b031633146106535760405162461bcd60e51b815260040161055290610b37565b6001600160a01b0381166106b85760405162461bcd60e51b815260206004820152602660248201527f4f776e61626c653a206e6577206f776e657220697320746865207a65726f206160448201526564647265737360d01b6064820152608401610552565b6106c18161087d565b50565b6106cc6107eb565b3483146106ec57604051630134249960e71b815260040160405180910390fd5b7f00000000000000000000000000000000000000000000000000000000000000006001600160a01b031663d0e30db0346040518263ffffffff1660e01b81526004016000604051808303818588803b15801561074757600080fd5b505af115801561075b573d6000803e3d6000fd5b5050604051635efd4dd760e11b81526001600160a01b038881166004830152602482018890528681166044830152606482018690528916935063bdfa9bae925060840190506020604051808303816000875af11580156107bf573d6000803e3d6000fd5b505050506040513d601f19601f820116820180604052508101906107e39190610b02565b505050505050565b323314156107f557565b600154604051633af32abf60e01b81523360048201526001600160a01b0390911690633af32abf90602401602060405180830381865afa15801561083d573d6000803e3d6000fd5b505050506040513d601f19601f820116820180604052508101906108619190610b6c565b610627576040516282b42960e81b815260040160405180910390fd5b600080546001600160a01b038381166001600160a01b0319831681178455604051919092169283917f8be0079c531659141344cd1fd0a4f28419497f9722a3daafe3b4186f6b6457e09190a35050565b6001600160a01b03811681146106c157600080fd5b600080600080600060a086880312156108fa57600080fd5b8535610905816108cd565b94506020860135610915816108cd565b935060408601359250606086013561092c816108cd565b949793965091946080013592915050565b60005b83811015610958578181015183820152602001610940565b83811115610967576000848401525b50505050565b602081526000825180602084015261098c81604085016020870161093d565b601f01601f19169190910160400192915050565b6000602082840312156109b257600080fd5b81356109bd816108cd565b9392505050565b6040516101e0810167ffffffffffffffff811182821017156109f657634e487b7160e01b600052604160045260246000fd5b60405290565b805160ff81168114610a0d57600080fd5b919050565b8051610a0d816108cd565b80518015158114610a0d57600080fd5b60006101e08284031215610a4057600080fd5b610a486109c4565b610a51836109fc565b8152610a5f60208401610a12565b6020820152610a7060408401610a12565b6040820152606083810151908201526080808401519082015260a0808401519082015260c0808401519082015260e08084015190820152610100808401519082015261012080840151908201526101408084015190820152610160808401519082015261018080840151908201526101a080840151908201526101c0610af7818501610a1d565b908201529392505050565b600060208284031215610b1457600080fd5b5051919050565b60008251610b2d81846020870161093d565b9190910192915050565b6020808252818101527f4f776e61626c653a2063616c6c6572206973206e6f7420746865206f776e6572604082015260600190565b600060208284031215610b7e57600080fd5b6109bd82610a1d56fea26469706673582212209fb732f3ecd3cd56dcd99047d1927b53841fa38cec4552e11560987fb149f2c364736f6c634300080b0033",
  "linkReferences": {},
  "deployedLinkReferences": {}
}