{
  "_format": "hh-sol-artifact-1",
  "contractName": "WETHGateway",
  "sourceName": "contracts/WETHGateway.sol",
  "abi": [
    {
      "inputs": [
        {
          "internalType": "address",
          "name": "weth",
          "type": "address"
        },
        {
          "internalType": "address",
          "name": "_whitelist",
          "type": "address"
        }
      ],
      "stateMutability": "nonpayable",
      "type": "constructor"
    },
    {
      "inputs": [],
      "name": "IllegalArgument",
      "type": "error"
    },
    {
      "inputs": [],
      "name": "IllegalState",
      "type": "error"
    },
    {
      "inputs": [],
      "name": "Unauthorized",
      "type": "error"
    },
    {
      "anonymous": false,
      "inputs": [
        {
          "indexed": true,
          "internalType": "address",
          "name": "previousOwner",
          "type": "address"
        },
        {
          "indexed": true,
          "internalType": "address",
          "name": "newOwner",
          "type": "address"
        }
      ],
      "name": "OwnershipTransferred",
      "type": "event"
    },
    {
      "inputs": [],
      "name": "WETH",
      "outputs": [
        {
          "internalType": "contract IWETH9",
          "name": "",
          "type": "address"
        }
      ],
      "stateMutability": "view",
      "type": "function"
    },
    {
      "inputs": [
        {
          "internalType": "address",
          "name": "alchemist",
          "type": "address"
        },
        {
          "internalType": "address",
          "name": "yieldToken",
          "type": "address"
        },
        {
          "internalType": "uint256",
          "name": "amount",
          "type": "uint256"
        },
        {
          "internalType": "address",
          "name": "recipient",
          "type": "address"
        },
        {
          "internalType": "uint256",
          "name": "minimumAmountOut",
          "type": "uint256"
        }
      ],
      "name": "depositUnderlying",
      "outputs": [],
      "stateMutability": "payable",
      "type": "function"
    },
    {
      "inputs": [],
      "name": "owner",
      "outputs": [
        {
          "internalType": "address",
          "name": "",
          "type": "address"
        }
      ],
      "stateMutability": "view",
      "type": "function"
    },
    {
      "inputs": [
        {
          "internalType": "address",
          "name": "alchemist",
          "type": "address"
        }
      ],
      "name": "refreshAllowance",
      "outputs": [],
      "stateMutability": "nonpayable",
      "type": "function"
    },
    {
      "inputs": [],
      "name": "renounceOwnership",
      "outputs": [],
      "stateMutability": "nonpayable",
      "type": "function"
    },
    {
      "inputs": [
        {
          "internalType": "address",
          "name": "newOwner",
          "type": "address"
        }
      ],
      "name": "transferOwnership",
      "outputs": [],
      "stateMutability": "nonpayable",
      "type": "function"
    },
    {
      "inputs": [],
      "name": "version",
      "outputs": [
        {
          "internalType": "string",
          "name": "",
          "type": "string"
        }
      ],
      "stateMutability": "view",
      "type": "function"
    },
    {
      "inputs": [],
      "name": "whitelist",
      "outputs": [
        {
          "internalType": "address",
          "name": "",
          "type": "address"
        }
      ],
      "stateMutability": "view",
      "type": "function"
    },
    {
      "inputs": [
        {
          "internalType": "address",
          "name": "alchemist",
          "type": "address"
        },
        {
          "internalType": "address",
          "name": "yieldToken",
          "type": "address"
        },
        {
          "internalType": "uint256",
          "name": "shares",
          "type": "uint256"
        },
        {
          "internalType": "address",
          "name": "recipient",
          "type": "address"
        },
        {
          "internalType": "uint256",
          "name": "minimumAmountOut",
          "type": "uint256"
        }
      ],
      "name": "withdrawUnderlying",
      "outputs": [],
      "stateMutability": "nonpayable",
      "type": "function"
    },
    {
      "stateMutability": "payable",
      "type": "receive"
    }
  ],
  "bytecode": "0x60a060405234801561001057600080fd5b50604051610d1d380380610d1d83398101604081905261002f916100cc565b61003833610060565b6001600160a01b03918216608052600180546001600160a01b031916919092161790556100ff565b600080546001600160a01b038381166001600160a01b0319831681178455604051919092169283917f8be0079c531659141344cd1fd0a4f28419497f9722a3daafe3b4186f6b6457e09190a35050565b80516001600160a01b03811681146100c757600080fd5b919050565b600080604083850312156100df57600080fd5b6100e8836100b0565b91506100f6602084016100b0565b90509250929050565b608051610bda61014360003960008181608a015281816101be0152818161029001528181610385015281816104140152818161056e01526106f30152610bda6000f3fe60806040526004361061007a5760003560e01c80630df6cee0146100ce57806354fd4d50146100ee5780636860e4e614610135578063715018a6146101555780638da5cb5b1461016a57806393e59dc11461018c578063ad5c4648146101ac578063f2fde38b146101e0578063fe65b98a1461020057600080fd5b366100c957336001600160a01b037f000000000000000000000000000000000000000000000000000000000000000016146100c7576040516282b42960e81b815260040160405180910390fd5b005b600080fd5b3480156100da57600080fd5b506100c76100e93660046108ec565b610213565b3480156100fa57600080fd5b5061011f604051806040016040528060058152602001640322e312e360dc1b81525081565b60405161012c9190610977565b60405180910390f35b34801561014157600080fd5b506100c76101503660046109aa565b61050f565b34801561016157600080fd5b506100c76105df565b34801561017657600080fd5b5061017f61061a565b60405161012c91906109ce565b34801561019857600080fd5b5060015461017f906001600160a01b031681565b3480156101b857600080fd5b5061017f7f000000000000000000000000000000000000000000000000000000000000000081565b3480156101ec57600080fd5b506100c76101fb3660046109aa565b610629565b6100c761020e3660046108ec565b6106c9565b61021b6107f0565b604051635a5efc8b60e01b81526000906001600160a01b03871690635a5efc8b9061024a9088906004016109ce565b6101e060405180830381865afa158015610268573d6000803e3d6000fd5b505050506040513d601f19601f8201168201806040525081019061028c9190610a4a565b90507f00000000000000000000000000000000000000000000000000000000000000006001600160a01b031681602001516001600160a01b0316146102e457604051630134249960e71b815260040160405180910390fd5b604051632e5a3b8f60e21b81523360048201526001600160a01b038681166024830152604482018690523060648301526084820184905287169063b968ee3c9060a4016020604051808303816000875af1158015610346573d6000803e3d6000fd5b505050506040513d601f19601f8201168201806040525081019061036a9190610b1f565b506040516370a0823160e01b81526000906001600160a01b037f000000000000000000000000000000000000000000000000000000000000000016906370a08231906103ba9030906004016109ce565b602060405180830381865afa1580156103d7573d6000803e3d6000fd5b505050506040513d601f19601f820116820180604052508101906103fb9190610b1f565b604051632e1a7d4d60e01b8152600481018290529091507f00000000000000000000000000000000000000000000000000000000000000006001600160a01b031690632e1a7d4d90602401600060405180830381600087803b15801561046057600080fd5b505af1158015610474573d6000803e3d6000fd5b5050604080516000808252602082019283905293506001600160a01b038816925084916104a19190610b38565b60006040518083038185875af1925050503d80600081146104de576040519150601f19603f3d011682016040523d82523d6000602084013e6104e3565b606091505b505090508061050557604051634a613c4160e01b815260040160405180910390fd5b5050505050505050565b3361051861061a565b6001600160a01b0316146105475760405162461bcd60e51b815260040161053e90610b54565b60405180910390fd5b60405163095ea7b360e01b81526001600160a01b03828116600483015260001960248301527f0000000000000000000000000000000000000000000000000000000000000000169063095ea7b3906044016020604051808303816000875af11580156105b7573d6000803e3d6000fd5b505050506040513d601f19601f820116820180604052508101906105db9190610b89565b5050565b336105e861061a565b6001600160a01b03161461060e5760405162461bcd60e51b815260040161053e90610b54565b6106186000610887565b565b6000546001600160a01b031690565b3361063261061a565b6001600160a01b0316146106585760405162461bcd60e51b815260040161053e90610b54565b6001600160a01b0381166106bd5760405162461bcd60e51b815260206004820152602660248201527f4f776e61626c653a206e6577206f776e657220697320746865207a65726f206160448201526564647265737360d01b606482015260840161053e565b6106c681610887565b50565b6106d16107f0565b3483146106f157604051630134249960e71b815260040160405180910390fd5b7f00000000000000000000000000000000000000000000000000000000000000006001600160a01b031663d0e30db0346040518263ffffffff1660e01b81526004016000604051808303818588803b15801561074c57600080fd5b505af1158015610760573d6000803e3d6000fd5b5050604051635efd4dd760e11b81526001600160a01b038881166004830152602482018890528681166044830152606482018690528916935063bdfa9bae925060840190506020604051808303816000875af11580156107c4573d6000803e3d6000fd5b505050506040513d601f19601f820116820180604052508101906107e89190610b1f565b505050505050565b323314156107fa57565b600154604051633af32abf60e01b81526001600160a01b0390911690633af32abf9061082a9033906004016109ce565b602060405180830381865afa158015610847573d6000803e3d6000fd5b505050506040513d601f19601f8201168201806040525081019061086b9190610b89565b610618576040516282b42960e81b815260040160405180910390fd5b600080546001600160a01b038381166001600160a01b0319831681178455604051919092169283917f8be0079c531659141344cd1fd0a4f28419497f9722a3daafe3b4186f6b6457e09190a35050565b6001600160a01b03811681146106c657600080fd5b600080600080600060a0868803121561090457600080fd5b853561090f816108d7565b9450602086013561091f816108d7565b9350604086013592506060860135610936816108d7565b949793965091946080013592915050565b60005b8381101561096257818101518382015260200161094a565b83811115610971576000848401525b50505050565b6020815260008251806020840152610996816040850160208701610947565b601f01601f19169190910160400192915050565b6000602082840312156109bc57600080fd5b81356109c7816108d7565b9392505050565b6001600160a01b0391909116815260200190565b6040516101e081016001600160401b0381118282101715610a1357634e487b7160e01b600052604160045260246000fd5b60405290565b805160ff81168114610a2a57600080fd5b919050565b8051610a2a816108d7565b80518015158114610a2a57600080fd5b60006101e08284031215610a5d57600080fd5b610a656109e2565b610a6e83610a19565b8152610a7c60208401610a2f565b6020820152610a8d60408401610a2f565b6040820152606083810151908201526080808401519082015260a0808401519082015260c0808401519082015260e08084015190820152610100808401519082015261012080840151908201526101408084015190820152610160808401519082015261018080840151908201526101a080840151908201526101c0610b14818501610a3a565b908201529392505050565b600060208284031215610b3157600080fd5b5051919050565b60008251610b4a818460208701610947565b9190910192915050565b6020808252818101527f4f776e61626c653a2063616c6c6572206973206e6f7420746865206f776e6572604082015260600190565b600060208284031215610b9b57600080fd5b6109c782610a3a56fea2646970667358221220bb076cf7b2a593ca3a54663629b53e64fea2b4d933d442865c9215b0064b838264736f6c634300080b0033",
  "linkReferences": {},
  "deployedLinkReferences": {}
}