{
  "_format": "hh-sol-artifact-1",
  "contractName": "TestERC20",
  "sourceName": "contracts/test/TestERC20.sol",
  "abi": [
    {
      "inputs": [
        {
          "internalType": "uint256",
          "name": "amountToMint",
          "type": "uint256"
        },
        {
          "internalType": "uint8",
          "name": "_decimals",
          "type": "uint8"
        }
      ],
      "stateMutability": "nonpayable",
      "type": "constructor"
    },
    {
      "anonymous": false,
      "inputs": [
        {
          "indexed": true,
          "internalType": "address",
          "name": "owner",
          "type": "address"
        },
        {
          "indexed": true,
          "internalType": "address",
          "name": "spender",
          "type": "address"
        },
        {
          "indexed": false,
          "internalType": "uint256",
          "name": "amount",
          "type": "uint256"
        }
      ],
      "name": "Approval",
      "type": "event"
    },
    {
      "anonymous": false,
      "inputs": [
        {
          "indexed": true,
          "internalType": "address",
          "name": "owner",
          "type": "address"
        },
        {
          "indexed": true,
          "internalType": "address",
          "name": "recipient",
          "type": "address"
        },
        {
          "indexed": false,
          "internalType": "uint256",
          "name": "amount",
          "type": "uint256"
        }
      ],
      "name": "Transfer",
      "type": "event"
    },
    {
      "inputs": [
        {
          "internalType": "address",
          "name": "",
          "type": "address"
        },
        {
          "internalType": "address",
          "name": "",
          "type": "address"
        }
      ],
      "name": "allowance",
      "outputs": [
        {
          "internalType": "uint256",
          "name": "",
          "type": "uint256"
        }
      ],
      "stateMutability": "view",
      "type": "function"
    },
    {
      "inputs": [
        {
          "internalType": "address",
          "name": "spender",
          "type": "address"
        },
        {
          "internalType": "uint256",
          "name": "amount",
          "type": "uint256"
        }
      ],
      "name": "approve",
      "outputs": [
        {
          "internalType": "bool",
          "name": "",
          "type": "bool"
        }
      ],
      "stateMutability": "nonpayable",
      "type": "function"
    },
    {
      "inputs": [
        {
          "internalType": "address",
          "name": "",
          "type": "address"
        }
      ],
      "name": "balanceOf",
      "outputs": [
        {
          "internalType": "uint256",
          "name": "",
          "type": "uint256"
        }
      ],
      "stateMutability": "view",
      "type": "function"
    },
    {
      "inputs": [
        {
          "internalType": "uint256",
          "name": "amount",
          "type": "uint256"
        }
      ],
      "name": "burn",
      "outputs": [
        {
          "internalType": "bool",
          "name": "",
          "type": "bool"
        }
      ],
      "stateMutability": "nonpayable",
      "type": "function"
    },
    {
      "inputs": [
        {
          "internalType": "address",
          "name": "owner",
          "type": "address"
        },
        {
          "internalType": "uint256",
          "name": "amount",
          "type": "uint256"
        }
      ],
      "name": "burnFrom",
      "outputs": [
        {
          "internalType": "bool",
          "name": "",
          "type": "bool"
        }
      ],
      "stateMutability": "nonpayable",
      "type": "function"
    },
    {
      "inputs": [],
      "name": "decimals",
      "outputs": [
        {
          "internalType": "uint8",
          "name": "",
          "type": "uint8"
        }
      ],
      "stateMutability": "view",
      "type": "function"
    },
    {
      "inputs": [
        {
          "internalType": "address",
          "name": "to",
          "type": "address"
        },
        {
          "internalType": "uint256",
          "name": "amount",
          "type": "uint256"
        }
      ],
      "name": "mint",
      "outputs": [
        {
          "internalType": "bool",
          "name": "",
          "type": "bool"
        }
      ],
      "stateMutability": "nonpayable",
      "type": "function"
    },
    {
      "inputs": [],
      "name": "totalSupply",
      "outputs": [
        {
          "internalType": "uint256",
          "name": "",
          "type": "uint256"
        }
      ],
      "stateMutability": "view",
      "type": "function"
    },
    {
      "inputs": [
        {
          "internalType": "address",
          "name": "recipient",
          "type": "address"
        },
        {
          "internalType": "uint256",
          "name": "amount",
          "type": "uint256"
        }
      ],
      "name": "transfer",
      "outputs": [
        {
          "internalType": "bool",
          "name": "",
          "type": "bool"
        }
      ],
      "stateMutability": "nonpayable",
      "type": "function"
    },
    {
      "inputs": [
        {
          "internalType": "address",
          "name": "sender",
          "type": "address"
        },
        {
          "internalType": "address",
          "name": "recipient",
          "type": "address"
        },
        {
          "internalType": "uint256",
          "name": "amount",
          "type": "uint256"
        }
      ],
      "name": "transferFrom",
      "outputs": [
        {
          "internalType": "bool",
          "name": "",
          "type": "bool"
        }
      ],
      "stateMutability": "nonpayable",
      "type": "function"
    }
  ],
  "bytecode": "0x608060405234801561001057600080fd5b50604051610a43380380610a4383398101604081905261002f916100fb565b6001805460ff191660ff83161790556100483383610050565b505050610157565b6001600160a01b0382166000908152600260205260408120548190610076908490610131565b9050828110156100bf5760405162461bcd60e51b815260206004820152601060248201526f6f766572666c6f772062616c616e636560801b604482015260640160405180910390fd5b6001600160a01b0384166000908152600260205260408120829055805484919081906100ec908490610131565b90915550600195945050505050565b6000806040838503121561010e57600080fd5b82519150602083015160ff8116811461012657600080fd5b809150509250929050565b6000821982111561015257634e487b7160e01b600052601160045260246000fd5b500190565b6108dd806101666000396000f3fe608060405234801561001057600080fd5b506004361061008e5760003560e01c8063095ea7b31461009357806318160ddd146100bb57806323b872dd146100d2578063313ce567146100e557806340c10f191461010457806342966c681461011757806370a082311461012a57806379cc67901461014a578063a9059cbb1461015d578063dd62ed3e14610170575b600080fd5b6100a66100a136600461070a565b61019b565b60405190151581526020015b60405180910390f35b6100c460005481565b6040519081526020016100b2565b6100a66100e0366004610734565b610207565b6001546100f29060ff1681565b60405160ff90911681526020016100b2565b6100a661011236600461070a565b610390565b6100a6610125366004610770565b610437565b6100c4610138366004610789565b60026020526000908152604090205481565b6100a661015836600461070a565b6104be565b6100a661016b36600461070a565b6105cc565b6100c461017e3660046107ab565b600360209081526000928352604080842090915290825290205481565b3360008181526003602090815260408083206001600160a01b038716808552925280832085905551919290917f8c5be1e5ebec7d5bd14f71427d1e84f3dd0314c0f7b2291e5b200ac8c7c3b925906101f69086815260200190565b60405180910390a350600192915050565b6001600160a01b0383166000908152600360209081526040808320338452909152812054828110156102545760405162461bcd60e51b815260040161024b906107de565b60405180910390fd5b61025e8382610824565b6001600160a01b0380871660009081526003602090815260408083203384528252808320949094559187168152600290915220548061029d858261083b565b10156102bb5760405162461bcd60e51b815260040161024b90610853565b6102c5848261083b565b6001600160a01b038087166000908152600260205260408082209390935590881681522054848110156103355760405162461bcd60e51b81526020600482015260186024820152773ab73232b9333637bb903130b630b731b29039b2b73232b960411b604482015260640161024b565b61033f8582610824565b6001600160a01b038881166000818152600260209081526040918290209490945551888152918916929091600080516020610888833981519152910160405180910390a35060019695505050505050565b6001600160a01b03821660009081526002602052604081205481906103b690849061083b565b9050828110156103fb5760405162461bcd60e51b815260206004820152601060248201526f6f766572666c6f772062616c616e636560801b604482015260640161024b565b6001600160a01b03841660009081526002602052604081208290558054849190819061042890849061083b565b90915550600195945050505050565b33600090815260026020526040812054828110156104675760405162461bcd60e51b815260040161024b90610853565b6104718382610824565b3360009081526002602052604081209190915580548491908190610496908490610824565b90915550506040518381526000903390600080516020610888833981519152906020016101f6565b6001600160a01b0382166000908152600360209081526040808320338452909152812054828110156105025760405162461bcd60e51b815260040161024b906107de565b61050c8382610824565b6001600160a01b0385166000818152600360209081526040808320338452825280832094909455918152600290915220548381101561055d5760405162461bcd60e51b815260040161024b90610853565b6105678482610824565b6001600160a01b03861660009081526002602052604081209190915580548591908190610595908490610824565b90915550506040518481526000903390600080516020610888833981519152906020015b60405180910390a3506001949350505050565b33600090815260026020526040812054828110156106235760405162461bcd60e51b8152602060048201526014602482015273696e73756666696369656e742062616c616e636560601b604482015260640161024b565b61062d8382610824565b33600090815260026020526040808220929092556001600160a01b038616815220548061065a858261083b565b10156106a55760405162461bcd60e51b815260206004820152601a602482015279726563697069656e742062616c616e6365206f766572666c6f7760301b604482015260640161024b565b6106af848261083b565b6001600160a01b038616600081815260026020526040908190209290925590513390600080516020610888833981519152906105b99088815260200190565b80356001600160a01b038116811461070557600080fd5b919050565b6000806040838503121561071d57600080fd5b610726836106ee565b946020939093013593505050565b60008060006060848603121561074957600080fd5b610752846106ee565b9250610760602085016106ee565b9150604084013590509250925092565b60006020828403121561078257600080fd5b5035919050565b60006020828403121561079b57600080fd5b6107a4826106ee565b9392505050565b600080604083850312156107be57600080fd5b6107c7836106ee565b91506107d5602084016106ee565b90509250929050565b602080825260169082015275185b1b1bddd85b98d9481a5b9cdd59999a58da595b9d60521b604082015260600190565b634e487b7160e01b600052601160045260246000fd5b6000828210156108365761083661080e565b500390565b6000821982111561084e5761084e61080e565b500190565b6020808252601a90820152791bdd995c999b1bddc818985b185b98d9481c9958da5c1a595b9d60321b60408201526060019056feddf252ad1be2c89b69c2b068fc378daa952ba7f163c4a11628f55a4df523b3efa264697066735822122088758a68a0031ee8546c19a112790a06b374829d8416e5cac1857d0f78fb381464736f6c634300080b0033",
  "linkReferences": {},
  "deployedLinkReferences": {}
}