{
  "_format": "hh-sol-artifact-1",
  "contractName": "Limiters",
  "sourceName": "contracts/libraries/Limiters.sol",
  "abi": [
    {
      "inputs": [],
      "name": "FIXED_POINT_SCALAR",
      "outputs": [
        {
          "internalType": "uint256",
          "name": "",
          "type": "uint256"
        }
      ],
      "stateMutability": "view",
      "type": "function"
    },
    {
      "inputs": [],
      "name": "MAX_COOLDOWN_BLOCKS",
      "outputs": [
        {
          "internalType": "uint256",
          "name": "",
          "type": "uint256"
        }
      ],
      "stateMutability": "view",
      "type": "function"
    }
  ],
  "bytecode": "0x60a0610038600b82828239805160001a607314602b57634e487b7160e01b600052600060045260246000fd5b30600052607381538281f3fe7300000000000000000000000000000000000000003014608060405260043610603d5760003560e01c80631793190114604257806377f8a8dc146062575b600080fd5b6050670de0b6b3a764000081565b60405190815260200160405180910390f35b6050611c208156fea264697066735822122030f1fe58ea4c07b03ac9e86e520d3168ef0cf497a0f22cda00d36a0fadd1f1ea64736f6c634300080b0033",
  "linkReferences": {},
  "deployedLinkReferences": {}
}