{
  "address": "0xCC19B661B1741A8269aD98840Da2A954AB85EAc7",
  "abi": [
    {
      "inputs": [
        {
          "internalType": "contract IAlchemist",
          "name": "_alchemist",
          "type": "address"
        },
        {
          "internalType": "contract ITransmuter",
          "name": "_transmuter",
          "type": "address"
        },
        {
          "internalType": "contract IERC20",
          "name": "_underlying",
          "type": "address"
        },
        {
          "internalType": "address",
          "name": "_keeperRegistry",
          "type": "address"
        }
      ],
      "stateMutability": "nonpayable",
      "type": "constructor"
    },
    {
      "anonymous": false,
      "inputs": [
        {
          "indexed": true,
          "internalType": "address",
          "name": "previousOwner",
          "type": "address"
        },
        {
          "indexed": true,
          "internalType": "address",
          "name": "newOwner",
          "type": "address"
        }
      ],
      "name": "OwnershipTransferred",
      "type": "event"
    },
    {
      "inputs": [],
      "name": "alchemist",
      "outputs": [
        {
          "internalType": "contract IAlchemist",
          "name": "",
          "type": "address"
        }
      ],
      "stateMutability": "view",
      "type": "function"
    },
    {
      "inputs": [
        {
          "internalType": "bytes",
          "name": "checkData",
          "type": "bytes"
        }
      ],
      "name": "checkUpkeep",
      "outputs": [
        {
          "internalType": "bool",
          "name": "upkeepNeeded",
          "type": "bool"
        },
        {
          "internalType": "bytes",
          "name": "performData",
          "type": "bytes"
        }
      ],
      "stateMutability": "view",
      "type": "function"
    },
    {
      "inputs": [],
      "name": "keeperDelay",
      "outputs": [
        {
          "internalType": "uint256",
          "name": "",
          "type": "uint256"
        }
      ],
      "stateMutability": "view",
      "type": "function"
    },
    {
      "inputs": [],
      "name": "keeperRegistry",
      "outputs": [
        {
          "internalType": "address",
          "name": "",
          "type": "address"
        }
      ],
      "stateMutability": "view",
      "type": "function"
    },
    {
      "inputs": [
        {
          "internalType": "enum AlKeeper.TASK",
          "name": "",
          "type": "uint8"
        }
      ],
      "name": "lastCallForTask",
      "outputs": [
        {
          "internalType": "uint256",
          "name": "",
          "type": "uint256"
        }
      ],
      "stateMutability": "view",
      "type": "function"
    },
    {
      "inputs": [],
      "name": "nextTask",
      "outputs": [
        {
          "internalType": "enum AlKeeper.TASK",
          "name": "",
          "type": "uint8"
        }
      ],
      "stateMutability": "view",
      "type": "function"
    },
    {
      "inputs": [],
      "name": "owner",
      "outputs": [
        {
          "internalType": "address",
          "name": "",
          "type": "address"
        }
      ],
      "stateMutability": "view",
      "type": "function"
    },
    {
      "inputs": [],
      "name": "paused",
      "outputs": [
        {
          "internalType": "bool",
          "name": "",
          "type": "bool"
        }
      ],
      "stateMutability": "view",
      "type": "function"
    },
    {
      "inputs": [
        {
          "internalType": "bytes",
          "name": "performData",
          "type": "bytes"
        }
      ],
      "name": "performUpkeep",
      "outputs": [],
      "stateMutability": "nonpayable",
      "type": "function"
    },
    {
      "inputs": [
        {
          "internalType": "contract IERC20",
          "name": "token",
          "type": "address"
        }
      ],
      "name": "recoverFunds",
      "outputs": [],
      "stateMutability": "nonpayable",
      "type": "function"
    },
    {
      "inputs": [],
      "name": "renounceOwnership",
      "outputs": [],
      "stateMutability": "nonpayable",
      "type": "function"
    },
    {
      "inputs": [
        {
          "internalType": "contract IAlchemist",
          "name": "newAlchemist",
          "type": "address"
        }
      ],
      "name": "setAlchemist",
      "outputs": [],
      "stateMutability": "nonpayable",
      "type": "function"
    },
    {
      "inputs": [
        {
          "internalType": "uint256",
          "name": "newKeeperDelay",
          "type": "uint256"
        }
      ],
      "name": "setKeeperDelay",
      "outputs": [],
      "stateMutability": "nonpayable",
      "type": "function"
    },
    {
      "inputs": [
        {
          "internalType": "address",
          "name": "_keeperRegistry",
          "type": "address"
        }
      ],
      "name": "setKeeperRegistry",
      "outputs": [],
      "stateMutability": "nonpayable",
      "type": "function"
    },
    {
      "inputs": [
        {
          "internalType": "bool",
          "name": "pauseState",
          "type": "bool"
        }
      ],
      "name": "setPause",
      "outputs": [],
      "stateMutability": "nonpayable",
      "type": "function"
    },
    {
      "inputs": [
        {
          "internalType": "contract ITransmuter",
          "name": "newTransmuter",
          "type": "address"
        }
      ],
      "name": "setTransmuter",
      "outputs": [],
      "stateMutability": "nonpayable",
      "type": "function"
    },
    {
      "inputs": [
        {
          "internalType": "address",
          "name": "newOwner",
          "type": "address"
        }
      ],
      "name": "transferOwnership",
      "outputs": [],
      "stateMutability": "nonpayable",
      "type": "function"
    },
    {
      "inputs": [],
      "name": "transmuter",
      "outputs": [
        {
          "internalType": "contract ITransmuter",
          "name": "",
          "type": "address"
        }
      ],
      "stateMutability": "view",
      "type": "function"
    },
    {
      "inputs": [],
      "name": "underlying",
      "outputs": [
        {
          "internalType": "contract IERC20",
          "name": "",
          "type": "address"
        }
      ],
      "stateMutability": "view",
      "type": "function"
    }
  ],
  "transactionHash": "0xeee9dd8e00ade69c6df27eca21d2998e1d4ef07934b47d2da75314e809fe07e2",
  "args": [
    "0xc21D353FF4ee73C572425697f4F5aaD2109fe35b",
    "0xeE69BD81Bd056339368c97c4B2837B4Dc4b796E7",
    "0x6B175474E89094C44Da98b954EedeAC495271d0F",
    "0x7b3EC232b08BD7b4b3305BE0C044D907B2DF960B"
  ],
  "solcInputHash": "a1b295dd8f9590428ca79e83a25d60e6",
  "bytecode": "0x60806040523480156200001157600080fd5b5060405162001c5c38038062001c5c8339810160408190526200003491620000f1565b6200003f33620000a1565b600180546001600160a01b03199081166001600160a01b0396871617909155600280548216948616949094179093556003805490931691841691909117909155600480546001600160a81b031916919092161790556201518060075562000171565b600080546001600160a01b038381166001600160a01b0319831681178455604051919092169283917f8be0079c531659141344cd1fd0a4f28419497f9722a3daafe3b4186f6b6457e09190a35050565b6000806000806080858703121562000107578384fd5b8451620001148162000158565b6020860151909450620001278162000158565b60408601519093506200013a8162000158565b60608601519092506200014d8162000158565b939692955090935050565b6001600160a01b03811681146200016e57600080fd5b50565b611adb80620001816000396000f3fe608060405234801561001057600080fd5b50600436106101515760003560e01c80638da5cb5b116100cd578063bedb86fb11610081578063f1af775f11610066578063f1af775f1461032e578063f2fde38b14610341578063f4b1ea561461035457600080fd5b8063bedb86fb14610308578063e72f6e301461031b57600080fd5b8063a128c4d2116100b2578063a128c4d2146102c2578063a2cfd176146102d5578063adb4a9ad146102f557600080fd5b80638da5cb5b146102845780638de925f6146102a257600080fd5b80636e04ff0d11610124578063715018a611610109578063715018a61461023c5780637239d2b91461024457806383e227741461026457600080fd5b80636e04ff0d146101d65780636f307dc3146101f757600080fd5b80631606d21014610156578063375188dc146101725780634585e33b146101a45780635c975abb146101b9575b600080fd5b61015f60075481565b6040519081526020015b60405180910390f35b6004546101979074010000000000000000000000000000000000000000900460ff1681565b60405161016991906119f8565b6101b76101b23660046118c1565b610367565b005b6006546101c69060ff1681565b6040519015158152602001610169565b6101e96101e43660046118c1565b61058d565b60405161016992919061197d565b6003546102179073ffffffffffffffffffffffffffffffffffffffff1681565b60405173ffffffffffffffffffffffffffffffffffffffff9091168152602001610169565b6101b7610650565b6002546102179073ffffffffffffffffffffffffffffffffffffffff1681565b6004546102179073ffffffffffffffffffffffffffffffffffffffff1681565b60005473ffffffffffffffffffffffffffffffffffffffff16610217565b6001546102179073ffffffffffffffffffffffffffffffffffffffff1681565b6101b76102d0366004611851565b6106dd565b61015f6102e336600461192e565b60056020526000908152604090205481565b6101b7610303366004611851565b6107a5565b6101b7610316366004611889565b61086d565b6101b7610329366004611851565b61091f565b6101b761033c366004611851565b610aee565b6101b761034f366004611851565b610bb6565b6101b761036236600461194d565b610ce6565b60045473ffffffffffffffffffffffffffffffffffffffff1633146103ed576040517f08c379a000000000000000000000000000000000000000000000000000000000815260206004820152601a60248201527f63616c6c6572206e6f74206b656570657220726567697374727900000000000060448201526064015b60405180910390fd5b60006103fb8284018461192e565b60065490915060ff161580156104a857506007546104a56005600084600281111561044f577f4e487b7100000000000000000000000000000000000000000000000000000000600052602160045260246000fd5b6002811115610487577f4e487b7100000000000000000000000000000000000000000000000000000000600052602160045260246000fd5b81526020019081526020016000205442610d6c90919063ffffffff16565b10155b156104f65760008160028111156104e8577f4e487b7100000000000000000000000000000000000000000000000000000000600052602160045260246000fd5b14156104fb576104f6610d7f565b505050565b6001816002811115610536577f4e487b7100000000000000000000000000000000000000000000000000000000600052602160045260246000fd5b1415610544576104f66111c8565b600281600281111561057f577f4e487b7100000000000000000000000000000000000000000000000000000000600052602160045260246000fd5b14156104f6576104f66115cc565b60065460009060609060ff161580156105f657506007546105f360056000600460149054906101000a900460ff16600281111561044f577f4e487b7100000000000000000000000000000000000000000000000000000000600052602160045260246000fd5b10155b15610635576001600460149054906101000a900460ff1660405160200161061d91906119f8565b60405160208183030381529060405291509150610649565b60408051600060208201819052910161061d565b9250929050565b60005473ffffffffffffffffffffffffffffffffffffffff1633146106d1576040517f08c379a000000000000000000000000000000000000000000000000000000000815260206004820181905260248201527f4f776e61626c653a2063616c6c6572206973206e6f7420746865206f776e657260448201526064016103e4565b6106db60006117dc565b565b60005473ffffffffffffffffffffffffffffffffffffffff16331461075e576040517f08c379a000000000000000000000000000000000000000000000000000000000815260206004820181905260248201527f4f776e61626c653a2063616c6c6572206973206e6f7420746865206f776e657260448201526064016103e4565b600480547fffffffffffffffffffffffff00000000000000000000000000000000000000001673ffffffffffffffffffffffffffffffffffffffff92909216919091179055565b60005473ffffffffffffffffffffffffffffffffffffffff163314610826576040517f08c379a000000000000000000000000000000000000000000000000000000000815260206004820181905260248201527f4f776e61626c653a2063616c6c6572206973206e6f7420746865206f776e657260448201526064016103e4565b600280547fffffffffffffffffffffffff00000000000000000000000000000000000000001673ffffffffffffffffffffffffffffffffffffffff92909216919091179055565b60005473ffffffffffffffffffffffffffffffffffffffff1633146108ee576040517f08c379a000000000000000000000000000000000000000000000000000000000815260206004820181905260248201527f4f776e61626c653a2063616c6c6572206973206e6f7420746865206f776e657260448201526064016103e4565b600680547fffffffffffffffffffffffffffffffffffffffffffffffffffffffffffffff0016911515919091179055565b60005473ffffffffffffffffffffffffffffffffffffffff1633146109a0576040517f08c379a000000000000000000000000000000000000000000000000000000000815260206004820181905260248201527f4f776e61626c653a2063616c6c6572206973206e6f7420746865206f776e657260448201526064016103e4565b6040517f70a0823100000000000000000000000000000000000000000000000000000000815230600482015273ffffffffffffffffffffffffffffffffffffffff82169063a9059cbb90339083906370a082319060240160206040518083038186803b158015610a0f57600080fd5b505afa158015610a23573d6000803e3d6000fd5b505050506040513d601f19601f82011682018060405250810190610a479190611965565b6040517fffffffff0000000000000000000000000000000000000000000000000000000060e085901b16815273ffffffffffffffffffffffffffffffffffffffff90921660048301526024820152604401602060405180830381600087803b158015610ab257600080fd5b505af1158015610ac6573d6000803e3d6000fd5b505050506040513d601f19601f82011682018060405250810190610aea91906118a5565b5050565b60005473ffffffffffffffffffffffffffffffffffffffff163314610b6f576040517f08c379a000000000000000000000000000000000000000000000000000000000815260206004820181905260248201527f4f776e61626c653a2063616c6c6572206973206e6f7420746865206f776e657260448201526064016103e4565b600180547fffffffffffffffffffffffff00000000000000000000000000000000000000001673ffffffffffffffffffffffffffffffffffffffff92909216919091179055565b60005473ffffffffffffffffffffffffffffffffffffffff163314610c37576040517f08c379a000000000000000000000000000000000000000000000000000000000815260206004820181905260248201527f4f776e61626c653a2063616c6c6572206973206e6f7420746865206f776e657260448201526064016103e4565b73ffffffffffffffffffffffffffffffffffffffff8116610cda576040517f08c379a000000000000000000000000000000000000000000000000000000000815260206004820152602660248201527f4f776e61626c653a206e6577206f776e657220697320746865207a65726f206160448201527f646472657373000000000000000000000000000000000000000000000000000060648201526084016103e4565b610ce3816117dc565b50565b60005473ffffffffffffffffffffffffffffffffffffffff163314610d67576040517f08c379a000000000000000000000000000000000000000000000000000000000815260206004820181905260248201527f4f776e61626c653a2063616c6c6572206973206e6f7420746865206f776e657260448201526064016103e4565b600755565b6000610d788284611a39565b9392505050565b600260009054906101000a900473ffffffffffffffffffffffffffffffffffffffff1673ffffffffffffffffffffffffffffffffffffffff16638456cb596040518163ffffffff1660e01b815260040160206040518083038186803b158015610de757600080fd5b505afa158015610dfb573d6000803e3d6000fd5b505050506040513d601f19601f82011682018060405250810190610e1f91906118a5565b6111375760006001600260009054906101000a900473ffffffffffffffffffffffffffffffffffffffff1673ffffffffffffffffffffffffffffffffffffffff1663a7c6a1006040518163ffffffff1660e01b815260040160206040518083038186803b158015610e8f57600080fd5b505afa158015610ea3573d6000803e3d6000fd5b505050506040513d601f19601f82011682018060405250810190610ec79190611965565b610ed19190611a39565b6002546040517f2670fdd80000000000000000000000000000000000000000000000000000000081526004810183905291925060009173ffffffffffffffffffffffffffffffffffffffff90911690632670fdd89060240160206040518083038186803b158015610f4157600080fd5b505afa158015610f55573d6000803e3d6000fd5b505050506040513d601f19601f82011682018060405250810190610f79919061186d565b6002546040517faaf166600000000000000000000000000000000000000000000000000000000081526004810185905291925060009173ffffffffffffffffffffffffffffffffffffffff9091169063aaf166609060240160206040518083038186803b158015610fe957600080fd5b505afa158015610ffd573d6000803e3d6000fd5b505050506040513d601f19601f820116820180604052508101906110219190611965565b905060008273ffffffffffffffffffffffffffffffffffffffff1663d4c3eea06040518163ffffffff1660e01b815260040160206040518083038186803b15801561106b57600080fd5b505afa15801561107f573d6000803e3d6000fd5b505050506040513d601f19601f820116820180604052508101906110a39190611965565b905081811115611132576002546040517fddc632620000000000000000000000000000000000000000000000000000000081526004810186905273ffffffffffffffffffffffffffffffffffffffff9091169063ddc6326290602401600060405180830381600087803b15801561111957600080fd5b505af115801561112d573d6000803e3d6000fd5b505050505b505050505b600480547fffffffffffffffffffffff00ffffffffffffffffffffffffffffffffffffffff16740100000000000000000000000000000000000000001790554260056000805b60028111156111b5577f4e487b7100000000000000000000000000000000000000000000000000000000600052602160045260246000fd5b8152602081019190915260400160002055565b600160009054906101000a900473ffffffffffffffffffffffffffffffffffffffff1673ffffffffffffffffffffffffffffffffffffffff16635641ec036040518163ffffffff1660e01b815260040160206040518083038186803b15801561123057600080fd5b505afa158015611244573d6000803e3d6000fd5b505050506040513d601f19601f8201168201806040525081019061126891906118a5565b6115815760018054604080517fa7c6a10000000000000000000000000000000000000000000000000000000000815290516000939273ffffffffffffffffffffffffffffffffffffffff169163a7c6a100916004808301926020929190829003018186803b1580156112d957600080fd5b505afa1580156112ed573d6000803e3d6000fd5b505050506040513d601f19601f820116820180604052508101906113119190611965565b61131b9190611a39565b6001546040517f2670fdd80000000000000000000000000000000000000000000000000000000081526004810183905291925060009173ffffffffffffffffffffffffffffffffffffffff90911690632670fdd89060240160206040518083038186803b15801561138b57600080fd5b505afa15801561139f573d6000803e3d6000fd5b505050506040513d601f19601f820116820180604052508101906113c3919061186d565b6001546040517faaf166600000000000000000000000000000000000000000000000000000000081526004810185905291925060009173ffffffffffffffffffffffffffffffffffffffff9091169063aaf166609060240160206040518083038186803b15801561143357600080fd5b505afa158015611447573d6000803e3d6000fd5b505050506040513d601f19601f8201168201806040525081019061146b9190611965565b905060008273ffffffffffffffffffffffffffffffffffffffff1663d4c3eea06040518163ffffffff1660e01b815260040160206040518083038186803b1580156114b557600080fd5b505afa1580156114c9573d6000803e3d6000fd5b505050506040513d601f19601f820116820180604052508101906114ed9190611965565b90508181111561157c576001546040517fddc632620000000000000000000000000000000000000000000000000000000081526004810186905273ffffffffffffffffffffffffffffffffffffffff9091169063ddc6326290602401600060405180830381600087803b15801561156357600080fd5b505af1158015611577573d6000803e3d6000fd5b505050505b505050505b600480547fffffffffffffffffffffff00ffffffffffffffffffffffffffffffffffffffff16740200000000000000000000000000000000000000001790554260056000600161117d565b600160009054906101000a900473ffffffffffffffffffffffffffffffffffffffff1673ffffffffffffffffffffffffffffffffffffffff16635641ec036040518163ffffffff1660e01b815260040160206040518083038186803b15801561163457600080fd5b505afa158015611648573d6000803e3d6000fd5b505050506040513d601f19601f8201168201806040525081019061166c91906118a5565b15801561172057506003546001546040517f70a0823100000000000000000000000000000000000000000000000000000000815273ffffffffffffffffffffffffffffffffffffffff918216600482015260009291909116906370a082319060240160206040518083038186803b1580156116e657600080fd5b505afa1580156116fa573d6000803e3d6000fd5b505050506040513d601f19601f8201168201806040525081019061171e9190611965565b115b156117a857600160009054906101000a900473ffffffffffffffffffffffffffffffffffffffff1673ffffffffffffffffffffffffffffffffffffffff16636b9f96ea6040518163ffffffff1660e01b8152600401600060405180830381600087803b15801561178f57600080fd5b505af11580156117a3573d6000803e3d6000fd5b505050505b600480547fffffffffffffffffffffff00ffffffffffffffffffffffffffffffffffffffff1690554260056000600261117d565b6000805473ffffffffffffffffffffffffffffffffffffffff8381167fffffffffffffffffffffffff0000000000000000000000000000000000000000831681178455604051919092169283917f8be0079c531659141344cd1fd0a4f28419497f9722a3daafe3b4186f6b6457e09190a35050565b600060208284031215611862578081fd5b8135610d7881611a75565b60006020828403121561187e578081fd5b8151610d7881611a75565b60006020828403121561189a578081fd5b8135610d7881611a97565b6000602082840312156118b6578081fd5b8151610d7881611a97565b600080602083850312156118d3578081fd5b823567ffffffffffffffff808211156118ea578283fd5b818501915085601f8301126118fd578283fd5b81358181111561190b578384fd5b86602082850101111561191c578384fd5b60209290920196919550909350505050565b60006020828403121561193f578081fd5b813560038110610d78578182fd5b60006020828403121561195e578081fd5b5035919050565b600060208284031215611976578081fd5b5051919050565b8215158152600060206040818401528351806040850152825b818110156119b257858101830151858201606001528201611996565b818111156119c35783606083870101525b50601f017fffffffffffffffffffffffffffffffffffffffffffffffffffffffffffffffe01692909201606001949350505050565b6020810160038310611a33577f4e487b7100000000000000000000000000000000000000000000000000000000600052602160045260246000fd5b91905290565b600082821015611a70577f4e487b710000000000000000000000000000000000000000000000000000000081526011600452602481fd5b500390565b73ffffffffffffffffffffffffffffffffffffffff81168114610ce357600080fd5b8015158114610ce357600080fdfea26469706673582212206bddc4bd42426fe12c4a1ada2f7ea4d7535541960bd25f366233f3aa2d3925ab64736f6c63430008040033",
  "devdoc": {
    "kind": "dev",
    "methods": {
      "checkUpkeep(bytes)": {
        "details": "check if the nextTask needs to be performed Returns FALSE if 1 day has not passed since last call Returns FALSE if certain economic criteria are not met",
        "params": {
          "checkData": "input data to check (not used)"
        },
        "returns": {
          "performData": "the task to perform",
          "upkeepNeeded": "if upkeep is needed"
        }
      },
      "owner()": {
        "details": "Returns the address of the current owner."
      },
      "performUpkeep(bytes)": {
        "details": "perform a task that needs upkeep",
        "params": {
          "performData": "the task to be performed"
        }
      },
      "renounceOwnership()": {
        "details": "Leaves the contract without owner. It will not be possible to call `onlyOwner` functions anymore. Can only be called by the current owner. NOTE: Renouncing ownership will leave the contract without an owner, thereby removing any functionality that is only available to the owner."
      },
      "transferOwnership(address)": {
        "details": "Transfers ownership of the contract to a new account (`newOwner`). Can only be called by the current owner."
      }
    },
    "version": 1
  },
  "userdoc": {
    "kind": "user",
    "methods": {},
    "version": 1
  },
  "storageLayout": {
    "storage": [
      {
        "astId": 7,
        "contract": "contracts/AlKeeper.sol:AlKeeper",
        "label": "_owner",
        "offset": 0,
        "slot": "0",
        "type": "t_address"
      },
      {
        "astId": 1634,
        "contract": "contracts/AlKeeper.sol:AlKeeper",
        "label": "alchemist",
        "offset": 0,
        "slot": "1",
        "type": "t_contract(IAlchemist)2079"
      },
      {
        "astId": 1637,
        "contract": "contracts/AlKeeper.sol:AlKeeper",
        "label": "transmuter",
        "offset": 0,
        "slot": "2",
        "type": "t_contract(ITransmuter)2117"
      },
      {
        "astId": 1640,
        "contract": "contracts/AlKeeper.sol:AlKeeper",
        "label": "underlying",
        "offset": 0,
        "slot": "3",
        "type": "t_contract(IERC20)727"
      },
      {
        "astId": 1642,
        "contract": "contracts/AlKeeper.sol:AlKeeper",
        "label": "keeperRegistry",
        "offset": 0,
        "slot": "4",
        "type": "t_address"
      },
      {
        "astId": 1645,
        "contract": "contracts/AlKeeper.sol:AlKeeper",
        "label": "nextTask",
        "offset": 20,
        "slot": "4",
        "type": "t_enum(TASK)1631"
      },
      {
        "astId": 1650,
        "contract": "contracts/AlKeeper.sol:AlKeeper",
        "label": "lastCallForTask",
        "offset": 0,
        "slot": "5",
        "type": "t_mapping(t_enum(TASK)1631,t_uint256)"
      },
      {
        "astId": 1652,
        "contract": "contracts/AlKeeper.sol:AlKeeper",
        "label": "paused",
        "offset": 0,
        "slot": "6",
        "type": "t_bool"
      },
      {
        "astId": 1654,
        "contract": "contracts/AlKeeper.sol:AlKeeper",
        "label": "keeperDelay",
        "offset": 0,
        "slot": "7",
        "type": "t_uint256"
      }
    ],
    "types": {
      "t_address": {
        "encoding": "inplace",
        "label": "address",
        "numberOfBytes": "20"
      },
      "t_bool": {
        "encoding": "inplace",
        "label": "bool",
        "numberOfBytes": "1"
      },
      "t_contract(IAlchemist)2079": {
        "encoding": "inplace",
        "label": "contract IAlchemist",
        "numberOfBytes": "20"
      },
      "t_contract(IERC20)727": {
        "encoding": "inplace",
        "label": "contract IERC20",
        "numberOfBytes": "20"
      },
      "t_contract(ITransmuter)2117": {
        "encoding": "inplace",
        "label": "contract ITransmuter",
        "numberOfBytes": "20"
      },
      "t_enum(TASK)1631": {
        "encoding": "inplace",
        "label": "enum AlKeeper.TASK",
        "numberOfBytes": "1"
      },
      "t_mapping(t_enum(TASK)1631,t_uint256)": {
        "encoding": "mapping",
        "key": "t_enum(TASK)1631",
        "label": "mapping(enum AlKeeper.TASK => uint256)",
        "numberOfBytes": "32",
        "value": "t_uint256"
      },
      "t_uint256": {
        "encoding": "inplace",
        "label": "uint256",
        "numberOfBytes": "32"
      }
    }
  }
}