{
  "_format": "hh-sol-artifact-1",
  "contractName": "TransmuterBuffer",
  "sourceName": "contracts/TransmuterBuffer.sol",
  "abi": [
    {
      "inputs": [],
      "stateMutability": "nonpayable",
      "type": "constructor"
    },
    {
      "inputs": [
        {
          "internalType": "address",
          "name": "target",
          "type": "address"
        },
        {
          "internalType": "bool",
          "name": "success",
          "type": "bool"
        },
        {
          "internalType": "bytes",
          "name": "data",
          "type": "bytes"
        }
      ],
      "name": "ERC20CallFailed",
      "type": "error"
    },
    {
      "inputs": [],
      "name": "IllegalArgument",
      "type": "error"
    },
    {
      "inputs": [],
      "name": "IllegalState",
      "type": "error"
    },
    {
      "inputs": [],
      "name": "Unauthorized",
      "type": "error"
    },
    {
      "anonymous": false,
      "inputs": [],
      "name": "RefreshStrategies",
      "type": "event"
    },
    {
      "anonymous": false,
      "inputs": [
        {
          "indexed": false,
          "internalType": "address",
          "name": "underlyingToken",
          "type": "address"
        },
        {
          "indexed": false,
          "internalType": "address",
          "name": "transmuter",
          "type": "address"
        }
      ],
      "name": "RegisterAsset",
      "type": "event"
    },
    {
      "anonymous": false,
      "inputs": [
        {
          "indexed": true,
          "internalType": "bytes32",
          "name": "role",
          "type": "bytes32"
        },
        {
          "indexed": true,
          "internalType": "bytes32",
          "name": "previousAdminRole",
          "type": "bytes32"
        },
        {
          "indexed": true,
          "internalType": "bytes32",
          "name": "newAdminRole",
          "type": "bytes32"
        }
      ],
      "name": "RoleAdminChanged",
      "type": "event"
    },
    {
      "anonymous": false,
      "inputs": [
        {
          "indexed": true,
          "internalType": "bytes32",
          "name": "role",
          "type": "bytes32"
        },
        {
          "indexed": true,
          "internalType": "address",
          "name": "account",
          "type": "address"
        },
        {
          "indexed": true,
          "internalType": "address",
          "name": "sender",
          "type": "address"
        }
      ],
      "name": "RoleGranted",
      "type": "event"
    },
    {
      "anonymous": false,
      "inputs": [
        {
          "indexed": true,
          "internalType": "bytes32",
          "name": "role",
          "type": "bytes32"
        },
        {
          "indexed": true,
          "internalType": "address",
          "name": "account",
          "type": "address"
        },
        {
          "indexed": true,
          "internalType": "address",
          "name": "sender",
          "type": "address"
        }
      ],
      "name": "RoleRevoked",
      "type": "event"
    },
    {
      "anonymous": false,
      "inputs": [
        {
          "indexed": false,
          "internalType": "address",
          "name": "alchemist",
          "type": "address"
        }
      ],
      "name": "SetAlchemist",
      "type": "event"
    },
    {
      "anonymous": false,
      "inputs": [
        {
          "indexed": false,
          "internalType": "address",
          "name": "underlyingToken",
          "type": "address"
        },
        {
          "indexed": false,
          "internalType": "uint256",
          "name": "flowRate",
          "type": "uint256"
        }
      ],
      "name": "SetFlowRate",
      "type": "event"
    },
    {
      "anonymous": false,
      "inputs": [
        {
          "indexed": false,
          "internalType": "address",
          "name": "source",
          "type": "address"
        },
        {
          "indexed": false,
          "internalType": "bool",
          "name": "flag",
          "type": "bool"
        }
      ],
      "name": "SetSource",
      "type": "event"
    },
    {
      "inputs": [],
      "name": "ADMIN",
      "outputs": [
        {
          "internalType": "bytes32",
          "name": "",
          "type": "bytes32"
        }
      ],
      "stateMutability": "view",
      "type": "function"
    },
    {
      "inputs": [],
      "name": "DEFAULT_ADMIN_ROLE",
      "outputs": [
        {
          "internalType": "bytes32",
          "name": "",
          "type": "bytes32"
        }
      ],
      "stateMutability": "view",
      "type": "function"
    },
    {
      "inputs": [],
      "name": "KEEPER",
      "outputs": [
        {
          "internalType": "bytes32",
          "name": "",
          "type": "bytes32"
        }
      ],
      "stateMutability": "view",
      "type": "function"
    },
    {
      "inputs": [
        {
          "internalType": "address",
          "name": "",
          "type": "address"
        },
        {
          "internalType": "uint256",
          "name": "",
          "type": "uint256"
        }
      ],
      "name": "_yieldTokens",
      "outputs": [
        {
          "internalType": "address",
          "name": "",
          "type": "address"
        }
      ],
      "stateMutability": "view",
      "type": "function"
    },
    {
      "inputs": [],
      "name": "alchemist",
      "outputs": [
        {
          "internalType": "address",
          "name": "",
          "type": "address"
        }
      ],
      "stateMutability": "view",
      "type": "function"
    },
    {
      "inputs": [],
      "name": "burnCredit",
      "outputs": [],
      "stateMutability": "nonpayable",
      "type": "function"
    },
    {
      "inputs": [
        {
          "internalType": "address",
          "name": "",
          "type": "address"
        }
      ],
      "name": "currentExchanged",
      "outputs": [
        {
          "internalType": "uint256",
          "name": "",
          "type": "uint256"
        }
      ],
      "stateMutability": "view",
      "type": "function"
    },
    {
      "inputs": [],
      "name": "debtToken",
      "outputs": [
        {
          "internalType": "address",
          "name": "",
          "type": "address"
        }
      ],
      "stateMutability": "view",
      "type": "function"
    },
    {
      "inputs": [
        {
          "internalType": "address",
          "name": "underlyingToken",
          "type": "address"
        },
        {
          "internalType": "uint256",
          "name": "amount",
          "type": "uint256"
        }
      ],
      "name": "depositFunds",
      "outputs": [],
      "stateMutability": "nonpayable",
      "type": "function"
    },
    {
      "inputs": [
        {
          "internalType": "address",
          "name": "underlyingToken",
          "type": "address"
        }
      ],
      "name": "exchange",
      "outputs": [],
      "stateMutability": "nonpayable",
      "type": "function"
    },
    {
      "inputs": [
        {
          "internalType": "address",
          "name": "",
          "type": "address"
        }
      ],
      "name": "flowAvailable",
      "outputs": [
        {
          "internalType": "uint256",
          "name": "",
          "type": "uint256"
        }
      ],
      "stateMutability": "view",
      "type": "function"
    },
    {
      "inputs": [
        {
          "internalType": "address",
          "name": "",
          "type": "address"
        }
      ],
      "name": "flowRate",
      "outputs": [
        {
          "internalType": "uint256",
          "name": "",
          "type": "uint256"
        }
      ],
      "stateMutability": "view",
      "type": "function"
    },
    {
      "inputs": [
        {
          "internalType": "address",
          "name": "underlyingToken",
          "type": "address"
        }
      ],
      "name": "getAvailableFlow",
      "outputs": [
        {
          "internalType": "uint256",
          "name": "",
          "type": "uint256"
        }
      ],
      "stateMutability": "view",
      "type": "function"
    },
    {
      "inputs": [
        {
          "internalType": "bytes32",
          "name": "role",
          "type": "bytes32"
        }
      ],
      "name": "getRoleAdmin",
      "outputs": [
        {
          "internalType": "bytes32",
          "name": "",
          "type": "bytes32"
        }
      ],
      "stateMutability": "view",
      "type": "function"
    },
    {
      "inputs": [],
      "name": "getTotalCredit",
      "outputs": [
        {
          "internalType": "uint256",
          "name": "credit",
          "type": "uint256"
        }
      ],
      "stateMutability": "view",
      "type": "function"
    },
    {
      "inputs": [
        {
          "internalType": "address",
          "name": "underlyingToken",
          "type": "address"
        }
      ],
      "name": "getTotalUnderlyingBuffered",
      "outputs": [
        {
          "internalType": "uint256",
          "name": "totalBuffered",
          "type": "uint256"
        }
      ],
      "stateMutability": "view",
      "type": "function"
    },
    {
      "inputs": [
        {
          "internalType": "address",
          "name": "weightToken",
          "type": "address"
        },
        {
          "internalType": "address",
          "name": "token",
          "type": "address"
        }
      ],
      "name": "getWeight",
      "outputs": [
        {
          "internalType": "uint256",
          "name": "weight",
          "type": "uint256"
        }
      ],
      "stateMutability": "view",
      "type": "function"
    },
    {
      "inputs": [
        {
          "internalType": "bytes32",
          "name": "role",
          "type": "bytes32"
        },
        {
          "internalType": "address",
          "name": "account",
          "type": "address"
        }
      ],
      "name": "grantRole",
      "outputs": [],
      "stateMutability": "nonpayable",
      "type": "function"
    },
    {
      "inputs": [
        {
          "internalType": "bytes32",
          "name": "role",
          "type": "bytes32"
        },
        {
          "internalType": "address",
          "name": "account",
          "type": "address"
        }
      ],
      "name": "hasRole",
      "outputs": [
        {
          "internalType": "bool",
          "name": "",
          "type": "bool"
        }
      ],
      "stateMutability": "view",
      "type": "function"
    },
    {
      "inputs": [
        {
          "internalType": "address",
          "name": "_admin",
          "type": "address"
        },
        {
          "internalType": "address",
          "name": "_debtToken",
          "type": "address"
        }
      ],
      "name": "initialize",
      "outputs": [],
      "stateMutability": "nonpayable",
      "type": "function"
    },
    {
      "inputs": [
        {
          "internalType": "address",
          "name": "",
          "type": "address"
        }
      ],
      "name": "lastFlowrateUpdate",
      "outputs": [
        {
          "internalType": "uint256",
          "name": "",
          "type": "uint256"
        }
      ],
      "stateMutability": "view",
      "type": "function"
    },
    {
      "inputs": [
        {
          "internalType": "address",
          "name": "underlyingToken",
          "type": "address"
        },
        {
          "internalType": "uint256",
          "name": "amount",
          "type": "uint256"
        }
      ],
      "name": "onERC20Received",
      "outputs": [],
      "stateMutability": "nonpayable",
      "type": "function"
    },
    {
      "inputs": [],
      "name": "refreshStrategies",
      "outputs": [],
      "stateMutability": "nonpayable",
      "type": "function"
    },
    {
      "inputs": [
        {
          "internalType": "address",
          "name": "underlyingToken",
          "type": "address"
        },
        {
          "internalType": "address",
          "name": "_transmuter",
          "type": "address"
        }
      ],
      "name": "registerAsset",
      "outputs": [],
      "stateMutability": "nonpayable",
      "type": "function"
    },
    {
      "inputs": [
        {
          "internalType": "uint256",
          "name": "",
          "type": "uint256"
        }
      ],
      "name": "registeredUnderlyings",
      "outputs": [
        {
          "internalType": "address",
          "name": "",
          "type": "address"
        }
      ],
      "stateMutability": "view",
      "type": "function"
    },
    {
      "inputs": [
        {
          "internalType": "bytes32",
          "name": "role",
          "type": "bytes32"
        },
        {
          "internalType": "address",
          "name": "account",
          "type": "address"
        }
      ],
      "name": "renounceRole",
      "outputs": [],
      "stateMutability": "nonpayable",
      "type": "function"
    },
    {
      "inputs": [
        {
          "internalType": "bytes32",
          "name": "role",
          "type": "bytes32"
        },
        {
          "internalType": "address",
          "name": "account",
          "type": "address"
        }
      ],
      "name": "revokeRole",
      "outputs": [],
      "stateMutability": "nonpayable",
      "type": "function"
    },
    {
      "inputs": [
        {
          "internalType": "address",
          "name": "_alchemist",
          "type": "address"
        }
      ],
      "name": "setAlchemist",
      "outputs": [],
      "stateMutability": "nonpayable",
      "type": "function"
    },
    {
      "inputs": [
        {
          "internalType": "address",
          "name": "underlyingToken",
          "type": "address"
        },
        {
          "internalType": "uint256",
          "name": "_flowRate",
          "type": "uint256"
        }
      ],
      "name": "setFlowRate",
      "outputs": [],
      "stateMutability": "nonpayable",
      "type": "function"
    },
    {
      "inputs": [
        {
          "internalType": "address",
          "name": "source",
          "type": "address"
        },
        {
          "internalType": "bool",
          "name": "flag",
          "type": "bool"
        }
      ],
      "name": "setSource",
      "outputs": [],
      "stateMutability": "nonpayable",
      "type": "function"
    },
    {
      "inputs": [
        {
          "internalType": "address",
          "name": "weightToken",
          "type": "address"
        },
        {
          "internalType": "address[]",
          "name": "tokens",
          "type": "address[]"
        },
        {
          "internalType": "uint256[]",
          "name": "weights",
          "type": "uint256[]"
        }
      ],
      "name": "setWeights",
      "outputs": [],
      "stateMutability": "nonpayable",
      "type": "function"
    },
    {
      "inputs": [
        {
          "internalType": "address",
          "name": "",
          "type": "address"
        }
      ],
      "name": "sources",
      "outputs": [
        {
          "internalType": "bool",
          "name": "",
          "type": "bool"
        }
      ],
      "stateMutability": "view",
      "type": "function"
    },
    {
      "inputs": [
        {
          "internalType": "bytes4",
          "name": "interfaceId",
          "type": "bytes4"
        }
      ],
      "name": "supportsInterface",
      "outputs": [
        {
          "internalType": "bool",
          "name": "",
          "type": "bool"
        }
      ],
      "stateMutability": "view",
      "type": "function"
    },
    {
      "inputs": [
        {
          "internalType": "address",
          "name": "",
          "type": "address"
        }
      ],
      "name": "transmuter",
      "outputs": [
        {
          "internalType": "address",
          "name": "",
          "type": "address"
        }
      ],
      "stateMutability": "view",
      "type": "function"
    },
    {
      "inputs": [],
      "name": "version",
      "outputs": [
        {
          "internalType": "string",
          "name": "",
          "type": "string"
        }
      ],
      "stateMutability": "view",
      "type": "function"
    },
    {
      "inputs": [
        {
          "internalType": "address",
          "name": "",
          "type": "address"
        }
      ],
      "name": "weightings",
      "outputs": [
        {
          "internalType": "uint256",
          "name": "totalWeight",
          "type": "uint256"
        }
      ],
      "stateMutability": "view",
      "type": "function"
    },
    {
      "inputs": [
        {
          "internalType": "address",
          "name": "underlyingToken",
          "type": "address"
        },
        {
          "internalType": "uint256",
          "name": "amount",
          "type": "uint256"
        },
        {
          "internalType": "address",
          "name": "recipient",
          "type": "address"
        }
      ],
      "name": "withdraw",
      "outputs": [],
      "stateMutability": "nonpayable",
      "type": "function"
    },
    {
      "inputs": [
        {
          "internalType": "address",
          "name": "yieldToken",
          "type": "address"
        },
        {
          "internalType": "uint256",
          "name": "shares",
          "type": "uint256"
        },
        {
          "internalType": "uint256",
          "name": "minimumAmountOut",
          "type": "uint256"
        }
      ],
      "name": "withdrawFromAlchemist",
      "outputs": [],
      "stateMutability": "nonpayable",
      "type": "function"
    }
  ],
  "bytecode": "0x60806040523480156200001157600080fd5b50600154610100900460ff166200002f5760015460ff161562000039565b62000039620000de565b620000a15760405162461bcd60e51b815260206004820152602e60248201527f496e697469616c697a61626c653a20636f6e747261637420697320616c72656160448201526d191e481a5b9a5d1a585b1a5e995960921b606482015260840160405180910390fd5b600154610100900460ff16158015620000c4576001805461ffff19166101011790555b8015620000d7576001805461ff00191690555b5062000102565b6000620000f630620000fc60201b62001acd1760201c565b15905090565b3b151590565b61333180620001126000396000f3fe608060405234801561001057600080fd5b50600436106101c25760003560e01c806301ffc9a7146101c757806314d17f9e146101ef5780632412bdb81461020f578063248a9ca31461022457806326128ec9146102455780632a0acc6a146102585780632f2ff15d1461026d57806336568abe146102805780633a0ee64d146102935780634027fdf8146102a657806340b197f3146102b9578063485cc955146102cc5780634dac3435146102df5780634fa98251146102f25780634fad6bff146102fa578063537f46cc1461030d57806354fd4d501461033657806369328dec14610367578063841a0b4a1461037a578063862a179e1461038d5780638aef4058146103a25780638de925f6146103c557806391d14854146103de5780639201c454146103f1578063921b004b14610411578063a117789b14610424578063a217fddf14610444578063a48173211461044c578063b750bdde14610485578063bc04f0af146104a8578063bee3d90e146104bb578063cb147588146104db578063d547741f146104ee578063f1af775f14610501578063f305760814610514578063f79d84581461051c578063f80254ed14610524578063f8d8989814610544575b600080fd5b6101da6101d5366004612954565b610557565b60405190151581526020015b60405180910390f35b6102026101fd366004612993565b61058e565b6040516101e691906129bf565b61022261021d3660046129d3565b6105c6565b005b6102376102323660046129f0565b610606565b6040519081526020016101e6565b6102376102533660046129d3565b61061b565b6102376000805160206132dc83398151915281565b61022261027b366004612a09565b610673565b61022261028e366004612a09565b610695565b6102226102a1366004612a39565b610718565b6102376102b43660046129d3565b6107d0565b6102226102c7366004612a7c565b610868565b6102226102da366004612aaa565b610940565b6102226102ed366004612993565b610a6b565b610222610af5565b610222610308366004612aaa565b610c3d565b61020261031b3660046129d3565b6002602052600090815260409020546001600160a01b031681565b61035a604051806040016040528060058152602001640322e302e360dc1b81525081565b6040516101e69190612b30565b610222610375366004612b43565b610ebb565b6102026103883660046129f0565b610fcb565b6102376000805160206132bc83398151915281565b6102376103b03660046129d3565b600a6020526000908152604090206002015481565b600154610202906201000090046001600160a01b031681565b6101da6103ec366004612a09565b610ff5565b6102376103ff3660046129d3565b60076020526000908152604090205481565b61022261041f366004612993565b61101e565b6102376104323660046129d3565b60036020526000908152604090205481565b610237600081565b61023761045a366004612aaa565b6001600160a01b039182166000908152600a6020908152604080832093909416825291909152205490565b6101da6104933660046129d3565b600b6020526000908152604090205460ff1681565b6102226104b6366004612993565b6110f8565b6102376104c93660046129d3565b60056020526000908152604090205481565b6102226104e9366004612c82565b6112d2565b6102226104fc366004612a09565b611542565b61022261050f3660046129d3565b61155f565b610237611757565b610222611801565b6102376105323660046129d3565b60046020526000908152604090205481565b600954610202906001600160a01b031681565b60006001600160e01b03198216637965db0b60e01b148061058857506301ffc9a760e01b6001600160e01b03198316145b92915050565b600660205281600052604060002081815481106105aa57600080fd5b6000918252602090912001546001600160a01b03169150829050565b6105de6000805160206132bc83398151915233610ff5565b6105fa576040516282b42960e81b815260040160405180910390fd5b61060381611ad3565b50565b60009081526020819052604090206001015490565b600080610627836107d0565b6001600160a01b0384166000908152600560205260409020549091508110156106505792915050565b50506001600160a01b031660009081526005602052604090205490565b50919050565b61067c82610606565b6106868133611cba565b6106908383611d1e565b505050565b6001600160a01b038116331461070a5760405162461bcd60e51b815260206004820152602f60248201527f416363657373436f6e74726f6c3a2063616e206f6e6c792072656e6f756e636560448201526e103937b632b9903337b91039b2b63360891b60648201526084015b60405180910390fd5b6107148282611da2565b5050565b6107306000805160206132bc83398151915233610ff5565b61074c576040516282b42960e81b815260040160405180910390fd5b600154604051635322cd1960e11b8152620100009091046001600160a01b03169063a6459a3290610787908690869030908790600401612d57565b6020604051808303816000875af11580156107a6573d6000803e3d6000fd5b505050506040513d601f19601f820116820180604052508101906107ca9190612d81565b50505050565b60006107dc8230611e07565b905060005b6001600160a01b03831660009081526006602052604090205481101561066d576001600160a01b0383166000908152600660205260409020805461084a91908390811061083057610830612d9a565b6000918252602090912001546001600160a01b0316611f01565b6108549083612dc6565b91508061086081612dde565b9150506107e1565b6108806000805160206132dc83398151915233610ff5565b61089c576040516282b42960e81b815260040160405180910390fd5b6001600160a01b0382166000908152600b602052604090205460ff16151581151514156108dc57604051630134249960e71b815260040160405180910390fd5b6001600160a01b0382166000818152600b6020908152604091829020805460ff19168515159081179091558251938452908301527fc55dd2342fb6a4c8580b302e5a10b68c01cdee01d65763a40089df970fd687c591015b60405180910390a15050565b600154610100900460ff1661095b5760015460ff161561095f565b303b155b6109c25760405162461bcd60e51b815260206004820152602e60248201527f496e697469616c697a61626c653a20636f6e747261637420697320616c72656160448201526d191e481a5b9a5d1a585b1a5e995960921b6064820152608401610701565b600154610100900460ff161580156109e4576001805461ffff19166101011790555b6109fc6000805160206132dc8339815191528461209b565b610a146000805160206132dc833981519152806120a5565b610a3a6000805160206132bc8339815191526000805160206132dc8339815191526120a5565b600980546001600160a01b0319166001600160a01b0384161790558015610690576001805461ff0019169055505050565b610a836000805160206132dc83398151915233610ff5565b610a9f576040516282b42960e81b815260040160405180910390fd5b610aa882611ad3565b6001600160a01b03821660009081526003602052604090819020829055517f9b851d18ba551205a781cfd2d54e04373b966024d91f688b03448eee2ea1041c906109349084908490612df9565b610b0d6000805160206132bc83398151915233610ff5565b610b29576040516282b42960e81b815260040160405180910390fd5b600154604051632c6a65eb60e21b8152620100009091046001600160a01b03169063b1a997ac90610b5e9030906004016129bf565b600060405180830381600087803b158015610b7857600080fd5b505af1158015610b8c573d6000803e3d6000fd5b505050506000610b9a611757565b905080610bba57604051634a613c4160e01b815260040160405180910390fd5b6001546040516394bf804d60e01b815260048101839052306024820152620100009091046001600160a01b0316906394bf804d90604401600060405180830381600087803b158015610c0b57600080fd5b505af1158015610c1f573d6000803e3d6000fd5b505060095461060392508391506001600160a01b03166120f861215d565b610c556000805160206132dc83398151915233610ff5565b610c71576040516282b42960e81b815260040160405180910390fd5b600154604051632f72a98160e11b8152620100009091046001600160a01b031690635ee5530290610ca69085906004016129bf565b602060405180830381865afa158015610cc3573d6000803e3d6000fd5b505050506040513d601f19601f82011682018060405250810190610ce79190612e22565b610d0457604051634a613c4160e01b815260040160405180910390fd5b60005b600854811015610d7457826001600160a01b031660088281548110610d2e57610d2e612d9a565b6000918252602090912001546001600160a01b03161415610d6257604051634a613c4160e01b815260040160405180910390fd5b80610d6c81612dde565b915050610d07565b50816001600160a01b0316816001600160a01b0316632495a5996040518163ffffffff1660e01b8152600401602060405180830381865afa158015610dbd573d6000803e3d6000fd5b505050506040513d601f19601f82011682018060405250810190610de19190612e4a565b6001600160a01b031614610e0857604051630134249960e71b815260040160405180910390fd5b6001600160a01b03808316600081815260026020526040812080548486166001600160a01b0319918216179091556008805460018181018355919093527ff3f7a9fe364faab93b216da50a3214154f22a0a2b415b23a84c8169e8b636ee3909201805490911690921790915554610e8a91849162010000900416600019612268565b7fe3fc1075bf266cb7785ff5a63ee95d60aee4ccbfb42f6f5562e811edc26f6a208282604051610934929190612e67565b6001600160a01b038381166000908152600260205260409020548491163314610ef6576040516282b42960e81b815260040160405180910390fd5b6001600160a01b038416600090815260056020526040902054831115610f2f57604051630134249960e71b815260040160405180910390fd5b6000610f3b8530611e07565b905080841115610f5e57604051630134249960e71b815260040160405180910390fd5b6001600160a01b03851660009081526005602052604081208054869290610f86908490612e81565b90915550506001600160a01b03851660009081526007602052604081208054869290610fb3908490612e81565b90915550610fc49050858486612362565b5050505050565b60088181548110610fdb57600080fd5b6000918252602090912001546001600160a01b0316905081565b6000918252602082815260408084206001600160a01b0393909316845291905290205460ff1690565b6110366000805160206132bc83398151915233610ff5565b611052576040516282b42960e81b815260040160405180910390fd5b8061107057604051630134249960e71b815260040160405180910390fd5b600061107c8330611e07565b90508181101561109f57604051630134249960e71b815260040160405180910390fd5b6110a88361238a565b506001600160a01b0383166000908152600760205260409020546110cc8383612e81565b10156110eb57604051634a613c4160e01b815260040160405180910390fd5b610690828461241761215d565b336000908152600b602052604090205460ff16611127576040516282b42960e81b815260040160405180910390fd5b6111308261238a565b50600061113d8330611e07565b6001600160a01b0384166000908152600560205260409020549091508110156111ff576001600160a01b03831660009081526007602052604081208054849290611188908490612dc6565b90915550506001600160a01b0383811660009081526002602052604090819020549051635355655960e01b815260048101859052911690635355655990602401600060405180830381600087803b1580156111e257600080fd5b505af11580156111f6573d6000803e3d6000fd5b50505050505050565b6001600160a01b038316600090815260076020908152604080832054600590925282205461122d9190612e81565b6001600160a01b03851660009081526007602052604081208054929350839290919061125a908490612dc6565b90915550506001600160a01b0384811660009081526002602052604090819020549051635355655960e01b815260048101849052911690635355655990602401600060405180830381600087803b1580156112b457600080fd5b505af11580156112c8573d6000803e3d6000fd5b5050505050505050565b6112ea6000805160206132dc83398151915233610ff5565b611306576040516282b42960e81b815260040160405180910390fd5b6001600160a01b0383166000908152600a602052604081209061132d906001830190612926565b6000600282018190555b8351811015610fc457600084828151811061135457611354612d9a565b60209081029190910101516009549091506001600160a01b0387811691161461149157600154604051635a5efc8b60e01b81526000916201000090046001600160a01b031690635a5efc8b906113ae9085906004016129bf565b6101e060405180830381865afa1580156113cc573d6000803e3d6000fd5b505050506040513d601f19601f820116820180604052508101906113f09190612ea9565b9050600081604001516001600160a01b0316632495a5996040518163ffffffff1660e01b8152600401602060405180830381865afa158015611436573d6000803e3d6000fd5b505050506040513d601f19601f8201168201806040525081019061145a9190612e4a565b9050806001600160a01b0316886001600160a01b03161461148e57604051634a613c4160e01b815260040160405180910390fd5b50505b6001838101805491820181556000908152602090200180546001600160a01b0319166001600160a01b03831617905583518490839081106114d4576114d4612d9a565b6020908102919091018101516001600160a01b038316600090815291859052604090912055835184908390811061150d5761150d612d9a565b60200260200101518360020160008282546115289190612dc6565b9091555082915061153a905081612dde565b915050611337565b61154b82610606565b6115558133611cba565b6106908383611da2565b6115776000805160206132dc83398151915233610ff5565b611593576040516282b42960e81b815260040160405180910390fd5b600180546001600160a01b03620100009182900481166000908152600b6020526040808220805460ff199081169091558684168352912080549091168417905591540416156116605760005b60085481101561163b57611629600882815481106115ff576115ff612d9a565b60009182526020822001546001546001600160a01b03918216926201000090910490911690612268565b8061163381612dde565b9150506115df565b50600954600154611660916001600160a01b0390811691620100009004166000612268565b6001805462010000600160b01b031916620100006001600160a01b0384160217905560005b6008548110156116e2576116d0600882815481106116a5576116a5612d9a565b6000918252602090912001546001546001600160a01b03918216916201000090910416600019612268565b806116da81612dde565b915050611685565b50600954600154611708916001600160a01b039081169162010000900416600019612268565b7fb5f3602a1d2783f0976eae6d619f386b298bd951e94fa8e56bfedf853e7d8875600160029054906101000a90046001600160a01b031660405161174c91906129bf565b60405180910390a150565b600154604051632f2e037160e11b81526000918291620100009091046001600160a01b031690635e5c06e2906117919030906004016129bf565b600060405180830381865afa1580156117ae573d6000803e3d6000fd5b505050506040513d6000823e601f3d908101601f191682016040526117d69190810190612fe2565b50905060008112156117f8576117f36117ee82613029565b612496565b6117fb565b60005b91505090565b6000600160029054906101000a90046001600160a01b03166001600160a01b0316631b962c786040518163ffffffff1660e01b8152600401600060405180830381865afa158015611856573d6000803e3d6000fd5b505050506040513d6000823e601f3d908101601f1916820160405261187e9190810190613046565b90506000600160029054906101000a90046001600160a01b03166001600160a01b0316634a2226356040518163ffffffff1660e01b8152600401600060405180830381865afa1580156118d5573d6000803e3d6000fd5b505050506040513d6000823e601f3d908101601f191682016040526118fd9190810190613046565b80516008549192501461192357604051634a613c4160e01b815260040160405180910390fd5b60005b60085481101561198657600660006008838154811061194757611947612d9a565b60009182526020808320909101546001600160a01b03168352820192909252604001812061197491612926565b8061197e81612dde565b915050611926565b50815160005b81811015611a9e5760008482815181106119a8576119a8612d9a565b602002602001015190506000600160029054906101000a90046001600160a01b03166001600160a01b0316635a5efc8b836040518263ffffffff1660e01b81526004016119f591906129bf565b6101e060405180830381865afa158015611a13573d6000803e3d6000fd5b505050506040513d601f19601f82011682018060405250810190611a379190612ea9565b9050806101c0015115611a89576020818101516001600160a01b0390811660009081526006835260408120805460018101825590825292902090910180546001600160a01b0319169184169190911790555b50508080611a9690612dde565b91505061198c565b506040517fdfe7090a5461eb5a45d9e05a1317dfcd47d74fd2f14e0989619808f3aac43aa590600090a1505050565b3b151590565b611adc8161238a565b506000611ae8826107d0565b90506000611af68330611e07565b6001600160a01b03841660009081526005602052604081205491925090831015611b2b57611b248284612e81565b9050611b72565b6001600160a01b038416600090815260056020526040902054821015611b72576001600160a01b038416600090815260056020526040902054611b6f908390612e81565b90505b8015611b8557611b8581856124bd61215d565b6000611b918530611e07565b6001600160a01b03861660009081526005602052604081205491925090821115611beb576001600160a01b038616600090815260076020908152604080832054600590925290912054611be49190612e81565b9050611c11565b6001600160a01b038616600090815260076020526040902054611c0e9083612e81565b90505b8015611cb2576001600160a01b03861660009081526007602052604081208054839290611c3f908490612dc6565b90915550506001600160a01b0386811660009081526002602052604090819020549051635355655960e01b815260048101849052911690635355655990602401600060405180830381600087803b158015611c9957600080fd5b505af1158015611cad573d6000803e3d6000fd5b505050505b505050505050565b611cc48282610ff5565b61071457611cdc816001600160a01b031660146126ab565b611ce78360206126ab565b604051602001611cf892919061307a565b60408051601f198184030181529082905262461bcd60e51b825261070191600401612b30565b611d288282610ff5565b610714576000828152602081815260408083206001600160a01b03851684529091529020805460ff19166001179055611d5e3390565b6001600160a01b0316816001600160a01b0316837f2f8788117e7eff1d82e926ec794901d17c78024a50270940304540a733656f0d60405160405180910390a45050565b611dac8282610ff5565b15610714576000828152602081815260408083206001600160a01b0385168085529252808320805460ff1916905551339285917ff6391f5c32d9c69d2a47ea670b442974b53935d1edc7fd64eb21e047a839171b9190a45050565b6000806000846001600160a01b03166370a0823160e01b85604051602401611e2f91906129bf565b60408051601f198184030181529181526020820180516001600160e01b03166001600160e01b0319909416939093179092529051611e6d91906130e9565b600060405180830381855afa9150503d8060008114611ea8576040519150601f19603f3d011682016040523d82523d6000602084013e611ead565b606091505b5091509150811580611ec0575060208151105b15611ee45784828260405163e7e40b5b60e01b815260040161070193929190613105565b80806020019051810190611ef89190612d81565b95945050505050565b600154604051634bd2144560e01b81526000918291620100009091046001600160a01b031690634bd2144590611f3d9030908790600401612e67565b6040805180830381865afa158015611f59573d6000803e3d6000fd5b505050506040513d601f19601f82011682018060405250810190611f7d9190613131565b50600154604051635a5efc8b60e01b8152919250600091620100009091046001600160a01b031690635a5efc8b90611fb99087906004016129bf565b6101e060405180830381865afa158015611fd7573d6000803e3d6000fd5b505050506040513d601f19601f82011682018060405250810190611ffb9190612ea9565b60015460405163447378ad60e11b8152919250600091620100009091046001600160a01b0316906388e6f15a906120369088906004016129bf565b602060405180830381865afa158015612053573d6000803e3d6000fd5b505050506040513d601f19601f820116820180604052508101906120779190612d81565b825190915061208790600a613239565b6120918285613248565b611ef89190613267565b6107148282611d1e565b60006120b083610606565b600084815260208190526040808220600101859055519192508391839186917fbd79b86ffe0ab8e8776151514217cd7cacd52c909f66475c3af44e129f0b00ff9190a4505050565b60015460405163e69d849d60e01b8152620100009091046001600160a01b03169063e69d849d9061212f9085908590600401612df9565b600060405180830381600087803b15801561214957600080fd5b505af1158015611cb2573d6000803e3d6000fd5b600154604051632c6a65eb60e21b8152620100009091046001600160a01b03169063b1a997ac906121929030906004016129bf565b600060405180830381600087803b1580156121ac57600080fd5b505af11580156121c0573d6000803e3d6000fd5b5050506001600160a01b0383166000908152600a6020526040812091505b6001820154811015610fc457600082600101828154811061220157612201612d9a565b600091825260208083209091015460028601546001600160a01b03909116808452918690526040832054919350906122399089613248565b6122439190613267565b905061225382828763ffffffff16565b5050808061226090612dde565b9150506121de565b600080846001600160a01b031663095ea7b360e01b8585604051602401612290929190612df9565b60408051601f198184030181529181526020820180516001600160e01b03166001600160e01b03199094169390931790925290516122ce91906130e9565b6000604051808303816000865af19150503d806000811461230b576040519150601f19603f3d011682016040523d82523d6000602084013e612310565b606091505b509150915081158061233e575080511580159061233e57508080602001905181019061233c9190612e22565b155b15610fc45784828260405163e7e40b5b60e01b815260040161070193929190613105565b600080846001600160a01b031663a9059cbb60e01b8585604051602401612290929190612df9565b6001600160a01b03811660009081526003602090815260408083205460049092528220548291906123bb9042612e81565b6123c59190613248565b6001600160a01b0384166000908152600560205260408120805492935083929091906123f2908490612dc6565b90915550506001600160a01b0390921660009081526004602052604090204290555090565b600154604051635efd4dd760e11b8152620100009091046001600160a01b03169063bdfa9bae9061245390859085903090600090600401612d57565b6020604051808303816000875af1158015612472573d6000803e3d6000fd5b505050506040513d601f19601f820116820180604052508101906106909190612d81565b6000808212156124b957604051630134249960e71b815260040160405180910390fd5b5090565b60006124c88361284d565b60015460405163447378ad60e11b8152919250600091620100009091046001600160a01b0316906388e6f15a906125039087906004016129bf565b602060405180830381865afa158015612520573d6000803e3d6000fd5b505050506040513d601f19601f820116820180604052508101906125449190612d81565b905060008161255484600a613239565b61255e9086613248565b6125689190613267565b600154604051634bd2144560e01b815291925060009182916201000090046001600160a01b031690634bd21445906125a69030908b90600401612e67565b6040805180830381865afa1580156125c2573d6000803e3d6000fd5b505050506040513d601f19601f820116820180604052508101906125e69190613131565b91509150818311156125f6578192505b6000612710612606886064613248565b6126109190613267565b61261a9088612e81565b905083156112c857600154604051635322cd1960e11b8152620100009091046001600160a01b03169063a6459a329061265d908b90889030908790600401612d57565b6020604051808303816000875af115801561267c573d6000803e3d6000fd5b505050506040513d601f19601f820116820180604052508101906126a09190612d81565b505050505050505050565b606060006126ba836002613248565b6126c5906002612dc6565b6001600160401b038111156126dc576126dc612b85565b6040519080825280601f01601f191660200182016040528015612706576020820181803683370190505b509050600360fc1b8160008151811061272157612721612d9a565b60200101906001600160f81b031916908160001a905350600f60fb1b8160018151811061275057612750612d9a565b60200101906001600160f81b031916908160001a9053506000612774846002613248565b61277f906001612dc6565b90505b60018111156127f7576f181899199a1a9b1b9c1cb0b131b232b360811b85600f16601081106127b3576127b3612d9a565b1a60f81b8282815181106127c9576127c9612d9a565b60200101906001600160f81b031916908160001a90535060049490941c936127f081613289565b9050612782565b5083156128465760405162461bcd60e51b815260206004820181905260248201527f537472696e67733a20686578206c656e67746820696e73756666696369656e746044820152606401610701565b9392505050565b60408051600481526024810182526020810180516001600160e01b031663313ce56760e01b1790529051600091829182916001600160a01b0386169161289391906130e9565b600060405180830381855afa9150503d80600081146128ce576040519150601f19603f3d011682016040523d82523d6000602084013e6128d3565b606091505b50915091508115806128e6575060208151105b1561290a5783828260405163e7e40b5b60e01b815260040161070193929190613105565b8080602001905181019061291e91906132a0565b949350505050565b508054600082559060005260206000209081019061060391905b808211156124b95760008155600101612940565b60006020828403121561296657600080fd5b81356001600160e01b03198116811461284657600080fd5b6001600160a01b038116811461060357600080fd5b600080604083850312156129a657600080fd5b82356129b18161297e565b946020939093013593505050565b6001600160a01b0391909116815260200190565b6000602082840312156129e557600080fd5b81356128468161297e565b600060208284031215612a0257600080fd5b5035919050565b60008060408385031215612a1c57600080fd5b823591506020830135612a2e8161297e565b809150509250929050565b600080600060608486031215612a4e57600080fd5b8335612a598161297e565b95602085013595506040909401359392505050565b801515811461060357600080fd5b60008060408385031215612a8f57600080fd5b8235612a9a8161297e565b91506020830135612a2e81612a6e565b60008060408385031215612abd57600080fd5b8235612ac88161297e565b91506020830135612a2e8161297e565b60005b83811015612af3578181015183820152602001612adb565b838111156107ca5750506000910152565b60008151808452612b1c816020860160208601612ad8565b601f01601f19169290920160200192915050565b6020815260006128466020830184612b04565b600080600060608486031215612b5857600080fd5b8335612b638161297e565b9250602084013591506040840135612b7a8161297e565b809150509250925092565b634e487b7160e01b600052604160045260246000fd5b6040516101e081016001600160401b0381118282101715612bbe57612bbe612b85565b60405290565b604051601f8201601f191681016001600160401b0381118282101715612bec57612bec612b85565b604052919050565b60006001600160401b03821115612c0d57612c0d612b85565b5060051b60200190565b600082601f830112612c2857600080fd5b81356020612c3d612c3883612bf4565b612bc4565b82815260059290921b84018101918181019086841115612c5c57600080fd5b8286015b84811015612c775780358352918301918301612c60565b509695505050505050565b600080600060608486031215612c9757600080fd5b8335612ca28161297e565b92506020848101356001600160401b0380821115612cbf57600080fd5b818701915087601f830112612cd357600080fd5b8135612ce1612c3882612bf4565b81815260059190911b8301840190848101908a831115612d0057600080fd5b938501935b82851015612d27578435612d188161297e565b82529385019390850190612d05565b965050506040870135925080831115612d3f57600080fd5b5050612d4d86828701612c17565b9150509250925092565b6001600160a01b039485168152602081019390935292166040820152606081019190915260800190565b600060208284031215612d9357600080fd5b5051919050565b634e487b7160e01b600052603260045260246000fd5b634e487b7160e01b600052601160045260246000fd5b60008219821115612dd957612dd9612db0565b500190565b6000600019821415612df257612df2612db0565b5060010190565b6001600160a01b03929092168252602082015260400190565b8051612e1d81612a6e565b919050565b600060208284031215612e3457600080fd5b815161284681612a6e565b8051612e1d8161297e565b600060208284031215612e5c57600080fd5b81516128468161297e565b6001600160a01b0392831681529116602082015260400190565b600082821015612e9357612e93612db0565b500390565b805160ff81168114612e1d57600080fd5b60006101e08284031215612ebc57600080fd5b612ec4612b9b565b612ecd83612e98565b8152612edb60208401612e3f565b6020820152612eec60408401612e3f565b6040820152606083810151908201526080808401519082015260a0808401519082015260c0808401519082015260e08084015190820152610100808401519082015261012080840151908201526101408084015190820152610160808401519082015261018080840151908201526101a080840151908201526101c0612f73818501612e12565b908201529392505050565b600082601f830112612f8f57600080fd5b81516020612f9f612c3883612bf4565b82815260059290921b84018101918181019086841115612fbe57600080fd5b8286015b84811015612c77578051612fd58161297e565b8352918301918301612fc2565b60008060408385031215612ff557600080fd5b825160208401519092506001600160401b0381111561301357600080fd5b61301f85828601612f7e565b9150509250929050565b6000600160ff1b82141561303f5761303f612db0565b5060000390565b60006020828403121561305857600080fd5b81516001600160401b0381111561306e57600080fd5b61291e84828501612f7e565b76020b1b1b2b9b9a1b7b73a3937b61d1030b1b1b7bab73a1604d1b8152600083516130ac816017850160208801612ad8565b7001034b99036b4b9b9b4b733903937b6329607d1b60179184019182015283516130dd816028840160208801612ad8565b01602801949350505050565b600082516130fb818460208701612ad8565b9190910192915050565b6001600160a01b03841681528215156020820152606060408201819052600090611ef890830184612b04565b6000806040838503121561314457600080fd5b505080516020909101519092909150565b600181815b8085111561319057816000190482111561317657613176612db0565b8085161561318357918102915b93841c939080029061315a565b509250929050565b6000826131a757506001610588565b816131b457506000610588565b81600181146131ca57600281146131d4576131f0565b6001915050610588565b60ff8411156131e5576131e5612db0565b50506001821b610588565b5060208310610133831016604e8410600b8410161715613213575081810a610588565b61321d8383613155565b806000190482111561323157613231612db0565b029392505050565b600061284660ff841683613198565b600081600019048311821515161561326257613262612db0565b500290565b60008261328457634e487b7160e01b600052601260045260246000fd5b500490565b60008161329857613298612db0565b506000190190565b6000602082840312156132b257600080fd5b61284682612e9856fe71a9859d7dd21b24504a6f306077ffc2d510b4d4b61128e931fe937441ad1836df8b4c520ffe197c5343c6f5aec59570151ef9a492f2c624fd45ddde6135ec42a264697066735822122030138090c6e3ee62f7b3f1654e2b18578ecb164c8132b8f5b91124f637aa994064736f6c634300080b0033",
  "linkReferences": {},
  "deployedLinkReferences": {}
}