{
  "_format": "hh-sol-artifact-1",
  "contractName": "TransmuterBuffer",
  "sourceName": "contracts/TransmuterBuffer.sol",
  "abi": [
    {
      "inputs": [],
      "stateMutability": "nonpayable",
      "type": "constructor"
    },
    {
      "inputs": [
        {
          "internalType": "address",
          "name": "target",
          "type": "address"
        },
        {
          "internalType": "bool",
          "name": "success",
          "type": "bool"
        },
        {
          "internalType": "bytes",
          "name": "data",
          "type": "bytes"
        }
      ],
      "name": "ERC20CallFailed",
      "type": "error"
    },
    {
      "inputs": [],
      "name": "IllegalArgument",
      "type": "error"
    },
    {
      "inputs": [],
      "name": "IllegalState",
      "type": "error"
    },
    {
      "inputs": [],
      "name": "Unauthorized",
      "type": "error"
    },
    {
      "anonymous": false,
      "inputs": [],
      "name": "RefreshStrategies",
      "type": "event"
    },
    {
      "anonymous": false,
      "inputs": [
        {
          "indexed": false,
          "internalType": "address",
          "name": "underlyingToken",
          "type": "address"
        },
        {
          "indexed": false,
          "internalType": "address",
          "name": "transmuter",
          "type": "address"
        }
      ],
      "name": "RegisterAsset",
      "type": "event"
    },
    {
      "anonymous": false,
      "inputs": [
        {
          "indexed": true,
          "internalType": "bytes32",
          "name": "role",
          "type": "bytes32"
        },
        {
          "indexed": true,
          "internalType": "bytes32",
          "name": "previousAdminRole",
          "type": "bytes32"
        },
        {
          "indexed": true,
          "internalType": "bytes32",
          "name": "newAdminRole",
          "type": "bytes32"
        }
      ],
      "name": "RoleAdminChanged",
      "type": "event"
    },
    {
      "anonymous": false,
      "inputs": [
        {
          "indexed": true,
          "internalType": "bytes32",
          "name": "role",
          "type": "bytes32"
        },
        {
          "indexed": true,
          "internalType": "address",
          "name": "account",
          "type": "address"
        },
        {
          "indexed": true,
          "internalType": "address",
          "name": "sender",
          "type": "address"
        }
      ],
      "name": "RoleGranted",
      "type": "event"
    },
    {
      "anonymous": false,
      "inputs": [
        {
          "indexed": true,
          "internalType": "bytes32",
          "name": "role",
          "type": "bytes32"
        },
        {
          "indexed": true,
          "internalType": "address",
          "name": "account",
          "type": "address"
        },
        {
          "indexed": true,
          "internalType": "address",
          "name": "sender",
          "type": "address"
        }
      ],
      "name": "RoleRevoked",
      "type": "event"
    },
    {
      "anonymous": false,
      "inputs": [
        {
          "indexed": false,
          "internalType": "address",
          "name": "alchemist",
          "type": "address"
        }
      ],
      "name": "SetAlchemist",
      "type": "event"
    },
    {
      "anonymous": false,
      "inputs": [
        {
          "indexed": false,
          "internalType": "address",
          "name": "underlyingToken",
          "type": "address"
        },
        {
          "indexed": false,
          "internalType": "uint256",
          "name": "flowRate",
          "type": "uint256"
        }
      ],
      "name": "SetFlowRate",
      "type": "event"
    },
    {
      "anonymous": false,
      "inputs": [
        {
          "indexed": false,
          "internalType": "address",
          "name": "source",
          "type": "address"
        },
        {
          "indexed": false,
          "internalType": "bool",
          "name": "flag",
          "type": "bool"
        }
      ],
      "name": "SetSource",
      "type": "event"
    },
    {
      "anonymous": false,
      "inputs": [
        {
          "indexed": false,
          "internalType": "address",
          "name": "underlyingToken",
          "type": "address"
        },
        {
          "indexed": false,
          "internalType": "address",
          "name": "transmuter",
          "type": "address"
        }
      ],
      "name": "SetTransmuter",
      "type": "event"
    },
    {
      "inputs": [],
      "name": "ADMIN",
      "outputs": [
        {
          "internalType": "bytes32",
          "name": "",
          "type": "bytes32"
        }
      ],
      "stateMutability": "view",
      "type": "function"
    },
    {
      "inputs": [],
      "name": "DEFAULT_ADMIN_ROLE",
      "outputs": [
        {
          "internalType": "bytes32",
          "name": "",
          "type": "bytes32"
        }
      ],
      "stateMutability": "view",
      "type": "function"
    },
    {
      "inputs": [],
      "name": "KEEPER",
      "outputs": [
        {
          "internalType": "bytes32",
          "name": "",
          "type": "bytes32"
        }
      ],
      "stateMutability": "view",
      "type": "function"
    },
    {
      "inputs": [
        {
          "internalType": "address",
          "name": "",
          "type": "address"
        },
        {
          "internalType": "uint256",
          "name": "",
          "type": "uint256"
        }
      ],
      "name": "_yieldTokens",
      "outputs": [
        {
          "internalType": "address",
          "name": "",
          "type": "address"
        }
      ],
      "stateMutability": "view",
      "type": "function"
    },
    {
      "inputs": [],
      "name": "alchemist",
      "outputs": [
        {
          "internalType": "address",
          "name": "",
          "type": "address"
        }
      ],
      "stateMutability": "view",
      "type": "function"
    },
    {
      "inputs": [],
      "name": "burnCredit",
      "outputs": [],
      "stateMutability": "nonpayable",
      "type": "function"
    },
    {
      "inputs": [
        {
          "internalType": "address",
          "name": "",
          "type": "address"
        }
      ],
      "name": "currentExchanged",
      "outputs": [
        {
          "internalType": "uint256",
          "name": "",
          "type": "uint256"
        }
      ],
      "stateMutability": "view",
      "type": "function"
    },
    {
      "inputs": [],
      "name": "debtToken",
      "outputs": [
        {
          "internalType": "address",
          "name": "",
          "type": "address"
        }
      ],
      "stateMutability": "view",
      "type": "function"
    },
    {
      "inputs": [
        {
          "internalType": "address",
          "name": "underlyingToken",
          "type": "address"
        },
        {
          "internalType": "uint256",
          "name": "amount",
          "type": "uint256"
        }
      ],
      "name": "depositFunds",
      "outputs": [],
      "stateMutability": "nonpayable",
      "type": "function"
    },
    {
      "inputs": [
        {
          "internalType": "address",
          "name": "underlyingToken",
          "type": "address"
        }
      ],
      "name": "exchange",
      "outputs": [],
      "stateMutability": "nonpayable",
      "type": "function"
    },
    {
      "inputs": [
        {
          "internalType": "address",
          "name": "",
          "type": "address"
        }
      ],
      "name": "flowAvailable",
      "outputs": [
        {
          "internalType": "uint256",
          "name": "",
          "type": "uint256"
        }
      ],
      "stateMutability": "view",
      "type": "function"
    },
    {
      "inputs": [
        {
          "internalType": "address",
          "name": "",
          "type": "address"
        }
      ],
      "name": "flowRate",
      "outputs": [
        {
          "internalType": "uint256",
          "name": "",
          "type": "uint256"
        }
      ],
      "stateMutability": "view",
      "type": "function"
    },
    {
      "inputs": [
        {
          "internalType": "address",
          "name": "underlyingToken",
          "type": "address"
        }
      ],
      "name": "getAvailableFlow",
      "outputs": [
        {
          "internalType": "uint256",
          "name": "",
          "type": "uint256"
        }
      ],
      "stateMutability": "view",
      "type": "function"
    },
    {
      "inputs": [
        {
          "internalType": "bytes32",
          "name": "role",
          "type": "bytes32"
        }
      ],
      "name": "getRoleAdmin",
      "outputs": [
        {
          "internalType": "bytes32",
          "name": "",
          "type": "bytes32"
        }
      ],
      "stateMutability": "view",
      "type": "function"
    },
    {
      "inputs": [],
      "name": "getTotalCredit",
      "outputs": [
        {
          "internalType": "uint256",
          "name": "credit",
          "type": "uint256"
        }
      ],
      "stateMutability": "view",
      "type": "function"
    },
    {
      "inputs": [
        {
          "internalType": "address",
          "name": "underlyingToken",
          "type": "address"
        }
      ],
      "name": "getTotalUnderlyingBuffered",
      "outputs": [
        {
          "internalType": "uint256",
          "name": "totalBuffered",
          "type": "uint256"
        }
      ],
      "stateMutability": "view",
      "type": "function"
    },
    {
      "inputs": [
        {
          "internalType": "address",
          "name": "weightToken",
          "type": "address"
        },
        {
          "internalType": "address",
          "name": "token",
          "type": "address"
        }
      ],
      "name": "getWeight",
      "outputs": [
        {
          "internalType": "uint256",
          "name": "weight",
          "type": "uint256"
        }
      ],
      "stateMutability": "view",
      "type": "function"
    },
    {
      "inputs": [
        {
          "internalType": "bytes32",
          "name": "role",
          "type": "bytes32"
        },
        {
          "internalType": "address",
          "name": "account",
          "type": "address"
        }
      ],
      "name": "grantRole",
      "outputs": [],
      "stateMutability": "nonpayable",
      "type": "function"
    },
    {
      "inputs": [
        {
          "internalType": "bytes32",
          "name": "role",
          "type": "bytes32"
        },
        {
          "internalType": "address",
          "name": "account",
          "type": "address"
        }
      ],
      "name": "hasRole",
      "outputs": [
        {
          "internalType": "bool",
          "name": "",
          "type": "bool"
        }
      ],
      "stateMutability": "view",
      "type": "function"
    },
    {
      "inputs": [
        {
          "internalType": "address",
          "name": "_admin",
          "type": "address"
        },
        {
          "internalType": "address",
          "name": "_debtToken",
          "type": "address"
        }
      ],
      "name": "initialize",
      "outputs": [],
      "stateMutability": "nonpayable",
      "type": "function"
    },
    {
      "inputs": [
        {
          "internalType": "address",
          "name": "",
          "type": "address"
        }
      ],
      "name": "lastFlowrateUpdate",
      "outputs": [
        {
          "internalType": "uint256",
          "name": "",
          "type": "uint256"
        }
      ],
      "stateMutability": "view",
      "type": "function"
    },
    {
      "inputs": [
        {
          "internalType": "address",
          "name": "underlyingToken",
          "type": "address"
        },
        {
          "internalType": "uint256",
          "name": "amount",
          "type": "uint256"
        }
      ],
      "name": "onERC20Received",
      "outputs": [],
      "stateMutability": "nonpayable",
      "type": "function"
    },
    {
      "inputs": [],
      "name": "refreshStrategies",
      "outputs": [],
      "stateMutability": "nonpayable",
      "type": "function"
    },
    {
      "inputs": [
        {
          "internalType": "address",
          "name": "underlyingToken",
          "type": "address"
        },
        {
          "internalType": "address",
          "name": "_transmuter",
          "type": "address"
        }
      ],
      "name": "registerAsset",
      "outputs": [],
      "stateMutability": "nonpayable",
      "type": "function"
    },
    {
      "inputs": [
        {
          "internalType": "uint256",
          "name": "",
          "type": "uint256"
        }
      ],
      "name": "registeredUnderlyings",
      "outputs": [
        {
          "internalType": "address",
          "name": "",
          "type": "address"
        }
      ],
      "stateMutability": "view",
      "type": "function"
    },
    {
      "inputs": [
        {
          "internalType": "bytes32",
          "name": "role",
          "type": "bytes32"
        },
        {
          "internalType": "address",
          "name": "account",
          "type": "address"
        }
      ],
      "name": "renounceRole",
      "outputs": [],
      "stateMutability": "nonpayable",
      "type": "function"
    },
    {
      "inputs": [
        {
          "internalType": "bytes32",
          "name": "role",
          "type": "bytes32"
        },
        {
          "internalType": "address",
          "name": "account",
          "type": "address"
        }
      ],
      "name": "revokeRole",
      "outputs": [],
      "stateMutability": "nonpayable",
      "type": "function"
    },
    {
      "inputs": [
        {
          "internalType": "address",
          "name": "_alchemist",
          "type": "address"
        }
      ],
      "name": "setAlchemist",
      "outputs": [],
      "stateMutability": "nonpayable",
      "type": "function"
    },
    {
      "inputs": [
        {
          "internalType": "address",
          "name": "underlyingToken",
          "type": "address"
        },
        {
          "internalType": "uint256",
          "name": "_flowRate",
          "type": "uint256"
        }
      ],
      "name": "setFlowRate",
      "outputs": [],
      "stateMutability": "nonpayable",
      "type": "function"
    },
    {
      "inputs": [
        {
          "internalType": "address",
          "name": "source",
          "type": "address"
        },
        {
          "internalType": "bool",
          "name": "flag",
          "type": "bool"
        }
      ],
      "name": "setSource",
      "outputs": [],
      "stateMutability": "nonpayable",
      "type": "function"
    },
    {
      "inputs": [
        {
          "internalType": "address",
          "name": "underlyingToken",
          "type": "address"
        },
        {
          "internalType": "address",
          "name": "newTransmuter",
          "type": "address"
        }
      ],
      "name": "setTransmuter",
      "outputs": [],
      "stateMutability": "nonpayable",
      "type": "function"
    },
    {
      "inputs": [
        {
          "internalType": "address",
          "name": "weightToken",
          "type": "address"
        },
        {
          "internalType": "address[]",
          "name": "tokens",
          "type": "address[]"
        },
        {
          "internalType": "uint256[]",
          "name": "weights",
          "type": "uint256[]"
        }
      ],
      "name": "setWeights",
      "outputs": [],
      "stateMutability": "nonpayable",
      "type": "function"
    },
    {
      "inputs": [
        {
          "internalType": "address",
          "name": "",
          "type": "address"
        }
      ],
      "name": "sources",
      "outputs": [
        {
          "internalType": "bool",
          "name": "",
          "type": "bool"
        }
      ],
      "stateMutability": "view",
      "type": "function"
    },
    {
      "inputs": [
        {
          "internalType": "bytes4",
          "name": "interfaceId",
          "type": "bytes4"
        }
      ],
      "name": "supportsInterface",
      "outputs": [
        {
          "internalType": "bool",
          "name": "",
          "type": "bool"
        }
      ],
      "stateMutability": "view",
      "type": "function"
    },
    {
      "inputs": [
        {
          "internalType": "address",
          "name": "",
          "type": "address"
        }
      ],
      "name": "transmuter",
      "outputs": [
        {
          "internalType": "address",
          "name": "",
          "type": "address"
        }
      ],
      "stateMutability": "view",
      "type": "function"
    },
    {
      "inputs": [],
      "name": "version",
      "outputs": [
        {
          "internalType": "string",
          "name": "",
          "type": "string"
        }
      ],
      "stateMutability": "view",
      "type": "function"
    },
    {
      "inputs": [
        {
          "internalType": "address",
          "name": "",
          "type": "address"
        }
      ],
      "name": "weightings",
      "outputs": [
        {
          "internalType": "uint256",
          "name": "totalWeight",
          "type": "uint256"
        }
      ],
      "stateMutability": "view",
      "type": "function"
    },
    {
      "inputs": [
        {
          "internalType": "address",
          "name": "underlyingToken",
          "type": "address"
        },
        {
          "internalType": "uint256",
          "name": "amount",
          "type": "uint256"
        },
        {
          "internalType": "address",
          "name": "recipient",
          "type": "address"
        }
      ],
      "name": "withdraw",
      "outputs": [],
      "stateMutability": "nonpayable",
      "type": "function"
    },
    {
      "inputs": [
        {
          "internalType": "address",
          "name": "yieldToken",
          "type": "address"
        },
        {
          "internalType": "uint256",
          "name": "shares",
          "type": "uint256"
        },
        {
          "internalType": "uint256",
          "name": "minimumAmountOut",
          "type": "uint256"
        }
      ],
      "name": "withdrawFromAlchemist",
      "outputs": [],
      "stateMutability": "nonpayable",
      "type": "function"
    }
  ],
  "bytecode": "0x60806040523480156200001157600080fd5b50600154610100900460ff166200002f5760015460ff161562000039565b62000039620000de565b620000a15760405162461bcd60e51b815260206004820152602e60248201527f496e697469616c697a61626c653a20636f6e747261637420697320616c72656160448201526d191e481a5b9a5d1a585b1a5e995960921b606482015260840160405180910390fd5b600154610100900460ff16158015620000c4576001805461ffff19166101011790555b8015620000d7576001805461ff00191690555b5062000102565b6000620000f630620000fc60201b62001c161760201c565b15905090565b3b151590565b61347a80620001126000396000f3fe608060405234801561001057600080fd5b50600436106101cc5760003560e01c806212ac34146101d157806301ffc9a7146101e657806314d17f9e1461020e5780632412bdb81461022e578063248a9ca31461024157806326128ec9146102625780632a0acc6a146102755780632f2ff15d1461028a57806336568abe1461029d5780633a0ee64d146102b05780634027fdf8146102c357806340b197f3146102d6578063485cc955146102e95780634dac3435146102fc5780634fa982511461030f5780634fad6bff14610317578063537f46cc1461032a57806354fd4d501461035357806369328dec14610384578063841a0b4a14610397578063862a179e146103aa5780638aef4058146103bf5780638de925f6146103e257806391d14854146103fb5780639201c4541461040e578063921b004b1461042e578063a117789b14610441578063a217fddf14610461578063a481732114610469578063b750bdde146104a2578063bc04f0af146104c5578063bee3d90e146104d8578063cb147588146104f8578063d547741f1461050b578063f1af775f1461051e578063f305760814610531578063f79d845814610539578063f80254ed14610541578063f8d8989814610561575b600080fd5b6101e46101df366004612ab2565b610574565b005b6101f96101f4366004612aeb565b6106a8565b60405190151581526020015b60405180910390f35b61022161021c366004612b15565b6106df565b6040516102059190612b41565b6101e461023c366004612b55565b610717565b61025461024f366004612b72565b610757565b604051908152602001610205565b610254610270366004612b55565b61076c565b61025460008051602061342583398151915281565b6101e4610298366004612b8b565b6107c4565b6101e46102ab366004612b8b565b6107e6565b6101e46102be366004612bb0565b610869565b6102546102d1366004612b55565b610921565b6101e46102e4366004612bf3565b6109b9565b6101e46102f7366004612ab2565b610a89565b6101e461030a366004612b15565b610bb4565b6101e4610c3e565b6101e4610325366004612ab2565b610d86565b610221610338366004612b55565b6002602052600090815260409020546001600160a01b031681565b610377604051806040016040528060058152602001640322e312e360dc1b81525081565b6040516102059190612c79565b6101e4610392366004612c8c565b611004565b6102216103a5366004612b72565b611114565b61025460008051602061340583398151915281565b6102546103cd366004612b55565b600a6020526000908152604090206002015481565b600154610221906201000090046001600160a01b031681565b6101f9610409366004612b8b565b61113e565b61025461041c366004612b55565b60076020526000908152604090205481565b6101e461043c366004612b15565b611167565b61025461044f366004612b55565b60036020526000908152604090205481565b610254600081565b610254610477366004612ab2565b6001600160a01b039182166000908152600a6020908152604080832093909416825291909152205490565b6101f96104b0366004612b55565b600b6020526000908152604090205460ff1681565b6101e46104d3366004612b15565b611241565b6102546104e6366004612b55565b60056020526000908152604090205481565b6101e4610506366004612dcb565b61141b565b6101e4610519366004612b8b565b61168b565b6101e461052c366004612b55565b6116a8565b6102546118a0565b6101e461194a565b61025461054f366004612b55565b60046020526000908152604090205481565b600954610221906001600160a01b031681565b61058c6000805160206134258339815191523361113e565b6105a8576040516282b42960e81b815260040160405180910390fd5b816001600160a01b0316816001600160a01b0316632495a5996040518163ffffffff1660e01b8152600401602060405180830381865afa1580156105f0573d6000803e3d6000fd5b505050506040513d601f19601f820116820180604052508101906106149190612eb0565b6001600160a01b03161461063b57604051630134249960e71b815260040160405180910390fd5b6001600160a01b038281166000908152600260205260409081902080546001600160a01b03191692841692909217909155517f5f5f1867949f882317e4afdbddb02296f5681564a3765f0fbb21bc5b6f506e589061069c9084908490612ecd565b60405180910390a15050565b60006001600160e01b03198216637965db0b60e01b14806106d957506301ffc9a760e01b6001600160e01b03198316145b92915050565b600660205281600052604060002081815481106106fb57600080fd5b6000918252602090912001546001600160a01b03169150829050565b61072f6000805160206134058339815191523361113e565b61074b576040516282b42960e81b815260040160405180910390fd5b61075481611c1c565b50565b60009081526020819052604090206001015490565b60008061077883610921565b6001600160a01b0384166000908152600560205260409020549091508110156107a15792915050565b50506001600160a01b031660009081526005602052604090205490565b50919050565b6107cd82610757565b6107d78133611e03565b6107e18383611e67565b505050565b6001600160a01b038116331461085b5760405162461bcd60e51b815260206004820152602f60248201527f416363657373436f6e74726f6c3a2063616e206f6e6c792072656e6f756e636560448201526e103937b632b9903337b91039b2b63360891b60648201526084015b60405180910390fd5b6108658282611eeb565b5050565b6108816000805160206134058339815191523361113e565b61089d576040516282b42960e81b815260040160405180910390fd5b600154604051635322cd1960e11b8152620100009091046001600160a01b03169063a6459a32906108d8908690869030908790600401612ee7565b6020604051808303816000875af11580156108f7573d6000803e3d6000fd5b505050506040513d601f19601f8201168201806040525081019061091b9190612f11565b50505050565b600061092d8230611f50565b905060005b6001600160a01b0383166000908152600660205260409020548110156107be576001600160a01b0383166000908152600660205260409020805461099b91908390811061098157610981612f2a565b6000918252602090912001546001600160a01b031661204a565b6109a59083612f56565b9150806109b181612f6e565b915050610932565b6109d16000805160206134258339815191523361113e565b6109ed576040516282b42960e81b815260040160405180910390fd5b6001600160a01b0382166000908152600b602052604090205460ff1615158115151415610a2d57604051630134249960e71b815260040160405180910390fd5b6001600160a01b0382166000818152600b6020908152604091829020805460ff19168515159081179091558251938452908301527fc55dd2342fb6a4c8580b302e5a10b68c01cdee01d65763a40089df970fd687c5910161069c565b600154610100900460ff16610aa45760015460ff1615610aa8565b303b155b610b0b5760405162461bcd60e51b815260206004820152602e60248201527f496e697469616c697a61626c653a20636f6e747261637420697320616c72656160448201526d191e481a5b9a5d1a585b1a5e995960921b6064820152608401610852565b600154610100900460ff16158015610b2d576001805461ffff19166101011790555b610b45600080516020613425833981519152846121e4565b610b5d600080516020613425833981519152806121ee565b610b836000805160206134058339815191526000805160206134258339815191526121ee565b600980546001600160a01b0319166001600160a01b03841617905580156107e1576001805461ff0019169055505050565b610bcc6000805160206134258339815191523361113e565b610be8576040516282b42960e81b815260040160405180910390fd5b610bf182611c1c565b6001600160a01b03821660009081526003602052604090819020829055517f9b851d18ba551205a781cfd2d54e04373b966024d91f688b03448eee2ea1041c9061069c9084908490612f89565b610c566000805160206134058339815191523361113e565b610c72576040516282b42960e81b815260040160405180910390fd5b600154604051632c6a65eb60e21b8152620100009091046001600160a01b03169063b1a997ac90610ca7903090600401612b41565b600060405180830381600087803b158015610cc157600080fd5b505af1158015610cd5573d6000803e3d6000fd5b505050506000610ce36118a0565b905080610d0357604051634a613c4160e01b815260040160405180910390fd5b6001546040516394bf804d60e01b815260048101839052306024820152620100009091046001600160a01b0316906394bf804d90604401600060405180830381600087803b158015610d5457600080fd5b505af1158015610d68573d6000803e3d6000fd5b505060095461075492508391506001600160a01b03166122416122a6565b610d9e6000805160206134258339815191523361113e565b610dba576040516282b42960e81b815260040160405180910390fd5b600154604051632f72a98160e11b8152620100009091046001600160a01b031690635ee5530290610def908590600401612b41565b602060405180830381865afa158015610e0c573d6000803e3d6000fd5b505050506040513d601f19601f82011682018060405250810190610e309190612fad565b610e4d57604051634a613c4160e01b815260040160405180910390fd5b60005b600854811015610ebd57826001600160a01b031660088281548110610e7757610e77612f2a565b6000918252602090912001546001600160a01b03161415610eab57604051634a613c4160e01b815260040160405180910390fd5b80610eb581612f6e565b915050610e50565b50816001600160a01b0316816001600160a01b0316632495a5996040518163ffffffff1660e01b8152600401602060405180830381865afa158015610f06573d6000803e3d6000fd5b505050506040513d601f19601f82011682018060405250810190610f2a9190612eb0565b6001600160a01b031614610f5157604051630134249960e71b815260040160405180910390fd5b6001600160a01b03808316600081815260026020526040812080548486166001600160a01b0319918216179091556008805460018181018355919093527ff3f7a9fe364faab93b216da50a3214154f22a0a2b415b23a84c8169e8b636ee3909201805490911690921790915554610fd3918491620100009004166000196123b1565b7fe3fc1075bf266cb7785ff5a63ee95d60aee4ccbfb42f6f5562e811edc26f6a20828260405161069c929190612ecd565b6001600160a01b03838116600090815260026020526040902054849116331461103f576040516282b42960e81b815260040160405180910390fd5b6001600160a01b03841660009081526005602052604090205483111561107857604051630134249960e71b815260040160405180910390fd5b60006110848530611f50565b9050808411156110a757604051630134249960e71b815260040160405180910390fd5b6001600160a01b038516600090815260056020526040812080548692906110cf908490612fca565b90915550506001600160a01b038516600090815260076020526040812080548692906110fc908490612fca565b9091555061110d90508584866124ab565b5050505050565b6008818154811061112457600080fd5b6000918252602090912001546001600160a01b0316905081565b6000918252602082815260408084206001600160a01b0393909316845291905290205460ff1690565b61117f6000805160206134058339815191523361113e565b61119b576040516282b42960e81b815260040160405180910390fd5b806111b957604051630134249960e71b815260040160405180910390fd5b60006111c58330611f50565b9050818110156111e857604051630134249960e71b815260040160405180910390fd5b6111f1836124d3565b506001600160a01b0383166000908152600760205260409020546112158383612fca565b101561123457604051634a613c4160e01b815260040160405180910390fd5b6107e182846125606122a6565b336000908152600b602052604090205460ff16611270576040516282b42960e81b815260040160405180910390fd5b611279826124d3565b5060006112868330611f50565b6001600160a01b038416600090815260056020526040902054909150811015611348576001600160a01b038316600090815260076020526040812080548492906112d1908490612f56565b90915550506001600160a01b0383811660009081526002602052604090819020549051635355655960e01b815260048101859052911690635355655990602401600060405180830381600087803b15801561132b57600080fd5b505af115801561133f573d6000803e3d6000fd5b50505050505050565b6001600160a01b03831660009081526007602090815260408083205460059092528220546113769190612fca565b6001600160a01b0385166000908152600760205260408120805492935083929091906113a3908490612f56565b90915550506001600160a01b0384811660009081526002602052604090819020549051635355655960e01b815260048101849052911690635355655990602401600060405180830381600087803b1580156113fd57600080fd5b505af1158015611411573d6000803e3d6000fd5b5050505050505050565b6114336000805160206134258339815191523361113e565b61144f576040516282b42960e81b815260040160405180910390fd5b6001600160a01b0383166000908152600a6020526040812090611476906001830190612a6f565b6000600282018190555b835181101561110d57600084828151811061149d5761149d612f2a565b60209081029190910101516009549091506001600160a01b038781169116146115da57600154604051635a5efc8b60e01b81526000916201000090046001600160a01b031690635a5efc8b906114f7908590600401612b41565b6101e060405180830381865afa158015611515573d6000803e3d6000fd5b505050506040513d601f19601f820116820180604052508101906115399190612ff2565b9050600081604001516001600160a01b0316632495a5996040518163ffffffff1660e01b8152600401602060405180830381865afa15801561157f573d6000803e3d6000fd5b505050506040513d601f19601f820116820180604052508101906115a39190612eb0565b9050806001600160a01b0316886001600160a01b0316146115d757604051634a613c4160e01b815260040160405180910390fd5b50505b6001838101805491820181556000908152602090200180546001600160a01b0319166001600160a01b038316179055835184908390811061161d5761161d612f2a565b6020908102919091018101516001600160a01b038316600090815291859052604090912055835184908390811061165657611656612f2a565b60200260200101518360020160008282546116719190612f56565b90915550829150611683905081612f6e565b915050611480565b61169482610757565b61169e8133611e03565b6107e18383611eeb565b6116c06000805160206134258339815191523361113e565b6116dc576040516282b42960e81b815260040160405180910390fd5b600180546001600160a01b03620100009182900481166000908152600b6020526040808220805460ff199081169091558684168352912080549091168417905591540416156117a95760005b600854811015611784576117726008828154811061174857611748612f2a565b60009182526020822001546001546001600160a01b039182169262010000909104909116906123b1565b8061177c81612f6e565b915050611728565b506009546001546117a9916001600160a01b03908116916201000090041660006123b1565b6001805462010000600160b01b031916620100006001600160a01b0384160217905560005b60085481101561182b57611819600882815481106117ee576117ee612f2a565b6000918252602090912001546001546001600160a01b039182169162010000909104166000196123b1565b8061182381612f6e565b9150506117ce565b50600954600154611851916001600160a01b0390811691620100009004166000196123b1565b7fb5f3602a1d2783f0976eae6d619f386b298bd951e94fa8e56bfedf853e7d8875600160029054906101000a90046001600160a01b03166040516118959190612b41565b60405180910390a150565b600154604051632f2e037160e11b81526000918291620100009091046001600160a01b031690635e5c06e2906118da903090600401612b41565b600060405180830381865afa1580156118f7573d6000803e3d6000fd5b505050506040513d6000823e601f3d908101601f1916820160405261191f919081019061312b565b50905060008112156119415761193c61193782613172565b6125df565b611944565b60005b91505090565b6000600160029054906101000a90046001600160a01b03166001600160a01b0316631b962c786040518163ffffffff1660e01b8152600401600060405180830381865afa15801561199f573d6000803e3d6000fd5b505050506040513d6000823e601f3d908101601f191682016040526119c7919081019061318f565b90506000600160029054906101000a90046001600160a01b03166001600160a01b0316634a2226356040518163ffffffff1660e01b8152600401600060405180830381865afa158015611a1e573d6000803e3d6000fd5b505050506040513d6000823e601f3d908101601f19168201604052611a46919081019061318f565b805160085491925014611a6c57604051634a613c4160e01b815260040160405180910390fd5b60005b600854811015611acf576006600060088381548110611a9057611a90612f2a565b60009182526020808320909101546001600160a01b031683528201929092526040018120611abd91612a6f565b80611ac781612f6e565b915050611a6f565b50815160005b81811015611be7576000848281518110611af157611af1612f2a565b602002602001015190506000600160029054906101000a90046001600160a01b03166001600160a01b0316635a5efc8b836040518263ffffffff1660e01b8152600401611b3e9190612b41565b6101e060405180830381865afa158015611b5c573d6000803e3d6000fd5b505050506040513d601f19601f82011682018060405250810190611b809190612ff2565b9050806101c0015115611bd2576020818101516001600160a01b0390811660009081526006835260408120805460018101825590825292902090910180546001600160a01b0319169184169190911790555b50508080611bdf90612f6e565b915050611ad5565b506040517fdfe7090a5461eb5a45d9e05a1317dfcd47d74fd2f14e0989619808f3aac43aa590600090a1505050565b3b151590565b611c25816124d3565b506000611c3182610921565b90506000611c3f8330611f50565b6001600160a01b03841660009081526005602052604081205491925090831015611c7457611c6d8284612fca565b9050611cbb565b6001600160a01b038416600090815260056020526040902054821015611cbb576001600160a01b038416600090815260056020526040902054611cb8908390612fca565b90505b8015611cce57611cce81856126066122a6565b6000611cda8530611f50565b6001600160a01b03861660009081526005602052604081205491925090821115611d34576001600160a01b038616600090815260076020908152604080832054600590925290912054611d2d9190612fca565b9050611d5a565b6001600160a01b038616600090815260076020526040902054611d579083612fca565b90505b8015611dfb576001600160a01b03861660009081526007602052604081208054839290611d88908490612f56565b90915550506001600160a01b0386811660009081526002602052604090819020549051635355655960e01b815260048101849052911690635355655990602401600060405180830381600087803b158015611de257600080fd5b505af1158015611df6573d6000803e3d6000fd5b505050505b505050505050565b611e0d828261113e565b61086557611e25816001600160a01b031660146127f4565b611e308360206127f4565b604051602001611e419291906131c3565b60408051601f198184030181529082905262461bcd60e51b825261085291600401612c79565b611e71828261113e565b610865576000828152602081815260408083206001600160a01b03851684529091529020805460ff19166001179055611ea73390565b6001600160a01b0316816001600160a01b0316837f2f8788117e7eff1d82e926ec794901d17c78024a50270940304540a733656f0d60405160405180910390a45050565b611ef5828261113e565b15610865576000828152602081815260408083206001600160a01b0385168085529252808320805460ff1916905551339285917ff6391f5c32d9c69d2a47ea670b442974b53935d1edc7fd64eb21e047a839171b9190a45050565b6000806000846001600160a01b03166370a0823160e01b85604051602401611f789190612b41565b60408051601f198184030181529181526020820180516001600160e01b03166001600160e01b0319909416939093179092529051611fb69190613232565b600060405180830381855afa9150503d8060008114611ff1576040519150601f19603f3d011682016040523d82523d6000602084013e611ff6565b606091505b5091509150811580612009575060208151105b1561202d5784828260405163e7e40b5b60e01b81526004016108529392919061324e565b808060200190518101906120419190612f11565b95945050505050565b600154604051634bd2144560e01b81526000918291620100009091046001600160a01b031690634bd21445906120869030908790600401612ecd565b6040805180830381865afa1580156120a2573d6000803e3d6000fd5b505050506040513d601f19601f820116820180604052508101906120c6919061327a565b50600154604051635a5efc8b60e01b8152919250600091620100009091046001600160a01b031690635a5efc8b90612102908790600401612b41565b6101e060405180830381865afa158015612120573d6000803e3d6000fd5b505050506040513d601f19601f820116820180604052508101906121449190612ff2565b60015460405163447378ad60e11b8152919250600091620100009091046001600160a01b0316906388e6f15a9061217f908890600401612b41565b602060405180830381865afa15801561219c573d6000803e3d6000fd5b505050506040513d601f19601f820116820180604052508101906121c09190612f11565b82519091506121d090600a613382565b6121da8285613391565b61204191906133b0565b6108658282611e67565b60006121f983610757565b600084815260208190526040808220600101859055519192508391839186917fbd79b86ffe0ab8e8776151514217cd7cacd52c909f66475c3af44e129f0b00ff9190a4505050565b60015460405163e69d849d60e01b8152620100009091046001600160a01b03169063e69d849d906122789085908590600401612f89565b600060405180830381600087803b15801561229257600080fd5b505af1158015611dfb573d6000803e3d6000fd5b600154604051632c6a65eb60e21b8152620100009091046001600160a01b03169063b1a997ac906122db903090600401612b41565b600060405180830381600087803b1580156122f557600080fd5b505af1158015612309573d6000803e3d6000fd5b5050506001600160a01b0383166000908152600a6020526040812091505b600182015481101561110d57600082600101828154811061234a5761234a612f2a565b600091825260208083209091015460028601546001600160a01b03909116808452918690526040832054919350906123829089613391565b61238c91906133b0565b905061239c82828763ffffffff16565b505080806123a990612f6e565b915050612327565b600080846001600160a01b031663095ea7b360e01b85856040516024016123d9929190612f89565b60408051601f198184030181529181526020820180516001600160e01b03166001600160e01b03199094169390931790925290516124179190613232565b6000604051808303816000865af19150503d8060008114612454576040519150601f19603f3d011682016040523d82523d6000602084013e612459565b606091505b509150915081158061248757508051158015906124875750808060200190518101906124859190612fad565b155b1561110d5784828260405163e7e40b5b60e01b81526004016108529392919061324e565b600080846001600160a01b031663a9059cbb60e01b85856040516024016123d9929190612f89565b6001600160a01b03811660009081526003602090815260408083205460049092528220548291906125049042612fca565b61250e9190613391565b6001600160a01b03841660009081526005602052604081208054929350839290919061253b908490612f56565b90915550506001600160a01b0390921660009081526004602052604090204290555090565b600154604051635efd4dd760e11b8152620100009091046001600160a01b03169063bdfa9bae9061259c90859085903090600090600401612ee7565b6020604051808303816000875af11580156125bb573d6000803e3d6000fd5b505050506040513d601f19601f820116820180604052508101906107e19190612f11565b60008082121561260257604051630134249960e71b815260040160405180910390fd5b5090565b600061261183612996565b60015460405163447378ad60e11b8152919250600091620100009091046001600160a01b0316906388e6f15a9061264c908790600401612b41565b602060405180830381865afa158015612669573d6000803e3d6000fd5b505050506040513d601f19601f8201168201806040525081019061268d9190612f11565b905060008161269d84600a613382565b6126a79086613391565b6126b191906133b0565b600154604051634bd2144560e01b815291925060009182916201000090046001600160a01b031690634bd21445906126ef9030908b90600401612ecd565b6040805180830381865afa15801561270b573d6000803e3d6000fd5b505050506040513d601f19601f8201168201806040525081019061272f919061327a565b915091508183111561273f578192505b600061271061274f886064613391565b61275991906133b0565b6127639088612fca565b9050831561141157600154604051635322cd1960e11b8152620100009091046001600160a01b03169063a6459a32906127a6908b90889030908790600401612ee7565b6020604051808303816000875af11580156127c5573d6000803e3d6000fd5b505050506040513d601f19601f820116820180604052508101906127e99190612f11565b505050505050505050565b60606000612803836002613391565b61280e906002612f56565b6001600160401b0381111561282557612825612cce565b6040519080825280601f01601f19166020018201604052801561284f576020820181803683370190505b509050600360fc1b8160008151811061286a5761286a612f2a565b60200101906001600160f81b031916908160001a905350600f60fb1b8160018151811061289957612899612f2a565b60200101906001600160f81b031916908160001a90535060006128bd846002613391565b6128c8906001612f56565b90505b6001811115612940576f181899199a1a9b1b9c1cb0b131b232b360811b85600f16601081106128fc576128fc612f2a565b1a60f81b82828151811061291257612912612f2a565b60200101906001600160f81b031916908160001a90535060049490941c93612939816133d2565b90506128cb565b50831561298f5760405162461bcd60e51b815260206004820181905260248201527f537472696e67733a20686578206c656e67746820696e73756666696369656e746044820152606401610852565b9392505050565b60408051600481526024810182526020810180516001600160e01b031663313ce56760e01b1790529051600091829182916001600160a01b038616916129dc9190613232565b600060405180830381855afa9150503d8060008114612a17576040519150601f19603f3d011682016040523d82523d6000602084013e612a1c565b606091505b5091509150811580612a2f575060208151105b15612a535783828260405163e7e40b5b60e01b81526004016108529392919061324e565b80806020019051810190612a6791906133e9565b949350505050565b508054600082559060005260206000209081019061075491905b808211156126025760008155600101612a89565b6001600160a01b038116811461075457600080fd5b60008060408385031215612ac557600080fd5b8235612ad081612a9d565b91506020830135612ae081612a9d565b809150509250929050565b600060208284031215612afd57600080fd5b81356001600160e01b03198116811461298f57600080fd5b60008060408385031215612b2857600080fd5b8235612b3381612a9d565b946020939093013593505050565b6001600160a01b0391909116815260200190565b600060208284031215612b6757600080fd5b813561298f81612a9d565b600060208284031215612b8457600080fd5b5035919050565b60008060408385031215612b9e57600080fd5b823591506020830135612ae081612a9d565b600080600060608486031215612bc557600080fd5b8335612bd081612a9d565b95602085013595506040909401359392505050565b801515811461075457600080fd5b60008060408385031215612c0657600080fd5b8235612c1181612a9d565b91506020830135612ae081612be5565b60005b83811015612c3c578181015183820152602001612c24565b8381111561091b5750506000910152565b60008151808452612c65816020860160208601612c21565b601f01601f19169290920160200192915050565b60208152600061298f6020830184612c4d565b600080600060608486031215612ca157600080fd5b8335612cac81612a9d565b9250602084013591506040840135612cc381612a9d565b809150509250925092565b634e487b7160e01b600052604160045260246000fd5b6040516101e081016001600160401b0381118282101715612d0757612d07612cce565b60405290565b604051601f8201601f191681016001600160401b0381118282101715612d3557612d35612cce565b604052919050565b60006001600160401b03821115612d5657612d56612cce565b5060051b60200190565b600082601f830112612d7157600080fd5b81356020612d86612d8183612d3d565b612d0d565b82815260059290921b84018101918181019086841115612da557600080fd5b8286015b84811015612dc05780358352918301918301612da9565b509695505050505050565b600080600060608486031215612de057600080fd5b8335612deb81612a9d565b92506020848101356001600160401b0380821115612e0857600080fd5b818701915087601f830112612e1c57600080fd5b8135612e2a612d8182612d3d565b81815260059190911b8301840190848101908a831115612e4957600080fd5b938501935b82851015612e70578435612e6181612a9d565b82529385019390850190612e4e565b965050506040870135925080831115612e8857600080fd5b5050612e9686828701612d60565b9150509250925092565b8051612eab81612a9d565b919050565b600060208284031215612ec257600080fd5b815161298f81612a9d565b6001600160a01b0392831681529116602082015260400190565b6001600160a01b039485168152602081019390935292166040820152606081019190915260800190565b600060208284031215612f2357600080fd5b5051919050565b634e487b7160e01b600052603260045260246000fd5b634e487b7160e01b600052601160045260246000fd5b60008219821115612f6957612f69612f40565b500190565b6000600019821415612f8257612f82612f40565b5060010190565b6001600160a01b03929092168252602082015260400190565b8051612eab81612be5565b600060208284031215612fbf57600080fd5b815161298f81612be5565b600082821015612fdc57612fdc612f40565b500390565b805160ff81168114612eab57600080fd5b60006101e0828403121561300557600080fd5b61300d612ce4565b61301683612fe1565b815261302460208401612ea0565b602082015261303560408401612ea0565b6040820152606083810151908201526080808401519082015260a0808401519082015260c0808401519082015260e08084015190820152610100808401519082015261012080840151908201526101408084015190820152610160808401519082015261018080840151908201526101a080840151908201526101c06130bc818501612fa2565b908201529392505050565b600082601f8301126130d857600080fd5b815160206130e8612d8183612d3d565b82815260059290921b8401810191818101908684111561310757600080fd5b8286015b84811015612dc057805161311e81612a9d565b835291830191830161310b565b6000806040838503121561313e57600080fd5b825160208401519092506001600160401b0381111561315c57600080fd5b613168858286016130c7565b9150509250929050565b6000600160ff1b82141561318857613188612f40565b5060000390565b6000602082840312156131a157600080fd5b81516001600160401b038111156131b757600080fd5b612a67848285016130c7565b76020b1b1b2b9b9a1b7b73a3937b61d1030b1b1b7bab73a1604d1b8152600083516131f5816017850160208801612c21565b7001034b99036b4b9b9b4b733903937b6329607d1b6017918401918201528351613226816028840160208801612c21565b01602801949350505050565b60008251613244818460208701612c21565b9190910192915050565b6001600160a01b0384168152821515602082015260606040820181905260009061204190830184612c4d565b6000806040838503121561328d57600080fd5b505080516020909101519092909150565b600181815b808511156132d95781600019048211156132bf576132bf612f40565b808516156132cc57918102915b93841c93908002906132a3565b509250929050565b6000826132f0575060016106d9565b816132fd575060006106d9565b8160018114613313576002811461331d57613339565b60019150506106d9565b60ff84111561332e5761332e612f40565b50506001821b6106d9565b5060208310610133831016604e8410600b841016171561335c575081810a6106d9565b613366838361329e565b806000190482111561337a5761337a612f40565b029392505050565b600061298f60ff8416836132e1565b60008160001904831182151516156133ab576133ab612f40565b500290565b6000826133cd57634e487b7160e01b600052601260045260246000fd5b500490565b6000816133e1576133e1612f40565b506000190190565b6000602082840312156133fb57600080fd5b61298f82612fe156fe71a9859d7dd21b24504a6f306077ffc2d510b4d4b61128e931fe937441ad1836df8b4c520ffe197c5343c6f5aec59570151ef9a492f2c624fd45ddde6135ec42a2646970667358221220874cba2bcf88700b742fd4058b1744fb77900fd321dfc7e44c8aa673183f2a0f64736f6c634300080b0033",
  "linkReferences": {},
  "deployedLinkReferences": {}
}