{
  "_format": "hh-sol-artifact-1",
  "contractName": "TransmuterBuffer",
  "sourceName": "contracts/TransmuterBuffer.sol",
  "abi": [
    {
      "inputs": [],
      "stateMutability": "nonpayable",
      "type": "constructor"
    },
    {
      "inputs": [
        {
          "internalType": "address",
          "name": "target",
          "type": "address"
        },
        {
          "internalType": "bool",
          "name": "success",
          "type": "bool"
        },
        {
          "internalType": "bytes",
          "name": "data",
          "type": "bytes"
        }
      ],
      "name": "ERC20CallFailed",
      "type": "error"
    },
    {
      "inputs": [],
      "name": "IllegalArgument",
      "type": "error"
    },
    {
      "inputs": [],
      "name": "IllegalState",
      "type": "error"
    },
    {
      "inputs": [],
      "name": "Unauthorized",
      "type": "error"
    },
    {
      "anonymous": false,
      "inputs": [],
      "name": "RefreshStrategies",
      "type": "event"
    },
    {
      "anonymous": false,
      "inputs": [
        {
          "indexed": false,
          "internalType": "address",
          "name": "underlyingToken",
          "type": "address"
        },
        {
          "indexed": false,
          "internalType": "address",
          "name": "transmuter",
          "type": "address"
        }
      ],
      "name": "RegisterAsset",
      "type": "event"
    },
    {
      "anonymous": false,
      "inputs": [
        {
          "indexed": true,
          "internalType": "bytes32",
          "name": "role",
          "type": "bytes32"
        },
        {
          "indexed": true,
          "internalType": "bytes32",
          "name": "previousAdminRole",
          "type": "bytes32"
        },
        {
          "indexed": true,
          "internalType": "bytes32",
          "name": "newAdminRole",
          "type": "bytes32"
        }
      ],
      "name": "RoleAdminChanged",
      "type": "event"
    },
    {
      "anonymous": false,
      "inputs": [
        {
          "indexed": true,
          "internalType": "bytes32",
          "name": "role",
          "type": "bytes32"
        },
        {
          "indexed": true,
          "internalType": "address",
          "name": "account",
          "type": "address"
        },
        {
          "indexed": true,
          "internalType": "address",
          "name": "sender",
          "type": "address"
        }
      ],
      "name": "RoleGranted",
      "type": "event"
    },
    {
      "anonymous": false,
      "inputs": [
        {
          "indexed": true,
          "internalType": "bytes32",
          "name": "role",
          "type": "bytes32"
        },
        {
          "indexed": true,
          "internalType": "address",
          "name": "account",
          "type": "address"
        },
        {
          "indexed": true,
          "internalType": "address",
          "name": "sender",
          "type": "address"
        }
      ],
      "name": "RoleRevoked",
      "type": "event"
    },
    {
      "anonymous": false,
      "inputs": [
        {
          "indexed": false,
          "internalType": "address",
          "name": "alchemist",
          "type": "address"
        }
      ],
      "name": "SetAlchemist",
      "type": "event"
    },
    {
      "anonymous": false,
      "inputs": [
        {
          "indexed": false,
          "internalType": "address",
          "name": "underlyingToken",
          "type": "address"
        },
        {
          "indexed": false,
          "internalType": "address",
          "name": "amo",
          "type": "address"
        }
      ],
      "name": "SetAmo",
      "type": "event"
    },
    {
      "anonymous": false,
      "inputs": [
        {
          "indexed": false,
          "internalType": "address",
          "name": "underlyingToken",
          "type": "address"
        },
        {
          "indexed": false,
          "internalType": "bool",
          "name": "divert",
          "type": "bool"
        }
      ],
      "name": "SetDivertToAmo",
      "type": "event"
    },
    {
      "anonymous": false,
      "inputs": [
        {
          "indexed": false,
          "internalType": "address",
          "name": "underlyingToken",
          "type": "address"
        },
        {
          "indexed": false,
          "internalType": "uint256",
          "name": "flowRate",
          "type": "uint256"
        }
      ],
      "name": "SetFlowRate",
      "type": "event"
    },
    {
      "anonymous": false,
      "inputs": [
        {
          "indexed": false,
          "internalType": "address",
          "name": "source",
          "type": "address"
        },
        {
          "indexed": false,
          "internalType": "bool",
          "name": "flag",
          "type": "bool"
        }
      ],
      "name": "SetSource",
      "type": "event"
    },
    {
      "anonymous": false,
      "inputs": [
        {
          "indexed": false,
          "internalType": "address",
          "name": "underlyingToken",
          "type": "address"
        },
        {
          "indexed": false,
          "internalType": "address",
          "name": "transmuter",
          "type": "address"
        }
      ],
      "name": "SetTransmuter",
      "type": "event"
    },
    {
      "inputs": [],
      "name": "ADMIN",
      "outputs": [
        {
          "internalType": "bytes32",
          "name": "",
          "type": "bytes32"
        }
      ],
      "stateMutability": "view",
      "type": "function"
    },
    {
      "inputs": [],
      "name": "DEFAULT_ADMIN_ROLE",
      "outputs": [
        {
          "internalType": "bytes32",
          "name": "",
          "type": "bytes32"
        }
      ],
      "stateMutability": "view",
      "type": "function"
    },
    {
      "inputs": [],
      "name": "KEEPER",
      "outputs": [
        {
          "internalType": "bytes32",
          "name": "",
          "type": "bytes32"
        }
      ],
      "stateMutability": "view",
      "type": "function"
    },
    {
      "inputs": [
        {
          "internalType": "address",
          "name": "",
          "type": "address"
        },
        {
          "internalType": "uint256",
          "name": "",
          "type": "uint256"
        }
      ],
      "name": "_yieldTokens",
      "outputs": [
        {
          "internalType": "address",
          "name": "",
          "type": "address"
        }
      ],
      "stateMutability": "view",
      "type": "function"
    },
    {
      "inputs": [],
      "name": "alchemist",
      "outputs": [
        {
          "internalType": "address",
          "name": "",
          "type": "address"
        }
      ],
      "stateMutability": "view",
      "type": "function"
    },
    {
      "inputs": [
        {
          "internalType": "address",
          "name": "",
          "type": "address"
        }
      ],
      "name": "amos",
      "outputs": [
        {
          "internalType": "address",
          "name": "",
          "type": "address"
        }
      ],
      "stateMutability": "view",
      "type": "function"
    },
    {
      "inputs": [],
      "name": "burnCredit",
      "outputs": [],
      "stateMutability": "nonpayable",
      "type": "function"
    },
    {
      "inputs": [
        {
          "internalType": "address",
          "name": "",
          "type": "address"
        }
      ],
      "name": "currentExchanged",
      "outputs": [
        {
          "internalType": "uint256",
          "name": "",
          "type": "uint256"
        }
      ],
      "stateMutability": "view",
      "type": "function"
    },
    {
      "inputs": [],
      "name": "debtToken",
      "outputs": [
        {
          "internalType": "address",
          "name": "",
          "type": "address"
        }
      ],
      "stateMutability": "view",
      "type": "function"
    },
    {
      "inputs": [
        {
          "internalType": "address",
          "name": "underlyingToken",
          "type": "address"
        },
        {
          "internalType": "uint256",
          "name": "amount",
          "type": "uint256"
        }
      ],
      "name": "depositFunds",
      "outputs": [],
      "stateMutability": "nonpayable",
      "type": "function"
    },
    {
      "inputs": [
        {
          "internalType": "address",
          "name": "",
          "type": "address"
        }
      ],
      "name": "divertToAmo",
      "outputs": [
        {
          "internalType": "bool",
          "name": "",
          "type": "bool"
        }
      ],
      "stateMutability": "view",
      "type": "function"
    },
    {
      "inputs": [
        {
          "internalType": "address",
          "name": "underlyingToken",
          "type": "address"
        }
      ],
      "name": "exchange",
      "outputs": [],
      "stateMutability": "nonpayable",
      "type": "function"
    },
    {
      "inputs": [
        {
          "internalType": "address",
          "name": "",
          "type": "address"
        }
      ],
      "name": "flowAvailable",
      "outputs": [
        {
          "internalType": "uint256",
          "name": "",
          "type": "uint256"
        }
      ],
      "stateMutability": "view",
      "type": "function"
    },
    {
      "inputs": [
        {
          "internalType": "address",
          "name": "",
          "type": "address"
        }
      ],
      "name": "flowRate",
      "outputs": [
        {
          "internalType": "uint256",
          "name": "",
          "type": "uint256"
        }
      ],
      "stateMutability": "view",
      "type": "function"
    },
    {
      "inputs": [
        {
          "internalType": "address",
          "name": "underlyingToken",
          "type": "address"
        },
        {
          "internalType": "uint256",
          "name": "amount",
          "type": "uint256"
        }
      ],
      "name": "flushToAmo",
      "outputs": [],
      "stateMutability": "nonpayable",
      "type": "function"
    },
    {
      "inputs": [
        {
          "internalType": "address",
          "name": "underlyingToken",
          "type": "address"
        }
      ],
      "name": "getAvailableFlow",
      "outputs": [
        {
          "internalType": "uint256",
          "name": "",
          "type": "uint256"
        }
      ],
      "stateMutability": "view",
      "type": "function"
    },
    {
      "inputs": [
        {
          "internalType": "bytes32",
          "name": "role",
          "type": "bytes32"
        }
      ],
      "name": "getRoleAdmin",
      "outputs": [
        {
          "internalType": "bytes32",
          "name": "",
          "type": "bytes32"
        }
      ],
      "stateMutability": "view",
      "type": "function"
    },
    {
      "inputs": [],
      "name": "getTotalCredit",
      "outputs": [
        {
          "internalType": "uint256",
          "name": "credit",
          "type": "uint256"
        }
      ],
      "stateMutability": "view",
      "type": "function"
    },
    {
      "inputs": [
        {
          "internalType": "address",
          "name": "underlyingToken",
          "type": "address"
        }
      ],
      "name": "getTotalUnderlyingBuffered",
      "outputs": [
        {
          "internalType": "uint256",
          "name": "totalBuffered",
          "type": "uint256"
        }
      ],
      "stateMutability": "view",
      "type": "function"
    },
    {
      "inputs": [
        {
          "internalType": "address",
          "name": "weightToken",
          "type": "address"
        },
        {
          "internalType": "address",
          "name": "token",
          "type": "address"
        }
      ],
      "name": "getWeight",
      "outputs": [
        {
          "internalType": "uint256",
          "name": "weight",
          "type": "uint256"
        }
      ],
      "stateMutability": "view",
      "type": "function"
    },
    {
      "inputs": [
        {
          "internalType": "bytes32",
          "name": "role",
          "type": "bytes32"
        },
        {
          "internalType": "address",
          "name": "account",
          "type": "address"
        }
      ],
      "name": "grantRole",
      "outputs": [],
      "stateMutability": "nonpayable",
      "type": "function"
    },
    {
      "inputs": [
        {
          "internalType": "bytes32",
          "name": "role",
          "type": "bytes32"
        },
        {
          "internalType": "address",
          "name": "account",
          "type": "address"
        }
      ],
      "name": "hasRole",
      "outputs": [
        {
          "internalType": "bool",
          "name": "",
          "type": "bool"
        }
      ],
      "stateMutability": "view",
      "type": "function"
    },
    {
      "inputs": [
        {
          "internalType": "address",
          "name": "_admin",
          "type": "address"
        },
        {
          "internalType": "address",
          "name": "_debtToken",
          "type": "address"
        }
      ],
      "name": "initialize",
      "outputs": [],
      "stateMutability": "nonpayable",
      "type": "function"
    },
    {
      "inputs": [
        {
          "internalType": "address",
          "name": "",
          "type": "address"
        }
      ],
      "name": "lastFlowrateUpdate",
      "outputs": [
        {
          "internalType": "uint256",
          "name": "",
          "type": "uint256"
        }
      ],
      "stateMutability": "view",
      "type": "function"
    },
    {
      "inputs": [
        {
          "internalType": "address",
          "name": "underlyingToken",
          "type": "address"
        },
        {
          "internalType": "uint256",
          "name": "amount",
          "type": "uint256"
        }
      ],
      "name": "onERC20Received",
      "outputs": [],
      "stateMutability": "nonpayable",
      "type": "function"
    },
    {
      "inputs": [],
      "name": "refreshStrategies",
      "outputs": [],
      "stateMutability": "nonpayable",
      "type": "function"
    },
    {
      "inputs": [
        {
          "internalType": "address",
          "name": "underlyingToken",
          "type": "address"
        },
        {
          "internalType": "address",
          "name": "_transmuter",
          "type": "address"
        }
      ],
      "name": "registerAsset",
      "outputs": [],
      "stateMutability": "nonpayable",
      "type": "function"
    },
    {
      "inputs": [
        {
          "internalType": "uint256",
          "name": "",
          "type": "uint256"
        }
      ],
      "name": "registeredUnderlyings",
      "outputs": [
        {
          "internalType": "address",
          "name": "",
          "type": "address"
        }
      ],
      "stateMutability": "view",
      "type": "function"
    },
    {
      "inputs": [
        {
          "internalType": "bytes32",
          "name": "role",
          "type": "bytes32"
        },
        {
          "internalType": "address",
          "name": "account",
          "type": "address"
        }
      ],
      "name": "renounceRole",
      "outputs": [],
      "stateMutability": "nonpayable",
      "type": "function"
    },
    {
      "inputs": [
        {
          "internalType": "bytes32",
          "name": "role",
          "type": "bytes32"
        },
        {
          "internalType": "address",
          "name": "account",
          "type": "address"
        }
      ],
      "name": "revokeRole",
      "outputs": [],
      "stateMutability": "nonpayable",
      "type": "function"
    },
    {
      "inputs": [
        {
          "internalType": "address",
          "name": "_alchemist",
          "type": "address"
        }
      ],
      "name": "setAlchemist",
      "outputs": [],
      "stateMutability": "nonpayable",
      "type": "function"
    },
    {
      "inputs": [
        {
          "internalType": "address",
          "name": "underlyingToken",
          "type": "address"
        },
        {
          "internalType": "address",
          "name": "amo",
          "type": "address"
        }
      ],
      "name": "setAmo",
      "outputs": [],
      "stateMutability": "nonpayable",
      "type": "function"
    },
    {
      "inputs": [
        {
          "internalType": "address",
          "name": "underlyingToken",
          "type": "address"
        },
        {
          "internalType": "bool",
          "name": "divert",
          "type": "bool"
        }
      ],
      "name": "setDivertToAmo",
      "outputs": [],
      "stateMutability": "nonpayable",
      "type": "function"
    },
    {
      "inputs": [
        {
          "internalType": "address",
          "name": "underlyingToken",
          "type": "address"
        },
        {
          "internalType": "uint256",
          "name": "_flowRate",
          "type": "uint256"
        }
      ],
      "name": "setFlowRate",
      "outputs": [],
      "stateMutability": "nonpayable",
      "type": "function"
    },
    {
      "inputs": [
        {
          "internalType": "address",
          "name": "source",
          "type": "address"
        },
        {
          "internalType": "bool",
          "name": "flag",
          "type": "bool"
        }
      ],
      "name": "setSource",
      "outputs": [],
      "stateMutability": "nonpayable",
      "type": "function"
    },
    {
      "inputs": [
        {
          "internalType": "address",
          "name": "underlyingToken",
          "type": "address"
        },
        {
          "internalType": "address",
          "name": "newTransmuter",
          "type": "address"
        }
      ],
      "name": "setTransmuter",
      "outputs": [],
      "stateMutability": "nonpayable",
      "type": "function"
    },
    {
      "inputs": [
        {
          "internalType": "address",
          "name": "weightToken",
          "type": "address"
        },
        {
          "internalType": "address[]",
          "name": "tokens",
          "type": "address[]"
        },
        {
          "internalType": "uint256[]",
          "name": "weights",
          "type": "uint256[]"
        }
      ],
      "name": "setWeights",
      "outputs": [],
      "stateMutability": "nonpayable",
      "type": "function"
    },
    {
      "inputs": [
        {
          "internalType": "address",
          "name": "",
          "type": "address"
        }
      ],
      "name": "sources",
      "outputs": [
        {
          "internalType": "bool",
          "name": "",
          "type": "bool"
        }
      ],
      "stateMutability": "view",
      "type": "function"
    },
    {
      "inputs": [
        {
          "internalType": "bytes4",
          "name": "interfaceId",
          "type": "bytes4"
        }
      ],
      "name": "supportsInterface",
      "outputs": [
        {
          "internalType": "bool",
          "name": "",
          "type": "bool"
        }
      ],
      "stateMutability": "view",
      "type": "function"
    },
    {
      "inputs": [
        {
          "internalType": "address",
          "name": "",
          "type": "address"
        }
      ],
      "name": "transmuter",
      "outputs": [
        {
          "internalType": "address",
          "name": "",
          "type": "address"
        }
      ],
      "stateMutability": "view",
      "type": "function"
    },
    {
      "inputs": [],
      "name": "version",
      "outputs": [
        {
          "internalType": "string",
          "name": "",
          "type": "string"
        }
      ],
      "stateMutability": "view",
      "type": "function"
    },
    {
      "inputs": [
        {
          "internalType": "address",
          "name": "",
          "type": "address"
        }
      ],
      "name": "weightings",
      "outputs": [
        {
          "internalType": "uint256",
          "name": "totalWeight",
          "type": "uint256"
        }
      ],
      "stateMutability": "view",
      "type": "function"
    },
    {
      "inputs": [
        {
          "internalType": "address",
          "name": "underlyingToken",
          "type": "address"
        },
        {
          "internalType": "uint256",
          "name": "amount",
          "type": "uint256"
        },
        {
          "internalType": "address",
          "name": "recipient",
          "type": "address"
        }
      ],
      "name": "withdraw",
      "outputs": [],
      "stateMutability": "nonpayable",
      "type": "function"
    },
    {
      "inputs": [
        {
          "internalType": "address",
          "name": "yieldToken",
          "type": "address"
        },
        {
          "internalType": "uint256",
          "name": "shares",
          "type": "uint256"
        },
        {
          "internalType": "uint256",
          "name": "minimumAmountOut",
          "type": "uint256"
        }
      ],
      "name": "withdrawFromAlchemist",
      "outputs": [],
      "stateMutability": "nonpayable",
      "type": "function"
    }
  ],
  "bytecode": "0x60806040523480156200001157600080fd5b50600154610100900460ff166200002f5760015460ff161562000039565b62000039620000de565b620000a15760405162461bcd60e51b815260206004820152602e60248201527f496e697469616c697a61626c653a20636f6e747261637420697320616c72656160448201526d191e481a5b9a5d1a585b1a5e995960921b606482015260840160405180910390fd5b600154610100900460ff16158015620000c4576001805461ffff19166101011790555b8015620000d7576001805461ff00191690555b5062000102565b6000620000f630620000fc60201b62001e8e1760201c565b15905090565b3b151590565b61377580620001126000396000f3fe608060405234801561001057600080fd5b50600436106102035760003560e01c806212ac341461020857806301ffc9a71461021d57806314d17f9e146102455780632412bdb814610265578063248a9ca31461027857806326128ec9146102995780632a0acc6a146102ac5780632b8c1eed146102c15780632f2ff15d146102d457806336568abe146102e75780633a0ee64d146102fa5780634027fdf81461030d57806340b197f314610320578063485cc955146103335780634dac3435146103465780634fa98251146103595780634fad6bff14610361578063537f46cc1461037457806354fd4d501461039d5780635ad63925146103ce57806369328dec146103f1578063841a0b4a14610404578063862a179e146104175780638aef40581461042c5780638de925f61461044f57806391d14854146104685780639201c4541461047b578063921b004b1461049b57806392b30c3e146104ae578063998d1f02146104c1578063a117789b146104d4578063a217fddf146104f4578063a4817321146104fc578063b750bdde14610535578063bc04f0af14610558578063bda767ab1461056b578063bee3d90e14610594578063cb147588146105b4578063d547741f146105c7578063f1af775f146105da578063f3057608146105ed578063f79d8458146105f5578063f80254ed146105fd578063f8d898981461061d575b600080fd5b61021b610216366004612d92565b610630565b005b61023061022b366004612dcb565b610764565b60405190151581526020015b60405180910390f35b610258610253366004612df5565b61079b565b60405161023c9190612e21565b61021b610273366004612e35565b6107d3565b61028b610286366004612e52565b610813565b60405190815260200161023c565b61028b6102a7366004612e35565b610828565b61028b60008051602061372083398151915281565b61021b6102cf366004612e79565b610880565b61021b6102e2366004612ea7565b61090a565b61021b6102f5366004612ea7565b61092c565b61021b610308366004612ecc565b6109af565b61028b61031b366004612e35565b610a67565b61021b61032e366004612e79565b610aff565b61021b610341366004612d92565b610bc9565b61021b610354366004612df5565b610cf4565b61021b610d7e565b61021b61036f366004612d92565b610ec6565b610258610382366004612e35565b6002602052600090815260409020546001600160a01b031681565b6103c1604051806040016040528060058152602001640322e322e360dc1b81525081565b60405161023c9190612f59565b6102306103dc366004612e35565b600d6020526000908152604090205460ff1681565b61021b6103ff366004612f6c565b611144565b610258610412366004612e52565b611254565b61028b60008051602061370083398151915281565b61028b61043a366004612e35565b600a6020526000908152604090206002015481565b600154610258906201000090046001600160a01b031681565b610230610476366004612ea7565b61127e565b61028b610489366004612e35565b60076020526000908152604090205481565b61021b6104a9366004612df5565b6112a7565b61021b6104bc366004612d92565b611381565b61021b6104cf366004612df5565b611416565b61028b6104e2366004612e35565b60036020526000908152604090205481565b61028b600081565b61028b61050a366004612d92565b6001600160a01b039182166000908152600a6020908152604080832093909416825291909152205490565b610230610543366004612e35565b600b6020526000908152604090205460ff1681565b61021b610566366004612df5565b61148e565b610258610579366004612e35565b600c602052600090815260409020546001600160a01b031681565b61028b6105a2366004612e35565b60056020526000908152604090205481565b61021b6105c23660046130ab565b611693565b61021b6105d5366004612ea7565b611903565b61021b6105e8366004612e35565b611920565b61028b611b18565b61021b611bc2565b61028b61060b366004612e35565b60046020526000908152604090205481565b600954610258906001600160a01b031681565b6106486000805160206137208339815191523361127e565b610664576040516282b42960e81b815260040160405180910390fd5b816001600160a01b0316816001600160a01b0316632495a5996040518163ffffffff1660e01b8152600401602060405180830381865afa1580156106ac573d6000803e3d6000fd5b505050506040513d601f19601f820116820180604052508101906106d09190613190565b6001600160a01b0316146106f757604051630134249960e71b815260040160405180910390fd5b6001600160a01b038281166000908152600260205260409081902080546001600160a01b03191692841692909217909155517f5f5f1867949f882317e4afdbddb02296f5681564a3765f0fbb21bc5b6f506e589061075890849084906131ad565b60405180910390a15050565b60006001600160e01b03198216637965db0b60e01b148061079557506301ffc9a760e01b6001600160e01b03198316145b92915050565b600660205281600052604060002081815481106107b757600080fd5b6000918252602090912001546001600160a01b03169150829050565b6107eb6000805160206137008339815191523361127e565b610807576040516282b42960e81b815260040160405180910390fd5b61081081611e94565b50565b60009081526020819052604090206001015490565b60008061083483610a67565b6001600160a01b03841660009081526005602052604090205490915081101561085d5792915050565b50506001600160a01b031660009081526005602052604090205490565b50919050565b6108986000805160206137208339815191523361127e565b6108b4576040516282b42960e81b815260040160405180910390fd5b6001600160a01b0382166000908152600d602052604090819020805460ff1916831515179055517f38909864ac117912887340db9ae77970b92a73e526f22e9315eaa521b1efeb8a9061075890849084906131c7565b61091382610813565b61091d813361207b565b61092783836120df565b505050565b6001600160a01b03811633146109a15760405162461bcd60e51b815260206004820152602f60248201527f416363657373436f6e74726f6c3a2063616e206f6e6c792072656e6f756e636560448201526e103937b632b9903337b91039b2b63360891b60648201526084015b60405180910390fd5b6109ab8282612163565b5050565b6109c76000805160206137008339815191523361127e565b6109e3576040516282b42960e81b815260040160405180910390fd5b600154604051635322cd1960e11b8152620100009091046001600160a01b03169063a6459a3290610a1e9086908690309087906004016131e2565b6020604051808303816000875af1158015610a3d573d6000803e3d6000fd5b505050506040513d601f19601f82011682018060405250810190610a61919061320c565b50505050565b6000610a7382306121c8565b905060005b6001600160a01b03831660009081526006602052604090205481101561087a576001600160a01b03831660009081526006602052604090208054610ae1919083908110610ac757610ac7613225565b6000918252602090912001546001600160a01b03166122c2565b610aeb9083613251565b915080610af781613269565b915050610a78565b610b176000805160206137208339815191523361127e565b610b33576040516282b42960e81b815260040160405180910390fd5b6001600160a01b0382166000908152600b602052604090205460ff1615158115151415610b7357604051630134249960e71b815260040160405180910390fd5b6001600160a01b0382166000908152600b602052604090819020805460ff1916831515179055517fc55dd2342fb6a4c8580b302e5a10b68c01cdee01d65763a40089df970fd687c59061075890849084906131c7565b600154610100900460ff16610be45760015460ff1615610be8565b303b155b610c4b5760405162461bcd60e51b815260206004820152602e60248201527f496e697469616c697a61626c653a20636f6e747261637420697320616c72656160448201526d191e481a5b9a5d1a585b1a5e995960921b6064820152608401610998565b600154610100900460ff16158015610c6d576001805461ffff19166101011790555b610c856000805160206137208339815191528461245c565b610c9d60008051602061372083398151915280612466565b610cc3600080516020613700833981519152600080516020613720833981519152612466565b600980546001600160a01b0319166001600160a01b0384161790558015610927576001805461ff0019169055505050565b610d0c6000805160206137208339815191523361127e565b610d28576040516282b42960e81b815260040160405180910390fd5b610d3182611e94565b6001600160a01b03821660009081526003602052604090819020829055517f9b851d18ba551205a781cfd2d54e04373b966024d91f688b03448eee2ea1041c906107589084908490613284565b610d966000805160206137008339815191523361127e565b610db2576040516282b42960e81b815260040160405180910390fd5b600154604051632c6a65eb60e21b8152620100009091046001600160a01b03169063b1a997ac90610de7903090600401612e21565b600060405180830381600087803b158015610e0157600080fd5b505af1158015610e15573d6000803e3d6000fd5b505050506000610e23611b18565b905080610e4357604051634a613c4160e01b815260040160405180910390fd5b6001546040516394bf804d60e01b815260048101839052306024820152620100009091046001600160a01b0316906394bf804d90604401600060405180830381600087803b158015610e9457600080fd5b505af1158015610ea8573d6000803e3d6000fd5b505060095461081092508391506001600160a01b03166124b961251e565b610ede6000805160206137208339815191523361127e565b610efa576040516282b42960e81b815260040160405180910390fd5b600154604051632f72a98160e11b8152620100009091046001600160a01b031690635ee5530290610f2f908590600401612e21565b602060405180830381865afa158015610f4c573d6000803e3d6000fd5b505050506040513d601f19601f82011682018060405250810190610f7091906132a8565b610f8d57604051634a613c4160e01b815260040160405180910390fd5b60005b600854811015610ffd57826001600160a01b031660088281548110610fb757610fb7613225565b6000918252602090912001546001600160a01b03161415610feb57604051634a613c4160e01b815260040160405180910390fd5b80610ff581613269565b915050610f90565b50816001600160a01b0316816001600160a01b0316632495a5996040518163ffffffff1660e01b8152600401602060405180830381865afa158015611046573d6000803e3d6000fd5b505050506040513d601f19601f8201168201806040525081019061106a9190613190565b6001600160a01b03161461109157604051630134249960e71b815260040160405180910390fd5b6001600160a01b03808316600081815260026020526040812080548486166001600160a01b0319918216179091556008805460018181018355919093527ff3f7a9fe364faab93b216da50a3214154f22a0a2b415b23a84c8169e8b636ee390920180549091169092179091555461111391849162010000900416600019612629565b7fe3fc1075bf266cb7785ff5a63ee95d60aee4ccbfb42f6f5562e811edc26f6a2082826040516107589291906131ad565b6001600160a01b03838116600090815260026020526040902054849116331461117f576040516282b42960e81b815260040160405180910390fd5b6001600160a01b0384166000908152600560205260409020548311156111b857604051630134249960e71b815260040160405180910390fd5b60006111c485306121c8565b9050808411156111e757604051630134249960e71b815260040160405180910390fd5b6001600160a01b0385166000908152600560205260408120805486929061120f9084906132c5565b90915550506001600160a01b0385166000908152600760205260408120805486929061123c9084906132c5565b9091555061124d9050858486612723565b5050505050565b6008818154811061126457600080fd5b6000918252602090912001546001600160a01b0316905081565b6000918252602082815260408084206001600160a01b0393909316845291905290205460ff1690565b6112bf6000805160206137008339815191523361127e565b6112db576040516282b42960e81b815260040160405180910390fd5b806112f957604051630134249960e71b815260040160405180910390fd5b600061130583306121c8565b90508181101561132857604051630134249960e71b815260040160405180910390fd5b6113318361274b565b506001600160a01b03831660009081526007602052604090205461135583836132c5565b101561137457604051634a613c4160e01b815260040160405180910390fd5b61092782846127d861251e565b6113996000805160206137208339815191523361127e565b6113b5576040516282b42960e81b815260040160405180910390fd5b6001600160a01b038281166000908152600c60205260409081902080546001600160a01b03191692841692909217909155517f57584a919ad37ab32daa3e793f7a0d8a22b05ec1374b1e0e398c31bf04a6cb069061075890849084906131ad565b61142e6000805160206137008339815191523361127e565b61144a576040516282b42960e81b815260040160405180910390fd5b6001600160a01b0382166000908152600d602052604090205460ff1615611475576109ab8282612857565b604051634a613c4160e01b815260040160405180910390fd5b336000908152600b602052604090205460ff166114bd576040516282b42960e81b815260040160405180910390fd5b6001600160a01b0382166000908152600d602052604090205460ff16156114e8576109ab8282612857565b6114f18261274b565b5060006114fe83306121c8565b6001600160a01b0384166000908152600560205260409020549091508110156115c0576001600160a01b03831660009081526007602052604081208054849290611549908490613251565b90915550506001600160a01b0383811660009081526002602052604090819020549051635355655960e01b815260048101859052911690635355655990602401600060405180830381600087803b1580156115a357600080fd5b505af11580156115b7573d6000803e3d6000fd5b50505050505050565b6001600160a01b03831660009081526007602090815260408083205460059092528220546115ee91906132c5565b6001600160a01b03851660009081526007602052604081208054929350839290919061161b908490613251565b90915550506001600160a01b0384811660009081526002602052604090819020549051635355655960e01b815260048101849052911690635355655990602401600060405180830381600087803b15801561167557600080fd5b505af1158015611689573d6000803e3d6000fd5b5050505050505050565b6116ab6000805160206137208339815191523361127e565b6116c7576040516282b42960e81b815260040160405180910390fd5b6001600160a01b0383166000908152600a60205260408120906116ee906001830190612d4f565b6000600282018190555b835181101561124d57600084828151811061171557611715613225565b60209081029190910101516009549091506001600160a01b0387811691161461185257600154604051635a5efc8b60e01b81526000916201000090046001600160a01b031690635a5efc8b9061176f908590600401612e21565b6101e060405180830381865afa15801561178d573d6000803e3d6000fd5b505050506040513d601f19601f820116820180604052508101906117b191906132ed565b9050600081604001516001600160a01b0316632495a5996040518163ffffffff1660e01b8152600401602060405180830381865afa1580156117f7573d6000803e3d6000fd5b505050506040513d601f19601f8201168201806040525081019061181b9190613190565b9050806001600160a01b0316886001600160a01b03161461184f57604051634a613c4160e01b815260040160405180910390fd5b50505b6001838101805491820181556000908152602090200180546001600160a01b0319166001600160a01b038316179055835184908390811061189557611895613225565b6020908102919091018101516001600160a01b03831660009081529185905260409091205583518490839081106118ce576118ce613225565b60200260200101518360020160008282546118e99190613251565b909155508291506118fb905081613269565b9150506116f8565b61190c82610813565b611916813361207b565b6109278383612163565b6119386000805160206137208339815191523361127e565b611954576040516282b42960e81b815260040160405180910390fd5b600180546001600160a01b03620100009182900481166000908152600b6020526040808220805460ff19908116909155868416835291208054909116841790559154041615611a215760005b6008548110156119fc576119ea600882815481106119c0576119c0613225565b60009182526020822001546001546001600160a01b03918216926201000090910490911690612629565b806119f481613269565b9150506119a0565b50600954600154611a21916001600160a01b0390811691620100009004166000612629565b6001805462010000600160b01b031916620100006001600160a01b0384160217905560005b600854811015611aa357611a9160088281548110611a6657611a66613225565b6000918252602090912001546001546001600160a01b03918216916201000090910416600019612629565b80611a9b81613269565b915050611a46565b50600954600154611ac9916001600160a01b039081169162010000900416600019612629565b7fb5f3602a1d2783f0976eae6d619f386b298bd951e94fa8e56bfedf853e7d8875600160029054906101000a90046001600160a01b0316604051611b0d9190612e21565b60405180910390a150565b600154604051632f2e037160e11b81526000918291620100009091046001600160a01b031690635e5c06e290611b52903090600401612e21565b600060405180830381865afa158015611b6f573d6000803e3d6000fd5b505050506040513d6000823e601f3d908101601f19168201604052611b979190810190613426565b5090506000811215611bb957611bb4611baf8261346d565b6128bf565b611bbc565b60005b91505090565b6000600160029054906101000a90046001600160a01b03166001600160a01b0316631b962c786040518163ffffffff1660e01b8152600401600060405180830381865afa158015611c17573d6000803e3d6000fd5b505050506040513d6000823e601f3d908101601f19168201604052611c3f919081019061348a565b90506000600160029054906101000a90046001600160a01b03166001600160a01b0316634a2226356040518163ffffffff1660e01b8152600401600060405180830381865afa158015611c96573d6000803e3d6000fd5b505050506040513d6000823e601f3d908101601f19168201604052611cbe919081019061348a565b805160085491925014611ce457604051634a613c4160e01b815260040160405180910390fd5b60005b600854811015611d47576006600060088381548110611d0857611d08613225565b60009182526020808320909101546001600160a01b031683528201929092526040018120611d3591612d4f565b80611d3f81613269565b915050611ce7565b50815160005b81811015611e5f576000848281518110611d6957611d69613225565b602002602001015190506000600160029054906101000a90046001600160a01b03166001600160a01b0316635a5efc8b836040518263ffffffff1660e01b8152600401611db69190612e21565b6101e060405180830381865afa158015611dd4573d6000803e3d6000fd5b505050506040513d601f19601f82011682018060405250810190611df891906132ed565b9050806101c0015115611e4a576020818101516001600160a01b0390811660009081526006835260408120805460018101825590825292902090910180546001600160a01b0319169184169190911790555b50508080611e5790613269565b915050611d4d565b506040517fdfe7090a5461eb5a45d9e05a1317dfcd47d74fd2f14e0989619808f3aac43aa590600090a1505050565b3b151590565b611e9d8161274b565b506000611ea982610a67565b90506000611eb783306121c8565b6001600160a01b03841660009081526005602052604081205491925090831015611eec57611ee582846132c5565b9050611f33565b6001600160a01b038416600090815260056020526040902054821015611f33576001600160a01b038416600090815260056020526040902054611f309083906132c5565b90505b8015611f4657611f4681856128e661251e565b6000611f5285306121c8565b6001600160a01b03861660009081526005602052604081205491925090821115611fac576001600160a01b038616600090815260076020908152604080832054600590925290912054611fa591906132c5565b9050611fd2565b6001600160a01b038616600090815260076020526040902054611fcf90836132c5565b90505b8015612073576001600160a01b03861660009081526007602052604081208054839290612000908490613251565b90915550506001600160a01b0386811660009081526002602052604090819020549051635355655960e01b815260048101849052911690635355655990602401600060405180830381600087803b15801561205a57600080fd5b505af115801561206e573d6000803e3d6000fd5b505050505b505050505050565b612085828261127e565b6109ab5761209d816001600160a01b03166014612ad4565b6120a8836020612ad4565b6040516020016120b99291906134be565b60408051601f198184030181529082905262461bcd60e51b825261099891600401612f59565b6120e9828261127e565b6109ab576000828152602081815260408083206001600160a01b03851684529091529020805460ff1916600117905561211f3390565b6001600160a01b0316816001600160a01b0316837f2f8788117e7eff1d82e926ec794901d17c78024a50270940304540a733656f0d60405160405180910390a45050565b61216d828261127e565b156109ab576000828152602081815260408083206001600160a01b0385168085529252808320805460ff1916905551339285917ff6391f5c32d9c69d2a47ea670b442974b53935d1edc7fd64eb21e047a839171b9190a45050565b6000806000846001600160a01b03166370a0823160e01b856040516024016121f09190612e21565b60408051601f198184030181529181526020820180516001600160e01b03166001600160e01b031990941693909317909252905161222e919061352d565b600060405180830381855afa9150503d8060008114612269576040519150601f19603f3d011682016040523d82523d6000602084013e61226e565b606091505b5091509150811580612281575060208151105b156122a55784828260405163e7e40b5b60e01b815260040161099893929190613549565b808060200190518101906122b9919061320c565b95945050505050565b600154604051634bd2144560e01b81526000918291620100009091046001600160a01b031690634bd21445906122fe90309087906004016131ad565b6040805180830381865afa15801561231a573d6000803e3d6000fd5b505050506040513d601f19601f8201168201806040525081019061233e9190613575565b50600154604051635a5efc8b60e01b8152919250600091620100009091046001600160a01b031690635a5efc8b9061237a908790600401612e21565b6101e060405180830381865afa158015612398573d6000803e3d6000fd5b505050506040513d601f19601f820116820180604052508101906123bc91906132ed565b60015460405163447378ad60e11b8152919250600091620100009091046001600160a01b0316906388e6f15a906123f7908890600401612e21565b602060405180830381865afa158015612414573d6000803e3d6000fd5b505050506040513d601f19601f82011682018060405250810190612438919061320c565b825190915061244890600a61367d565b612452828561368c565b6122b991906136ab565b6109ab82826120df565b600061247183610813565b600084815260208190526040808220600101859055519192508391839186917fbd79b86ffe0ab8e8776151514217cd7cacd52c909f66475c3af44e129f0b00ff9190a4505050565b60015460405163e69d849d60e01b8152620100009091046001600160a01b03169063e69d849d906124f09085908590600401613284565b600060405180830381600087803b15801561250a57600080fd5b505af1158015612073573d6000803e3d6000fd5b600154604051632c6a65eb60e21b8152620100009091046001600160a01b03169063b1a997ac90612553903090600401612e21565b600060405180830381600087803b15801561256d57600080fd5b505af1158015612581573d6000803e3d6000fd5b5050506001600160a01b0383166000908152600a6020526040812091505b600182015481101561124d5760008260010182815481106125c2576125c2613225565b600091825260208083209091015460028601546001600160a01b03909116808452918690526040832054919350906125fa908961368c565b61260491906136ab565b905061261482828763ffffffff16565b5050808061262190613269565b91505061259f565b600080846001600160a01b031663095ea7b360e01b8585604051602401612651929190613284565b60408051601f198184030181529181526020820180516001600160e01b03166001600160e01b031990941693909317909252905161268f919061352d565b6000604051808303816000865af19150503d80600081146126cc576040519150601f19603f3d011682016040523d82523d6000602084013e6126d1565b606091505b50915091508115806126ff57508051158015906126ff5750808060200190518101906126fd91906132a8565b155b1561124d5784828260405163e7e40b5b60e01b815260040161099893929190613549565b600080846001600160a01b031663a9059cbb60e01b8585604051602401612651929190613284565b6001600160a01b038116600090815260036020908152604080832054600490925282205482919061277c90426132c5565b612786919061368c565b6001600160a01b0384166000908152600560205260408120805492935083929091906127b3908490613251565b90915550506001600160a01b0390921660009081526004602052604090204290555090565b600154604051635efd4dd760e11b8152620100009091046001600160a01b03169063bdfa9bae90612814908590859030906000906004016131e2565b6020604051808303816000875af1158015612833573d6000803e3d6000fd5b505050506040513d601f19601f82011682018060405250810190610927919061320c565b6001600160a01b038083166000908152600c602052604090205461287e9184911683612723565b6001600160a01b038083166000908152600c60205260409081902054905163bc04f0af60e01b815291169063bc04f0af906124f09085908590600401613284565b6000808212156128e257604051630134249960e71b815260040160405180910390fd5b5090565b60006128f183612c76565b60015460405163447378ad60e11b8152919250600091620100009091046001600160a01b0316906388e6f15a9061292c908790600401612e21565b602060405180830381865afa158015612949573d6000803e3d6000fd5b505050506040513d601f19601f8201168201806040525081019061296d919061320c565b905060008161297d84600a61367d565b612987908661368c565b61299191906136ab565b600154604051634bd2144560e01b815291925060009182916201000090046001600160a01b031690634bd21445906129cf9030908b906004016131ad565b6040805180830381865afa1580156129eb573d6000803e3d6000fd5b505050506040513d601f19601f82011682018060405250810190612a0f9190613575565b9150915081831115612a1f578192505b6000612710612a2f88606461368c565b612a3991906136ab565b612a4390886132c5565b9050831561168957600154604051635322cd1960e11b8152620100009091046001600160a01b03169063a6459a3290612a86908b908890309087906004016131e2565b6020604051808303816000875af1158015612aa5573d6000803e3d6000fd5b505050506040513d601f19601f82011682018060405250810190612ac9919061320c565b505050505050505050565b60606000612ae383600261368c565b612aee906002613251565b6001600160401b03811115612b0557612b05612fae565b6040519080825280601f01601f191660200182016040528015612b2f576020820181803683370190505b509050600360fc1b81600081518110612b4a57612b4a613225565b60200101906001600160f81b031916908160001a905350600f60fb1b81600181518110612b7957612b79613225565b60200101906001600160f81b031916908160001a9053506000612b9d84600261368c565b612ba8906001613251565b90505b6001811115612c20576f181899199a1a9b1b9c1cb0b131b232b360811b85600f1660108110612bdc57612bdc613225565b1a60f81b828281518110612bf257612bf2613225565b60200101906001600160f81b031916908160001a90535060049490941c93612c19816136cd565b9050612bab565b508315612c6f5760405162461bcd60e51b815260206004820181905260248201527f537472696e67733a20686578206c656e67746820696e73756666696369656e746044820152606401610998565b9392505050565b60408051600481526024810182526020810180516001600160e01b031663313ce56760e01b1790529051600091829182916001600160a01b03861691612cbc919061352d565b600060405180830381855afa9150503d8060008114612cf7576040519150601f19603f3d011682016040523d82523d6000602084013e612cfc565b606091505b5091509150811580612d0f575060208151105b15612d335783828260405163e7e40b5b60e01b815260040161099893929190613549565b80806020019051810190612d4791906136e4565b949350505050565b508054600082559060005260206000209081019061081091905b808211156128e25760008155600101612d69565b6001600160a01b038116811461081057600080fd5b60008060408385031215612da557600080fd5b8235612db081612d7d565b91506020830135612dc081612d7d565b809150509250929050565b600060208284031215612ddd57600080fd5b81356001600160e01b031981168114612c6f57600080fd5b60008060408385031215612e0857600080fd5b8235612e1381612d7d565b946020939093013593505050565b6001600160a01b0391909116815260200190565b600060208284031215612e4757600080fd5b8135612c6f81612d7d565b600060208284031215612e6457600080fd5b5035919050565b801515811461081057600080fd5b60008060408385031215612e8c57600080fd5b8235612e9781612d7d565b91506020830135612dc081612e6b565b60008060408385031215612eba57600080fd5b823591506020830135612dc081612d7d565b600080600060608486031215612ee157600080fd5b8335612eec81612d7d565b95602085013595506040909401359392505050565b60005b83811015612f1c578181015183820152602001612f04565b83811115610a615750506000910152565b60008151808452612f45816020860160208601612f01565b601f01601f19169290920160200192915050565b602081526000612c6f6020830184612f2d565b600080600060608486031215612f8157600080fd5b8335612f8c81612d7d565b9250602084013591506040840135612fa381612d7d565b809150509250925092565b634e487b7160e01b600052604160045260246000fd5b6040516101e081016001600160401b0381118282101715612fe757612fe7612fae565b60405290565b604051601f8201601f191681016001600160401b038111828210171561301557613015612fae565b604052919050565b60006001600160401b0382111561303657613036612fae565b5060051b60200190565b600082601f83011261305157600080fd5b813560206130666130618361301d565b612fed565b82815260059290921b8401810191818101908684111561308557600080fd5b8286015b848110156130a05780358352918301918301613089565b509695505050505050565b6000806000606084860312156130c057600080fd5b83356130cb81612d7d565b92506020848101356001600160401b03808211156130e857600080fd5b818701915087601f8301126130fc57600080fd5b813561310a6130618261301d565b81815260059190911b8301840190848101908a83111561312957600080fd5b938501935b8285101561315057843561314181612d7d565b8252938501939085019061312e565b96505050604087013592508083111561316857600080fd5b505061317686828701613040565b9150509250925092565b805161318b81612d7d565b919050565b6000602082840312156131a257600080fd5b8151612c6f81612d7d565b6001600160a01b0392831681529116602082015260400190565b6001600160a01b039290921682521515602082015260400190565b6001600160a01b039485168152602081019390935292166040820152606081019190915260800190565b60006020828403121561321e57600080fd5b5051919050565b634e487b7160e01b600052603260045260246000fd5b634e487b7160e01b600052601160045260246000fd5b600082198211156132645761326461323b565b500190565b600060001982141561327d5761327d61323b565b5060010190565b6001600160a01b03929092168252602082015260400190565b805161318b81612e6b565b6000602082840312156132ba57600080fd5b8151612c6f81612e6b565b6000828210156132d7576132d761323b565b500390565b805160ff8116811461318b57600080fd5b60006101e0828403121561330057600080fd5b613308612fc4565b613311836132dc565b815261331f60208401613180565b602082015261333060408401613180565b6040820152606083810151908201526080808401519082015260a0808401519082015260c0808401519082015260e08084015190820152610100808401519082015261012080840151908201526101408084015190820152610160808401519082015261018080840151908201526101a080840151908201526101c06133b781850161329d565b908201529392505050565b600082601f8301126133d357600080fd5b815160206133e36130618361301d565b82815260059290921b8401810191818101908684111561340257600080fd5b8286015b848110156130a057805161341981612d7d565b8352918301918301613406565b6000806040838503121561343957600080fd5b825160208401519092506001600160401b0381111561345757600080fd5b613463858286016133c2565b9150509250929050565b6000600160ff1b8214156134835761348361323b565b5060000390565b60006020828403121561349c57600080fd5b81516001600160401b038111156134b257600080fd5b612d47848285016133c2565b76020b1b1b2b9b9a1b7b73a3937b61d1030b1b1b7bab73a1604d1b8152600083516134f0816017850160208801612f01565b7001034b99036b4b9b9b4b733903937b6329607d1b6017918401918201528351613521816028840160208801612f01565b01602801949350505050565b6000825161353f818460208701612f01565b9190910192915050565b6001600160a01b038416815282151560208201526060604082018190526000906122b990830184612f2d565b6000806040838503121561358857600080fd5b505080516020909101519092909150565b600181815b808511156135d45781600019048211156135ba576135ba61323b565b808516156135c757918102915b93841c939080029061359e565b509250929050565b6000826135eb57506001610795565b816135f857506000610795565b816001811461360e576002811461361857613634565b6001915050610795565b60ff8411156136295761362961323b565b50506001821b610795565b5060208310610133831016604e8410600b8410161715613657575081810a610795565b6136618383613599565b80600019048211156136755761367561323b565b029392505050565b6000612c6f60ff8416836135dc565b60008160001904831182151516156136a6576136a661323b565b500290565b6000826136c857634e487b7160e01b600052601260045260246000fd5b500490565b6000816136dc576136dc61323b565b506000190190565b6000602082840312156136f657600080fd5b612c6f826132dc56fe71a9859d7dd21b24504a6f306077ffc2d510b4d4b61128e931fe937441ad1836df8b4c520ffe197c5343c6f5aec59570151ef9a492f2c624fd45ddde6135ec42a2646970667358221220362bd44fdfb545986a5d7112edbdfa535f093c1b79980a8d4fb7f85c1c19f34364736f6c634300080b0033",
  "linkReferences": {},
  "deployedLinkReferences": {}
}