{
  "_format": "hh-sol-artifact-1",
  "contractName": "TransmuterBuffer",
  "sourceName": "contracts/TransmuterBuffer.sol",
  "abi": [
    {
      "inputs": [],
      "stateMutability": "nonpayable",
      "type": "constructor"
    },
    {
      "inputs": [
        {
          "internalType": "address",
          "name": "target",
          "type": "address"
        },
        {
          "internalType": "bool",
          "name": "success",
          "type": "bool"
        },
        {
          "internalType": "bytes",
          "name": "data",
          "type": "bytes"
        }
      ],
      "name": "ERC20CallFailed",
      "type": "error"
    },
    {
      "inputs": [],
      "name": "IllegalArgument",
      "type": "error"
    },
    {
      "inputs": [],
      "name": "IllegalState",
      "type": "error"
    },
    {
      "inputs": [],
      "name": "Unauthorized",
      "type": "error"
    },
    {
      "anonymous": false,
      "inputs": [],
      "name": "RefreshStrategies",
      "type": "event"
    },
    {
      "anonymous": false,
      "inputs": [
        {
          "indexed": false,
          "internalType": "address",
          "name": "underlyingToken",
          "type": "address"
        },
        {
          "indexed": false,
          "internalType": "address",
          "name": "transmuter",
          "type": "address"
        }
      ],
      "name": "RegisterAsset",
      "type": "event"
    },
    {
      "anonymous": false,
      "inputs": [
        {
          "indexed": true,
          "internalType": "bytes32",
          "name": "role",
          "type": "bytes32"
        },
        {
          "indexed": true,
          "internalType": "bytes32",
          "name": "previousAdminRole",
          "type": "bytes32"
        },
        {
          "indexed": true,
          "internalType": "bytes32",
          "name": "newAdminRole",
          "type": "bytes32"
        }
      ],
      "name": "RoleAdminChanged",
      "type": "event"
    },
    {
      "anonymous": false,
      "inputs": [
        {
          "indexed": true,
          "internalType": "bytes32",
          "name": "role",
          "type": "bytes32"
        },
        {
          "indexed": true,
          "internalType": "address",
          "name": "account",
          "type": "address"
        },
        {
          "indexed": true,
          "internalType": "address",
          "name": "sender",
          "type": "address"
        }
      ],
      "name": "RoleGranted",
      "type": "event"
    },
    {
      "anonymous": false,
      "inputs": [
        {
          "indexed": true,
          "internalType": "bytes32",
          "name": "role",
          "type": "bytes32"
        },
        {
          "indexed": true,
          "internalType": "address",
          "name": "account",
          "type": "address"
        },
        {
          "indexed": true,
          "internalType": "address",
          "name": "sender",
          "type": "address"
        }
      ],
      "name": "RoleRevoked",
      "type": "event"
    },
    {
      "anonymous": false,
      "inputs": [
        {
          "indexed": false,
          "internalType": "address",
          "name": "alchemist",
          "type": "address"
        }
      ],
      "name": "SetAlchemist",
      "type": "event"
    },
    {
      "anonymous": false,
      "inputs": [
        {
          "indexed": false,
          "internalType": "address",
          "name": "underlyingToken",
          "type": "address"
        },
        {
          "indexed": false,
          "internalType": "uint256",
          "name": "flowRate",
          "type": "uint256"
        }
      ],
      "name": "SetFlowRate",
      "type": "event"
    },
    {
      "anonymous": false,
      "inputs": [
        {
          "indexed": false,
          "internalType": "address",
          "name": "source",
          "type": "address"
        },
        {
          "indexed": false,
          "internalType": "bool",
          "name": "flag",
          "type": "bool"
        }
      ],
      "name": "SetSource",
      "type": "event"
    },
    {
      "anonymous": false,
      "inputs": [
        {
          "indexed": false,
          "internalType": "address",
          "name": "underlyingToken",
          "type": "address"
        },
        {
          "indexed": false,
          "internalType": "address",
          "name": "transmuter",
          "type": "address"
        }
      ],
      "name": "SetTransmuter",
      "type": "event"
    },
    {
      "inputs": [],
      "name": "ADMIN",
      "outputs": [
        {
          "internalType": "bytes32",
          "name": "",
          "type": "bytes32"
        }
      ],
      "stateMutability": "view",
      "type": "function"
    },
    {
      "inputs": [],
      "name": "DEFAULT_ADMIN_ROLE",
      "outputs": [
        {
          "internalType": "bytes32",
          "name": "",
          "type": "bytes32"
        }
      ],
      "stateMutability": "view",
      "type": "function"
    },
    {
      "inputs": [],
      "name": "KEEPER",
      "outputs": [
        {
          "internalType": "bytes32",
          "name": "",
          "type": "bytes32"
        }
      ],
      "stateMutability": "view",
      "type": "function"
    },
    {
      "inputs": [
        {
          "internalType": "address",
          "name": "",
          "type": "address"
        },
        {
          "internalType": "uint256",
          "name": "",
          "type": "uint256"
        }
      ],
      "name": "_yieldTokens",
      "outputs": [
        {
          "internalType": "address",
          "name": "",
          "type": "address"
        }
      ],
      "stateMutability": "view",
      "type": "function"
    },
    {
      "inputs": [],
      "name": "alchemist",
      "outputs": [
        {
          "internalType": "address",
          "name": "",
          "type": "address"
        }
      ],
      "stateMutability": "view",
      "type": "function"
    },
    {
      "inputs": [],
      "name": "burnCredit",
      "outputs": [],
      "stateMutability": "nonpayable",
      "type": "function"
    },
    {
      "inputs": [
        {
          "internalType": "address",
          "name": "",
          "type": "address"
        }
      ],
      "name": "currentExchanged",
      "outputs": [
        {
          "internalType": "uint256",
          "name": "",
          "type": "uint256"
        }
      ],
      "stateMutability": "view",
      "type": "function"
    },
    {
      "inputs": [],
      "name": "debtToken",
      "outputs": [
        {
          "internalType": "address",
          "name": "",
          "type": "address"
        }
      ],
      "stateMutability": "view",
      "type": "function"
    },
    {
      "inputs": [
        {
          "internalType": "address",
          "name": "underlyingToken",
          "type": "address"
        },
        {
          "internalType": "uint256",
          "name": "amount",
          "type": "uint256"
        }
      ],
      "name": "depositFunds",
      "outputs": [],
      "stateMutability": "nonpayable",
      "type": "function"
    },
    {
      "inputs": [
        {
          "internalType": "address",
          "name": "underlyingToken",
          "type": "address"
        }
      ],
      "name": "exchange",
      "outputs": [],
      "stateMutability": "nonpayable",
      "type": "function"
    },
    {
      "inputs": [
        {
          "internalType": "address",
          "name": "",
          "type": "address"
        }
      ],
      "name": "flowAvailable",
      "outputs": [
        {
          "internalType": "uint256",
          "name": "",
          "type": "uint256"
        }
      ],
      "stateMutability": "view",
      "type": "function"
    },
    {
      "inputs": [
        {
          "internalType": "address",
          "name": "",
          "type": "address"
        }
      ],
      "name": "flowRate",
      "outputs": [
        {
          "internalType": "uint256",
          "name": "",
          "type": "uint256"
        }
      ],
      "stateMutability": "view",
      "type": "function"
    },
    {
      "inputs": [
        {
          "internalType": "address",
          "name": "underlyingToken",
          "type": "address"
        }
      ],
      "name": "getAvailableFlow",
      "outputs": [
        {
          "internalType": "uint256",
          "name": "",
          "type": "uint256"
        }
      ],
      "stateMutability": "view",
      "type": "function"
    },
    {
      "inputs": [
        {
          "internalType": "bytes32",
          "name": "role",
          "type": "bytes32"
        }
      ],
      "name": "getRoleAdmin",
      "outputs": [
        {
          "internalType": "bytes32",
          "name": "",
          "type": "bytes32"
        }
      ],
      "stateMutability": "view",
      "type": "function"
    },
    {
      "inputs": [],
      "name": "getTotalCredit",
      "outputs": [
        {
          "internalType": "uint256",
          "name": "credit",
          "type": "uint256"
        }
      ],
      "stateMutability": "view",
      "type": "function"
    },
    {
      "inputs": [
        {
          "internalType": "address",
          "name": "underlyingToken",
          "type": "address"
        }
      ],
      "name": "getTotalUnderlyingBuffered",
      "outputs": [
        {
          "internalType": "uint256",
          "name": "totalBuffered",
          "type": "uint256"
        }
      ],
      "stateMutability": "view",
      "type": "function"
    },
    {
      "inputs": [
        {
          "internalType": "address",
          "name": "weightToken",
          "type": "address"
        },
        {
          "internalType": "address",
          "name": "token",
          "type": "address"
        }
      ],
      "name": "getWeight",
      "outputs": [
        {
          "internalType": "uint256",
          "name": "weight",
          "type": "uint256"
        }
      ],
      "stateMutability": "view",
      "type": "function"
    },
    {
      "inputs": [
        {
          "internalType": "bytes32",
          "name": "role",
          "type": "bytes32"
        },
        {
          "internalType": "address",
          "name": "account",
          "type": "address"
        }
      ],
      "name": "grantRole",
      "outputs": [],
      "stateMutability": "nonpayable",
      "type": "function"
    },
    {
      "inputs": [
        {
          "internalType": "bytes32",
          "name": "role",
          "type": "bytes32"
        },
        {
          "internalType": "address",
          "name": "account",
          "type": "address"
        }
      ],
      "name": "hasRole",
      "outputs": [
        {
          "internalType": "bool",
          "name": "",
          "type": "bool"
        }
      ],
      "stateMutability": "view",
      "type": "function"
    },
    {
      "inputs": [
        {
          "internalType": "address",
          "name": "_admin",
          "type": "address"
        },
        {
          "internalType": "address",
          "name": "_debtToken",
          "type": "address"
        }
      ],
      "name": "initialize",
      "outputs": [],
      "stateMutability": "nonpayable",
      "type": "function"
    },
    {
      "inputs": [
        {
          "internalType": "address",
          "name": "",
          "type": "address"
        }
      ],
      "name": "lastFlowrateUpdate",
      "outputs": [
        {
          "internalType": "uint256",
          "name": "",
          "type": "uint256"
        }
      ],
      "stateMutability": "view",
      "type": "function"
    },
    {
      "inputs": [
        {
          "internalType": "address",
          "name": "underlyingToken",
          "type": "address"
        },
        {
          "internalType": "uint256",
          "name": "amount",
          "type": "uint256"
        }
      ],
      "name": "onERC20Received",
      "outputs": [],
      "stateMutability": "nonpayable",
      "type": "function"
    },
    {
      "inputs": [],
      "name": "refreshStrategies",
      "outputs": [],
      "stateMutability": "nonpayable",
      "type": "function"
    },
    {
      "inputs": [
        {
          "internalType": "address",
          "name": "underlyingToken",
          "type": "address"
        },
        {
          "internalType": "address",
          "name": "_transmuter",
          "type": "address"
        }
      ],
      "name": "registerAsset",
      "outputs": [],
      "stateMutability": "nonpayable",
      "type": "function"
    },
    {
      "inputs": [
        {
          "internalType": "uint256",
          "name": "",
          "type": "uint256"
        }
      ],
      "name": "registeredUnderlyings",
      "outputs": [
        {
          "internalType": "address",
          "name": "",
          "type": "address"
        }
      ],
      "stateMutability": "view",
      "type": "function"
    },
    {
      "inputs": [
        {
          "internalType": "bytes32",
          "name": "role",
          "type": "bytes32"
        },
        {
          "internalType": "address",
          "name": "account",
          "type": "address"
        }
      ],
      "name": "renounceRole",
      "outputs": [],
      "stateMutability": "nonpayable",
      "type": "function"
    },
    {
      "inputs": [
        {
          "internalType": "bytes32",
          "name": "role",
          "type": "bytes32"
        },
        {
          "internalType": "address",
          "name": "account",
          "type": "address"
        }
      ],
      "name": "revokeRole",
      "outputs": [],
      "stateMutability": "nonpayable",
      "type": "function"
    },
    {
      "inputs": [
        {
          "internalType": "address",
          "name": "_alchemist",
          "type": "address"
        }
      ],
      "name": "setAlchemist",
      "outputs": [],
      "stateMutability": "nonpayable",
      "type": "function"
    },
    {
      "inputs": [
        {
          "internalType": "address",
          "name": "underlyingToken",
          "type": "address"
        },
        {
          "internalType": "uint256",
          "name": "_flowRate",
          "type": "uint256"
        }
      ],
      "name": "setFlowRate",
      "outputs": [],
      "stateMutability": "nonpayable",
      "type": "function"
    },
    {
      "inputs": [
        {
          "internalType": "address",
          "name": "source",
          "type": "address"
        },
        {
          "internalType": "bool",
          "name": "flag",
          "type": "bool"
        }
      ],
      "name": "setSource",
      "outputs": [],
      "stateMutability": "nonpayable",
      "type": "function"
    },
    {
      "inputs": [
        {
          "internalType": "address",
          "name": "underlyingToken",
          "type": "address"
        },
        {
          "internalType": "address",
          "name": "newTransmuter",
          "type": "address"
        }
      ],
      "name": "setTransmuter",
      "outputs": [],
      "stateMutability": "nonpayable",
      "type": "function"
    },
    {
      "inputs": [
        {
          "internalType": "address",
          "name": "weightToken",
          "type": "address"
        },
        {
          "internalType": "address[]",
          "name": "tokens",
          "type": "address[]"
        },
        {
          "internalType": "uint256[]",
          "name": "weights",
          "type": "uint256[]"
        }
      ],
      "name": "setWeights",
      "outputs": [],
      "stateMutability": "nonpayable",
      "type": "function"
    },
    {
      "inputs": [
        {
          "internalType": "address",
          "name": "",
          "type": "address"
        }
      ],
      "name": "sources",
      "outputs": [
        {
          "internalType": "bool",
          "name": "",
          "type": "bool"
        }
      ],
      "stateMutability": "view",
      "type": "function"
    },
    {
      "inputs": [
        {
          "internalType": "bytes4",
          "name": "interfaceId",
          "type": "bytes4"
        }
      ],
      "name": "supportsInterface",
      "outputs": [
        {
          "internalType": "bool",
          "name": "",
          "type": "bool"
        }
      ],
      "stateMutability": "view",
      "type": "function"
    },
    {
      "inputs": [
        {
          "internalType": "address",
          "name": "",
          "type": "address"
        }
      ],
      "name": "transmuter",
      "outputs": [
        {
          "internalType": "address",
          "name": "",
          "type": "address"
        }
      ],
      "stateMutability": "view",
      "type": "function"
    },
    {
      "inputs": [],
      "name": "version",
      "outputs": [
        {
          "internalType": "string",
          "name": "",
          "type": "string"
        }
      ],
      "stateMutability": "view",
      "type": "function"
    },
    {
      "inputs": [
        {
          "internalType": "address",
          "name": "",
          "type": "address"
        }
      ],
      "name": "weightings",
      "outputs": [
        {
          "internalType": "uint256",
          "name": "totalWeight",
          "type": "uint256"
        }
      ],
      "stateMutability": "view",
      "type": "function"
    },
    {
      "inputs": [
        {
          "internalType": "address",
          "name": "underlyingToken",
          "type": "address"
        },
        {
          "internalType": "uint256",
          "name": "amount",
          "type": "uint256"
        },
        {
          "internalType": "address",
          "name": "recipient",
          "type": "address"
        }
      ],
      "name": "withdraw",
      "outputs": [],
      "stateMutability": "nonpayable",
      "type": "function"
    },
    {
      "inputs": [
        {
          "internalType": "address",
          "name": "yieldToken",
          "type": "address"
        },
        {
          "internalType": "uint256",
          "name": "shares",
          "type": "uint256"
        },
        {
          "internalType": "uint256",
          "name": "minimumAmountOut",
          "type": "uint256"
        }
      ],
      "name": "withdrawFromAlchemist",
      "outputs": [],
      "stateMutability": "nonpayable",
      "type": "function"
    }
  ],
  "bytecode": "0x60806040523480156200001157600080fd5b50600154610100900460ff166200002f5760015460ff161562000039565b62000039620000de565b620000a15760405162461bcd60e51b815260206004820152602e60248201527f496e697469616c697a61626c653a20636f6e747261637420697320616c72656160448201526d191e481a5b9a5d1a585b1a5e995960921b606482015260840160405180910390fd5b600154610100900460ff16158015620000c4576001805461ffff19166101011790555b8015620000d7576001805461ff00191690555b5062000102565b6000620000f630620000fc60201b62001c931760201c565b15905090565b3b151590565b6134ba80620001126000396000f3fe608060405234801561001057600080fd5b506004361061023c5760003560e01c8063841a0b4a1161013b578063b750bdde116100b8578063f1af775f1161007c578063f1af775f146105a9578063f3057608146105bc578063f79d8458146105c4578063f80254ed146105cc578063f8d89898146105ec57600080fd5b8063b750bdde1461052d578063bc04f0af14610550578063bee3d90e14610563578063cb14758814610583578063d547741f1461059657600080fd5b80639201c454116100ff5780639201c45414610499578063921b004b146104b9578063a117789b146104cc578063a217fddf146104ec578063a4817321146104f457600080fd5b8063841a0b4a14610422578063862a179e146104355780638aef40581461044a5780638de925f61461046d57806391d148541461048657600080fd5b80633a0ee64d116101c95780634fa982511161018d5780634fa982511461039a5780634fad6bff146103a2578063537f46cc146103b557806354fd4d50146103de57806369328dec1461040f57600080fd5b80633a0ee64d1461033b5780634027fdf81461034e57806340b197f314610361578063485cc955146103745780634dac34351461038757600080fd5b8063248a9ca311610210578063248a9ca3146102bc57806326128ec9146102ed5780632a0acc6a146103005780632f2ff15d1461031557806336568abe1461032857600080fd5b806212ac341461024157806301ffc9a71461025657806314d17f9e1461027e5780632412bdb8146102a9575b600080fd5b61025461024f366004612b2e565b6105ff565b005b610269610264366004612b67565b610732565b60405190151581526020015b60405180910390f35b61029161028c366004612b91565b610769565b6040516001600160a01b039091168152602001610275565b6102546102b7366004612bbd565b6107a1565b6102df6102ca366004612bda565b60009081526020819052604090206001015490565b604051908152602001610275565b6102df6102fb366004612bbd565b6107e1565b6102df60008051602061346583398151915281565b610254610323366004612bf3565b610839565b610254610336366004612bf3565b610864565b610254610349366004612c18565b6108e7565b6102df61035c366004612bbd565b61099f565b61025461036f366004612c5b565b610a37565b610254610382366004612b2e565b610b07565b610254610395366004612b91565b610c32565b610254610cc0565b6102546103b0366004612b2e565b610e03565b6102916103c3366004612bbd565b6002602052600090815260409020546001600160a01b031681565b610402604051806040016040528060058152602001640322e312e360dc1b81525081565b6040516102759190612ce1565b61025461041d366004612cf4565b61108f565b610291610430366004612bda565b61119f565b6102df60008051602061344583398151915281565b6102df610458366004612bbd565b600a6020526000908152604090206002015481565b600154610291906201000090046001600160a01b031681565b610269610494366004612bf3565b6111c9565b6102df6104a7366004612bbd565b60076020526000908152604090205481565b6102546104c7366004612b91565b6111f2565b6102df6104da366004612bbd565b60036020526000908152604090205481565b6102df600081565b6102df610502366004612b2e565b6001600160a01b039182166000908152600a6020908152604080832093909416825291909152205490565b61026961053b366004612bbd565b600b6020526000908152604090205460ff1681565b61025461055e366004612b91565b6112cc565b6102df610571366004612bbd565b60056020526000908152604090205481565b610254610591366004612e36565b6114a6565b6102546105a4366004612bf3565b611713565b6102546105b7366004612bbd565b611739565b6102df61192a565b6102546119cf565b6102df6105da366004612bbd565b60046020526000908152604090205481565b600954610291906001600160a01b031681565b610617600080516020613465833981519152336111c9565b610633576040516282b42960e81b815260040160405180910390fd5b816001600160a01b0316816001600160a01b0316632495a5996040518163ffffffff1660e01b8152600401602060405180830381865afa15801561067b573d6000803e3d6000fd5b505050506040513d601f19601f8201168201806040525081019061069f9190612f1c565b6001600160a01b0316146106c657604051630134249960e71b815260040160405180910390fd5b6001600160a01b0382811660008181526002602090815260409182902080546001600160a01b031916948616948517905581519283528201929092527f5f5f1867949f882317e4afdbddb02296f5681564a3765f0fbb21bc5b6f506e5891015b60405180910390a15050565b60006001600160e01b03198216637965db0b60e01b148061076357506301ffc9a760e01b6001600160e01b03198316145b92915050565b6006602052816000526040600020818154811061078557600080fd5b6000918252602090912001546001600160a01b03169150829050565b6107b9600080516020613445833981519152336111c9565b6107d5576040516282b42960e81b815260040160405180910390fd5b6107de81611c99565b50565b6000806107ed8361099f565b6001600160a01b0384166000908152600560205260409020549091508110156108165792915050565b50506001600160a01b031660009081526005602052604090205490565b50919050565b6000828152602081905260409020600101546108558133611e80565b61085f8383611ee4565b505050565b6001600160a01b03811633146108d95760405162461bcd60e51b815260206004820152602f60248201527f416363657373436f6e74726f6c3a2063616e206f6e6c792072656e6f756e636560448201526e103937b632b9903337b91039b2b63360891b60648201526084015b60405180910390fd5b6108e38282611f68565b5050565b6108ff600080516020613445833981519152336111c9565b61091b576040516282b42960e81b815260040160405180910390fd5b600154604051635322cd1960e11b8152620100009091046001600160a01b03169063a6459a3290610956908690869030908790600401612f39565b6020604051808303816000875af1158015610975573d6000803e3d6000fd5b505050506040513d601f19601f820116820180604052508101906109999190612f63565b50505050565b60006109ab8230611fcd565b905060005b6001600160a01b038316600090815260066020526040902054811015610833576001600160a01b03831660009081526006602052604090208054610a199190839081106109ff576109ff612f7c565b6000918252602090912001546001600160a01b03166120bb565b610a239083612fa8565b915080610a2f81612fc0565b9150506109b0565b610a4f600080516020613465833981519152336111c9565b610a6b576040516282b42960e81b815260040160405180910390fd5b6001600160a01b0382166000908152600b602052604090205460ff1615158115151415610aab57604051630134249960e71b815260040160405180910390fd5b6001600160a01b0382166000818152600b6020908152604091829020805460ff19168515159081179091558251938452908301527fc55dd2342fb6a4c8580b302e5a10b68c01cdee01d65763a40089df970fd687c59101610726565b600154610100900460ff16610b225760015460ff1615610b26565b303b155b610b895760405162461bcd60e51b815260206004820152602e60248201527f496e697469616c697a61626c653a20636f6e747261637420697320616c72656160448201526d191e481a5b9a5d1a585b1a5e995960921b60648201526084016108d0565b600154610100900460ff16158015610bab576001805461ffff19166101011790555b610bc360008051602061346583398151915284612256565b610bdb60008051602061346583398151915280612260565b610c01600080516020613445833981519152600080516020613465833981519152612260565b600980546001600160a01b0319166001600160a01b038416179055801561085f576001805461ff0019169055505050565b610c4a600080516020613465833981519152336111c9565b610c66576040516282b42960e81b815260040160405180910390fd5b610c6f82611c99565b6001600160a01b038216600081815260036020908152604091829020849055815192835282018390527f9b851d18ba551205a781cfd2d54e04373b966024d91f688b03448eee2ea1041c9101610726565b610cd8600080516020613445833981519152336111c9565b610cf4576040516282b42960e81b815260040160405180910390fd5b600154604051632c6a65eb60e21b8152306004820152620100009091046001600160a01b03169063b1a997ac90602401600060405180830381600087803b158015610d3e57600080fd5b505af1158015610d52573d6000803e3d6000fd5b505050506000610d6061192a565b905080610d8057604051634a613c4160e01b815260040160405180910390fd5b6001546040516394bf804d60e01b815260048101839052306024820152620100009091046001600160a01b0316906394bf804d90604401600060405180830381600087803b158015610dd157600080fd5b505af1158015610de5573d6000803e3d6000fd5b50506009546107de92508391506001600160a01b03166122ab612314565b610e1b600080516020613465833981519152336111c9565b610e37576040516282b42960e81b815260040160405180910390fd5b600154604051632f72a98160e11b81526001600160a01b0384811660048301526201000090920490911690635ee5530290602401602060405180830381865afa158015610e88573d6000803e3d6000fd5b505050506040513d601f19601f82011682018060405250810190610eac9190612fe6565b610ec957604051634a613c4160e01b815260040160405180910390fd5b60005b600854811015610f3957826001600160a01b031660088281548110610ef357610ef3612f7c565b6000918252602090912001546001600160a01b03161415610f2757604051634a613c4160e01b815260040160405180910390fd5b80610f3181612fc0565b915050610ecc565b50816001600160a01b0316816001600160a01b0316632495a5996040518163ffffffff1660e01b8152600401602060405180830381865afa158015610f82573d6000803e3d6000fd5b505050506040513d601f19601f82011682018060405250810190610fa69190612f1c565b6001600160a01b031614610fcd57604051630134249960e71b815260040160405180910390fd5b6001600160a01b03808316600081815260026020526040812080548486166001600160a01b0319918216179091556008805460018181018355919093527ff3f7a9fe364faab93b216da50a3214154f22a0a2b415b23a84c8169e8b636ee390920180549091169092179091555461104f9184916201000090041660001961241a565b604080516001600160a01b038085168252831660208201527fe3fc1075bf266cb7785ff5a63ee95d60aee4ccbfb42f6f5562e811edc26f6a209101610726565b6001600160a01b0383811660009081526002602052604090205484911633146110ca576040516282b42960e81b815260040160405180910390fd5b6001600160a01b03841660009081526005602052604090205483111561110357604051630134249960e71b815260040160405180910390fd5b600061110f8530611fcd565b90508084111561113257604051630134249960e71b815260040160405180910390fd5b6001600160a01b0385166000908152600560205260408120805486929061115a908490613003565b90915550506001600160a01b03851660009081526007602052604081208054869290611187908490613003565b90915550611198905085848661251b565b5050505050565b600881815481106111af57600080fd5b6000918252602090912001546001600160a01b0316905081565b6000918252602082815260408084206001600160a01b0393909316845291905290205460ff1690565b61120a600080516020613445833981519152336111c9565b611226576040516282b42960e81b815260040160405180910390fd5b8061124457604051630134249960e71b815260040160405180910390fd5b60006112508330611fcd565b90508181101561127357604051630134249960e71b815260040160405180910390fd5b61127c8361254e565b506001600160a01b0383166000908152600760205260409020546112a08383613003565b10156112bf57604051634a613c4160e01b815260040160405180910390fd5b61085f82846125db612314565b336000908152600b602052604090205460ff166112fb576040516282b42960e81b815260040160405180910390fd5b6113048261254e565b5060006113118330611fcd565b6001600160a01b0384166000908152600560205260409020549091508110156113d3576001600160a01b0383166000908152600760205260408120805484929061135c908490612fa8565b90915550506001600160a01b0383811660009081526002602052604090819020549051635355655960e01b815260048101859052911690635355655990602401600060405180830381600087803b1580156113b657600080fd5b505af11580156113ca573d6000803e3d6000fd5b50505050505050565b6001600160a01b03831660009081526007602090815260408083205460059092528220546114019190613003565b6001600160a01b03851660009081526007602052604081208054929350839290919061142e908490612fa8565b90915550506001600160a01b0384811660009081526002602052604090819020549051635355655960e01b815260048101849052911690635355655990602401600060405180830381600087803b15801561148857600080fd5b505af115801561149c573d6000803e3d6000fd5b5050505050505050565b6114be600080516020613465833981519152336111c9565b6114da576040516282b42960e81b815260040160405180910390fd5b6001600160a01b0383166000908152600a6020526040812090611501906001830190612aeb565b6000600282018190555b835181101561119857600084828151811061152857611528612f7c565b60209081029190910101516009549091506001600160a01b0387811691161461166257600154604051635a5efc8b60e01b81526001600160a01b0383811660048301526000926201000090041690635a5efc8b906024016101e060405180830381865afa15801561159d573d6000803e3d6000fd5b505050506040513d601f19601f820116820180604052508101906115c1919061302b565b9050600081604001516001600160a01b0316632495a5996040518163ffffffff1660e01b8152600401602060405180830381865afa158015611607573d6000803e3d6000fd5b505050506040513d601f19601f8201168201806040525081019061162b9190612f1c565b9050806001600160a01b0316886001600160a01b03161461165f57604051634a613c4160e01b815260040160405180910390fd5b50505b6001838101805491820181556000908152602090200180546001600160a01b0319166001600160a01b03831617905583518490839081106116a5576116a5612f7c565b6020908102919091018101516001600160a01b03831660009081529185905260409091205583518490839081106116de576116de612f7c565b60200260200101518360020160008282546116f99190612fa8565b9091555082915061170b905081612fc0565b91505061150b565b60008281526020819052604090206001015461172f8133611e80565b61085f8383611f68565b611751600080516020613465833981519152336111c9565b61176d576040516282b42960e81b815260040160405180910390fd5b600180546001600160a01b03620100009182900481166000908152600b6020526040808220805460ff1990811690915586841683529120805490911684179055915404161561183a5760005b60085481101561181557611803600882815481106117d9576117d9612f7c565b60009182526020822001546001546001600160a01b0391821692620100009091049091169061241a565b8061180d81612fc0565b9150506117b9565b5060095460015461183a916001600160a01b039081169162010000900416600061241a565b6001805462010000600160b01b031916620100006001600160a01b0384160217905560005b6008548110156118bc576118aa6008828154811061187f5761187f612f7c565b6000918252602090912001546001546001600160a01b0391821691620100009091041660001961241a565b806118b481612fc0565b91505061185f565b506009546001546118e2916001600160a01b03908116916201000090041660001961241a565b600154604051620100009091046001600160a01b031681527fb5f3602a1d2783f0976eae6d619f386b298bd951e94fa8e56bfedf853e7d88759060200160405180910390a150565b600154604051632f2e037160e11b81523060048201526000918291620100009091046001600160a01b031690635e5c06e290602401600060405180830381865afa15801561197c573d6000803e3d6000fd5b505050506040513d6000823e601f3d908101601f191682016040526119a49190810190613164565b50905060008112156119c6576119c16119bc826131ab565b61265a565b6119c9565b60005b91505090565b6000600160029054906101000a90046001600160a01b03166001600160a01b0316631b962c786040518163ffffffff1660e01b8152600401600060405180830381865afa158015611a24573d6000803e3d6000fd5b505050506040513d6000823e601f3d908101601f19168201604052611a4c91908101906131c8565b90506000600160029054906101000a90046001600160a01b03166001600160a01b0316634a2226356040518163ffffffff1660e01b8152600401600060405180830381865afa158015611aa3573d6000803e3d6000fd5b505050506040513d6000823e601f3d908101601f19168201604052611acb91908101906131c8565b805160085491925014611af157604051634a613c4160e01b815260040160405180910390fd5b60005b600854811015611b54576006600060088381548110611b1557611b15612f7c565b60009182526020808320909101546001600160a01b031683528201929092526040018120611b4291612aeb565b80611b4c81612fc0565b915050611af4565b50815160005b81811015611c64576000848281518110611b7657611b76612f7c565b6020908102919091010151600154604051635a5efc8b60e01b81526001600160a01b0380841660048301529293506000926201000090920490911690635a5efc8b906024016101e060405180830381865afa158015611bd9573d6000803e3d6000fd5b505050506040513d601f19601f82011682018060405250810190611bfd919061302b565b9050806101c0015115611c4f576020818101516001600160a01b0390811660009081526006835260408120805460018101825590825292902090910180546001600160a01b0319169184169190911790555b50508080611c5c90612fc0565b915050611b5a565b506040517fdfe7090a5461eb5a45d9e05a1317dfcd47d74fd2f14e0989619808f3aac43aa590600090a1505050565b3b151590565b611ca28161254e565b506000611cae8261099f565b90506000611cbc8330611fcd565b6001600160a01b03841660009081526005602052604081205491925090831015611cf157611cea8284613003565b9050611d38565b6001600160a01b038416600090815260056020526040902054821015611d38576001600160a01b038416600090815260056020526040902054611d35908390613003565b90505b8015611d4b57611d4b8185612681612314565b6000611d578530611fcd565b6001600160a01b03861660009081526005602052604081205491925090821115611db1576001600160a01b038616600090815260076020908152604080832054600590925290912054611daa9190613003565b9050611dd7565b6001600160a01b038616600090815260076020526040902054611dd49083613003565b90505b8015611e78576001600160a01b03861660009081526007602052604081208054839290611e05908490612fa8565b90915550506001600160a01b0386811660009081526002602052604090819020549051635355655960e01b815260048101849052911690635355655990602401600060405180830381600087803b158015611e5f57600080fd5b505af1158015611e73573d6000803e3d6000fd5b505050505b505050505050565b611e8a82826111c9565b6108e357611ea2816001600160a01b0316601461286f565b611ead83602061286f565b604051602001611ebe9291906131fd565b60408051601f198184030181529082905262461bcd60e51b82526108d091600401612ce1565b611eee82826111c9565b6108e3576000828152602081815260408083206001600160a01b03851684529091529020805460ff19166001179055611f243390565b6001600160a01b0316816001600160a01b0316837f2f8788117e7eff1d82e926ec794901d17c78024a50270940304540a733656f0d60405160405180910390a45050565b611f7282826111c9565b156108e3576000828152602081815260408083206001600160a01b0385168085529252808320805460ff1916905551339285917ff6391f5c32d9c69d2a47ea670b442974b53935d1edc7fd64eb21e047a839171b9190a45050565b604080516001600160a01b0383811660248084019190915283518084039091018152604490920183526020820180516001600160e01b03166370a0823160e01b179052915160009283928392918716916120279190613272565b600060405180830381855afa9150503d8060008114612062576040519150601f19603f3d011682016040523d82523d6000602084013e612067565b606091505b509150915081158061207a575060208151105b1561209e5784828260405163e7e40b5b60e01b81526004016108d09392919061328e565b808060200190518101906120b29190612f63565b95945050505050565b600154604051634bd2144560e01b81523060048201526001600160a01b03838116602483015260009283926201000090910490911690634bd21445906044016040805180830381865afa158015612116573d6000803e3d6000fd5b505050506040513d601f19601f8201168201806040525081019061213a91906132ba565b50600154604051635a5efc8b60e01b81526001600160a01b0386811660048301529293506000926201000090920490911690635a5efc8b906024016101e060405180830381865afa158015612193573d6000803e3d6000fd5b505050506040513d601f19601f820116820180604052508101906121b7919061302b565b60015460405163447378ad60e11b81526001600160a01b03878116600483015292935060009262010000909204909116906388e6f15a90602401602060405180830381865afa15801561220e573d6000803e3d6000fd5b505050506040513d601f19601f820116820180604052508101906122329190612f63565b825190915061224290600a6133c2565b61224c82856133d1565b6120b291906133f0565b6108e38282611ee4565b600082815260208190526040808220600101805490849055905190918391839186917fbd79b86ffe0ab8e8776151514217cd7cacd52c909f66475c3af44e129f0b00ff9190a4505050565b60015460405163e69d849d60e01b81526001600160a01b03848116600483015260248201849052620100009092049091169063e69d849d90604401600060405180830381600087803b15801561230057600080fd5b505af1158015611e78573d6000803e3d6000fd5b600154604051632c6a65eb60e21b8152306004820152620100009091046001600160a01b03169063b1a997ac90602401600060405180830381600087803b15801561235e57600080fd5b505af1158015612372573d6000803e3d6000fd5b5050506001600160a01b0383166000908152600a6020526040812091505b60018201548110156111985760008260010182815481106123b3576123b3612f7c565b600091825260208083209091015460028601546001600160a01b03909116808452918690526040832054919350906123eb90896133d1565b6123f591906133f0565b905061240582828763ffffffff16565b5050808061241290612fc0565b915050612390565b6040516001600160a01b03838116602483015260448201839052600091829186169063095ea7b360e01b906064015b60408051601f198184030181529181526020820180516001600160e01b03166001600160e01b03199094169390931790925290516124879190613272565b6000604051808303816000865af19150503d80600081146124c4576040519150601f19603f3d011682016040523d82523d6000602084013e6124c9565b606091505b50915091508115806124f757508051158015906124f75750808060200190518101906124f59190612fe6565b155b156111985784828260405163e7e40b5b60e01b81526004016108d09392919061328e565b6040516001600160a01b03838116602483015260448201839052600091829186169063a9059cbb60e01b90606401612449565b6001600160a01b038116600090815260036020908152604080832054600490925282205482919061257f9042613003565b61258991906133d1565b6001600160a01b0384166000908152600560205260408120805492935083929091906125b6908490612fa8565b90915550506001600160a01b0390921660009081526004602052604090204290555090565b600154604051635efd4dd760e11b8152620100009091046001600160a01b03169063bdfa9bae9061261790859085903090600090600401612f39565b6020604051808303816000875af1158015612636573d6000803e3d6000fd5b505050506040513d601f19601f8201168201806040525081019061085f9190612f63565b60008082121561267d57604051630134249960e71b815260040160405180910390fd5b5090565b600061268c83612a12565b60015460405163447378ad60e11b81526001600160a01b03868116600483015292935060009262010000909204909116906388e6f15a90602401602060405180830381865afa1580156126e3573d6000803e3d6000fd5b505050506040513d601f19601f820116820180604052508101906127079190612f63565b905060008161271784600a6133c2565b61272190866133d1565b61272b91906133f0565b600154604051634bd2144560e01b81523060048201526001600160a01b03888116602483015292935060009283926201000090041690634bd21445906044016040805180830381865afa158015612786573d6000803e3d6000fd5b505050506040513d601f19601f820116820180604052508101906127aa91906132ba565b91509150818311156127ba578192505b60006127106127ca8860646133d1565b6127d491906133f0565b6127de9088613003565b9050831561149c57600154604051635322cd1960e11b8152620100009091046001600160a01b03169063a6459a3290612821908b90889030908790600401612f39565b6020604051808303816000875af1158015612840573d6000803e3d6000fd5b505050506040513d601f19601f820116820180604052508101906128649190612f63565b505050505050505050565b6060600061287e8360026133d1565b612889906002612fa8565b67ffffffffffffffff8111156128a1576128a1612d36565b6040519080825280601f01601f1916602001820160405280156128cb576020820181803683370190505b509050600360fc1b816000815181106128e6576128e6612f7c565b60200101906001600160f81b031916908160001a905350600f60fb1b8160018151811061291557612915612f7c565b60200101906001600160f81b031916908160001a90535060006129398460026133d1565b612944906001612fa8565b90505b60018111156129bc576f181899199a1a9b1b9c1cb0b131b232b360811b85600f166010811061297857612978612f7c565b1a60f81b82828151811061298e5761298e612f7c565b60200101906001600160f81b031916908160001a90535060049490941c936129b581613412565b9050612947565b508315612a0b5760405162461bcd60e51b815260206004820181905260248201527f537472696e67733a20686578206c656e67746820696e73756666696369656e7460448201526064016108d0565b9392505050565b60408051600481526024810182526020810180516001600160e01b031663313ce56760e01b1790529051600091829182916001600160a01b03861691612a589190613272565b600060405180830381855afa9150503d8060008114612a93576040519150601f19603f3d011682016040523d82523d6000602084013e612a98565b606091505b5091509150811580612aab575060208151105b15612acf5783828260405163e7e40b5b60e01b81526004016108d09392919061328e565b80806020019051810190612ae39190613429565b949350505050565b50805460008255906000526020600020908101906107de91905b8082111561267d5760008155600101612b05565b6001600160a01b03811681146107de57600080fd5b60008060408385031215612b4157600080fd5b8235612b4c81612b19565b91506020830135612b5c81612b19565b809150509250929050565b600060208284031215612b7957600080fd5b81356001600160e01b031981168114612a0b57600080fd5b60008060408385031215612ba457600080fd5b8235612baf81612b19565b946020939093013593505050565b600060208284031215612bcf57600080fd5b8135612a0b81612b19565b600060208284031215612bec57600080fd5b5035919050565b60008060408385031215612c0657600080fd5b823591506020830135612b5c81612b19565b600080600060608486031215612c2d57600080fd5b8335612c3881612b19565b95602085013595506040909401359392505050565b80151581146107de57600080fd5b60008060408385031215612c6e57600080fd5b8235612c7981612b19565b91506020830135612b5c81612c4d565b60005b83811015612ca4578181015183820152602001612c8c565b838111156109995750506000910152565b60008151808452612ccd816020860160208601612c89565b601f01601f19169290920160200192915050565b602081526000612a0b6020830184612cb5565b600080600060608486031215612d0957600080fd5b8335612d1481612b19565b9250602084013591506040840135612d2b81612b19565b809150509250925092565b634e487b7160e01b600052604160045260246000fd5b6040516101e0810167ffffffffffffffff81118282101715612d7057612d70612d36565b60405290565b604051601f8201601f1916810167ffffffffffffffff81118282101715612d9f57612d9f612d36565b604052919050565b600067ffffffffffffffff821115612dc157612dc1612d36565b5060051b60200190565b600082601f830112612ddc57600080fd5b81356020612df1612dec83612da7565b612d76565b82815260059290921b84018101918181019086841115612e1057600080fd5b8286015b84811015612e2b5780358352918301918301612e14565b509695505050505050565b600080600060608486031215612e4b57600080fd5b8335612e5681612b19565b925060208481013567ffffffffffffffff80821115612e7457600080fd5b818701915087601f830112612e8857600080fd5b8135612e96612dec82612da7565b81815260059190911b8301840190848101908a831115612eb557600080fd5b938501935b82851015612edc578435612ecd81612b19565b82529385019390850190612eba565b965050506040870135925080831115612ef457600080fd5b5050612f0286828701612dcb565b9150509250925092565b8051612f1781612b19565b919050565b600060208284031215612f2e57600080fd5b8151612a0b81612b19565b6001600160a01b039485168152602081019390935292166040820152606081019190915260800190565b600060208284031215612f7557600080fd5b5051919050565b634e487b7160e01b600052603260045260246000fd5b634e487b7160e01b600052601160045260246000fd5b60008219821115612fbb57612fbb612f92565b500190565b6000600019821415612fd457612fd4612f92565b5060010190565b8051612f1781612c4d565b600060208284031215612ff857600080fd5b8151612a0b81612c4d565b60008282101561301557613015612f92565b500390565b805160ff81168114612f1757600080fd5b60006101e0828403121561303e57600080fd5b613046612d4c565b61304f8361301a565b815261305d60208401612f0c565b602082015261306e60408401612f0c565b6040820152606083810151908201526080808401519082015260a0808401519082015260c0808401519082015260e08084015190820152610100808401519082015261012080840151908201526101408084015190820152610160808401519082015261018080840151908201526101a080840151908201526101c06130f5818501612fdb565b908201529392505050565b600082601f83011261311157600080fd5b81516020613121612dec83612da7565b82815260059290921b8401810191818101908684111561314057600080fd5b8286015b84811015612e2b57805161315781612b19565b8352918301918301613144565b6000806040838503121561317757600080fd5b82519150602083015167ffffffffffffffff81111561319557600080fd5b6131a185828601613100565b9150509250929050565b6000600160ff1b8214156131c1576131c1612f92565b5060000390565b6000602082840312156131da57600080fd5b815167ffffffffffffffff8111156131f157600080fd5b612ae384828501613100565b7f416363657373436f6e74726f6c3a206163636f756e7420000000000000000000815260008351613235816017850160208801612c89565b7001034b99036b4b9b9b4b733903937b6329607d1b6017918401918201528351613266816028840160208801612c89565b01602801949350505050565b60008251613284818460208701612c89565b9190910192915050565b6001600160a01b038416815282151560208201526060604082018190526000906120b290830184612cb5565b600080604083850312156132cd57600080fd5b505080516020909101519092909150565b600181815b808511156133195781600019048211156132ff576132ff612f92565b8085161561330c57918102915b93841c93908002906132e3565b509250929050565b60008261333057506001610763565b8161333d57506000610763565b8160018114613353576002811461335d57613379565b6001915050610763565b60ff84111561336e5761336e612f92565b50506001821b610763565b5060208310610133831016604e8410600b841016171561339c575081810a610763565b6133a683836132de565b80600019048211156133ba576133ba612f92565b029392505050565b6000612a0b60ff841683613321565b60008160001904831182151516156133eb576133eb612f92565b500290565b60008261340d57634e487b7160e01b600052601260045260246000fd5b500490565b60008161342157613421612f92565b506000190190565b60006020828403121561343b57600080fd5b612a0b8261301a56fe71a9859d7dd21b24504a6f306077ffc2d510b4d4b61128e931fe937441ad1836df8b4c520ffe197c5343c6f5aec59570151ef9a492f2c624fd45ddde6135ec42a26469706673582212203713b57ea2c849b06de2b7f9d580753ff50f2113f52cfeef6dd41399220feb7c64736f6c634300080b0033",
  "linkReferences": {},
  "deployedLinkReferences": {}
}