{
  "_format": "hh-sol-artifact-1",
  "contractName": "FixedPointMath",
  "sourceName": "contracts/libraries/FixedPointMath.sol",
  "abi": [
    {
      "inputs": [],
      "name": "DECIMALS",
      "outputs": [
        {
          "internalType": "uint256",
          "name": "",
          "type": "uint256"
        }
      ],
      "stateMutability": "view",
      "type": "function"
    },
    {
      "inputs": [],
      "name": "ONE",
      "outputs": [
        {
          "internalType": "uint256",
          "name": "",
          "type": "uint256"
        }
      ],
      "stateMutability": "view",
      "type": "function"
    }
  ],
  "bytecode": "0x6101b661003a600b82828239805160001a60731461002d57634e487b7160e01b600052600060045260246000fd5b30600052607381538281f3fe73000000000000000000000000000000000000000030146080604052600436106100405760003560e01c80632e0f262514610045578063c2ee3a081461005f575b600080fd5b61004d601281565b60405190815260200160405180910390f35b61004d61006e6012600a61016d565b81565b634e487b7160e01b600052601160045260246000fd5b600181815b808511156100c25781600019048211156100a8576100a8610071565b808516156100b557918102915b93841c939080029061008c565b509250929050565b6000826100d957506001610167565b816100e657506000610167565b81600181146100fc576002811461010657610122565b6001915050610167565b60ff84111561011757610117610071565b50506001821b610167565b5060208310610133831016604e8410600b8410161715610145575081810a610167565b61014f8383610087565b806000190482111561016357610163610071565b0290505b92915050565b600061017983836100ca565b939250505056fea264697066735822122033b3d7b71d2273a7e4b1fcbfb27659e0e6037b756b68f01c7884d01882c6bfc764736f6c634300080b0033",
  "linkReferences": {},
  "deployedLinkReferences": {}
}