{
  "_format": "hh-sol-artifact-1",
  "contractName": "YearnVaultMock",
  "sourceName": "contracts/test/yearn/YearnVaultMock.sol",
  "abi": [
    {
      "inputs": [
        {
          "internalType": "address",
          "name": "_token",
          "type": "address"
        }
      ],
      "stateMutability": "nonpayable",
      "type": "constructor"
    },
    {
      "inputs": [
        {
          "internalType": "address",
          "name": "target",
          "type": "address"
        },
        {
          "internalType": "bool",
          "name": "success",
          "type": "bool"
        },
        {
          "internalType": "bytes",
          "name": "data",
          "type": "bytes"
        }
      ],
      "name": "ERC20CallFailed",
      "type": "error"
    },
    {
      "anonymous": false,
      "inputs": [
        {
          "indexed": true,
          "internalType": "address",
          "name": "owner",
          "type": "address"
        },
        {
          "indexed": true,
          "internalType": "address",
          "name": "spender",
          "type": "address"
        },
        {
          "indexed": false,
          "internalType": "uint256",
          "name": "value",
          "type": "uint256"
        }
      ],
      "name": "Approval",
      "type": "event"
    },
    {
      "anonymous": false,
      "inputs": [
        {
          "indexed": true,
          "internalType": "address",
          "name": "from",
          "type": "address"
        },
        {
          "indexed": true,
          "internalType": "address",
          "name": "to",
          "type": "address"
        },
        {
          "indexed": false,
          "internalType": "uint256",
          "name": "value",
          "type": "uint256"
        }
      ],
      "name": "Transfer",
      "type": "event"
    },
    {
      "inputs": [],
      "name": "PERCENT_RESOLUTION",
      "outputs": [
        {
          "internalType": "uint256",
          "name": "",
          "type": "uint256"
        }
      ],
      "stateMutability": "view",
      "type": "function"
    },
    {
      "inputs": [
        {
          "internalType": "address",
          "name": "owner",
          "type": "address"
        },
        {
          "internalType": "address",
          "name": "spender",
          "type": "address"
        }
      ],
      "name": "allowance",
      "outputs": [
        {
          "internalType": "uint256",
          "name": "",
          "type": "uint256"
        }
      ],
      "stateMutability": "view",
      "type": "function"
    },
    {
      "inputs": [
        {
          "internalType": "address",
          "name": "spender",
          "type": "address"
        },
        {
          "internalType": "uint256",
          "name": "amount",
          "type": "uint256"
        }
      ],
      "name": "approve",
      "outputs": [
        {
          "internalType": "bool",
          "name": "",
          "type": "bool"
        }
      ],
      "stateMutability": "nonpayable",
      "type": "function"
    },
    {
      "inputs": [],
      "name": "available",
      "outputs": [
        {
          "internalType": "uint256",
          "name": "",
          "type": "uint256"
        }
      ],
      "stateMutability": "view",
      "type": "function"
    },
    {
      "inputs": [],
      "name": "balance",
      "outputs": [
        {
          "internalType": "uint256",
          "name": "",
          "type": "uint256"
        }
      ],
      "stateMutability": "view",
      "type": "function"
    },
    {
      "inputs": [
        {
          "internalType": "address",
          "name": "account",
          "type": "address"
        }
      ],
      "name": "balanceOf",
      "outputs": [
        {
          "internalType": "uint256",
          "name": "",
          "type": "uint256"
        }
      ],
      "stateMutability": "view",
      "type": "function"
    },
    {
      "inputs": [],
      "name": "decimals",
      "outputs": [
        {
          "internalType": "uint8",
          "name": "",
          "type": "uint8"
        }
      ],
      "stateMutability": "view",
      "type": "function"
    },
    {
      "inputs": [
        {
          "internalType": "address",
          "name": "spender",
          "type": "address"
        },
        {
          "internalType": "uint256",
          "name": "subtractedValue",
          "type": "uint256"
        }
      ],
      "name": "decreaseAllowance",
      "outputs": [
        {
          "internalType": "bool",
          "name": "",
          "type": "bool"
        }
      ],
      "stateMutability": "nonpayable",
      "type": "function"
    },
    {
      "inputs": [
        {
          "internalType": "uint256",
          "name": "_amount",
          "type": "uint256"
        }
      ],
      "name": "deposit",
      "outputs": [
        {
          "internalType": "uint256",
          "name": "",
          "type": "uint256"
        }
      ],
      "stateMutability": "nonpayable",
      "type": "function"
    },
    {
      "inputs": [],
      "name": "deposit",
      "outputs": [
        {
          "internalType": "uint256",
          "name": "",
          "type": "uint256"
        }
      ],
      "stateMutability": "nonpayable",
      "type": "function"
    },
    {
      "inputs": [],
      "name": "depositLimit",
      "outputs": [
        {
          "internalType": "uint256",
          "name": "",
          "type": "uint256"
        }
      ],
      "stateMutability": "view",
      "type": "function"
    },
    {
      "inputs": [],
      "name": "forcedSlippage",
      "outputs": [
        {
          "internalType": "uint256",
          "name": "",
          "type": "uint256"
        }
      ],
      "stateMutability": "view",
      "type": "function"
    },
    {
      "inputs": [
        {
          "internalType": "address",
          "name": "spender",
          "type": "address"
        },
        {
          "internalType": "uint256",
          "name": "addedValue",
          "type": "uint256"
        }
      ],
      "name": "increaseAllowance",
      "outputs": [
        {
          "internalType": "bool",
          "name": "",
          "type": "bool"
        }
      ],
      "stateMutability": "nonpayable",
      "type": "function"
    },
    {
      "inputs": [],
      "name": "max",
      "outputs": [
        {
          "internalType": "uint256",
          "name": "",
          "type": "uint256"
        }
      ],
      "stateMutability": "view",
      "type": "function"
    },
    {
      "inputs": [],
      "name": "maxAvailableShares",
      "outputs": [
        {
          "internalType": "uint256",
          "name": "",
          "type": "uint256"
        }
      ],
      "stateMutability": "view",
      "type": "function"
    },
    {
      "inputs": [],
      "name": "min",
      "outputs": [
        {
          "internalType": "uint256",
          "name": "",
          "type": "uint256"
        }
      ],
      "stateMutability": "view",
      "type": "function"
    },
    {
      "inputs": [],
      "name": "name",
      "outputs": [
        {
          "internalType": "string",
          "name": "",
          "type": "string"
        }
      ],
      "stateMutability": "view",
      "type": "function"
    },
    {
      "inputs": [],
      "name": "pricePerShare",
      "outputs": [
        {
          "internalType": "uint256",
          "name": "",
          "type": "uint256"
        }
      ],
      "stateMutability": "view",
      "type": "function"
    },
    {
      "inputs": [
        {
          "internalType": "uint256",
          "name": "_depositLimit",
          "type": "uint256"
        }
      ],
      "name": "setDepositLimit",
      "outputs": [],
      "stateMutability": "nonpayable",
      "type": "function"
    },
    {
      "inputs": [
        {
          "internalType": "uint256",
          "name": "_forcedSlippage",
          "type": "uint256"
        }
      ],
      "name": "setForcedSlippage",
      "outputs": [],
      "stateMutability": "nonpayable",
      "type": "function"
    },
    {
      "inputs": [],
      "name": "symbol",
      "outputs": [
        {
          "internalType": "string",
          "name": "",
          "type": "string"
        }
      ],
      "stateMutability": "view",
      "type": "function"
    },
    {
      "inputs": [],
      "name": "token",
      "outputs": [
        {
          "internalType": "address",
          "name": "",
          "type": "address"
        }
      ],
      "stateMutability": "view",
      "type": "function"
    },
    {
      "inputs": [],
      "name": "totalAssets",
      "outputs": [
        {
          "internalType": "uint256",
          "name": "",
          "type": "uint256"
        }
      ],
      "stateMutability": "view",
      "type": "function"
    },
    {
      "inputs": [],
      "name": "totalSupply",
      "outputs": [
        {
          "internalType": "uint256",
          "name": "",
          "type": "uint256"
        }
      ],
      "stateMutability": "view",
      "type": "function"
    },
    {
      "inputs": [
        {
          "internalType": "address",
          "name": "recipient",
          "type": "address"
        },
        {
          "internalType": "uint256",
          "name": "amount",
          "type": "uint256"
        }
      ],
      "name": "transfer",
      "outputs": [
        {
          "internalType": "bool",
          "name": "",
          "type": "bool"
        }
      ],
      "stateMutability": "nonpayable",
      "type": "function"
    },
    {
      "inputs": [
        {
          "internalType": "address",
          "name": "sender",
          "type": "address"
        },
        {
          "internalType": "address",
          "name": "recipient",
          "type": "address"
        },
        {
          "internalType": "uint256",
          "name": "amount",
          "type": "uint256"
        }
      ],
      "name": "transferFrom",
      "outputs": [
        {
          "internalType": "bool",
          "name": "",
          "type": "bool"
        }
      ],
      "stateMutability": "nonpayable",
      "type": "function"
    },
    {
      "inputs": [],
      "name": "vdecimals",
      "outputs": [
        {
          "internalType": "uint8",
          "name": "",
          "type": "uint8"
        }
      ],
      "stateMutability": "view",
      "type": "function"
    },
    {
      "inputs": [
        {
          "internalType": "uint256",
          "name": "_shares",
          "type": "uint256"
        },
        {
          "internalType": "address",
          "name": "_recipient",
          "type": "address"
        }
      ],
      "name": "withdraw",
      "outputs": [
        {
          "internalType": "uint256",
          "name": "",
          "type": "uint256"
        }
      ],
      "stateMutability": "nonpayable",
      "type": "function"
    },
    {
      "inputs": [
        {
          "internalType": "uint256",
          "name": "_shares",
          "type": "uint256"
        }
      ],
      "name": "withdraw",
      "outputs": [
        {
          "internalType": "uint256",
          "name": "",
          "type": "uint256"
        }
      ],
      "stateMutability": "nonpayable",
      "type": "function"
    },
    {
      "inputs": [],
      "name": "withdraw",
      "outputs": [
        {
          "internalType": "uint256",
          "name": "",
          "type": "uint256"
        }
      ],
      "stateMutability": "nonpayable",
      "type": "function"
    },
    {
      "inputs": [
        {
          "internalType": "uint256",
          "name": "_shares",
          "type": "uint256"
        },
        {
          "internalType": "address",
          "name": "_recipient",
          "type": "address"
        },
        {
          "internalType": "uint256",
          "name": "maxSlippage",
          "type": "uint256"
        }
      ],
      "name": "withdraw",
      "outputs": [
        {
          "internalType": "uint256",
          "name": "",
          "type": "uint256"
        }
      ],
      "stateMutability": "nonpayable",
      "type": "function"
    }
  ],
  "bytecode": "0x608060405261251c60055560006008553480156200001c57600080fd5b50604051620017da380380620017da8339810160408190526200003f916200017a565b604080518082018252600a815269596561726e204d6f636b60b01b602080830191825283518085019094526005845264794d4f434b60d81b9084015281519192916200008e91600391620000d4565b508051620000a4906004906020840190620000d4565b5050600680546001600160a01b0319166001600160a01b03939093169290921790915550600019600755620001e9565b828054620000e290620001ac565b90600052602060002090601f01602090048101928262000106576000855562000151565b82601f106200012157805160ff191683800117855562000151565b8280016001018555821562000151579182015b828111156200015157825182559160200191906001019062000134565b506200015f92915062000163565b5090565b5b808211156200015f576000815560010162000164565b6000602082840312156200018d57600080fd5b81516001600160a01b0381168114620001a557600080fd5b9392505050565b600181811c90821680620001c157607f821691505b60208210811415620001e357634e487b7160e01b600052602260045260246000fd5b50919050565b6115e180620001f96000396000f3fe608060405234801561001057600080fd5b50600436106101e45760003560e01c806375de29021161010f578063b6b55f25116100a2578063e63697c811610071578063e63697c8146103b9578063ecf70858146103cc578063f8897945146103d5578063fc0c546a146103de57600080fd5b8063b6b55f2514610352578063bdc8144b14610365578063d0e30db014610378578063dd62ed3e1461038057600080fd5b806399530b06116100de57806399530b061461031c578063a457c2d714610324578063a9059cbb14610337578063b69ef8a81461034a57600080fd5b806375de2902146102ee57806380a06506146102f65780638a98c8c61461030b57806395d89b411461031457600080fd5b80632fea88d41161018757806345f867b31161015657806345f867b3146102b457806348a0d754146102bd5780636ac5db19146102b457806370a08231146102c557600080fd5b80632fea88d41461027d578063313ce5671461029257806339509351146102995780633ccfd60b146102ac57600080fd5b8063095ea7b3116101c3578063095ea7b31461022c57806318160ddd1461024f57806323b872dd146102575780632e1a7d4d1461026a57600080fd5b8062f714ce146101e957806301e1d1141461020f57806306fdde0314610217575b600080fd5b6101fc6101f73660046112de565b610409565b6040519081526020015b60405180910390f35b6101fc61041e565b61021f61042d565b6040516102069190611362565b61023f61023a366004611375565b6104bf565b6040519015158152602001610206565b6002546101fc565b61023f61026536600461139f565b6104d5565b6101fc6102783660046113db565b610584565b60125b60405160ff9091168152602001610206565b6012610280565b61023f6102a7366004611375565b610598565b6101fc6105d4565b6101fc61271081565b6101fc6105f0565b6101fc6102d33660046113f4565b6001600160a01b031660009081526020819052604090205490565b6101fc61067c565b6103096103043660046113db565b600855565b005b6101fc60085481565b61021f610687565b6101fc610696565b61023f610332366004611375565b6106de565b61023f610345366004611375565b610777565b6101fc610784565b6101fc6103603660046113db565b6107f1565b6103096103733660046113db565b600755565b6101fc610a8e565b6101fc61038e36600461140f565b6001600160a01b03918216600090815260016020908152604080832093909416825291909152205490565b6101fc6103c7366004611439565b610a9b565b6101fc60075481565b6101fc60055481565b6006546103f1906001600160a01b031681565b6040516001600160a01b039091168152602001610206565b600061041783836000610a9b565b9392505050565b6000610428610784565b905090565b60606003805461043c9061145e565b80601f01602080910402602001604051908101604052809291908181526020018280546104689061145e565b80156104b55780601f1061048a576101008083540402835291602001916104b5565b820191906000526020600020905b81548152906001019060200180831161049857829003601f168201915b5050505050905090565b60006104cc338484610b9b565b50600192915050565b60006104e2848484610cc0565b6001600160a01b03841660009081526001602090815260408083203384529091529020548281101561056c5760405162461bcd60e51b815260206004820152602860248201527f45524332303a207472616e7366657220616d6f756e74206578636565647320616044820152676c6c6f77616e636560c01b60648201526084015b60405180910390fd5b6105798533858403610b9b565b506001949350505050565b600061059282336000610a9b565b92915050565b3360008181526001602090815260408083206001600160a01b038716845290915281205490916104cc9185906105cf9086906114af565b610b9b565b3360009081526020819052604081205461042890336000610a9b565b6005546006546040516370a0823160e01b81523060048201526000926127109290916001600160a01b03909116906370a0823190602401602060405180830381865afa158015610644573d6000803e3d6000fd5b505050506040513d601f19601f8201168201806040525081019061066891906114c7565b61067291906114e0565b61042891906114ff565b600061042860025490565b60606004805461043c9061145e565b6000806106a260025490565b9050806106b157600091505090565b6002546106bc610784565b6106ce90670de0b6b3a76400006114e0565b6106d891906114ff565b91505090565b3360009081526001602090815260408083206001600160a01b0386168452909152812054828110156107605760405162461bcd60e51b815260206004820152602560248201527f45524332303a2064656372656173656420616c6c6f77616e63652062656c6f77604482015264207a65726f60d81b6064820152608401610563565b61076d3385858403610b9b565b5060019392505050565b60006104cc338484610cc0565b6006546040516370a0823160e01b81523060048201526000916001600160a01b0316906370a0823190602401602060405180830381865afa1580156107cd573d6000803e3d6000fd5b505050506040513d601f19601f8201168201806040525081019061042891906114c7565b6000806107fc610784565b6006546040516370a0823160e01b81523060048201529192506000916001600160a01b03909116906370a0823190602401602060405180830381865afa15801561084a573d6000803e3d6000fd5b505050506040513d601f19601f8201168201806040525081019061086e91906114c7565b905060001984141561090a57610903610885610784565b6007546108929190611521565b6006546040516370a0823160e01b81523360048201526001600160a01b03909116906370a0823190602401602060405180830381865afa1580156108da573d6000803e3d6000fd5b505050506040513d601f19601f820116820180604052508101906108fe91906114c7565b610e90565b9350610967565b60075484610916610784565b61092091906114af565b11156109675760405162461bcd60e51b815260206004820152601660248201527519195c1bdcda5d081b1a5b5a5d08189c995858da195960521b6044820152606401610563565b600084116109b05760405162461bcd60e51b81526020600482015260166024820152756d757374206465706f73697420736f6d657468696e6760501b6044820152606401610563565b6006546109c8906001600160a01b0316333087610ea6565b6006546040516370a0823160e01b81523060048201526000916001600160a01b0316906370a0823190602401602060405180830381865afa158015610a11573d6000803e3d6000fd5b505050506040513d601f19601f82011682018060405250810190610a3591906114c7565b9050610a418282611521565b94506000610a4e60025490565b610a59575084610a7a565b83610a6360025490565b610a6d90886114e0565b610a7791906114ff565b90505b610a843382610fa6565b5093949350505050565b60006104286000196107f1565b6000600019841415610aba573360009081526020819052604090205493505b6000610ac560025490565b85610ace610784565b610ad891906114e0565b610ae291906114ff565b9050610aee3386611085565b600061271060085483610b0191906114e0565b610b0b91906114ff565b610b159083611521565b9050612710610b2485846114e0565b610b2e91906114ff565b610b389083611521565b811015610b7b5760405162461bcd60e51b8152602060048201526011602482015270746f6f206d75636820736c69707061676560781b6044820152606401610563565b600654610b92906001600160a01b031686846111cb565b50949350505050565b6001600160a01b038316610bfd5760405162461bcd60e51b8152602060048201526024808201527f45524332303a20617070726f76652066726f6d20746865207a65726f206164646044820152637265737360e01b6064820152608401610563565b6001600160a01b038216610c5e5760405162461bcd60e51b815260206004820152602260248201527f45524332303a20617070726f766520746f20746865207a65726f206164647265604482015261737360f01b6064820152608401610563565b6001600160a01b0383811660008181526001602090815260408083209487168084529482529182902085905590518481527f8c5be1e5ebec7d5bd14f71427d1e84f3dd0314c0f7b2291e5b200ac8c7c3b92591015b60405180910390a3505050565b6001600160a01b038316610d245760405162461bcd60e51b815260206004820152602560248201527f45524332303a207472616e736665722066726f6d20746865207a65726f206164604482015264647265737360d81b6064820152608401610563565b6001600160a01b038216610d865760405162461bcd60e51b815260206004820152602360248201527f45524332303a207472616e7366657220746f20746865207a65726f206164647260448201526265737360e81b6064820152608401610563565b6001600160a01b03831660009081526020819052604090205481811015610dfe5760405162461bcd60e51b815260206004820152602660248201527f45524332303a207472616e7366657220616d6f756e7420657863656564732062604482015265616c616e636560d01b6064820152608401610563565b6001600160a01b03808516600090815260208190526040808220858503905591851681529081208054849290610e359084906114af565b92505081905550826001600160a01b0316846001600160a01b03167fddf252ad1be2c89b69c2b068fc378daa952ba7f163c4a11628f55a4df523b3ef84604051610e8191815260200190565b60405180910390a35b50505050565b6000818310610e9f5781610417565b5090919050565b604080516001600160a01b0385811660248301528481166044830152606480830185905283518084039091018152608490920183526020820180516001600160e01b03166323b872dd60e01b1790529151600092839290881691610f0a9190611538565b6000604051808303816000865af19150503d8060008114610f47576040519150601f19603f3d011682016040523d82523d6000602084013e610f4c565b606091505b5091509150811580610f7a5750805115801590610f7a575080806020019051810190610f789190611554565b155b15610f9e5785828260405163e7e40b5b60e01b815260040161056393929190611576565b505050505050565b6001600160a01b038216610ffc5760405162461bcd60e51b815260206004820152601f60248201527f45524332303a206d696e7420746f20746865207a65726f2061646472657373006044820152606401610563565b806002600082825461100e91906114af565b90915550506001600160a01b0382166000908152602081905260408120805483929061103b9084906114af565b90915550506040518181526001600160a01b038316906000907fddf252ad1be2c89b69c2b068fc378daa952ba7f163c4a11628f55a4df523b3ef9060200160405180910390a35050565b6001600160a01b0382166110e55760405162461bcd60e51b815260206004820152602160248201527f45524332303a206275726e2066726f6d20746865207a65726f206164647265736044820152607360f81b6064820152608401610563565b6001600160a01b038216600090815260208190526040902054818110156111595760405162461bcd60e51b815260206004820152602260248201527f45524332303a206275726e20616d6f756e7420657863656564732062616c616e604482015261636560f01b6064820152608401610563565b6001600160a01b0383166000908152602081905260408120838303905560028054849290611188908490611521565b90915550506040518281526000906001600160a01b038516907fddf252ad1be2c89b69c2b068fc378daa952ba7f163c4a11628f55a4df523b3ef90602001610cb3565b604080516001600160a01b038481166024830152604480830185905283518084039091018152606490920183526020820180516001600160e01b031663a9059cbb60e01b17905291516000928392908716916112279190611538565b6000604051808303816000865af19150503d8060008114611264576040519150601f19603f3d011682016040523d82523d6000602084013e611269565b606091505b509150915081158061129757508051158015906112975750808060200190518101906112959190611554565b155b156112bb5784828260405163e7e40b5b60e01b815260040161056393929190611576565b5050505050565b80356001600160a01b03811681146112d957600080fd5b919050565b600080604083850312156112f157600080fd5b82359150611301602084016112c2565b90509250929050565b60005b8381101561132557818101518382015260200161130d565b83811115610e8a5750506000910152565b6000815180845261134e81602086016020860161130a565b601f01601f19169290920160200192915050565b6020815260006104176020830184611336565b6000806040838503121561138857600080fd5b611391836112c2565b946020939093013593505050565b6000806000606084860312156113b457600080fd5b6113bd846112c2565b92506113cb602085016112c2565b9150604084013590509250925092565b6000602082840312156113ed57600080fd5b5035919050565b60006020828403121561140657600080fd5b610417826112c2565b6000806040838503121561142257600080fd5b61142b836112c2565b9150611301602084016112c2565b60008060006060848603121561144e57600080fd5b833592506113cb602085016112c2565b600181811c9082168061147257607f821691505b6020821081141561149357634e487b7160e01b600052602260045260246000fd5b50919050565b634e487b7160e01b600052601160045260246000fd5b600082198211156114c2576114c2611499565b500190565b6000602082840312156114d957600080fd5b5051919050565b60008160001904831182151516156114fa576114fa611499565b500290565b60008261151c57634e487b7160e01b600052601260045260246000fd5b500490565b60008282101561153357611533611499565b500390565b6000825161154a81846020870161130a565b9190910192915050565b60006020828403121561156657600080fd5b8151801515811461041757600080fd5b6001600160a01b038416815282151560208201526060604082018190526000906115a290830184611336565b9594505050505056fea2646970667358221220ad2ff411db3b1154071891011f3f82fc54b12b724b1baabb910722efae83e0d264736f6c634300080b0033",
  "linkReferences": {},
  "deployedLinkReferences": {}
}