{
  "_format": "hh-sol-artifact-1",
  "contractName": "TransmuterBufferMock",
  "sourceName": "contracts/test/TransmuterBufferMock.sol",
  "abi": [
    {
      "inputs": [],
      "stateMutability": "nonpayable",
      "type": "constructor"
    },
    {
      "inputs": [
        {
          "internalType": "address",
          "name": "underlyingToken",
          "type": "address"
        },
        {
          "internalType": "uint256",
          "name": "amount",
          "type": "uint256"
        }
      ],
      "name": "exchange",
      "outputs": [],
      "stateMutability": "nonpayable",
      "type": "function"
    },
    {
      "inputs": [
        {
          "internalType": "address[]",
          "name": "_underlyingTokens",
          "type": "address[]"
        },
        {
          "internalType": "address[]",
          "name": "_transmuters",
          "type": "address[]"
        }
      ],
      "name": "initialize",
      "outputs": [],
      "stateMutability": "nonpayable",
      "type": "function"
    },
    {
      "inputs": [
        {
          "internalType": "address",
          "name": "",
          "type": "address"
        }
      ],
      "name": "transmuters",
      "outputs": [
        {
          "internalType": "address",
          "name": "",
          "type": "address"
        }
      ],
      "stateMutability": "view",
      "type": "function"
    },
    {
      "inputs": [
        {
          "internalType": "address",
          "name": "underlyingToken",
          "type": "address"
        },
        {
          "internalType": "uint256",
          "name": "amount",
          "type": "uint256"
        },
        {
          "internalType": "address",
          "name": "recipient",
          "type": "address"
        }
      ],
      "name": "withdraw",
      "outputs": [],
      "stateMutability": "nonpayable",
      "type": "function"
    }
  ],
  "bytecode": "0x608060405234801561001057600080fd5b5061076f806100206000396000f3fe608060405234801561001057600080fd5b506004361061004c5760003560e01c8063045d03891461005157806369328dec1461006657806373cf25f81461007957806376d59c5b1461008c575b600080fd5b61006461005f366004610524565b6100d1565b005b61006461007436600461054e565b610157565b6100646100873660046105d6565b610170565b6100b561009a366004610642565b6000602081905290815260409020546001600160a01b031681565b6040516001600160a01b03909116815260200160405180910390f35b6100e66001600160a01b038316333084610216565b6001600160a01b0382811660009081526020819052604090819020549051635355655960e01b815260048101849052911690635355655990602401600060405180830381600087803b15801561013b57600080fd5b505af115801561014f573d6000803e3d6000fd5b505050505050565b61016b6001600160a01b0384168284610287565b505050565b60005b8381101561020f5782828281811061018d5761018d61065d565b90506020020160208101906101a29190610642565b6000808787858181106101b7576101b761065d565b90506020020160208101906101cc9190610642565b6001600160a01b039081168252602082019290925260400160002080546001600160a01b031916929091169190911790558061020781610673565b915050610173565b5050505050565b6040516001600160a01b03808516602483015283166044820152606481018290526102819085906323b872dd60e01b906084015b60408051601f198184030181529190526020810180516001600160e01b03166001600160e01b0319909316929092179091526102b7565b50505050565b6040516001600160a01b03831660248201526044810182905261016b90849063a9059cbb60e01b9060640161024a565b600061030c826040518060400160405280602081526020017f5361666545524332303a206c6f772d6c6576656c2063616c6c206661696c6564815250856001600160a01b031661038e9092919063ffffffff16565b80519091501561016b578080602001905181019061032a919061069c565b61016b5760405162461bcd60e51b815260206004820152602a60248201527f5361666545524332303a204552433230206f7065726174696f6e20646964206e6044820152691bdd081cdd58d8d9595960b21b60648201526084015b60405180910390fd5b606061039d84846000856103a7565b90505b9392505050565b6060824710156104085760405162461bcd60e51b815260206004820152602660248201527f416464726573733a20696e73756666696369656e742062616c616e636520666f6044820152651c8818d85b1b60d21b6064820152608401610385565b843b6104565760405162461bcd60e51b815260206004820152601d60248201527f416464726573733a2063616c6c20746f206e6f6e2d636f6e74726163740000006044820152606401610385565b600080866001600160a01b0316858760405161047291906106ea565b60006040518083038185875af1925050503d80600081146104af576040519150601f19603f3d011682016040523d82523d6000602084013e6104b4565b606091505b50915091506104c48282866104cf565b979650505050505050565b606083156104de5750816103a0565b8251156104ee5782518084602001fd5b8160405162461bcd60e51b81526004016103859190610706565b80356001600160a01b038116811461051f57600080fd5b919050565b6000806040838503121561053757600080fd5b61054083610508565b946020939093013593505050565b60008060006060848603121561056357600080fd5b61056c84610508565b92506020840135915061058160408501610508565b90509250925092565b60008083601f84011261059c57600080fd5b50813567ffffffffffffffff8111156105b457600080fd5b6020830191508360208260051b85010111156105cf57600080fd5b9250929050565b600080600080604085870312156105ec57600080fd5b843567ffffffffffffffff8082111561060457600080fd5b6106108883890161058a565b9096509450602087013591508082111561062957600080fd5b506106368782880161058a565b95989497509550505050565b60006020828403121561065457600080fd5b6103a082610508565b634e487b7160e01b600052603260045260246000fd5b600060001982141561069557634e487b7160e01b600052601160045260246000fd5b5060010190565b6000602082840312156106ae57600080fd5b815180151581146103a057600080fd5b60005b838110156106d95781810151838201526020016106c1565b838111156102815750506000910152565b600082516106fc8184602087016106be565b9190910192915050565b60208152600082518060208401526107258160408501602087016106be565b601f01601f1916919091016040019291505056fea2646970667358221220a1736de786105efa568064f19456b0c9001fb869e3102f69b53bc2b940e1a2c864736f6c634300080b0033",
  "linkReferences": {},
  "deployedLinkReferences": {}
}