{
  "_format": "hh-sol-artifact-1",
  "contractName": "TransmuterBufferMock",
  "sourceName": "contracts/test/TransmuterBufferMock.sol",
  "abi": [
    {
      "inputs": [],
      "stateMutability": "nonpayable",
      "type": "constructor"
    },
    {
      "inputs": [
        {
          "internalType": "contract IERC20",
          "name": "underlyingToken",
          "type": "address"
        },
        {
          "internalType": "uint256",
          "name": "amount",
          "type": "uint256"
        }
      ],
      "name": "exchange",
      "outputs": [],
      "stateMutability": "nonpayable",
      "type": "function"
    },
    {
      "inputs": [
        {
          "internalType": "address",
          "name": "_transmuter",
          "type": "address"
        }
      ],
      "name": "initialize",
      "outputs": [],
      "stateMutability": "nonpayable",
      "type": "function"
    },
    {
      "inputs": [],
      "name": "transmuter",
      "outputs": [
        {
          "internalType": "address",
          "name": "",
          "type": "address"
        }
      ],
      "stateMutability": "view",
      "type": "function"
    },
    {
      "inputs": [
        {
          "internalType": "contract IERC20",
          "name": "underlyingToken",
          "type": "address"
        },
        {
          "internalType": "uint256",
          "name": "amount",
          "type": "uint256"
        },
        {
          "internalType": "address",
          "name": "recipient",
          "type": "address"
        }
      ],
      "name": "withdraw",
      "outputs": [],
      "stateMutability": "nonpayable",
      "type": "function"
    }
  ],
  "bytecode": "0x608060405234801561001057600080fd5b50610559806100206000396000f3fe608060405234801561001057600080fd5b506004361061004c5760003560e01c8063045d03891461005157806369328dec146100665780637239d2b914610079578063c4d66de8146100a8575b600080fd5b61006461005f3660046103f7565b6100d8565b005b610064610074366004610423565b61013a565b60005461008c906001600160a01b031681565b6040516001600160a01b03909116815260200160405180910390f35b6100646100b6366004610465565b600080546001600160a01b0319166001600160a01b0392909216919091179055565b600054604051635355655960e01b8152600481018390526001600160a01b0390911690635355655990602401600060405180830381600087803b15801561011e57600080fd5b505af1158015610132573d6000803e3d6000fd5b505050505050565b61014e6001600160a01b0384168284610153565b505050565b604080516001600160a01b03848116602483015260448083018590528351808403909101815260649092018352602080830180516001600160e01b031663a9059cbb60e01b17905283518085019094528084527f5361666545524332303a206c6f772d6c6576656c2063616c6c206661696c65649084015261014e928692916000916101e3918516908490610265565b80519091501561014e57808060200190518101906102019190610482565b61014e5760405162461bcd60e51b815260206004820152602a60248201527f5361666545524332303a204552433230206f7065726174696f6e20646964206e6044820152691bdd081cdd58d8d9595960b21b60648201526084015b60405180910390fd5b6060610274848460008561027e565b90505b9392505050565b6060824710156102df5760405162461bcd60e51b815260206004820152602660248201527f416464726573733a20696e73756666696369656e742062616c616e636520666f6044820152651c8818d85b1b60d21b606482015260840161025c565b843b61032d5760405162461bcd60e51b815260206004820152601d60248201527f416464726573733a2063616c6c20746f206e6f6e2d636f6e7472616374000000604482015260640161025c565b600080866001600160a01b0316858760405161034991906104d4565b60006040518083038185875af1925050503d8060008114610386576040519150601f19603f3d011682016040523d82523d6000602084013e61038b565b606091505b509150915061039b8282866103a6565b979650505050505050565b606083156103b5575081610277565b8251156103c55782518084602001fd5b8160405162461bcd60e51b815260040161025c91906104f0565b6001600160a01b03811681146103f457600080fd5b50565b6000806040838503121561040a57600080fd5b8235610415816103df565b946020939093013593505050565b60008060006060848603121561043857600080fd5b8335610443816103df565b925060208401359150604084013561045a816103df565b809150509250925092565b60006020828403121561047757600080fd5b8135610277816103df565b60006020828403121561049457600080fd5b8151801515811461027757600080fd5b60005b838110156104bf5781810151838201526020016104a7565b838111156104ce576000848401525b50505050565b600082516104e68184602087016104a4565b9190910192915050565b602081526000825180602084015261050f8160408501602087016104a4565b601f01601f1916919091016040019291505056fea2646970667358221220fe9c218323f82163e42c9d3726035e4bf188dce03cbddb5987d796f7ae902b1964736f6c634300080b0033",
  "linkReferences": {},
  "deployedLinkReferences": {}
}