{
  "address": "0x7879A9c464af7805712404Cf4A8366c475034F91",
  "abi": [
    {
      "inputs": [
        {
          "internalType": "address",
          "name": "_gelatoPoker",
          "type": "address"
        },
        {
          "internalType": "uint256",
          "name": "_maxGasPrice",
          "type": "uint256"
        },
        {
          "internalType": "address",
          "name": "_resolver",
          "type": "address"
        }
      ],
      "stateMutability": "nonpayable",
      "type": "constructor"
    },
    {
      "inputs": [],
      "name": "TheGasIsTooDamnHigh",
      "type": "error"
    },
    {
      "inputs": [],
      "name": "Unauthorized",
      "type": "error"
    },
    {
      "anonymous": false,
      "inputs": [
        {
          "indexed": true,
          "internalType": "address",
          "name": "previousOwner",
          "type": "address"
        },
        {
          "indexed": true,
          "internalType": "address",
          "name": "newOwner",
          "type": "address"
        }
      ],
      "name": "OwnershipTransferred",
      "type": "event"
    },
    {
      "anonymous": false,
      "inputs": [
        {
          "indexed": false,
          "internalType": "uint256",
          "name": "newMaxGasPrice",
          "type": "uint256"
        }
      ],
      "name": "SetMaxGasPrice",
      "type": "event"
    },
    {
      "anonymous": false,
      "inputs": [
        {
          "indexed": false,
          "internalType": "address",
          "name": "newPoker",
          "type": "address"
        }
      ],
      "name": "SetPoker",
      "type": "event"
    },
    {
      "inputs": [],
      "name": "gelatoPoker",
      "outputs": [
        {
          "internalType": "address",
          "name": "",
          "type": "address"
        }
      ],
      "stateMutability": "view",
      "type": "function"
    },
    {
      "inputs": [
        {
          "internalType": "address",
          "name": "alchemist",
          "type": "address"
        },
        {
          "internalType": "address",
          "name": "yieldToken",
          "type": "address"
        },
        {
          "internalType": "uint256",
          "name": "minimumAmountOut",
          "type": "uint256"
        }
      ],
      "name": "harvest",
      "outputs": [],
      "stateMutability": "nonpayable",
      "type": "function"
    },
    {
      "inputs": [],
      "name": "maxGasPrice",
      "outputs": [
        {
          "internalType": "uint256",
          "name": "",
          "type": "uint256"
        }
      ],
      "stateMutability": "view",
      "type": "function"
    },
    {
      "inputs": [],
      "name": "owner",
      "outputs": [
        {
          "internalType": "address",
          "name": "",
          "type": "address"
        }
      ],
      "stateMutability": "view",
      "type": "function"
    },
    {
      "inputs": [],
      "name": "renounceOwnership",
      "outputs": [],
      "stateMutability": "nonpayable",
      "type": "function"
    },
    {
      "inputs": [],
      "name": "resolver",
      "outputs": [
        {
          "internalType": "address",
          "name": "",
          "type": "address"
        }
      ],
      "stateMutability": "view",
      "type": "function"
    },
    {
      "inputs": [
        {
          "internalType": "uint256",
          "name": "newGasPrice",
          "type": "uint256"
        }
      ],
      "name": "setMaxGasPrice",
      "outputs": [],
      "stateMutability": "nonpayable",
      "type": "function"
    },
    {
      "inputs": [
        {
          "internalType": "address",
          "name": "newPoker",
          "type": "address"
        }
      ],
      "name": "setPoker",
      "outputs": [],
      "stateMutability": "nonpayable",
      "type": "function"
    },
    {
      "inputs": [
        {
          "internalType": "address",
          "name": "_resolver",
          "type": "address"
        }
      ],
      "name": "setResolver",
      "outputs": [],
      "stateMutability": "nonpayable",
      "type": "function"
    },
    {
      "inputs": [
        {
          "internalType": "address",
          "name": "newOwner",
          "type": "address"
        }
      ],
      "name": "transferOwnership",
      "outputs": [],
      "stateMutability": "nonpayable",
      "type": "function"
    }
  ],
  "transactionHash": "0xbdfbe2b7cf5c1c06ae535903db512f7b1d6bbc46a0f96a0b4e34b0a2c8c4c11e",
  "args": [
    "0xB3f5503f93d5Ef84b06993a1975B9D21B962892F",
    125000000000,
    "0x9825F776908fF9815E284351D1Fe94fE75F15B49"
  ],
  "solcInputHash": "3a1dc3cc0cb57037bc967075cab29730",
  "bytecode": "0x608060405234801561001057600080fd5b50604051610a1e380380610a1e83398101604081905261002f916100e3565b828261003a33610077565b600180546001600160a01b039384166001600160a01b031991821617909155600291909155600380549390921692169190911790555061011f9050565b600080546001600160a01b038381166001600160a01b0319831681178455604051919092169283917f8be0079c531659141344cd1fd0a4f28419497f9722a3daafe3b4186f6b6457e09190a35050565b80516001600160a01b03811681146100de57600080fd5b919050565b6000806000606084860312156100f857600080fd5b610101846100c7565b925060208401519150610116604085016100c7565b90509250925092565b6108f08061012e6000396000f3fe608060405234801561001057600080fd5b50600436106100be5760003560e01c80638da5cb5b11610076578063d2fa635e1161005b578063d2fa635e14610192578063f2fde38b146101a5578063f4430dd8146101b857600080fd5b80638da5cb5b14610161578063c2ceb95f1461017f57600080fd5b80633de39c11116100a75780633de39c111461012d5780634e543b2614610144578063715018a61461015957600080fd5b806304f3bcec146100c357806327332dc51461010d575b600080fd5b6003546100e39073ffffffffffffffffffffffffffffffffffffffff1681565b60405173ffffffffffffffffffffffffffffffffffffffff90911681526020015b60405180910390f35b6001546100e39073ffffffffffffffffffffffffffffffffffffffff1681565b61013660025481565b604051908152602001610104565b610157610152366004610843565b6101cb565b005b610157610298565b60005473ffffffffffffffffffffffffffffffffffffffff166100e3565b61015761018d366004610865565b610325565b6101576101a03660046108a1565b6104c4565b6101576101b3366004610843565b610581565b6101576101c6366004610843565b6106b1565b60005473ffffffffffffffffffffffffffffffffffffffff163314610251576040517f08c379a000000000000000000000000000000000000000000000000000000000815260206004820181905260248201527f4f776e61626c653a2063616c6c6572206973206e6f7420746865206f776e657260448201526064015b60405180910390fd5b600380547fffffffffffffffffffffffff00000000000000000000000000000000000000001673ffffffffffffffffffffffffffffffffffffffff92909216919091179055565b60005473ffffffffffffffffffffffffffffffffffffffff163314610319576040517f08c379a000000000000000000000000000000000000000000000000000000000815260206004820181905260248201527f4f776e61626c653a2063616c6c6572206973206e6f7420746865206f776e65726044820152606401610248565b61032360006107a5565b565b60015473ffffffffffffffffffffffffffffffffffffffff163314610376576040517f82b4290000000000000000000000000000000000000000000000000000000000815260040160405180910390fd5b6002543a11156103b2576040517fc0f965d800000000000000000000000000000000000000000000000000000000815260040160405180910390fd5b6040517f018ee9b700000000000000000000000000000000000000000000000000000000815273ffffffffffffffffffffffffffffffffffffffff83811660048301526024820183905284169063018ee9b790604401600060405180830381600087803b15801561042257600080fd5b505af1158015610436573d6000803e3d6000fd5b50506003546040517faf9d98a900000000000000000000000000000000000000000000000000000000815273ffffffffffffffffffffffffffffffffffffffff8681166004830152909116925063af9d98a99150602401600060405180830381600087803b1580156104a757600080fd5b505af11580156104bb573d6000803e3d6000fd5b50505050505050565b60005473ffffffffffffffffffffffffffffffffffffffff163314610545576040517f08c379a000000000000000000000000000000000000000000000000000000000815260206004820181905260248201527f4f776e61626c653a2063616c6c6572206973206e6f7420746865206f776e65726044820152606401610248565b60028190556040518181527f6b58e904da592e8cbf6969fb29df3469c5ee45b11f377cf9283dd31de72029d4906020015b60405180910390a150565b60005473ffffffffffffffffffffffffffffffffffffffff163314610602576040517f08c379a000000000000000000000000000000000000000000000000000000000815260206004820181905260248201527f4f776e61626c653a2063616c6c6572206973206e6f7420746865206f776e65726044820152606401610248565b73ffffffffffffffffffffffffffffffffffffffff81166106a5576040517f08c379a000000000000000000000000000000000000000000000000000000000815260206004820152602660248201527f4f776e61626c653a206e6577206f776e657220697320746865207a65726f206160448201527f64647265737300000000000000000000000000000000000000000000000000006064820152608401610248565b6106ae816107a5565b50565b60005473ffffffffffffffffffffffffffffffffffffffff163314610732576040517f08c379a000000000000000000000000000000000000000000000000000000000815260206004820181905260248201527f4f776e61626c653a2063616c6c6572206973206e6f7420746865206f776e65726044820152606401610248565b600180547fffffffffffffffffffffffff00000000000000000000000000000000000000001673ffffffffffffffffffffffffffffffffffffffff83169081179091556040519081527fdc29c4929e83c41957dc5f6d13c5702f54fa9670f6e0b1b95ede8582e9dda14e90602001610576565b6000805473ffffffffffffffffffffffffffffffffffffffff8381167fffffffffffffffffffffffff0000000000000000000000000000000000000000831681178455604051919092169283917f8be0079c531659141344cd1fd0a4f28419497f9722a3daafe3b4186f6b6457e09190a35050565b803573ffffffffffffffffffffffffffffffffffffffff8116811461083e57600080fd5b919050565b60006020828403121561085557600080fd5b61085e8261081a565b9392505050565b60008060006060848603121561087a57600080fd5b6108838461081a565b92506108916020850161081a565b9150604084013590509250925092565b6000602082840312156108b357600080fd5b503591905056fea264697066735822122055a927dc448415e150fcb8dd04a1670eadfebf9902a9c2aaeba3b70ae36199ea64736f6c634300080b0033",
  "devdoc": {
    "kind": "dev",
    "methods": {
      "harvest(address,address,uint256)": {
        "params": {
          "alchemist": "The address of the target alchemist.",
          "minimumAmountOut": "The minimum amount of tokens expected to be harvested.",
          "yieldToken": "The address of the target yield token."
        }
      },
      "owner()": {
        "details": "Returns the address of the current owner."
      },
      "renounceOwnership()": {
        "details": "Leaves the contract without owner. It will not be possible to call `onlyOwner` functions anymore. Can only be called by the current owner. NOTE: Renouncing ownership will leave the contract without an owner, thereby removing any functionality that is only available to the owner."
      },
      "setMaxGasPrice(uint256)": {
        "params": {
          "newGasPrice": "The new maximum gas price."
        }
      },
      "setPoker(address)": {
        "params": {
          "newPoker": "The new address of the gelato poker."
        }
      },
      "transferOwnership(address)": {
        "details": "Transfers ownership of the contract to a new account (`newOwner`). Can only be called by the current owner."
      }
    },
    "version": 1
  },
  "userdoc": {
    "errors": {
      "TheGasIsTooDamnHigh()": [
        {
          "notice": "Thrown when the gas price set on the tx is greater than the `maxGasPrice`."
        }
      ],
      "Unauthorized()": [
        {
          "notice": "Thrown when any address but the `gelatoPoker` attempts to call the upkeep function."
        }
      ]
    },
    "events": {
      "SetMaxGasPrice(uint256)": {
        "notice": "Emitted when the `maxGasPrice` is updated."
      },
      "SetPoker(address)": {
        "notice": "Emitted when the `gelatoPoker` address is updated."
      }
    },
    "kind": "user",
    "methods": {
      "gelatoPoker()": {
        "notice": "The address of the whitelisted gelato contract."
      },
      "harvest(address,address,uint256)": {
        "notice": "Runs a the specified harvest job."
      },
      "maxGasPrice()": {
        "notice": "The maximum gas price to be spent on any call from the gelato poker."
      },
      "resolver()": {
        "notice": "The address of the resolver."
      },
      "setMaxGasPrice(uint256)": {
        "notice": "Sets the maximum gas price that can be used for an upkeep call."
      },
      "setPoker(address)": {
        "notice": "Sets the address of the whitelisted gelato poker contract."
      }
    },
    "version": 1
  },
  "storageLayout": {
    "storage": [
      {
        "astId": 7,
        "contract": "contracts/AlchemixHarvester.sol:AlchemixHarvester",
        "label": "_owner",
        "offset": 0,
        "slot": "0",
        "type": "t_address"
      },
      {
        "astId": 2092,
        "contract": "contracts/AlchemixHarvester.sol:AlchemixHarvester",
        "label": "gelatoPoker",
        "offset": 0,
        "slot": "1",
        "type": "t_address"
      },
      {
        "astId": 2095,
        "contract": "contracts/AlchemixHarvester.sol:AlchemixHarvester",
        "label": "maxGasPrice",
        "offset": 0,
        "slot": "2",
        "type": "t_uint256"
      },
      {
        "astId": 2162,
        "contract": "contracts/AlchemixHarvester.sol:AlchemixHarvester",
        "label": "resolver",
        "offset": 0,
        "slot": "3",
        "type": "t_address"
      }
    ],
    "types": {
      "t_address": {
        "encoding": "inplace",
        "label": "address",
        "numberOfBytes": "20"
      },
      "t_uint256": {
        "encoding": "inplace",
        "label": "uint256",
        "numberOfBytes": "32"
      }
    }
  }
}