{
  "address": "0x7A172816C0560964E6aD54EF54AFABB035614047",
  "abi": [
    {
      "inputs": [
        {
          "components": [
            {
              "internalType": "address",
              "name": "alchemist",
              "type": "address"
            },
            {
              "internalType": "address",
              "name": "token",
              "type": "address"
            },
            {
              "internalType": "address",
              "name": "underlyingToken",
              "type": "address"
            }
          ],
          "internalType": "struct InitializationParams",
          "name": "params",
          "type": "tuple"
        }
      ],
      "stateMutability": "nonpayable",
      "type": "constructor"
    },
    {
      "inputs": [
        {
          "internalType": "string",
          "name": "message",
          "type": "string"
        }
      ],
      "name": "IllegalState",
      "type": "error"
    },
    {
      "inputs": [
        {
          "internalType": "string",
          "name": "message",
          "type": "string"
        }
      ],
      "name": "Unauthorized",
      "type": "error"
    },
    {
      "inputs": [
        {
          "internalType": "string",
          "name": "message",
          "type": "string"
        }
      ],
      "name": "UnsupportedOperation",
      "type": "error"
    },
    {
      "inputs": [],
      "name": "alchemist",
      "outputs": [
        {
          "internalType": "address",
          "name": "",
          "type": "address"
        }
      ],
      "stateMutability": "view",
      "type": "function"
    },
    {
      "inputs": [],
      "name": "price",
      "outputs": [
        {
          "internalType": "uint256",
          "name": "",
          "type": "uint256"
        }
      ],
      "stateMutability": "view",
      "type": "function"
    },
    {
      "inputs": [],
      "name": "token",
      "outputs": [
        {
          "internalType": "address",
          "name": "",
          "type": "address"
        }
      ],
      "stateMutability": "view",
      "type": "function"
    },
    {
      "inputs": [],
      "name": "underlyingToken",
      "outputs": [
        {
          "internalType": "address",
          "name": "",
          "type": "address"
        }
      ],
      "stateMutability": "view",
      "type": "function"
    },
    {
      "inputs": [
        {
          "internalType": "uint256",
          "name": "amount",
          "type": "uint256"
        },
        {
          "internalType": "address",
          "name": "recipient",
          "type": "address"
        }
      ],
      "name": "unwrap",
      "outputs": [
        {
          "internalType": "uint256",
          "name": "",
          "type": "uint256"
        }
      ],
      "stateMutability": "nonpayable",
      "type": "function"
    },
    {
      "inputs": [],
      "name": "version",
      "outputs": [
        {
          "internalType": "string",
          "name": "",
          "type": "string"
        }
      ],
      "stateMutability": "view",
      "type": "function"
    },
    {
      "inputs": [
        {
          "internalType": "uint256",
          "name": "amount",
          "type": "uint256"
        },
        {
          "internalType": "address",
          "name": "recipient",
          "type": "address"
        }
      ],
      "name": "wrap",
      "outputs": [
        {
          "internalType": "uint256",
          "name": "",
          "type": "uint256"
        }
      ],
      "stateMutability": "nonpayable",
      "type": "function"
    },
    {
      "stateMutability": "payable",
      "type": "receive"
    }
  ],
  "bytecode": {
    "object": "0x6000805460ff19166001908117909155610120604052600560e0819052640312e302e360dc1b61010090815262000037929162000092565b503480156200004557600080fd5b5060405162000dff38038062000dff833981016040819052620000689162000155565b80516001600160a01b039081166080526020820151811660a0526040909101511660c05262000213565b828054620000a090620001d6565b90600052602060002090601f016020900481019282620000c457600085556200010f565b82601f10620000df57805160ff19168380011785556200010f565b828001600101855582156200010f579182015b828111156200010f578251825591602001919060010190620000f2565b506200011d92915062000121565b5090565b5b808211156200011d576000815560010162000122565b80516001600160a01b03811681146200015057600080fd5b919050565b6000606082840312156200016857600080fd5b604051606081016001600160401b03811182821017156200019957634e487b7160e01b600052604160045260246000fd5b604052620001a78362000138565b8152620001b76020840162000138565b6020820152620001ca6040840162000138565b60408201529392505050565b600181811c90821680620001eb57607f821691505b602082108114156200020d57634e487b7160e01b600052602260045260246000fd5b50919050565b60805160a05160c051610b78620002876000396000818160840152818161018c015281816104f4015261056b01526000818160b8015281816102630152818161043f0152818161047e015281816105a601526105d801526000818161021a0152818161029201526103dc0152610b786000f3fe6080604052600436106100745760003560e01c80637647691d1161004e5780637647691d146101e85780638de925f614610208578063a035b1fe1461023c578063fc0c546a1461025157600080fd5b806313bac820146101475780632495a5991461017a57806354fd4d50146101c657600080fd5b3661014257336001600160a01b037f000000000000000000000000000000000000000000000000000000000000000016148015906100db5750336001600160a01b037f00000000000000000000000000000000000000000000000000000000000000001614155b156101405760405163973d02cb60e01b815260206004820152602960248201527f5061796d656e7473206f6e6c79207065726d69747465642066726f6d2057455460448201526809040dee440e48aa8960bb1b60648201526084015b60405180910390fd5b005b600080fd5b34801561015357600080fd5b50610167610162366004610929565b610285565b6040519081526020015b60405180910390f35b34801561018657600080fd5b506101ae7f000000000000000000000000000000000000000000000000000000000000000081565b6040516001600160a01b039091168152602001610171565b3480156101d257600080fd5b506101db610339565b6040516101719190610965565b3480156101f457600080fd5b50610167610203366004610929565b6103c7565b34801561021457600080fd5b506101ae7f000000000000000000000000000000000000000000000000000000000000000081565b34801561024857600080fd5b506101676105a2565b34801561025d57600080fd5b506101ae7f000000000000000000000000000000000000000000000000000000000000000081565b6000336001600160a01b037f000000000000000000000000000000000000000000000000000000000000000016146102f05760405163973d02cb60e01b815260206004820152600d60248201526c139bdd08185b18da195b5a5cdd609a1b6044820152606401610137565b6040516339e7b60b60e21b815260206004820152601960248201527f5772617070696e67206973206e6f7420737570706f72746564000000000000006044820152606401610137565b60018054610346906109ba565b80601f0160208091040260200160405190810160405280929190818152602001828054610372906109ba565b80156103bf5780601f10610394576101008083540402835291602001916103bf565b820191906000526020600020905b8154815290600101906020018083116103a257829003601f168201915b505050505081565b60006103d161066b565b336001600160a01b037f0000000000000000000000000000000000000000000000000000000000000000161461043a5760405163973d02cb60e01b815260206004820152600d60248201526c139bdd08185b18da195b5a5cdd609a1b6044820152606401610137565b6104667f00000000000000000000000000000000000000000000000000000000000000003330866106e0565b604051630852cd8d60e31b81526004810184905247907f00000000000000000000000000000000000000000000000000000000000000006001600160a01b0316906342966c6890602401600060405180830381600087803b1580156104ca57600080fd5b505af11580156104de573d6000803e3d6000fd5b50505050600081476104f09190610a05565b90507f00000000000000000000000000000000000000000000000000000000000000006001600160a01b031663d0e30db0826040518263ffffffff1660e01b81526004016000604051808303818588803b15801561054d57600080fd5b505af1158015610561573d6000803e3d6000fd5b50505050506105917f00000000000000000000000000000000000000000000000000000000000000008583610788565b91505061059c610816565b92915050565b60007f00000000000000000000000000000000000000000000000000000000000000006001600160a01b0316638b32fa236105fc7f0000000000000000000000000000000000000000000000000000000000000000610829565b61060790600a610b00565b6040518263ffffffff1660e01b815260040161062591815260200190565b602060405180830381865afa158015610642573d6000803e3d6000fd5b505050506040513d601f19601f820116820180604052508101906106669190610b13565b905090565b600160005460ff16600281111561068457610684610b2c565b146106c95760405163c50656df60e01b8152602060048201526014602482015273131bd8dac8185b1c9958591e4818db185a5b595960621b6044820152606401610137565b600080546002919060ff19166001835b0217905550565b60006040516323b872dd60e01b81526001600160a01b03851660048201526001600160a01b038416602482015282604482015260008060648360008a5af191505061072a816108ab565b6107815760405163c50656df60e01b815260206004820152602160248201527f4578706563746564207472616e736665722066726f6d20746f207375636365656044820152601960fa1b6064820152608401610137565b5050505050565b600060405163a9059cbb60e01b81526001600160a01b03841660048201528260248201526000806044836000895af19150506107c3816108ab565b6108105760405163c50656df60e01b815260206004820152601c60248201527f4578706563746564207472616e7366657220746f2073756363656564000000006044820152606401610137565b50505050565b600080546001919060ff191682806106d9565b60008060405163313ce56760e01b8152600080600483875afa915050600080610851836108f0565b91509150806108a35760405163c50656df60e01b815260206004820181905260248201527f446563696d616c732063616c6c206d616c666f726d656420726573706f6e73656044820152606401610137565b509392505050565b6000816108bc573d6000803e3d6000fd5b3d602081146108d45780156108e557600091506108ea565b3d6000803e600051151591506108ea565b600191505b50919050565b60008082610902573d6000803e3d6000fd5b3d602081146109145760009150610923565b3d6000803e6000519250600191505b50915091565b6000806040838503121561093c57600080fd5b8235915060208301356001600160a01b038116811461095a57600080fd5b809150509250929050565b600060208083528351808285015260005b8181101561099257858101830151858201604001528201610976565b818111156109a4576000604083870101525b50601f01601f1916929092016040019392505050565b600181811c908216806109ce57607f821691505b602082108114156108ea57634e487b7160e01b600052602260045260246000fd5b634e487b7160e01b600052601160045260246000fd5b600082821015610a1757610a176109ef565b500390565b600181815b80851115610a57578160001904821115610a3d57610a3d6109ef565b80851615610a4a57918102915b93841c9390800290610a21565b509250929050565b600082610a6e5750600161059c565b81610a7b5750600061059c565b8160018114610a915760028114610a9b57610ab7565b600191505061059c565b60ff841115610aac57610aac6109ef565b50506001821b61059c565b5060208310610133831016604e8410600b8410161715610ada575081810a61059c565b610ae48383610a1c565b8060001904821115610af857610af86109ef565b029392505050565b6000610b0c8383610a5f565b9392505050565b600060208284031215610b2557600080fd5b5051919050565b634e487b7160e01b600052602160045260246000fdfea264697066735822122028adafb4e53bca4816fcab1c409a5aed7291af9910af4f5d721b8ee0add84a3d64736f6c634300080b0033",
    "linkReferences": {}
  }
}