{
  "address": "0x3c2c6FA5398CDD933465F6fD04F3575f7201BCF8",
  "abi": [
    {
      "inputs": [
        {
          "components": [
            {
              "internalType": "address",
              "name": "alchemist",
              "type": "address"
            },
            {
              "internalType": "address",
              "name": "token",
              "type": "address"
            },
            {
              "internalType": "address",
              "name": "parentToken",
              "type": "address"
            },
            {
              "internalType": "address",
              "name": "underlyingToken",
              "type": "address"
            },
            {
              "internalType": "address",
              "name": "curvePool",
              "type": "address"
            },
            {
              "internalType": "uint256",
              "name": "ethPoolIndex",
              "type": "uint256"
            },
            {
              "internalType": "uint256",
              "name": "stEthPoolIndex",
              "type": "uint256"
            },
            {
              "internalType": "address",
              "name": "referral",
              "type": "address"
            }
          ],
          "internalType": "struct InitializationParams",
          "name": "params",
          "type": "tuple"
        }
      ],
      "stateMutability": "nonpayable",
      "type": "constructor"
    },
    {
      "inputs": [
        {
          "internalType": "string",
          "name": "message",
          "type": "string"
        }
      ],
      "name": "IllegalArgument",
      "type": "error"
    },
    {
      "inputs": [
        {
          "internalType": "string",
          "name": "message",
          "type": "string"
        }
      ],
      "name": "IllegalState",
      "type": "error"
    },
    {
      "inputs": [
        {
          "internalType": "string",
          "name": "message",
          "type": "string"
        }
      ],
      "name": "Unauthorized",
      "type": "error"
    },
    {
      "inputs": [],
      "name": "alchemist",
      "outputs": [
        {
          "internalType": "address",
          "name": "",
          "type": "address"
        }
      ],
      "stateMutability": "view",
      "type": "function"
    },
    {
      "inputs": [],
      "name": "curvePool",
      "outputs": [
        {
          "internalType": "address",
          "name": "",
          "type": "address"
        }
      ],
      "stateMutability": "view",
      "type": "function"
    },
    {
      "inputs": [],
      "name": "ethPoolIndex",
      "outputs": [
        {
          "internalType": "uint256",
          "name": "",
          "type": "uint256"
        }
      ],
      "stateMutability": "view",
      "type": "function"
    },
    {
      "inputs": [],
      "name": "parentToken",
      "outputs": [
        {
          "internalType": "address",
          "name": "",
          "type": "address"
        }
      ],
      "stateMutability": "view",
      "type": "function"
    },
    {
      "inputs": [],
      "name": "price",
      "outputs": [
        {
          "internalType": "uint256",
          "name": "",
          "type": "uint256"
        }
      ],
      "stateMutability": "view",
      "type": "function"
    },
    {
      "inputs": [],
      "name": "referral",
      "outputs": [
        {
          "internalType": "address",
          "name": "",
          "type": "address"
        }
      ],
      "stateMutability": "view",
      "type": "function"
    },
    {
      "inputs": [],
      "name": "stEthPoolIndex",
      "outputs": [
        {
          "internalType": "uint256",
          "name": "",
          "type": "uint256"
        }
      ],
      "stateMutability": "view",
      "type": "function"
    },
    {
      "inputs": [],
      "name": "token",
      "outputs": [
        {
          "internalType": "address",
          "name": "",
          "type": "address"
        }
      ],
      "stateMutability": "view",
      "type": "function"
    },
    {
      "inputs": [],
      "name": "underlyingToken",
      "outputs": [
        {
          "internalType": "address",
          "name": "",
          "type": "address"
        }
      ],
      "stateMutability": "view",
      "type": "function"
    },
    {
      "inputs": [
        {
          "internalType": "uint256",
          "name": "amount",
          "type": "uint256"
        },
        {
          "internalType": "address",
          "name": "recipient",
          "type": "address"
        }
      ],
      "name": "unwrap",
      "outputs": [
        {
          "internalType": "uint256",
          "name": "",
          "type": "uint256"
        }
      ],
      "stateMutability": "nonpayable",
      "type": "function"
    },
    {
      "inputs": [],
      "name": "version",
      "outputs": [
        {
          "internalType": "string",
          "name": "",
          "type": "string"
        }
      ],
      "stateMutability": "view",
      "type": "function"
    },
    {
      "inputs": [
        {
          "internalType": "uint256",
          "name": "amount",
          "type": "uint256"
        },
        {
          "internalType": "address",
          "name": "recipient",
          "type": "address"
        }
      ],
      "name": "wrap",
      "outputs": [
        {
          "internalType": "uint256",
          "name": "",
          "type": "uint256"
        }
      ],
      "stateMutability": "nonpayable",
      "type": "function"
    },
    {
      "stateMutability": "payable",
      "type": "receive"
    }
  ],
  "bytecode": {
    "object": "0x6000805460ff191660019081179091556101c06040526005610180819052640312e302e360dc1b6101a090815262000038929162000292565b503480156200004657600080fd5b506040516200189a3803806200189a833981016040819052620000699162000355565b80516001600160a01b0390811660809081526020830151821660a0908152604080850151841660c09081526060860151851660e0908152938601805186166101005292860180516101205290860151610140529285015184166101605290519151905163c661065760e01b8152600481019190915291169063c661065790602401602060405180830381865afa15801562000108573d6000803e3d6000fd5b505050506040513d601f19601f820116820180604052508101906200012e919062000427565b6001600160a01b031673eeeeeeeeeeeeeeeeeeeeeeeeeeeeeeeeeeeeeeee6001600160a01b031614620001a9576040516354a1577760e11b815260206004820152601d60248201527f437572766520706f6f6c2045544820746f6b656e206d69736d6174636800000060448201526064015b60405180910390fd5b80604001516001600160a01b031681608001516001600160a01b031663c66106578360c001516040518263ffffffff1660e01b8152600401620001ee91815260200190565b602060405180830381865afa1580156200020c573d6000803e3d6000fd5b505050506040513d601f19601f8201168201806040525081019062000232919062000427565b6001600160a01b0316146200028b576040516354a1577760e11b815260206004820152601f60248201527f437572766520706f6f6c20737445544820746f6b656e206d69736d61746368006044820152606401620001a0565b5062000489565b828054620002a0906200044c565b90600052602060002090601f016020900481019282620002c457600085556200030f565b82601f10620002df57805160ff19168380011785556200030f565b828001600101855582156200030f579182015b828111156200030f578251825591602001919060010190620002f2565b506200031d92915062000321565b5090565b5b808211156200031d576000815560010162000322565b80516001600160a01b03811681146200035057600080fd5b919050565b60006101008083850312156200036a57600080fd5b604051908101906001600160401b03821181831017156200039b57634e487b7160e01b600052604160045260246000fd5b81604052620003aa8462000338565b8152620003ba6020850162000338565b6020820152620003cd6040850162000338565b6040820152620003e06060850162000338565b6060820152620003f36080850162000338565b608082015260a084015160a082015260c084015160c08201526200041a60e0850162000338565b60e0820152949350505050565b6000602082840312156200043a57600080fd5b620004458262000338565b9392505050565b600181811c908216806200046157607f821691505b602082108114156200048357634e487b7160e01b600052602260045260246000fd5b50919050565b60805160a05160c05160e051610100516101205161014051610160516112f0620005aa600039600081816101c901526105810152600081816103270152610b0b0152600081816103700152610b3601526000818160ef0152818161021501528181610ad70152610b6f01526000818160bb015281816102490152818161043e0152818161047b01528181610be80152610c5f0152600081816102bf015281816105ac01528181610640015281816106bc0152818161091401528181610a2e0152610ab60152600081816103a4015281816104f6015281816106dd0152818161071b01528181610797015281816108d5015281816109a001528181610c960152610cc80152600081816102f3015281816103db015261087201526112f06000f3fe6080604052600436106100ab5760003560e01c806380a540011161006457806380a54001146102ad5780638de925f6146102e15780638f873bde14610315578063a035b1fe14610349578063e0c88bf91461035e578063fc0c546a1461039257600080fd5b806313bac820146101845780631441a5a9146101b7578063218751b2146102035780632495a5991461023757806354fd4d501461026b5780637647691d1461028d57600080fd5b3661017f57336001600160a01b037f000000000000000000000000000000000000000000000000000000000000000016148015906101125750336001600160a01b037f00000000000000000000000000000000000000000000000000000000000000001614155b1561017d5760405163973d02cb60e01b815260206004820152602f60248201527f5061796d656e7473206f6e6c79207065726d69747465642066726f6d2057455460448201526e12081bdc8818dd5c9d99481c1bdbdb608a1b60648201526084015b60405180910390fd5b005b600080fd5b34801561019057600080fd5b506101a461019f3660046110a1565b6103c6565b6040519081526020015b60405180910390f35b3480156101c357600080fd5b506101eb7f000000000000000000000000000000000000000000000000000000000000000081565b6040516001600160a01b0390911681526020016101ae565b34801561020f57600080fd5b506101eb7f000000000000000000000000000000000000000000000000000000000000000081565b34801561024357600080fd5b506101eb7f000000000000000000000000000000000000000000000000000000000000000081565b34801561027757600080fd5b506102806107cf565b6040516101ae91906110dd565b34801561029957600080fd5b506101a46102a83660046110a1565b61085d565b3480156102b957600080fd5b506101eb7f000000000000000000000000000000000000000000000000000000000000000081565b3480156102ed57600080fd5b506101eb7f000000000000000000000000000000000000000000000000000000000000000081565b34801561032157600080fd5b506101a47f000000000000000000000000000000000000000000000000000000000000000081565b34801561035557600080fd5b506101a4610c92565b34801561036a57600080fd5b506101a47f000000000000000000000000000000000000000000000000000000000000000081565b34801561039e57600080fd5b506101eb7f000000000000000000000000000000000000000000000000000000000000000081565b60006103d0610d5b565b336001600160a01b037f000000000000000000000000000000000000000000000000000000000000000016146104395760405163973d02cb60e01b815260206004820152600d60248201526c139bdd08185b18da195b5a5cdd609a1b6044820152606401610174565b6104657f0000000000000000000000000000000000000000000000000000000000000000333086610dd0565b604051632e1a7d4d60e01b8152600481018490527f00000000000000000000000000000000000000000000000000000000000000006001600160a01b031690632e1a7d4d90602401600060405180830381600087803b1580156104c757600080fd5b505af11580156104db573d6000803e3d6000fd5b50506040516370a0823160e01b8152306004820152600092507f00000000000000000000000000000000000000000000000000000000000000006001600160a01b031691506370a0823190602401602060405180830381865afa158015610546573d6000803e3d6000fd5b505050506040513d601f19601f8201168201806040525081019061056a9190611132565b60405163a1903eab60e01b81526001600160a01b037f0000000000000000000000000000000000000000000000000000000000000000811660048301529192507f00000000000000000000000000000000000000000000000000000000000000009091169063a1903eab90869060240160206040518083038185885af11580156105f8573d6000803e3d6000fd5b50505050506040513d601f19601f8201168201806040525081019061061d9190611132565b506040516370a0823160e01b815230600482015260009082906001600160a01b037f000000000000000000000000000000000000000000000000000000000000000016906370a0823190602401602060405180830381865afa158015610687573d6000803e3d6000fd5b505050506040513d601f19601f820116820180604052508101906106ab9190611132565b6106b59190611161565b90506107027f00000000000000000000000000000000000000000000000000000000000000007f000000000000000000000000000000000000000000000000000000000000000083610e78565b604051630ea598cb60e41b8152600481018290526000907f00000000000000000000000000000000000000000000000000000000000000006001600160a01b03169063ea598cb0906024016020604051808303816000875af115801561076c573d6000803e3d6000fd5b505050506040513d601f19601f820116820180604052508101906107909190611132565b90506107bd7f00000000000000000000000000000000000000000000000000000000000000008683610f06565b925050506107c9610f8e565b92915050565b600180546107dc90611178565b80601f016020809104026020016040519081016040528092919081815260200182805461080890611178565b80156108555780601f1061082a57610100808354040283529160200191610855565b820191906000526020600020905b81548152906001019060200180831161083857829003601f168201915b505050505081565b6000610867610d5b565b336001600160a01b037f000000000000000000000000000000000000000000000000000000000000000016146108d05760405163973d02cb60e01b815260206004820152600d60248201526c139bdd08185b18da195b5a5cdd609a1b6044820152606401610174565b6108fc7f0000000000000000000000000000000000000000000000000000000000000000333086610dd0565b6040516370a0823160e01b81523060048201526000907f00000000000000000000000000000000000000000000000000000000000000006001600160a01b0316906370a0823190602401602060405180830381865afa158015610963573d6000803e3d6000fd5b505050506040513d601f19601f820116820180604052508101906109879190611132565b604051636f074d1f60e11b8152600481018690529091507f00000000000000000000000000000000000000000000000000000000000000006001600160a01b03169063de0e9a3e906024016020604051808303816000875af11580156109f1573d6000803e3d6000fd5b505050506040513d601f19601f82011682018060405250810190610a159190611132565b506040516370a0823160e01b81523060048201526000907f00000000000000000000000000000000000000000000000000000000000000006001600160a01b0316906370a0823190602401602060405180830381865afa158015610a7d573d6000803e3d6000fd5b505050506040513d601f19601f82011682018060405250810190610aa19190611132565b90506000610aaf8383611161565b9050610afc7f00000000000000000000000000000000000000000000000000000000000000007f000000000000000000000000000000000000000000000000000000000000000083610e78565b604051630f7c084960e21b81527f0000000000000000000000000000000000000000000000000000000000000000600f90810b60048301527f0000000000000000000000000000000000000000000000000000000000000000900b602482015260448101829052600060648201819052907f00000000000000000000000000000000000000000000000000000000000000006001600160a01b031690633df02124906084016020604051808303816000875af1158015610bc0573d6000803e3d6000fd5b505050506040513d601f19601f82011682018060405250810190610be49190611132565b90507f00000000000000000000000000000000000000000000000000000000000000006001600160a01b031663d0e30db0826040518263ffffffff1660e01b81526004016000604051808303818588803b158015610c4157600080fd5b505af1158015610c55573d6000803e3d6000fd5b5050505050610c857f00000000000000000000000000000000000000000000000000000000000000008783610f06565b93505050506107c9610f8e565b60007f00000000000000000000000000000000000000000000000000000000000000006001600160a01b031663bb2952fc610cec7f0000000000000000000000000000000000000000000000000000000000000000610fa1565b610cf790600a611291565b6040518263ffffffff1660e01b8152600401610d1591815260200190565b602060405180830381865afa158015610d32573d6000803e3d6000fd5b505050506040513d601f19601f82011682018060405250810190610d569190611132565b905090565b600160005460ff166002811115610d7457610d746112a4565b14610db95760405163c50656df60e01b8152602060048201526014602482015273131bd8dac8185b1c9958591e4818db185a5b595960621b6044820152606401610174565b600080546002919060ff19166001835b0217905550565b60006040516323b872dd60e01b81526001600160a01b03851660048201526001600160a01b038416602482015282604482015260008060648360008a5af1915050610e1a81611023565b610e715760405163c50656df60e01b815260206004820152602160248201527f4578706563746564207472616e736665722066726f6d20746f207375636365656044820152601960fa1b6064820152608401610174565b5050505050565b600060405163095ea7b360e01b81526001600160a01b03841660048201528260248201526000806044836000895af1915050610eb381611023565b610f005760405163c50656df60e01b815260206004820152601c60248201527f457870656374656420617070726f76616c20746f2073756363656564000000006044820152606401610174565b50505050565b600060405163a9059cbb60e01b81526001600160a01b03841660048201528260248201526000806044836000895af1915050610f4181611023565b610f005760405163c50656df60e01b815260206004820152601c60248201527f4578706563746564207472616e7366657220746f2073756363656564000000006044820152606401610174565b600080546001919060ff19168280610dc9565b60008060405163313ce56760e01b8152600080600483875afa915050600080610fc983611068565b915091508061101b5760405163c50656df60e01b815260206004820181905260248201527f446563696d616c732063616c6c206d616c666f726d656420726573706f6e73656044820152606401610174565b509392505050565b600081611034573d6000803e3d6000fd5b3d6020811461104c57801561105d5760009150611062565b3d6000803e60005115159150611062565b600191505b50919050565b6000808261107a573d6000803e3d6000fd5b3d6020811461108c576000915061109b565b3d6000803e6000519250600191505b50915091565b600080604083850312156110b457600080fd5b8235915060208301356001600160a01b03811681146110d257600080fd5b809150509250929050565b600060208083528351808285015260005b8181101561110a578581018301518582016040015282016110ee565b8181111561111c576000604083870101525b50601f01601f1916929092016040019392505050565b60006020828403121561114457600080fd5b5051919050565b634e487b7160e01b600052601160045260246000fd5b6000828210156111735761117361114b565b500390565b600181811c9082168061118c57607f821691505b6020821081141561106257634e487b7160e01b600052602260045260246000fd5b600181815b808511156111e85781600019048211156111ce576111ce61114b565b808516156111db57918102915b93841c93908002906111b2565b509250929050565b6000826111ff575060016107c9565b8161120c575060006107c9565b8160018114611222576002811461122c57611248565b60019150506107c9565b60ff84111561123d5761123d61114b565b50506001821b6107c9565b5060208310610133831016604e8410600b841016171561126b575081810a6107c9565b61127583836111ad565b80600019048211156112895761128961114b565b029392505050565b600061129d83836111f0565b9392505050565b634e487b7160e01b600052602160045260246000fdfea26469706673582212204abee5441ec183193c3b65f2fbdbf8d2f8d942602e0bb6afc4d8522aa2e43e5964736f6c634300080b0033",
    "linkReferences": {}
  }
}