{
  "_format": "hh-sol-artifact-1",
  "contractName": "ERC20Mock",
  "sourceName": "contracts/test/ERC20Mock.sol",
  "abi": [
    {
      "inputs": [
        {
          "internalType": "string",
          "name": "_name",
          "type": "string"
        },
        {
          "internalType": "string",
          "name": "_symbol",
          "type": "string"
        },
        {
          "internalType": "uint8",
          "name": "mockDecimals",
          "type": "uint8"
        }
      ],
      "stateMutability": "nonpayable",
      "type": "constructor"
    },
    {
      "anonymous": false,
      "inputs": [
        {
          "indexed": true,
          "internalType": "address",
          "name": "owner",
          "type": "address"
        },
        {
          "indexed": true,
          "internalType": "address",
          "name": "spender",
          "type": "address"
        },
        {
          "indexed": false,
          "internalType": "uint256",
          "name": "value",
          "type": "uint256"
        }
      ],
      "name": "Approval",
      "type": "event"
    },
    {
      "anonymous": false,
      "inputs": [
        {
          "indexed": true,
          "internalType": "address",
          "name": "from",
          "type": "address"
        },
        {
          "indexed": true,
          "internalType": "address",
          "name": "to",
          "type": "address"
        },
        {
          "indexed": false,
          "internalType": "uint256",
          "name": "value",
          "type": "uint256"
        }
      ],
      "name": "Transfer",
      "type": "event"
    },
    {
      "inputs": [
        {
          "internalType": "address",
          "name": "owner",
          "type": "address"
        },
        {
          "internalType": "address",
          "name": "spender",
          "type": "address"
        }
      ],
      "name": "allowance",
      "outputs": [
        {
          "internalType": "uint256",
          "name": "",
          "type": "uint256"
        }
      ],
      "stateMutability": "view",
      "type": "function"
    },
    {
      "inputs": [
        {
          "internalType": "address",
          "name": "spender",
          "type": "address"
        },
        {
          "internalType": "uint256",
          "name": "amount",
          "type": "uint256"
        }
      ],
      "name": "approve",
      "outputs": [
        {
          "internalType": "bool",
          "name": "",
          "type": "bool"
        }
      ],
      "stateMutability": "nonpayable",
      "type": "function"
    },
    {
      "inputs": [
        {
          "internalType": "address",
          "name": "account",
          "type": "address"
        }
      ],
      "name": "balanceOf",
      "outputs": [
        {
          "internalType": "uint256",
          "name": "",
          "type": "uint256"
        }
      ],
      "stateMutability": "view",
      "type": "function"
    },
    {
      "inputs": [
        {
          "internalType": "uint256",
          "name": "_amount",
          "type": "uint256"
        }
      ],
      "name": "burn",
      "outputs": [],
      "stateMutability": "nonpayable",
      "type": "function"
    },
    {
      "inputs": [
        {
          "internalType": "address",
          "name": "_account",
          "type": "address"
        },
        {
          "internalType": "uint256",
          "name": "_amount",
          "type": "uint256"
        }
      ],
      "name": "burn",
      "outputs": [],
      "stateMutability": "nonpayable",
      "type": "function"
    },
    {
      "inputs": [],
      "name": "dec",
      "outputs": [
        {
          "internalType": "uint8",
          "name": "",
          "type": "uint8"
        }
      ],
      "stateMutability": "view",
      "type": "function"
    },
    {
      "inputs": [],
      "name": "decimals",
      "outputs": [
        {
          "internalType": "uint8",
          "name": "",
          "type": "uint8"
        }
      ],
      "stateMutability": "view",
      "type": "function"
    },
    {
      "inputs": [
        {
          "internalType": "address",
          "name": "spender",
          "type": "address"
        },
        {
          "internalType": "uint256",
          "name": "subtractedValue",
          "type": "uint256"
        }
      ],
      "name": "decreaseAllowance",
      "outputs": [
        {
          "internalType": "bool",
          "name": "",
          "type": "bool"
        }
      ],
      "stateMutability": "nonpayable",
      "type": "function"
    },
    {
      "inputs": [
        {
          "internalType": "address",
          "name": "spender",
          "type": "address"
        },
        {
          "internalType": "uint256",
          "name": "addedValue",
          "type": "uint256"
        }
      ],
      "name": "increaseAllowance",
      "outputs": [
        {
          "internalType": "bool",
          "name": "",
          "type": "bool"
        }
      ],
      "stateMutability": "nonpayable",
      "type": "function"
    },
    {
      "inputs": [
        {
          "internalType": "address",
          "name": "_recipient",
          "type": "address"
        },
        {
          "internalType": "uint256",
          "name": "_amount",
          "type": "uint256"
        }
      ],
      "name": "mint",
      "outputs": [],
      "stateMutability": "nonpayable",
      "type": "function"
    },
    {
      "inputs": [],
      "name": "name",
      "outputs": [
        {
          "internalType": "string",
          "name": "",
          "type": "string"
        }
      ],
      "stateMutability": "view",
      "type": "function"
    },
    {
      "inputs": [],
      "name": "symbol",
      "outputs": [
        {
          "internalType": "string",
          "name": "",
          "type": "string"
        }
      ],
      "stateMutability": "view",
      "type": "function"
    },
    {
      "inputs": [],
      "name": "totalSupply",
      "outputs": [
        {
          "internalType": "uint256",
          "name": "",
          "type": "uint256"
        }
      ],
      "stateMutability": "view",
      "type": "function"
    },
    {
      "inputs": [
        {
          "internalType": "address",
          "name": "recipient",
          "type": "address"
        },
        {
          "internalType": "uint256",
          "name": "amount",
          "type": "uint256"
        }
      ],
      "name": "transfer",
      "outputs": [
        {
          "internalType": "bool",
          "name": "",
          "type": "bool"
        }
      ],
      "stateMutability": "nonpayable",
      "type": "function"
    },
    {
      "inputs": [
        {
          "internalType": "address",
          "name": "sender",
          "type": "address"
        },
        {
          "internalType": "address",
          "name": "recipient",
          "type": "address"
        },
        {
          "internalType": "uint256",
          "name": "amount",
          "type": "uint256"
        }
      ],
      "name": "transferFrom",
      "outputs": [
        {
          "internalType": "bool",
          "name": "",
          "type": "bool"
        }
      ],
      "stateMutability": "nonpayable",
      "type": "function"
    }
  ],
  "bytecode": "0x60806040523480156200001157600080fd5b5060405162000eae38038062000eae8339810160408190526200003491620001f7565b8251839083906200004d90600390602085019062000084565b5080516200006390600490602084019062000084565b50506005805460ff191660ff939093169290921790915550620002b9915050565b82805462000092906200027c565b90600052602060002090601f016020900481019282620000b6576000855562000101565b82601f10620000d157805160ff191683800117855562000101565b8280016001018555821562000101579182015b8281111562000101578251825591602001919060010190620000e4565b506200010f92915062000113565b5090565b5b808211156200010f576000815560010162000114565b634e487b7160e01b600052604160045260246000fd5b600082601f8301126200015257600080fd5b81516001600160401b03808211156200016f576200016f6200012a565b604051601f8301601f19908116603f011681019082821181831017156200019a576200019a6200012a565b81604052838152602092508683858801011115620001b757600080fd5b600091505b83821015620001db5785820183015181830184015290820190620001bc565b83821115620001ed5760008385830101525b9695505050505050565b6000806000606084860312156200020d57600080fd5b83516001600160401b03808211156200022557600080fd5b620002338783880162000140565b945060208601519150808211156200024a57600080fd5b50620002598682870162000140565b925050604084015160ff811681146200027157600080fd5b809150509250925092565b600181811c908216806200029157607f821691505b60208210811415620002b357634e487b7160e01b600052602260045260246000fd5b50919050565b610be580620002c96000396000f3fe608060405234801561001057600080fd5b50600436106100f55760003560e01c806342966c6811610097578063a457c2d711610066578063a457c2d7146101f8578063a9059cbb1461020b578063b3bcfa821461021e578063dd62ed3e1461022b57600080fd5b806342966c68146101a157806370a08231146101b457806395d89b41146101dd5780639dc29fac146101e557600080fd5b806323b872dd116100d357806323b872dd1461014d578063313ce56714610160578063395093511461017957806340c10f191461018c57600080fd5b806306fdde03146100fa578063095ea7b31461011857806318160ddd1461013b575b600080fd5b610102610264565b60405161010f91906109ea565b60405180910390f35b61012b610126366004610a5b565b6102f6565b604051901515815260200161010f565b6002545b60405190815260200161010f565b61012b61015b366004610a85565b61030c565b60055460ff165b60405160ff909116815260200161010f565b61012b610187366004610a5b565b6103bb565b61019f61019a366004610a5b565b6103f7565b005b61019f6101af366004610ac1565b610405565b61013f6101c2366004610ada565b6001600160a01b031660009081526020819052604090205490565b610102610412565b61019f6101f3366004610a5b565b610421565b61012b610206366004610a5b565b61042b565b61012b610219366004610a5b565b6104c4565b6005546101679060ff1681565b61013f610239366004610afc565b6001600160a01b03918216600090815260016020908152604080832093909416825291909152205490565b60606003805461027390610b2f565b80601f016020809104026020016040519081016040528092919081815260200182805461029f90610b2f565b80156102ec5780601f106102c1576101008083540402835291602001916102ec565b820191906000526020600020905b8154815290600101906020018083116102cf57829003601f168201915b5050505050905090565b60006103033384846104d1565b50600192915050565b60006103198484846105f6565b6001600160a01b0384166000908152600160209081526040808320338452909152902054828110156103a35760405162461bcd60e51b815260206004820152602860248201527f45524332303a207472616e7366657220616d6f756e74206578636565647320616044820152676c6c6f77616e636560c01b60648201526084015b60405180910390fd5b6103b085338584036104d1565b506001949350505050565b3360008181526001602090815260408083206001600160a01b038716845290915281205490916103039185906103f2908690610b80565b6104d1565b61040182826107c5565b5050565b61040f33826108a4565b50565b60606004805461027390610b2f565b61040182826108a4565b3360009081526001602090815260408083206001600160a01b0386168452909152812054828110156104ad5760405162461bcd60e51b815260206004820152602560248201527f45524332303a2064656372656173656420616c6c6f77616e63652062656c6f77604482015264207a65726f60d81b606482015260840161039a565b6104ba33858584036104d1565b5060019392505050565b60006103033384846105f6565b6001600160a01b0383166105335760405162461bcd60e51b8152602060048201526024808201527f45524332303a20617070726f76652066726f6d20746865207a65726f206164646044820152637265737360e01b606482015260840161039a565b6001600160a01b0382166105945760405162461bcd60e51b815260206004820152602260248201527f45524332303a20617070726f766520746f20746865207a65726f206164647265604482015261737360f01b606482015260840161039a565b6001600160a01b0383811660008181526001602090815260408083209487168084529482529182902085905590518481527f8c5be1e5ebec7d5bd14f71427d1e84f3dd0314c0f7b2291e5b200ac8c7c3b92591015b60405180910390a3505050565b6001600160a01b03831661065a5760405162461bcd60e51b815260206004820152602560248201527f45524332303a207472616e736665722066726f6d20746865207a65726f206164604482015264647265737360d81b606482015260840161039a565b6001600160a01b0382166106bc5760405162461bcd60e51b815260206004820152602360248201527f45524332303a207472616e7366657220746f20746865207a65726f206164647260448201526265737360e81b606482015260840161039a565b6001600160a01b038316600090815260208190526040902054818110156107345760405162461bcd60e51b815260206004820152602660248201527f45524332303a207472616e7366657220616d6f756e7420657863656564732062604482015265616c616e636560d01b606482015260840161039a565b6001600160a01b0380851660009081526020819052604080822085850390559185168152908120805484929061076b908490610b80565b92505081905550826001600160a01b0316846001600160a01b03167fddf252ad1be2c89b69c2b068fc378daa952ba7f163c4a11628f55a4df523b3ef846040516107b791815260200190565b60405180910390a350505050565b6001600160a01b03821661081b5760405162461bcd60e51b815260206004820152601f60248201527f45524332303a206d696e7420746f20746865207a65726f206164647265737300604482015260640161039a565b806002600082825461082d9190610b80565b90915550506001600160a01b0382166000908152602081905260408120805483929061085a908490610b80565b90915550506040518181526001600160a01b038316906000907fddf252ad1be2c89b69c2b068fc378daa952ba7f163c4a11628f55a4df523b3ef9060200160405180910390a35050565b6001600160a01b0382166109045760405162461bcd60e51b815260206004820152602160248201527f45524332303a206275726e2066726f6d20746865207a65726f206164647265736044820152607360f81b606482015260840161039a565b6001600160a01b038216600090815260208190526040902054818110156109785760405162461bcd60e51b815260206004820152602260248201527f45524332303a206275726e20616d6f756e7420657863656564732062616c616e604482015261636560f01b606482015260840161039a565b6001600160a01b03831660009081526020819052604081208383039055600280548492906109a7908490610b98565b90915550506040518281526000906001600160a01b038516907fddf252ad1be2c89b69c2b068fc378daa952ba7f163c4a11628f55a4df523b3ef906020016105e9565b600060208083528351808285015260005b81811015610a17578581018301518582016040015282016109fb565b81811115610a29576000604083870101525b50601f01601f1916929092016040019392505050565b80356001600160a01b0381168114610a5657600080fd5b919050565b60008060408385031215610a6e57600080fd5b610a7783610a3f565b946020939093013593505050565b600080600060608486031215610a9a57600080fd5b610aa384610a3f565b9250610ab160208501610a3f565b9150604084013590509250925092565b600060208284031215610ad357600080fd5b5035919050565b600060208284031215610aec57600080fd5b610af582610a3f565b9392505050565b60008060408385031215610b0f57600080fd5b610b1883610a3f565b9150610b2660208401610a3f565b90509250929050565b600181811c90821680610b4357607f821691505b60208210811415610b6457634e487b7160e01b600052602260045260246000fd5b50919050565b634e487b7160e01b600052601160045260246000fd5b60008219821115610b9357610b93610b6a565b500190565b600082821015610baa57610baa610b6a565b50039056fea26469706673582212200b400f11fd6e6f7dfd14c8ccfb230becf2e317bfc76ac8565596c33affd7b82e64736f6c634300080b0033",
  "linkReferences": {},
  "deployedLinkReferences": {}
}