{
  "_format": "hh-sol-artifact-1",
  "contractName": "TransmuterV2",
  "sourceName": "contracts/TransmuterV2.sol",
  "abi": [
    {
      "inputs": [],
      "stateMutability": "nonpayable",
      "type": "constructor"
    },
    {
      "inputs": [
        {
          "internalType": "address",
          "name": "target",
          "type": "address"
        },
        {
          "internalType": "bool",
          "name": "success",
          "type": "bool"
        },
        {
          "internalType": "bytes",
          "name": "data",
          "type": "bytes"
        }
      ],
      "name": "ERC20CallFailed",
      "type": "error"
    },
    {
      "inputs": [],
      "name": "IllegalArgument",
      "type": "error"
    },
    {
      "inputs": [],
      "name": "IllegalState",
      "type": "error"
    },
    {
      "inputs": [],
      "name": "Unauthorized",
      "type": "error"
    },
    {
      "anonymous": false,
      "inputs": [
        {
          "indexed": false,
          "internalType": "address",
          "name": "admin",
          "type": "address"
        }
      ],
      "name": "AdminUpdated",
      "type": "event"
    },
    {
      "anonymous": false,
      "inputs": [
        {
          "indexed": true,
          "internalType": "address",
          "name": "sender",
          "type": "address"
        },
        {
          "indexed": true,
          "internalType": "address",
          "name": "recipient",
          "type": "address"
        },
        {
          "indexed": false,
          "internalType": "uint256",
          "name": "amount",
          "type": "uint256"
        }
      ],
      "name": "Claim",
      "type": "event"
    },
    {
      "anonymous": false,
      "inputs": [
        {
          "indexed": true,
          "internalType": "address",
          "name": "sender",
          "type": "address"
        },
        {
          "indexed": true,
          "internalType": "address",
          "name": "owner",
          "type": "address"
        },
        {
          "indexed": false,
          "internalType": "uint256",
          "name": "amount",
          "type": "uint256"
        }
      ],
      "name": "Deposit",
      "type": "event"
    },
    {
      "anonymous": false,
      "inputs": [
        {
          "indexed": true,
          "internalType": "address",
          "name": "sender",
          "type": "address"
        },
        {
          "indexed": false,
          "internalType": "uint256",
          "name": "amount",
          "type": "uint256"
        }
      ],
      "name": "Exchange",
      "type": "event"
    },
    {
      "anonymous": false,
      "inputs": [
        {
          "indexed": false,
          "internalType": "bool",
          "name": "flag",
          "type": "bool"
        }
      ],
      "name": "Paused",
      "type": "event"
    },
    {
      "anonymous": false,
      "inputs": [
        {
          "indexed": false,
          "internalType": "address",
          "name": "pendingAdmin",
          "type": "address"
        }
      ],
      "name": "PendingAdminUpdated",
      "type": "event"
    },
    {
      "anonymous": false,
      "inputs": [
        {
          "indexed": true,
          "internalType": "bytes32",
          "name": "role",
          "type": "bytes32"
        },
        {
          "indexed": true,
          "internalType": "bytes32",
          "name": "previousAdminRole",
          "type": "bytes32"
        },
        {
          "indexed": true,
          "internalType": "bytes32",
          "name": "newAdminRole",
          "type": "bytes32"
        }
      ],
      "name": "RoleAdminChanged",
      "type": "event"
    },
    {
      "anonymous": false,
      "inputs": [
        {
          "indexed": true,
          "internalType": "bytes32",
          "name": "role",
          "type": "bytes32"
        },
        {
          "indexed": true,
          "internalType": "address",
          "name": "account",
          "type": "address"
        },
        {
          "indexed": true,
          "internalType": "address",
          "name": "sender",
          "type": "address"
        }
      ],
      "name": "RoleGranted",
      "type": "event"
    },
    {
      "anonymous": false,
      "inputs": [
        {
          "indexed": true,
          "internalType": "bytes32",
          "name": "role",
          "type": "bytes32"
        },
        {
          "indexed": true,
          "internalType": "address",
          "name": "account",
          "type": "address"
        },
        {
          "indexed": true,
          "internalType": "address",
          "name": "sender",
          "type": "address"
        }
      ],
      "name": "RoleRevoked",
      "type": "event"
    },
    {
      "anonymous": false,
      "inputs": [
        {
          "indexed": true,
          "internalType": "address",
          "name": "sender",
          "type": "address"
        },
        {
          "indexed": true,
          "internalType": "address",
          "name": "recipient",
          "type": "address"
        },
        {
          "indexed": false,
          "internalType": "uint256",
          "name": "amount",
          "type": "uint256"
        }
      ],
      "name": "Withdraw",
      "type": "event"
    },
    {
      "inputs": [],
      "name": "ADMIN",
      "outputs": [
        {
          "internalType": "bytes32",
          "name": "",
          "type": "bytes32"
        }
      ],
      "stateMutability": "view",
      "type": "function"
    },
    {
      "inputs": [],
      "name": "DEFAULT_ADMIN_ROLE",
      "outputs": [
        {
          "internalType": "bytes32",
          "name": "",
          "type": "bytes32"
        }
      ],
      "stateMutability": "view",
      "type": "function"
    },
    {
      "inputs": [],
      "name": "SENTINEL",
      "outputs": [
        {
          "internalType": "bytes32",
          "name": "",
          "type": "bytes32"
        }
      ],
      "stateMutability": "view",
      "type": "function"
    },
    {
      "inputs": [],
      "name": "ZERO_ADDRESS",
      "outputs": [
        {
          "internalType": "address",
          "name": "",
          "type": "address"
        }
      ],
      "stateMutability": "view",
      "type": "function"
    },
    {
      "inputs": [],
      "name": "buffer",
      "outputs": [
        {
          "internalType": "address",
          "name": "",
          "type": "address"
        }
      ],
      "stateMutability": "view",
      "type": "function"
    },
    {
      "inputs": [
        {
          "internalType": "uint256",
          "name": "amount",
          "type": "uint256"
        },
        {
          "internalType": "address",
          "name": "recipient",
          "type": "address"
        }
      ],
      "name": "claim",
      "outputs": [],
      "stateMutability": "nonpayable",
      "type": "function"
    },
    {
      "inputs": [],
      "name": "conversionFactor",
      "outputs": [
        {
          "internalType": "uint256",
          "name": "",
          "type": "uint256"
        }
      ],
      "stateMutability": "view",
      "type": "function"
    },
    {
      "inputs": [
        {
          "internalType": "uint256",
          "name": "amount",
          "type": "uint256"
        },
        {
          "internalType": "address",
          "name": "owner",
          "type": "address"
        }
      ],
      "name": "deposit",
      "outputs": [],
      "stateMutability": "nonpayable",
      "type": "function"
    },
    {
      "inputs": [
        {
          "internalType": "uint256",
          "name": "amount",
          "type": "uint256"
        }
      ],
      "name": "exchange",
      "outputs": [],
      "stateMutability": "nonpayable",
      "type": "function"
    },
    {
      "inputs": [
        {
          "internalType": "address",
          "name": "owner",
          "type": "address"
        }
      ],
      "name": "getClaimableBalance",
      "outputs": [
        {
          "internalType": "uint256",
          "name": "claimableBalance",
          "type": "uint256"
        }
      ],
      "stateMutability": "view",
      "type": "function"
    },
    {
      "inputs": [
        {
          "internalType": "address",
          "name": "owner",
          "type": "address"
        }
      ],
      "name": "getExchangedBalance",
      "outputs": [
        {
          "internalType": "uint256",
          "name": "exchangedBalance",
          "type": "uint256"
        }
      ],
      "stateMutability": "view",
      "type": "function"
    },
    {
      "inputs": [
        {
          "internalType": "bytes32",
          "name": "role",
          "type": "bytes32"
        }
      ],
      "name": "getRoleAdmin",
      "outputs": [
        {
          "internalType": "bytes32",
          "name": "",
          "type": "bytes32"
        }
      ],
      "stateMutability": "view",
      "type": "function"
    },
    {
      "inputs": [
        {
          "internalType": "address",
          "name": "owner",
          "type": "address"
        }
      ],
      "name": "getUnexchangedBalance",
      "outputs": [
        {
          "internalType": "uint256",
          "name": "unexchangedBalance",
          "type": "uint256"
        }
      ],
      "stateMutability": "view",
      "type": "function"
    },
    {
      "inputs": [
        {
          "internalType": "bytes32",
          "name": "role",
          "type": "bytes32"
        },
        {
          "internalType": "address",
          "name": "account",
          "type": "address"
        }
      ],
      "name": "grantRole",
      "outputs": [],
      "stateMutability": "nonpayable",
      "type": "function"
    },
    {
      "inputs": [
        {
          "internalType": "bytes32",
          "name": "role",
          "type": "bytes32"
        },
        {
          "internalType": "address",
          "name": "account",
          "type": "address"
        }
      ],
      "name": "hasRole",
      "outputs": [
        {
          "internalType": "bool",
          "name": "",
          "type": "bool"
        }
      ],
      "stateMutability": "view",
      "type": "function"
    },
    {
      "inputs": [
        {
          "internalType": "address",
          "name": "_syntheticToken",
          "type": "address"
        },
        {
          "internalType": "address",
          "name": "_underlyingToken",
          "type": "address"
        },
        {
          "internalType": "address",
          "name": "_buffer",
          "type": "address"
        },
        {
          "internalType": "address",
          "name": "_whitelist",
          "type": "address"
        }
      ],
      "name": "initialize",
      "outputs": [],
      "stateMutability": "nonpayable",
      "type": "function"
    },
    {
      "inputs": [],
      "name": "isPaused",
      "outputs": [
        {
          "internalType": "bool",
          "name": "",
          "type": "bool"
        }
      ],
      "stateMutability": "view",
      "type": "function"
    },
    {
      "inputs": [
        {
          "internalType": "bytes32",
          "name": "role",
          "type": "bytes32"
        },
        {
          "internalType": "address",
          "name": "account",
          "type": "address"
        }
      ],
      "name": "renounceRole",
      "outputs": [],
      "stateMutability": "nonpayable",
      "type": "function"
    },
    {
      "inputs": [
        {
          "internalType": "bytes32",
          "name": "role",
          "type": "bytes32"
        },
        {
          "internalType": "address",
          "name": "account",
          "type": "address"
        }
      ],
      "name": "revokeRole",
      "outputs": [],
      "stateMutability": "nonpayable",
      "type": "function"
    },
    {
      "inputs": [
        {
          "internalType": "address",
          "name": "_newCollateralSource",
          "type": "address"
        }
      ],
      "name": "setCollateralSource",
      "outputs": [],
      "stateMutability": "nonpayable",
      "type": "function"
    },
    {
      "inputs": [
        {
          "internalType": "bool",
          "name": "pauseState",
          "type": "bool"
        }
      ],
      "name": "setPause",
      "outputs": [],
      "stateMutability": "nonpayable",
      "type": "function"
    },
    {
      "inputs": [
        {
          "internalType": "bytes4",
          "name": "interfaceId",
          "type": "bytes4"
        }
      ],
      "name": "supportsInterface",
      "outputs": [
        {
          "internalType": "bool",
          "name": "",
          "type": "bool"
        }
      ],
      "stateMutability": "view",
      "type": "function"
    },
    {
      "inputs": [],
      "name": "syntheticToken",
      "outputs": [
        {
          "internalType": "address",
          "name": "",
          "type": "address"
        }
      ],
      "stateMutability": "view",
      "type": "function"
    },
    {
      "inputs": [],
      "name": "totalBuffered",
      "outputs": [
        {
          "internalType": "uint256",
          "name": "",
          "type": "uint256"
        }
      ],
      "stateMutability": "view",
      "type": "function"
    },
    {
      "inputs": [],
      "name": "totalUnexchanged",
      "outputs": [
        {
          "internalType": "uint256",
          "name": "",
          "type": "uint256"
        }
      ],
      "stateMutability": "view",
      "type": "function"
    },
    {
      "inputs": [],
      "name": "underlyingToken",
      "outputs": [
        {
          "internalType": "address",
          "name": "",
          "type": "address"
        }
      ],
      "stateMutability": "view",
      "type": "function"
    },
    {
      "inputs": [],
      "name": "version",
      "outputs": [
        {
          "internalType": "string",
          "name": "",
          "type": "string"
        }
      ],
      "stateMutability": "view",
      "type": "function"
    },
    {
      "inputs": [],
      "name": "whitelist",
      "outputs": [
        {
          "internalType": "address",
          "name": "",
          "type": "address"
        }
      ],
      "stateMutability": "view",
      "type": "function"
    },
    {
      "inputs": [
        {
          "internalType": "uint256",
          "name": "amount",
          "type": "uint256"
        },
        {
          "internalType": "address",
          "name": "recipient",
          "type": "address"
        }
      ],
      "name": "withdraw",
      "outputs": [],
      "stateMutability": "nonpayable",
      "type": "function"
    }
  ],
  "bytecode": "0x60806040523480156200001157600080fd5b50600054610100900460ff166200002f5760005460ff161562000039565b62000039620000de565b620000a15760405162461bcd60e51b815260206004820152602e60248201527f496e697469616c697a61626c653a20636f6e747261637420697320616c72656160448201526d191e481a5b9a5d1a585b1a5e995960921b606482015260840160405180910390fd5b600054610100900460ff16158015620000c4576000805461ffff19166101011790555b8015620000d7576000805461ff00191690555b5062000102565b6000620000f630620000fc60201b62000df31760201c565b15905090565b3b151590565b61226680620001126000396000f3fe608060405234801561001057600080fd5b506004361061015e5760003560e01c8062f714ce1461016357806301ffc9a71461017857806306def802146101a057806308a56351146101c1578063248a9ca3146101d45780632495a599146101e75780632a0acc6a146102075780632f2ff15d1461021c57806336568abe1461022f57806352349b1714610242578063535565591461024b578063538ba4f91461025e57806354fd4d5014610266578063602631ef146102975780636e553f65146102a05780636fc12e9b146102b35780638230ecd6146102bc57806391d14854146102cf57806393e59dc1146102e2578063a217fddf146102f5578063b187bd26146102fd578063bedb86fb1461030a578063d547741f1461031d578063ddd5e1b214610330578063e061426d14610343578063e5c6554314610356578063edaafe2014610369578063f00cab4314610381578063f8c8765e14610396575b600080fd5b610176610171366004611ceb565b6103a9565b005b61018b610186366004611d17565b610480565b60405190151581526020015b60405180910390f35b6101b36101ae366004611d41565b6104b7565b604051908152602001610197565b6101766101cf366004611d41565b6104ca565b6101b36101e2366004611d5c565b6104fa565b60ca546101fa906001600160a01b031681565b6040516101979190611d75565b6101b36000805160206121f183398151915281565b61017661022a366004611ceb565b61050f565b61017661023d366004611ceb565b610531565b6101b360cc5481565b610176610259366004611d5c565b6105af565b6101fa600081565b61028a604051806040016040528060058152602001640322e322e360dc1b81525081565b6040516101979190611de1565b6101b360d55481565b6101766102ae366004611ceb565b6108db565b6101b360cb5481565b60c9546101fa906001600160a01b031681565b61018b6102dd366004611ceb565b610986565b60d4546101fa906001600160a01b031681565b6101b3600081565b60d35461018b9060ff1681565b610176610318366004611e05565b6109b1565b61017661032b366004611ceb565b610a55565b61017661033e366004611ceb565b610a72565b6101b3610351366004611d41565b610bab565b6101b3610364366004611d41565b610c14565b60d3546101fa9061010090046001600160a01b031681565b6101b360008051602061221183398151915281565b6101766103a4366004611e22565b610c1f565b600260015414156103d55760405162461bcd60e51b81526004016103cc90611e76565b60405180910390fd5b60026001556103e2610df9565b6104206040518060600160405280336001600160a01b0316815260200161040885610e8f565b61041190611ec3565b81526020016000815250610eb9565b60c954610437906001600160a01b031682846111e5565b6040518281526001600160a01b0382169033907f9b1bfa7fa9ee420a16e124f794c35ac9f90472acc99140eb2f6447c714cad8eb906020015b60405180910390a3505060018055565b60006001600160e01b03198216637965db0b60e01b14806104b157506301ffc9a760e01b6001600160e01b03198316145b92915050565b60006104b16104c5836112d5565b611348565b6104d2611358565b60d380546001600160a01b0390921661010002610100600160a81b0319909216919091179055565b60009081526097602052604090206001015490565b610518826104fa565b6105228133611370565b61052c83836113d4565b505050565b6001600160a01b03811633146105a15760405162461bcd60e51b815260206004820152602f60248201527f416363657373436f6e74726f6c3a2063616e206f6e6c792072656e6f756e636560448201526e103937b632b9903337b91039b2b63360891b60648201526084016103cc565b6105ab828261145a565b5050565b600260015414156105d25760405162461bcd60e51b81526004016103cc90611e76565b600260015560d35461010090046001600160a01b03163314610606576040516282b42960e81b815260040160405180910390fd5b60d35460ff161561062a57604051634a613c4160e01b815260040160405180910390fd5b6000610635826114c1565b905060cb5460001415610682578060cc60008282546106549190611ee0565b909155505060405182815233906000805160206121d18339815191529060200160405180910390a2506108d4565b60cf54600090815260ce60205260408120604080516060808201835260cb54825260d254602080840191825260d054848601908152855160e08101875290518152845181830152915182860152918101879052835191820190935260018401548152608083015291925060009060a081016106fc836114d1565b815260200161070b60006114d1565b815250905060cc54816060018181516107249190611ee0565b905250600060cc81905561073860ce6114f5565b90505b81511561083b5760608201516107505761083b565b81516000906107619060ce90611525565b905061078361077884606001518560200151611537565b608085015190611556565b608084019081526000606085015260408051602081019091526001830154815290516107ae91611581565b60a08401526107bf6012600a611fdc565b60a08401515110156107d1575061083b565b60405180602001604052806012600a6107ea9190611fdc565b60a0860151516107fa9190611fe8565b905260c08401819052815461080e916115a3565b60608401528054602084018051610826908390611fe8565b9052508251604084015260030154825261073b565b6080820151516001820155602082015183511461085b57602082015160cb555b816040015183602001511461087357604082015160d2555b815160408401511461088557815160d0555b6060820151156108ab57816060015160cc60008282546108a59190611ee0565b90915550505b60405186815233906000805160206121d18339815191529060200160405180910390a250505050505b5060018055565b600260015414156108fe5760405162461bcd60e51b81526004016103cc90611e76565b600260015561090b610df9565b6109316040518060600160405280836001600160a01b0316815260200161041185610e8f565b60c954610949906001600160a01b03163330856115b7565b6040518281526001600160a01b0382169033907f5548c837ab068cf56a2c2479df0882a4922fd203edb7517321831d95078c5f6290602001610470565b60009182526097602090815260408084206001600160a01b0393909316845291905290205460ff1690565b6109c960008051602061221183398151915233610986565b1580156109eb57506109e96000805160206121f183398151915233610986565b155b15610a08576040516282b42960e81b815260040160405180910390fd5b60d3805460ff191682151590811790915560405160ff909116151581527f0e2fb031ee032dc02d8011dc50b816eb450cf856abd8261680dac74f72165bd29060200160405180910390a150565b610a5e826104fa565b610a688133611370565b61052c838361145a565b60026001541415610a955760405162461bcd60e51b81526004016103cc90611e76565b6002600155610aa2610df9565b6040805160608101825233815260006020820152610add918101610acd610ac8866114c1565b610e8f565b610ad690611ec3565b9052610eb9565b60c954610afb906001600160a01b0316610af6846114c1565b6116b7565b60d35460ca54604051631a4ca37b60e21b81526001600160a01b0391821660048201526024810185905233604482015261010090920416906369328dec90606401600060405180830381600087803b158015610b5657600080fd5b505af1158015610b6a573d6000803e3d6000fd5b50506040518481526001600160a01b03841692503391507f70eb43c4a8ae8c40502dcf22436c509c28d6ff421cf07c491be56984bd98706890602001610470565b6001600160a01b038116600090815260cd6020526040812060d254600282015411610bd95750600092915050565b8054600282015460cf54919350600091610c00918591610bfb9160ce916117b7565b6115a3565b9050610c0c8184611fe8565b949350505050565b60006104b1826112d5565b600054610100900460ff16610c3a5760005460ff1615610c3e565b303b155b610ca15760405162461bcd60e51b815260206004820152602e60248201527f496e697469616c697a61626c653a20636f6e747261637420697320616c72656160448201526d191e481a5b9a5d1a585b1a5e995960921b60648201526084016103cc565b600054610100900460ff16158015610cc3576000805461ffff19166101011790555b610cdb6000805160206121f183398151915233611809565b610cf36000805160206121f183398151915280611813565b610d196000805160206122118339815191526000805160206121f1833981519152611813565b60c980546001600160a01b038088166001600160a01b0319928316811790935560ca805491881691909216179055600090610d5390611866565b60ca54909150600090610d6e906001600160a01b0316611866565b9050610d7a8183611fff565b610d8590600a612022565b60d55560d38054610100600160a81b0319166101006001600160a01b03881602179055610db260ce6114f5565b505060d3805460ff191690555060d480546001600160a01b0319166001600160a01b0384161790558015610dec576000805461ff00191690555b5050505050565b3b151590565b323314610e8d5760d454604051633af32abf60e01b81526001600160a01b0390911690633af32abf90610e30903390600401611d75565b602060405180830381865afa158015610e4d573d6000803e3d6000fd5b505050506040513d601f19601f82011682018060405250810190610e719190612031565b610e8d576040516282b42960e81b815260040160405180910390fd5b565b6000600160ff1b8210610eb557604051630134249960e71b815260040160405180910390fd5b5090565b80516001600160a01b0316600090815260cd6020908152604091829020825160a08101845281548152600182015481840190815260028301548286015260cb54606080840191825260cf5460808501528651908101875283518082529251958101959095525194840194909452909290919015801590610f3f5750816040015160d25410155b15610f5f57600081528151602082018051610f5b908390611ee0565b9052505b805115610fd2576000610f8e8260000151610bfb8560400151866080015160ce6117b79092919063ffffffff16565b90508082604001818151610fa29190611fe8565b905250815181908390610fb6908390611fe8565b905250602082018051829190610fcd908390611ee0565b905250505b610fe481604001518560200151611937565b604082015280516020850151610ffa9190611937565b8152602081015160408501516110109190611937565b602082015281518151608084015160408501519215801593921515929091141590600090849061103d5750825b8015611047575081155b90508015611093576000611069876040015160ce61152590919063ffffffff16565b805488519192509061107b9082611fe8565b875190915061108a9082611ee0565b90915550611181565b6000841580156110a05750835b806110b057508380156110b05750825b905060008580156110bf575084155b806110cf57508580156110cf5750835b905081156111265760006110f1896080015160ce61152590919063ffffffff16565b805490915061110b57608089015161110b9060ce906119a8565b87518154829060009061111f908490611ee0565b9091555050505b801561117e576000611146896040015160ce61152590919063ffffffff16565b905088600001518160000160008282546111609190611fe8565b9091555050805461117c57604089015161117c9060ce90611a00565b505b50505b845186511461118f57845187555b84602001518660200151146111a957602085015160018801555b84604001518660600151146111c157604085015160cb555b85608001518660400151146111db57608086015160028801555b5050505050505050565b604080516001600160a01b038481166024830152604480830185905283518084039091018152606490920183526020820180516001600160e01b031663a9059cbb60e01b1790529151600092839290871691611241919061204e565b6000604051808303816000865af19150503d806000811461127e576040519150601f19603f3d011682016040523d82523d6000602084013e611283565b606091505b50915091508115806112b157508051158015906112b15750808060200190518101906112af9190612031565b155b15610dec5784828260405163e7e40b5b60e01b81526004016103cc9392919061206a565b6001600160a01b038116600090815260cd6020526040812060d254600282015411611315576001810154815490925061130e9083611ee0565b9392505050565b60018101548154600283015460cf5492945060009261133c9291610bfb9160ce91906117b7565b9050610c0c8184611ee0565b600060d554826104b1919061209f565b610e716000805160206121f183398151915233610986565b61137a8282610986565b6105ab57611392816001600160a01b03166014611aa9565b61139d836020611aa9565b6040516020016113ae9291906120c1565b60408051601f198184030181529082905262461bcd60e51b82526103cc91600401611de1565b6113de8282610986565b6105ab5760008281526097602090815260408083206001600160a01b03851684529091529020805460ff191660011790556114163390565b6001600160a01b0316816001600160a01b0316837f2f8788117e7eff1d82e926ec794901d17c78024a50270940304540a733656f0d60405160405180910390a45050565b6114648282610986565b156105ab5760008281526097602090815260408083206001600160a01b0385168085529252808320805460ff1916905551339285917ff6391f5c32d9c69d2a47ea670b442974b53935d1edc7fd64eb21e047a839171b9190a45050565b600060d554826104b19190612130565b6114d9611cbc565b60405180602001604052806114ed84611c44565b905292915050565b600181018054600091826115088361214f565b909155505050600181015460009081526020919091526040902090565b60009081526020919091526040902090565b61153f611cbc565b600061154a846114d1565b9050610c0c8184611c5c565b61155e611cbc565b604080516020810190915282518451829161157891611ee0565b90529392505050565b611589611cbc565b604080516020810190915282518451829161157891611fe8565b600061130e6115b28385611c7f565b611ca2565b604080516001600160a01b0385811660248301528481166044830152606480830185905283518084039091018152608490920183526020820180516001600160e01b03166323b872dd60e01b179052915160009283929088169161161b919061204e565b6000604051808303816000865af19150503d8060008114611658576040519150601f19603f3d011682016040523d82523d6000602084013e61165d565b606091505b509150915081158061168b575080511580159061168b5750808060200190518101906116899190612031565b155b156116af5785828260405163e7e40b5b60e01b81526004016103cc9392919061206a565b505050505050565b600080836001600160a01b03166342966c6860e01b846040516024016116df91815260200190565b60408051601f198184030181529181526020820180516001600160e01b03166001600160e01b031990941693909317909252905161171d919061204e565b6000604051808303816000865af19150503d806000811461175a576040519150601f19603f3d011682016040523d82523d6000602084013e61175f565b606091505b509150915081158061178d575080511580159061178d57508080602001905181019061178b9190612031565b155b156117b15783828260405163e7e40b5b60e01b81526004016103cc9392919061206a565b50505050565b6117bf611cbc565b600083815260208581526040808320858452928190208151808401835260018086015482528351948501909352918101548352916117fd8183611581565b98975050505050505050565b6105ab82826113d4565b600061181e836104fa565b600084815260976020526040808220600101859055519192508391839186917fbd79b86ffe0ab8e8776151514217cd7cacd52c909f66475c3af44e129f0b00ff9190a4505050565b60408051600481526024810182526020810180516001600160e01b031663313ce56760e01b1790529051600091829182916001600160a01b038616916118ac919061204e565b600060405180830381855afa9150503d80600081146118e7576040519150601f19603f3d011682016040523d82523d6000602084013e6118ec565b606091505b50915091508115806118ff575060208151105b156119235783828260405163e7e40b5b60e01b81526004016103cc9392919061206a565b80806020019051810190610c0c919061216a565b60008082121561197b578261194b83611ec3565b6119559085611fe8565b9150811061197657604051630134249960e71b815260040160405180910390fd5b6104b1565b826119868382611ee0565b91508110156104b157604051630134249960e71b815260040160405180910390fd5b60028201546119c05760038201819055600290910155565b80826003015414156119d0575050565b60008181526020839052604080822060039485018054808552929093206002909101919091559092018190559055565b60008181526020839052604090206002830154821415611a2557600381015460028401555b8183600301541415611a3c57600281015460038401555b600281015415611a645760038082015460028301546000908152602086905260409020909101555b600381015415611a8c5760028082015460038301546000908152602086905260409020909101555b506000908152602091909152604081206003810182905560020155565b60606000611ab8836002612130565b611ac3906002611ee0565b6001600160401b03811115611ada57611ada61218d565b6040519080825280601f01601f191660200182016040528015611b04576020820181803683370190505b509050600360fc1b81600081518110611b1f57611b1f6121a3565b60200101906001600160f81b031916908160001a905350600f60fb1b81600181518110611b4e57611b4e6121a3565b60200101906001600160f81b031916908160001a9053506000611b72846002612130565b611b7d906001611ee0565b90505b6001811115611bf5576f181899199a1a9b1b9c1cb0b131b232b360811b85600f1660108110611bb157611bb16121a3565b1a60f81b828281518110611bc757611bc76121a3565b60200101906001600160f81b031916908160001a90535060049490941c93611bee816121b9565b9050611b80565b50831561130e5760405162461bcd60e51b815260206004820181905260248201527f537472696e67733a20686578206c656e67746820696e73756666696369656e7460448201526064016103cc565b6000611c526012600a611fdc565b6104b19083612130565b611c64611cbc565b6040518060200160405280838560000151611578919061209f565b611c87611cbc565b60405180602001604052808385600001516115789190612130565b6000611cb06012600a611fdc565b82516104b1919061209f565b6040518060200160405280600081525090565b80356001600160a01b0381168114611ce657600080fd5b919050565b60008060408385031215611cfe57600080fd5b82359150611d0e60208401611ccf565b90509250929050565b600060208284031215611d2957600080fd5b81356001600160e01b03198116811461130e57600080fd5b600060208284031215611d5357600080fd5b61130e82611ccf565b600060208284031215611d6e57600080fd5b5035919050565b6001600160a01b0391909116815260200190565b60005b83811015611da4578181015183820152602001611d8c565b838111156117b15750506000910152565b60008151808452611dcd816020860160208601611d89565b601f01601f19169290920160200192915050565b60208152600061130e6020830184611db5565b8015158114611e0257600080fd5b50565b600060208284031215611e1757600080fd5b813561130e81611df4565b60008060008060808587031215611e3857600080fd5b611e4185611ccf565b9350611e4f60208601611ccf565b9250611e5d60408601611ccf565b9150611e6b60608601611ccf565b905092959194509250565b6020808252601f908201527f5265656e7472616e637947756172643a207265656e7472616e742063616c6c00604082015260600190565b634e487b7160e01b600052601160045260246000fd5b6000600160ff1b821415611ed957611ed9611ead565b5060000390565b60008219821115611ef357611ef3611ead565b500190565b600181815b80851115611f33578160001904821115611f1957611f19611ead565b80851615611f2657918102915b93841c9390800290611efd565b509250929050565b600082611f4a575060016104b1565b81611f57575060006104b1565b8160018114611f6d5760028114611f7757611f93565b60019150506104b1565b60ff841115611f8857611f88611ead565b50506001821b6104b1565b5060208310610133831016604e8410600b8410161715611fb6575081810a6104b1565b611fc08383611ef8565b8060001904821115611fd457611fd4611ead565b029392505050565b600061130e8383611f3b565b600082821015611ffa57611ffa611ead565b500390565b600060ff821660ff84168082101561201957612019611ead565b90039392505050565b600061130e60ff841683611f3b565b60006020828403121561204357600080fd5b815161130e81611df4565b60008251612060818460208701611d89565b9190910192915050565b6001600160a01b0384168152821515602082015260606040820181905260009061209690830184611db5565b95945050505050565b6000826120bc57634e487b7160e01b600052601260045260246000fd5b500490565b76020b1b1b2b9b9a1b7b73a3937b61d1030b1b1b7bab73a1604d1b8152600083516120f3816017850160208801611d89565b7001034b99036b4b9b9b4b733903937b6329607d1b6017918401918201528351612124816028840160208801611d89565b01602801949350505050565b600081600019048311821515161561214a5761214a611ead565b500290565b600060001982141561216357612163611ead565b5060010190565b60006020828403121561217c57600080fd5b815160ff8116811461130e57600080fd5b634e487b7160e01b600052604160045260246000fd5b634e487b7160e01b600052603260045260246000fd5b6000816121c8576121c8611ead565b50600019019056fe5988e4c12f4844b895de0739f562558435dca9602fd8b970720ee3cf8dff39bedf8b4c520ffe197c5343c6f5aec59570151ef9a492f2c624fd45ddde6135ec42d3eedd6d69d410e954f4c622838ecc3acae9fdcd83cad412075c85b092770656a264697066735822122051cffbcbff61c6a01bfe31d631a85f039d1197dffd735ac30e99136e1ba0574564736f6c634300080b0033",
  "linkReferences": {},
  "deployedLinkReferences": {}
}