{
  "_format": "hh-sol-artifact-1",
  "contractName": "AlchemicTokenV2",
  "sourceName": "contracts/AlchemicTokenV2.sol",
  "abi": [
    {
      "inputs": [
        {
          "internalType": "string",
          "name": "_name",
          "type": "string"
        },
        {
          "internalType": "string",
          "name": "_symbol",
          "type": "string"
        },
        {
          "internalType": "uint256",
          "name": "_flashFee",
          "type": "uint256"
        }
      ],
      "stateMutability": "nonpayable",
      "type": "constructor"
    },
    {
      "inputs": [],
      "name": "IllegalArgument",
      "type": "error"
    },
    {
      "inputs": [],
      "name": "IllegalState",
      "type": "error"
    },
    {
      "inputs": [],
      "name": "Unauthorized",
      "type": "error"
    },
    {
      "anonymous": false,
      "inputs": [
        {
          "indexed": true,
          "internalType": "address",
          "name": "owner",
          "type": "address"
        },
        {
          "indexed": true,
          "internalType": "address",
          "name": "spender",
          "type": "address"
        },
        {
          "indexed": false,
          "internalType": "uint256",
          "name": "value",
          "type": "uint256"
        }
      ],
      "name": "Approval",
      "type": "event"
    },
    {
      "anonymous": false,
      "inputs": [
        {
          "indexed": false,
          "internalType": "address",
          "name": "minter",
          "type": "address"
        },
        {
          "indexed": false,
          "internalType": "bool",
          "name": "state",
          "type": "bool"
        }
      ],
      "name": "Paused",
      "type": "event"
    },
    {
      "anonymous": false,
      "inputs": [
        {
          "indexed": true,
          "internalType": "bytes32",
          "name": "role",
          "type": "bytes32"
        },
        {
          "indexed": true,
          "internalType": "bytes32",
          "name": "previousAdminRole",
          "type": "bytes32"
        },
        {
          "indexed": true,
          "internalType": "bytes32",
          "name": "newAdminRole",
          "type": "bytes32"
        }
      ],
      "name": "RoleAdminChanged",
      "type": "event"
    },
    {
      "anonymous": false,
      "inputs": [
        {
          "indexed": true,
          "internalType": "bytes32",
          "name": "role",
          "type": "bytes32"
        },
        {
          "indexed": true,
          "internalType": "address",
          "name": "account",
          "type": "address"
        },
        {
          "indexed": true,
          "internalType": "address",
          "name": "sender",
          "type": "address"
        }
      ],
      "name": "RoleGranted",
      "type": "event"
    },
    {
      "anonymous": false,
      "inputs": [
        {
          "indexed": true,
          "internalType": "bytes32",
          "name": "role",
          "type": "bytes32"
        },
        {
          "indexed": true,
          "internalType": "address",
          "name": "account",
          "type": "address"
        },
        {
          "indexed": true,
          "internalType": "address",
          "name": "sender",
          "type": "address"
        }
      ],
      "name": "RoleRevoked",
      "type": "event"
    },
    {
      "anonymous": false,
      "inputs": [
        {
          "indexed": false,
          "internalType": "uint256",
          "name": "fee",
          "type": "uint256"
        }
      ],
      "name": "SetFlashMintFee",
      "type": "event"
    },
    {
      "anonymous": false,
      "inputs": [
        {
          "indexed": true,
          "internalType": "address",
          "name": "from",
          "type": "address"
        },
        {
          "indexed": true,
          "internalType": "address",
          "name": "to",
          "type": "address"
        },
        {
          "indexed": false,
          "internalType": "uint256",
          "name": "value",
          "type": "uint256"
        }
      ],
      "name": "Transfer",
      "type": "event"
    },
    {
      "inputs": [],
      "name": "ADMIN_ROLE",
      "outputs": [
        {
          "internalType": "bytes32",
          "name": "",
          "type": "bytes32"
        }
      ],
      "stateMutability": "view",
      "type": "function"
    },
    {
      "inputs": [],
      "name": "BPS",
      "outputs": [
        {
          "internalType": "uint256",
          "name": "",
          "type": "uint256"
        }
      ],
      "stateMutability": "view",
      "type": "function"
    },
    {
      "inputs": [],
      "name": "CALLBACK_SUCCESS",
      "outputs": [
        {
          "internalType": "bytes32",
          "name": "",
          "type": "bytes32"
        }
      ],
      "stateMutability": "view",
      "type": "function"
    },
    {
      "inputs": [],
      "name": "DEFAULT_ADMIN_ROLE",
      "outputs": [
        {
          "internalType": "bytes32",
          "name": "",
          "type": "bytes32"
        }
      ],
      "stateMutability": "view",
      "type": "function"
    },
    {
      "inputs": [],
      "name": "SENTINEL_ROLE",
      "outputs": [
        {
          "internalType": "bytes32",
          "name": "",
          "type": "bytes32"
        }
      ],
      "stateMutability": "view",
      "type": "function"
    },
    {
      "inputs": [
        {
          "internalType": "address",
          "name": "owner",
          "type": "address"
        },
        {
          "internalType": "address",
          "name": "spender",
          "type": "address"
        }
      ],
      "name": "allowance",
      "outputs": [
        {
          "internalType": "uint256",
          "name": "",
          "type": "uint256"
        }
      ],
      "stateMutability": "view",
      "type": "function"
    },
    {
      "inputs": [
        {
          "internalType": "address",
          "name": "spender",
          "type": "address"
        },
        {
          "internalType": "uint256",
          "name": "amount",
          "type": "uint256"
        }
      ],
      "name": "approve",
      "outputs": [
        {
          "internalType": "bool",
          "name": "",
          "type": "bool"
        }
      ],
      "stateMutability": "nonpayable",
      "type": "function"
    },
    {
      "inputs": [
        {
          "internalType": "address",
          "name": "account",
          "type": "address"
        }
      ],
      "name": "balanceOf",
      "outputs": [
        {
          "internalType": "uint256",
          "name": "",
          "type": "uint256"
        }
      ],
      "stateMutability": "view",
      "type": "function"
    },
    {
      "inputs": [
        {
          "internalType": "uint256",
          "name": "amount",
          "type": "uint256"
        }
      ],
      "name": "burn",
      "outputs": [],
      "stateMutability": "nonpayable",
      "type": "function"
    },
    {
      "inputs": [
        {
          "internalType": "address",
          "name": "account",
          "type": "address"
        },
        {
          "internalType": "uint256",
          "name": "amount",
          "type": "uint256"
        }
      ],
      "name": "burnFrom",
      "outputs": [],
      "stateMutability": "nonpayable",
      "type": "function"
    },
    {
      "inputs": [],
      "name": "decimals",
      "outputs": [
        {
          "internalType": "uint8",
          "name": "",
          "type": "uint8"
        }
      ],
      "stateMutability": "view",
      "type": "function"
    },
    {
      "inputs": [
        {
          "internalType": "address",
          "name": "spender",
          "type": "address"
        },
        {
          "internalType": "uint256",
          "name": "subtractedValue",
          "type": "uint256"
        }
      ],
      "name": "decreaseAllowance",
      "outputs": [
        {
          "internalType": "bool",
          "name": "",
          "type": "bool"
        }
      ],
      "stateMutability": "nonpayable",
      "type": "function"
    },
    {
      "inputs": [
        {
          "internalType": "address",
          "name": "token",
          "type": "address"
        },
        {
          "internalType": "uint256",
          "name": "amount",
          "type": "uint256"
        }
      ],
      "name": "flashFee",
      "outputs": [
        {
          "internalType": "uint256",
          "name": "",
          "type": "uint256"
        }
      ],
      "stateMutability": "view",
      "type": "function"
    },
    {
      "inputs": [
        {
          "internalType": "contract IERC3156FlashBorrower",
          "name": "receiver",
          "type": "address"
        },
        {
          "internalType": "address",
          "name": "token",
          "type": "address"
        },
        {
          "internalType": "uint256",
          "name": "amount",
          "type": "uint256"
        },
        {
          "internalType": "bytes",
          "name": "data",
          "type": "bytes"
        }
      ],
      "name": "flashLoan",
      "outputs": [
        {
          "internalType": "bool",
          "name": "",
          "type": "bool"
        }
      ],
      "stateMutability": "nonpayable",
      "type": "function"
    },
    {
      "inputs": [],
      "name": "flashMintFee",
      "outputs": [
        {
          "internalType": "uint256",
          "name": "",
          "type": "uint256"
        }
      ],
      "stateMutability": "view",
      "type": "function"
    },
    {
      "inputs": [
        {
          "internalType": "bytes32",
          "name": "role",
          "type": "bytes32"
        }
      ],
      "name": "getRoleAdmin",
      "outputs": [
        {
          "internalType": "bytes32",
          "name": "",
          "type": "bytes32"
        }
      ],
      "stateMutability": "view",
      "type": "function"
    },
    {
      "inputs": [
        {
          "internalType": "bytes32",
          "name": "role",
          "type": "bytes32"
        },
        {
          "internalType": "address",
          "name": "account",
          "type": "address"
        }
      ],
      "name": "grantRole",
      "outputs": [],
      "stateMutability": "nonpayable",
      "type": "function"
    },
    {
      "inputs": [
        {
          "internalType": "bytes32",
          "name": "role",
          "type": "bytes32"
        },
        {
          "internalType": "address",
          "name": "account",
          "type": "address"
        }
      ],
      "name": "hasRole",
      "outputs": [
        {
          "internalType": "bool",
          "name": "",
          "type": "bool"
        }
      ],
      "stateMutability": "view",
      "type": "function"
    },
    {
      "inputs": [
        {
          "internalType": "address",
          "name": "spender",
          "type": "address"
        },
        {
          "internalType": "uint256",
          "name": "addedValue",
          "type": "uint256"
        }
      ],
      "name": "increaseAllowance",
      "outputs": [
        {
          "internalType": "bool",
          "name": "",
          "type": "bool"
        }
      ],
      "stateMutability": "nonpayable",
      "type": "function"
    },
    {
      "inputs": [
        {
          "internalType": "address",
          "name": "token",
          "type": "address"
        }
      ],
      "name": "maxFlashLoan",
      "outputs": [
        {
          "internalType": "uint256",
          "name": "",
          "type": "uint256"
        }
      ],
      "stateMutability": "view",
      "type": "function"
    },
    {
      "inputs": [],
      "name": "maxFlashLoanAmount",
      "outputs": [
        {
          "internalType": "uint256",
          "name": "",
          "type": "uint256"
        }
      ],
      "stateMutability": "view",
      "type": "function"
    },
    {
      "inputs": [
        {
          "internalType": "address",
          "name": "recipient",
          "type": "address"
        },
        {
          "internalType": "uint256",
          "name": "amount",
          "type": "uint256"
        }
      ],
      "name": "mint",
      "outputs": [],
      "stateMutability": "nonpayable",
      "type": "function"
    },
    {
      "inputs": [],
      "name": "name",
      "outputs": [
        {
          "internalType": "string",
          "name": "",
          "type": "string"
        }
      ],
      "stateMutability": "view",
      "type": "function"
    },
    {
      "inputs": [
        {
          "internalType": "address",
          "name": "minter",
          "type": "address"
        },
        {
          "internalType": "bool",
          "name": "state",
          "type": "bool"
        }
      ],
      "name": "pauseMinter",
      "outputs": [],
      "stateMutability": "nonpayable",
      "type": "function"
    },
    {
      "inputs": [
        {
          "internalType": "address",
          "name": "",
          "type": "address"
        }
      ],
      "name": "paused",
      "outputs": [
        {
          "internalType": "bool",
          "name": "",
          "type": "bool"
        }
      ],
      "stateMutability": "view",
      "type": "function"
    },
    {
      "inputs": [
        {
          "internalType": "bytes32",
          "name": "role",
          "type": "bytes32"
        },
        {
          "internalType": "address",
          "name": "account",
          "type": "address"
        }
      ],
      "name": "renounceRole",
      "outputs": [],
      "stateMutability": "nonpayable",
      "type": "function"
    },
    {
      "inputs": [
        {
          "internalType": "bytes32",
          "name": "role",
          "type": "bytes32"
        },
        {
          "internalType": "address",
          "name": "account",
          "type": "address"
        }
      ],
      "name": "revokeRole",
      "outputs": [],
      "stateMutability": "nonpayable",
      "type": "function"
    },
    {
      "inputs": [
        {
          "internalType": "uint256",
          "name": "newFee",
          "type": "uint256"
        }
      ],
      "name": "setFlashFee",
      "outputs": [],
      "stateMutability": "nonpayable",
      "type": "function"
    },
    {
      "inputs": [
        {
          "internalType": "uint256",
          "name": "_maxFlashLoanAmount",
          "type": "uint256"
        }
      ],
      "name": "setMaxFlashLoan",
      "outputs": [],
      "stateMutability": "nonpayable",
      "type": "function"
    },
    {
      "inputs": [
        {
          "internalType": "address",
          "name": "sentinel",
          "type": "address"
        }
      ],
      "name": "setSentinel",
      "outputs": [],
      "stateMutability": "nonpayable",
      "type": "function"
    },
    {
      "inputs": [
        {
          "internalType": "address",
          "name": "minter",
          "type": "address"
        },
        {
          "internalType": "bool",
          "name": "state",
          "type": "bool"
        }
      ],
      "name": "setWhitelist",
      "outputs": [],
      "stateMutability": "nonpayable",
      "type": "function"
    },
    {
      "inputs": [
        {
          "internalType": "bytes4",
          "name": "interfaceId",
          "type": "bytes4"
        }
      ],
      "name": "supportsInterface",
      "outputs": [
        {
          "internalType": "bool",
          "name": "",
          "type": "bool"
        }
      ],
      "stateMutability": "view",
      "type": "function"
    },
    {
      "inputs": [],
      "name": "symbol",
      "outputs": [
        {
          "internalType": "string",
          "name": "",
          "type": "string"
        }
      ],
      "stateMutability": "view",
      "type": "function"
    },
    {
      "inputs": [],
      "name": "totalSupply",
      "outputs": [
        {
          "internalType": "uint256",
          "name": "",
          "type": "uint256"
        }
      ],
      "stateMutability": "view",
      "type": "function"
    },
    {
      "inputs": [
        {
          "internalType": "address",
          "name": "recipient",
          "type": "address"
        },
        {
          "internalType": "uint256",
          "name": "amount",
          "type": "uint256"
        }
      ],
      "name": "transfer",
      "outputs": [
        {
          "internalType": "bool",
          "name": "",
          "type": "bool"
        }
      ],
      "stateMutability": "nonpayable",
      "type": "function"
    },
    {
      "inputs": [
        {
          "internalType": "address",
          "name": "sender",
          "type": "address"
        },
        {
          "internalType": "address",
          "name": "recipient",
          "type": "address"
        },
        {
          "internalType": "uint256",
          "name": "amount",
          "type": "uint256"
        }
      ],
      "name": "transferFrom",
      "outputs": [
        {
          "internalType": "bool",
          "name": "",
          "type": "bool"
        }
      ],
      "stateMutability": "nonpayable",
      "type": "function"
    },
    {
      "inputs": [
        {
          "internalType": "address",
          "name": "",
          "type": "address"
        }
      ],
      "name": "whitelisted",
      "outputs": [
        {
          "internalType": "bool",
          "name": "",
          "type": "bool"
        }
      ],
      "stateMutability": "view",
      "type": "function"
    }
  ],
  "bytecode": "0x60806040523480156200001157600080fd5b5060405162001e1c38038062001e1c833981016040819052620000349162000365565b6001805582518390839062000051906005906020850190620001f2565b50805162000067906006906020840190620001f2565b5050506200008b60008051602062001ddc83398151915233620000f760201b60201c565b620000a660008051602062001dfc83398151915233620000f7565b620000d060008051602062001dfc83398151915260008051602062001ddc83398151915262000107565b620000eb60008051602062001ddc8339815191528062000107565b60095550620004159050565b62000103828262000152565b5050565b600082815260208190526040808220600101805490849055905190918391839186917fbd79b86ffe0ab8e8776151514217cd7cacd52c909f66475c3af44e129f0b00ff9190a4505050565b6000828152602081815260408083206001600160a01b038516845290915290205460ff1662000103576000828152602081815260408083206001600160a01b03851684529091529020805460ff19166001179055620001ae3390565b6001600160a01b0316816001600160a01b0316837f2f8788117e7eff1d82e926ec794901d17c78024a50270940304540a733656f0d60405160405180910390a45050565b8280546200020090620003d8565b90600052602060002090601f0160209004810192826200022457600085556200026f565b82601f106200023f57805160ff19168380011785556200026f565b828001600101855582156200026f579182015b828111156200026f57825182559160200191906001019062000252565b506200027d92915062000281565b5090565b5b808211156200027d576000815560010162000282565b634e487b7160e01b600052604160045260246000fd5b600082601f830112620002c057600080fd5b81516001600160401b0380821115620002dd57620002dd62000298565b604051601f8301601f19908116603f0116810190828211818310171562000308576200030862000298565b816040528381526020925086838588010111156200032557600080fd5b600091505b838210156200034957858201830151818301840152908201906200032a565b838211156200035b5760008385830101525b9695505050505050565b6000806000606084860312156200037b57600080fd5b83516001600160401b03808211156200039357600080fd5b620003a187838801620002ae565b94506020860151915080821115620003b857600080fd5b50620003c786828701620002ae565b925050604084015190509250925092565b600181811c90821680620003ed57607f821691505b602082108114156200040f57634e487b7160e01b600052602260045260246000fd5b50919050565b6119b780620004256000396000f3fe608060405234801561001057600080fd5b50600436106101b75760003560e01c806301ffc9a7146101bc57806306fdde03146101e4578063095ea7b3146101f957806309dac0611461020c57806313430d921461022157806318160ddd1461024457806323b872dd1461024c578063248a9ca31461025f578063249d39e9146102725780632e48152c1461027b5780632f2ff15d1461029e578063313ce567146102b157806336568abe146102c057806339509351146102d357806340c10f19146102e657806342966c68146102f957806353d6fd591461030c5780635cffe9de1461031f578063613255ab1461033257806370a082311461034557806375b238fc1461036e57806379cc6790146103835780638237e53814610396578063907a267b146103ab57806391d14854146103be578063940a1dc0146103d157806395d89b41146103da578063a140edb4146103e2578063a217fddf146103eb578063a457c2d7146103f3578063a6beee4a14610406578063a9059cbb14610419578063d547741f1461042c578063d936547e1461043f578063d9d98ce414610462578063dd62ed3e14610475578063e68b14ff14610488575b600080fd5b6101cf6101ca3660046114a9565b61049b565b60405190151581526020015b60405180910390f35b6101ec6104d2565b6040516101db91906114ff565b6101cf610207366004611547565b610564565b61021f61021a366004611573565b61057a565b005b61023660008051602061196283398151915281565b6040519081526020016101db565b600454610236565b6101cf61025a366004611590565b6105c9565b61023661026d3660046115d1565b610678565b61023661271081565b6101cf610289366004611573565b60086020526000908152604090205460ff1681565b61021f6102ac3660046115ea565b61068d565b604051601281526020016101db565b61021f6102ce3660046115ea565b6106af565b6101cf6102e1366004611547565b61072d565b61021f6102f4366004611547565b610769565b61021f6103073660046115d1565b6107d3565b61021f61031a36600461161a565b6107dd565b6101cf61032d36600461164d565b61083c565b610236610340366004611573565b6109ca565b610236610353366004611573565b6001600160a01b031660009081526002602052604090205490565b61023660008051602061190283398151915281565b61021f610391366004611547565b6109ec565b61023660008051602061194283398151915281565b61021f6103b93660046115d1565b610a1a565b6101cf6103cc3660046115ea565b610a89565b61023660095481565b6101ec610ab2565b610236600a5481565b610236600081565b6101cf610401366004611547565b610ac1565b61021f6104143660046115d1565b610b5a565b6101cf610427366004611547565b610b93565b61021f61043a3660046115ea565b610ba0565b6101cf61044d366004611573565b60076020526000908152604090205460ff1681565b610236610470366004611547565b610bbd565b6102366104833660046116eb565b610c0a565b61021f61049636600461161a565b610c35565b60006001600160e01b03198216637965db0b60e01b14806104cc57506301ffc9a760e01b6001600160e01b03198316145b92915050565b6060600580546104e190611719565b80601f016020809104026020016040519081016040528092919081815260200182805461050d90611719565b801561055a5780601f1061052f5761010080835404028352916020019161055a565b820191906000526020600020905b81548152906001019060200180831161053d57829003601f168201915b5050505050905090565b6000610571338484610ccc565b50600192915050565b61059260008051602061190283398151915233610a89565b6105ae576040516282b42960e81b815260040160405180910390fd5b6105c660008051602061196283398151915282610df0565b50565b60006105d6848484610dfa565b6001600160a01b0384166000908152600360209081526040808320338452909152902054828110156106605760405162461bcd60e51b815260206004820152602860248201527f45524332303a207472616e7366657220616d6f756e74206578636565647320616044820152676c6c6f77616e636560c01b60648201526084015b60405180910390fd5b61066d8533858403610ccc565b506001949350505050565b60009081526020819052604090206001015490565b61069682610678565b6106a08133610fb8565b6106aa838361101c565b505050565b6001600160a01b038116331461071f5760405162461bcd60e51b815260206004820152602f60248201527f416363657373436f6e74726f6c3a2063616e206f6e6c792072656e6f756e636560448201526e103937b632b9903337b91039b2b63360891b6064820152608401610657565b61072982826110a0565b5050565b3360008181526003602090815260408083206001600160a01b0387168452909152812054909161057191859061076490869061176a565b610ccc565b3360009081526007602052604090205460ff16610798576040516282b42960e81b815260040160405180910390fd5b3360009081526008602052604090205460ff16156107c957604051634a613c4160e01b815260040160405180910390fd5b6107298282611105565b6105c633826111d2565b6107f560008051602061190283398151915233610a89565b610811576040516282b42960e81b815260040160405180910390fd5b6001600160a01b03919091166000908152600760205260409020805460ff1916911515919091179055565b6000600260015414156108915760405162461bcd60e51b815260206004820152601f60248201527f5265656e7472616e637947756172643a207265656e7472616e742063616c6c006044820152606401610657565b60026001556001600160a01b03851630146108bf57604051630134249960e71b815260040160405180910390fd5b6108c8856109ca565b8411156108e857604051630134249960e71b815260040160405180910390fd5b60006108f48686610bbd565b90506109008786611105565b6040516323e30c8b60e01b8152600080516020611942833981519152906001600160a01b038916906323e30c8b906109469033908b908b9088908c908c90600401611782565b6020604051808303816000875af1158015610965573d6000803e3d6000fd5b505050506040513d601f19601f8201168201806040525081019061098991906117de565b146109a757604051634a613c4160e01b815260040160405180910390fd5b6109ba876109b5838861176a565b6111d2565b5050600180805595945050505050565b60006001600160a01b03821630146109e457506000919050565b5050600a5490565b6000816109f98433610c0a565b610a0391906117f7565b9050610a10833383610ccc565b6106aa83836111d2565b610a3260008051602061190283398151915233610a89565b610a4e576040516282b42960e81b815260040160405180910390fd5b60098190556040518181527f2a870645d0d1cf8866b52d71ff02db01b3e1dc4b70f53e2c4e85dbe60969b92e9060200160405180910390a150565b6000918252602082815260408084206001600160a01b0393909316845291905290205460ff1690565b6060600680546104e190611719565b3360009081526003602090815260408083206001600160a01b038616845290915281205482811015610b435760405162461bcd60e51b815260206004820152602560248201527f45524332303a2064656372656173656420616c6c6f77616e63652062656c6f77604482015264207a65726f60d81b6064820152608401610657565b610b503385858403610ccc565b5060019392505050565b610b7260008051602061190283398151915233610a89565b610b8e576040516282b42960e81b815260040160405180910390fd5b600a55565b6000610571338484610dfa565b610ba982610678565b610bb38133610fb8565b6106aa83836110a0565b60006001600160a01b0383163014610be857604051630134249960e71b815260040160405180910390fd5b61271060095483610bf9919061180e565b610c03919061182d565b9392505050565b6001600160a01b03918216600090815260036020908152604080832093909416825291909152205490565b610c4d60008051602061196283398151915233610a89565b610c69576040516282b42960e81b815260040160405180910390fd5b6001600160a01b038216600081815260086020908152604091829020805460ff19168515159081179091558251938452908301527fe8699cf681560fd07de85543bd994263f4557bdc5179dd702f256d15fd083e1d910160405180910390a15050565b6001600160a01b038316610d2e5760405162461bcd60e51b8152602060048201526024808201527f45524332303a20617070726f76652066726f6d20746865207a65726f206164646044820152637265737360e01b6064820152608401610657565b6001600160a01b038216610d8f5760405162461bcd60e51b815260206004820152602260248201527f45524332303a20617070726f766520746f20746865207a65726f206164647265604482015261737360f01b6064820152608401610657565b6001600160a01b0383811660008181526003602090815260408083209487168084529482529182902085905590518481527f8c5be1e5ebec7d5bd14f71427d1e84f3dd0314c0f7b2291e5b200ac8c7c3b925910160405180910390a3505050565b610729828261101c565b6001600160a01b038316610e5e5760405162461bcd60e51b815260206004820152602560248201527f45524332303a207472616e736665722066726f6d20746865207a65726f206164604482015264647265737360d81b6064820152608401610657565b6001600160a01b038216610ec05760405162461bcd60e51b815260206004820152602360248201527f45524332303a207472616e7366657220746f20746865207a65726f206164647260448201526265737360e81b6064820152608401610657565b6001600160a01b03831660009081526002602052604090205481811015610f385760405162461bcd60e51b815260206004820152602660248201527f45524332303a207472616e7366657220616d6f756e7420657863656564732062604482015265616c616e636560d01b6064820152608401610657565b6001600160a01b03808516600090815260026020526040808220858503905591851681529081208054849290610f6f90849061176a565b92505081905550826001600160a01b0316846001600160a01b031660008051602061192283398151915284604051610fa991815260200190565b60405180910390a35b50505050565b610fc28282610a89565b61072957610fda816001600160a01b0316601461130e565b610fe583602061130e565b604051602001610ff692919061184f565b60408051601f198184030181529082905262461bcd60e51b8252610657916004016114ff565b6110268282610a89565b610729576000828152602081815260408083206001600160a01b03851684529091529020805460ff1916600117905561105c3390565b6001600160a01b0316816001600160a01b0316837f2f8788117e7eff1d82e926ec794901d17c78024a50270940304540a733656f0d60405160405180910390a45050565b6110aa8282610a89565b15610729576000828152602081815260408083206001600160a01b0385168085529252808320805460ff1916905551339285917ff6391f5c32d9c69d2a47ea670b442974b53935d1edc7fd64eb21e047a839171b9190a45050565b6001600160a01b03821661115b5760405162461bcd60e51b815260206004820152601f60248201527f45524332303a206d696e7420746f20746865207a65726f2061646472657373006044820152606401610657565b806004600082825461116d919061176a565b90915550506001600160a01b0382166000908152600260205260408120805483929061119a90849061176a565b90915550506040518181526001600160a01b038316906000906000805160206119228339815191529060200160405180910390a35050565b6001600160a01b0382166112325760405162461bcd60e51b815260206004820152602160248201527f45524332303a206275726e2066726f6d20746865207a65726f206164647265736044820152607360f81b6064820152608401610657565b6001600160a01b038216600090815260026020526040902054818110156112a65760405162461bcd60e51b815260206004820152602260248201527f45524332303a206275726e20616d6f756e7420657863656564732062616c616e604482015261636560f01b6064820152608401610657565b6001600160a01b03831660009081526002602052604081208383039055600480548492906112d59084906117f7565b90915550506040518281526000906001600160a01b038516906000805160206119228339815191529060200160405180910390a3505050565b6060600061131d83600261180e565b61132890600261176a565b6001600160401b0381111561133f5761133f6118be565b6040519080825280601f01601f191660200182016040528015611369576020820181803683370190505b509050600360fc1b81600081518110611384576113846118d4565b60200101906001600160f81b031916908160001a905350600f60fb1b816001815181106113b3576113b36118d4565b60200101906001600160f81b031916908160001a90535060006113d784600261180e565b6113e290600161176a565b90505b600181111561145a576f181899199a1a9b1b9c1cb0b131b232b360811b85600f1660108110611416576114166118d4565b1a60f81b82828151811061142c5761142c6118d4565b60200101906001600160f81b031916908160001a90535060049490941c93611453816118ea565b90506113e5565b508315610c035760405162461bcd60e51b815260206004820181905260248201527f537472696e67733a20686578206c656e67746820696e73756666696369656e746044820152606401610657565b6000602082840312156114bb57600080fd5b81356001600160e01b031981168114610c0357600080fd5b60005b838110156114ee5781810151838201526020016114d6565b83811115610fb25750506000910152565b602081526000825180602084015261151e8160408501602087016114d3565b601f01601f19169190910160400192915050565b6001600160a01b03811681146105c657600080fd5b6000806040838503121561155a57600080fd5b823561156581611532565b946020939093013593505050565b60006020828403121561158557600080fd5b8135610c0381611532565b6000806000606084860312156115a557600080fd5b83356115b081611532565b925060208401356115c081611532565b929592945050506040919091013590565b6000602082840312156115e357600080fd5b5035919050565b600080604083850312156115fd57600080fd5b82359150602083013561160f81611532565b809150509250929050565b6000806040838503121561162d57600080fd5b823561163881611532565b91506020830135801515811461160f57600080fd5b60008060008060006080868803121561166557600080fd5b853561167081611532565b9450602086013561168081611532565b93506040860135925060608601356001600160401b03808211156116a357600080fd5b818801915088601f8301126116b757600080fd5b8135818111156116c657600080fd5b8960208285010111156116d857600080fd5b9699959850939650602001949392505050565b600080604083850312156116fe57600080fd5b823561170981611532565b9150602083013561160f81611532565b600181811c9082168061172d57607f821691505b6020821081141561174e57634e487b7160e01b600052602260045260246000fd5b50919050565b634e487b7160e01b600052601160045260246000fd5b6000821982111561177d5761177d611754565b500190565b6001600160a01b03878116825286166020820152604081018590526060810184905260a06080820181905281018290526000828460c0840137600060c0848401015260c0601f19601f8501168301019050979650505050505050565b6000602082840312156117f057600080fd5b5051919050565b60008282101561180957611809611754565b500390565b600081600019048311821515161561182857611828611754565b500290565b60008261184a57634e487b7160e01b600052601260045260246000fd5b500490565b76020b1b1b2b9b9a1b7b73a3937b61d1030b1b1b7bab73a1604d1b8152600083516118818160178501602088016114d3565b7001034b99036b4b9b9b4b733903937b6329607d1b60179184019182015283516118b28160288401602088016114d3565b01602801949350505050565b634e487b7160e01b600052604160045260246000fd5b634e487b7160e01b600052603260045260246000fd5b6000816118f9576118f9611754565b50600019019056fedf8b4c520ffe197c5343c6f5aec59570151ef9a492f2c624fd45ddde6135ec42ddf252ad1be2c89b69c2b068fc378daa952ba7f163c4a11628f55a4df523b3ef439148f0bbc682ca079e46d6e2c2f0c1e3b820f1a291b069d8882abf8cf18dd9d3eedd6d69d410e954f4c622838ecc3acae9fdcd83cad412075c85b092770656a2646970667358221220076611f26dab0ce1a2e223ab6d800952feb2fdcc29a38eba5924981a36c5c34364736f6c634300080b0033df8b4c520ffe197c5343c6f5aec59570151ef9a492f2c624fd45ddde6135ec42d3eedd6d69d410e954f4c622838ecc3acae9fdcd83cad412075c85b092770656",
  "linkReferences": {},
  "deployedLinkReferences": {}
}